{
  "contractName": "EliteFloorCalculatorV1",
  "abi": [
    {
      "inputs": [
        {
          "internalType": "contract IERC20",
          "name": "_rootedToken",
          "type": "address"
        },
        {
          "internalType": "contract IPancakeFactory",
          "name": "_pancakeFactory",
          "type": "address"
        }
      ],
      "stateMutability": "nonpayable",
      "type": "constructor"
    },
    {
      "anonymous": false,
      "inputs": [
        {
          "indexed": true,
          "internalType": "address",
          "name": "previousOwner",
          "type": "address"
        },
        {
          "indexed": true,
          "internalType": "address",
          "name": "newOwner",
          "type": "address"
        }
      ],
      "name": "OwnershipTransferred",
      "type": "event"
    },
    {
      "inputs": [],
      "name": "claimOwnership",
      "outputs": [],
      "stateMutability": "nonpayable",
      "type": "function"
    },
    {
      "inputs": [],
      "name": "owner",
      "outputs": [
        {
          "internalType": "address",
          "name": "",
          "type": "address"
        }
      ],
      "stateMutability": "view",
      "type": "function"
    },
    {
      "inputs": [
        {
          "internalType": "contract IERC20",
          "name": "token",
          "type": "address"
        }
      ],
      "name": "recoverTokens",
      "outputs": [],
      "stateMutability": "nonpayable",
      "type": "function"
    },
    {
      "inputs": [
        {
          "internalType": "address",
          "name": "newOwner",
          "type": "address"
        }
      ],
      "name": "transferOwnership",
      "outputs": [],
      "stateMutability": "nonpayable",
      "type": "function"
    },
    {
      "inputs": [
        {
          "internalType": "address",
          "name": "ignoredAddress",
          "type": "address"
        },
        {
          "internalType": "bool",
          "name": "add",
          "type": "bool"
        }
      ],
      "name": "setIgnoreAddresses",
      "outputs": [],
      "stateMutability": "nonpayable",
      "type": "function"
    },
    {
      "inputs": [
        {
          "internalType": "address",
          "name": "ignoredAddress",
          "type": "address"
        }
      ],
      "name": "isIgnoredAddress",
      "outputs": [
        {
          "internalType": "bool",
          "name": "",
          "type": "bool"
        }
      ],
      "stateMutability": "view",
      "type": "function"
    },
    {
      "inputs": [],
      "name": "ignoredAddressCount",
      "outputs": [
        {
          "internalType": "uint256",
          "name": "",
          "type": "uint256"
        }
      ],
      "stateMutability": "view",
      "type": "function"
    },
    {
      "inputs": [
        {
          "internalType": "uint256",
          "name": "index",
          "type": "uint256"
        }
      ],
      "name": "ignoredAddressAt",
      "outputs": [
        {
          "internalType": "address",
          "name": "",
          "type": "address"
        }
      ],
      "stateMutability": "view",
      "type": "function"
    },
    {
      "inputs": [],
      "name": "ignoredAddressesTotalBalance",
      "outputs": [
        {
          "internalType": "uint256",
          "name": "",
          "type": "uint256"
        }
      ],
      "stateMutability": "view",
      "type": "function"
    },
    {
      "inputs": [
        {
          "internalType": "contract IERC20",
          "name": "baseToken",
          "type": "address"
        },
        {
          "internalType": "contract IERC20",
          "name": "eliteToken",
          "type": "address"
        }
      ],
      "name": "calculateExcessInPools",
      "outputs": [
        {
          "internalType": "uint256",
          "name": "",
          "type": "uint256"
        }
      ],
      "stateMutability": "view",
      "type": "function"
    },
    {
      "inputs": [
        {
          "internalType": "contract IERC20",
          "name": "baseToken",
          "type": "address"
        },
        {
          "internalType": "contract IERC20",
          "name": "eliteToken",
          "type": "address"
        }
      ],
      "name": "calculateSubFloor",
      "outputs": [
        {
          "internalType": "uint256",
          "name": "",
          "type": "uint256"
        }
      ],
      "stateMutability": "view",
      "type": "function"
    }
  ],
  "bytecode": "0x60c0604052336000806101000a81548173ffffffffffffffffffffffffffffffffffffffff021916908373ffffffffffffffffffffffffffffffffffffffff16021790555034801561005057600080fd5b506040516127ea3803806127ea8339818101604052604081101561007357600080fd5b8101908080519060200190929190805190602001909291905050508173ffffffffffffffffffffffffffffffffffffffff1660808173ffffffffffffffffffffffffffffffffffffffff1660601b815250508073ffffffffffffffffffffffffffffffffffffffff1660a08173ffffffffffffffffffffffffffffffffffffffff1660601b81525050505060805160601c60a05160601c6126966101546000398061086452806108b3528061175652508061088552806108d4528061090a52806109c05280610a825280610cbc528061102f52806116a152506126966000f3fe608060405234801561001057600080fd5b50600436106100a95760003560e01c80638da5cb5b116100715780638da5cb5b146101ec5780639c151a0914610220578063aa33d15814610298578063ae76200f146102f0578063d870d9d114610340578063f2fde38b1461035e576100a9565b806316114acd146100ae5780631937efa8146100f25780631b58f7531461016a5780634e71e0c814610188578063664d962c14610192575b600080fd5b6100f0600480360360208110156100c457600080fd5b81019080803573ffffffffffffffffffffffffffffffffffffffff1690602001909291905050506103a2565b005b6101546004803603604081101561010857600080fd5b81019080803573ffffffffffffffffffffffffffffffffffffffff169060200190929190803573ffffffffffffffffffffffffffffffffffffffff169060200190929190505050610544565b6040518082815260200191505060405180910390f35b6101726106b2565b6040518082815260200191505060405180910390f35b6101906106c3565b005b6101d4600480360360208110156101a857600080fd5b81019080803573ffffffffffffffffffffffffffffffffffffffff16906020019092919050505061081b565b60405180821515815260200191505060405180910390f35b6101f4610838565b604051808273ffffffffffffffffffffffffffffffffffffffff16815260200191505060405180910390f35b6102826004803603604081101561023657600080fd5b81019080803573ffffffffffffffffffffffffffffffffffffffff169060200190929190803573ffffffffffffffffffffffffffffffffffffffff16906020019092919050505061085c565b6040518082815260200191505060405180910390f35b6102c4600480360360208110156102ae57600080fd5b8101908080359060200190929190505050610ef7565b604051808273ffffffffffffffffffffffffffffffffffffffff16815260200191505060405180910390f35b61033e6004803603604081101561030657600080fd5b81019080803573ffffffffffffffffffffffffffffffffffffffff169060200190929190803515159060200190929190505050610f14565b005b61034861100f565b6040518082815260200191505060405180910390f35b6103a06004803603602081101561037457600080fd5b81019080803573ffffffffffffffffffffffffffffffffffffffff169060200190929190505050611128565b005b60008054906101000a900473ffffffffffffffffffffffffffffffffffffffff1673ffffffffffffffffffffffffffffffffffffffff163373ffffffffffffffffffffffffffffffffffffffff1614610463576040517f08c379a000000000000000000000000000000000000000000000000000000000815260040180806020018281038252600a8152602001807f4f776e6572206f6e6c790000000000000000000000000000000000000000000081525060200191505060405180910390fd5b61046c8161122d565b61047557600080fd5b610541338273ffffffffffffffffffffffffffffffffffffffff166370a08231306040518263ffffffff1660e01b8152600401808273ffffffffffffffffffffffffffffffffffffffff16815260200191505060206040518083038186803b1580156104e057600080fd5b505afa1580156104f4573d6000803e3d6000fd5b505050506040513d602081101561050a57600080fd5b81019080805190602001909291905050508373ffffffffffffffffffffffffffffffffffffffff166112669092919063ffffffff16565b50565b600080610551848461085c565b905060006105e8828573ffffffffffffffffffffffffffffffffffffffff166318160ddd6040518163ffffffff1660e01b815260040160206040518083038186803b15801561059f57600080fd5b505afa1580156105b3573d6000803e3d6000fd5b505050506040513d60208110156105c957600080fd5b810190808051906020019092919050505061130890919063ffffffff16565b905060008573ffffffffffffffffffffffffffffffffffffffff166370a08231866040518263ffffffff1660e01b8152600401808273ffffffffffffffffffffffffffffffffffffffff16815260200191505060206040518083038186803b15801561065357600080fd5b505afa158015610667573d6000803e3d6000fd5b505050506040513d602081101561067d57600080fd5b810190808051906020019092919050505090508082106106a357600093505050506106ac565b81810393505050505b92915050565b60006106be6002611352565b905090565b3373ffffffffffffffffffffffffffffffffffffffff16600160009054906101000a900473ffffffffffffffffffffffffffffffffffffffff1673ffffffffffffffffffffffffffffffffffffffff161461071d57600080fd5b6000600160006101000a81548173ffffffffffffffffffffffffffffffffffffffff021916908373ffffffffffffffffffffffffffffffffffffffff1602179055503373ffffffffffffffffffffffffffffffffffffffff1660008054906101000a900473ffffffffffffffffffffffffffffffffffffffff1673ffffffffffffffffffffffffffffffffffffffff167f8be0079c531659141344cd1fd0a4f28419497f9722a3daafe3b4186f6b6457e060405160405180910390a3336000806101000a81548173ffffffffffffffffffffffffffffffffffffffff021916908373ffffffffffffffffffffffffffffffffffffffff160217905550565b600061083182600261136790919063ffffffff16565b9050919050565b60008054906101000a900473ffffffffffffffffffffffffffffffffffffffff1681565b6000806108aa7f00000000000000000000000000000000000000000000000000000000000000007f000000000000000000000000000000000000000000000000000000000000000085611397565b905060006108f97f00000000000000000000000000000000000000000000000000000000000000007f000000000000000000000000000000000000000000000000000000000000000087611397565b905060006109b761090861100f565b7f000000000000000000000000000000000000000000000000000000000000000073ffffffffffffffffffffffffffffffffffffffff166318160ddd6040518163ffffffff1660e01b815260040160206040518083038186803b15801561096e57600080fd5b505afa158015610982573d6000803e3d6000fd5b505050506040513d602081101561099857600080fd5b810190808051906020019092919050505061130890919063ffffffff16565b90506000610b507f000000000000000000000000000000000000000000000000000000000000000073ffffffffffffffffffffffffffffffffffffffff166370a08231856040518263ffffffff1660e01b8152600401808273ffffffffffffffffffffffffffffffffffffffff16815260200191505060206040518083038186803b158015610a4557600080fd5b505afa158015610a59573d6000803e3d6000fd5b505050506040513d6020811015610a6f57600080fd5b81019080805190602001909291905050507f000000000000000000000000000000000000000000000000000000000000000073ffffffffffffffffffffffffffffffffffffffff166370a08231876040518263ffffffff1660e01b8152600401808273ffffffffffffffffffffffffffffffffffffffff16815260200191505060206040518083038186803b158015610b0757600080fd5b505afa158015610b1b573d6000803e3d6000fd5b505050506040513d6020811015610b3157600080fd5b81019080805190602001909291905050506114b090919063ffffffff16565b90506000610ca98873ffffffffffffffffffffffffffffffffffffffff166370a08231866040518263ffffffff1660e01b8152600401808273ffffffffffffffffffffffffffffffffffffffff16815260200191505060206040518083038186803b158015610bbe57600080fd5b505afa158015610bd2573d6000803e3d6000fd5b505050506040513d6020811015610be857600080fd5b81019080805190602001909291905050508873ffffffffffffffffffffffffffffffffffffffff166370a08231886040518263ffffffff1660e01b8152600401808273ffffffffffffffffffffffffffffffffffffffff16815260200191505060206040518083038186803b158015610c6057600080fd5b505afa158015610c74573d6000803e3d6000fd5b505050506040513d6020811015610c8a57600080fd5b81019080805190602001909291905050506114b090919063ffffffff16565b90506000610d9883610d8a64e8d4a510007f000000000000000000000000000000000000000000000000000000000000000073ffffffffffffffffffffffffffffffffffffffff166370a082318b6040518263ffffffff1660e01b8152600401808273ffffffffffffffffffffffffffffffffffffffff16815260200191505060206040518083038186803b158015610d4157600080fd5b505afa158015610d55573d6000803e3d6000fd5b505050506040513d6020811015610d6b57600080fd5b810190808051906020019092919050505061153890919063ffffffff16565b6115be90919063ffffffff16565b90506000610e6783610e5964e8d4a510008c73ffffffffffffffffffffffffffffffffffffffff166370a082318c6040518263ffffffff1660e01b8152600401808273ffffffffffffffffffffffffffffffffffffffff16815260200191505060206040518083038186803b158015610e1057600080fd5b505afa158015610e24573d6000803e3d6000fd5b505050506040513d6020811015610e3a57600080fd5b810190808051906020019092919050505061153890919063ffffffff16565b6115be90919063ffffffff16565b90506000610e916002610e8384866114b090919063ffffffff16565b6115be90919063ffffffff16565b9050600064e8d4a5100090506000610eac8c8b858b8b611608565b90506000610ecf8e8b610ec8878761130890919063ffffffff16565b8c8c611608565b9050610ee481836114b090919063ffffffff16565b9b50505050505050505050505092915050565b6000610f0d82600261186990919063ffffffff16565b9050919050565b60008054906101000a900473ffffffffffffffffffffffffffffffffffffffff1673ffffffffffffffffffffffffffffffffffffffff163373ffffffffffffffffffffffffffffffffffffffff1614610fd5576040517f08c379a000000000000000000000000000000000000000000000000000000000815260040180806020018281038252600a8152602001807f4f776e6572206f6e6c790000000000000000000000000000000000000000000081525060200191505060405180910390fd5b8015610ff557610fef82600261188390919063ffffffff16565b5061100b565b6110098260026118b390919063ffffffff16565b505b5050565b6000806000905060005b6110236002611352565b811015611120576111117f000000000000000000000000000000000000000000000000000000000000000073ffffffffffffffffffffffffffffffffffffffff166370a0823161107d84600261186990919063ffffffff16565b6040518263ffffffff1660e01b8152600401808273ffffffffffffffffffffffffffffffffffffffff16815260200191505060206040518083038186803b1580156110c757600080fd5b505afa1580156110db573d6000803e3d6000fd5b505050506040513d60208110156110f157600080fd5b8101908080519060200190929190505050836114b090919063ffffffff16565b91508080600101915050611019565b508091505090565b60008054906101000a900473ffffffffffffffffffffffffffffffffffffffff1673ffffffffffffffffffffffffffffffffffffffff163373ffffffffffffffffffffffffffffffffffffffff16146111e9576040517f08c379a000000000000000000000000000000000000000000000000000000000815260040180806020018281038252600a8152602001807f4f776e6572206f6e6c790000000000000000000000000000000000000000000081525060200191505060405180910390fd5b80600160006101000a81548173ffffffffffffffffffffffffffffffffffffffff021916908373ffffffffffffffffffffffffffffffffffffffff16021790555050565b60003073ffffffffffffffffffffffffffffffffffffffff168273ffffffffffffffffffffffffffffffffffffffff1614159050919050565b6113038363a9059cbb60e01b8484604051602401808373ffffffffffffffffffffffffffffffffffffffff16815260200182815260200192505050604051602081830303815290604052907bffffffffffffffffffffffffffffffffffffffffffffffffffffffff19166020820180517bffffffffffffffffffffffffffffffffffffffffffffffffffffffff83818316178352505050506118e3565b505050565b600061134a83836040518060400160405280601e81526020017f536166654d6174683a207375627472616374696f6e206f766572666c6f7700008152506119d2565b905092915050565b600061136082600001611a92565b9050919050565b600061138f836000018373ffffffffffffffffffffffffffffffffffffffff1660001b611aa3565b905092915050565b60008060006113a68585611ac6565b91509150858282604051602001808373ffffffffffffffffffffffffffffffffffffffff1660601b81526014018273ffffffffffffffffffffffffffffffffffffffff1660601b8152601401925050506040516020818303038152906040528051906020012060405160200180807fff000000000000000000000000000000000000000000000000000000000000008152506001018373ffffffffffffffffffffffffffffffffffffffff1660601b8152601401828152602001807fc93158cffa5b575e32566e81e847754ce517f8fa988d3e25cf346d916216e06f815250602001925050506040516020818303038152906040528051906020012060001c925050509392505050565b60008082840190508381101561152e576040517f08c379a000000000000000000000000000000000000000000000000000000000815260040180806020018281038252601b8152602001807f536166654d6174683a206164646974696f6e206f766572666c6f77000000000081525060200191505060405180910390fd5b8091505092915050565b60008083141561154b57600090506115b8565b600082840290508284828161155c57fe5b04146115b3576040517f08c379a00000000000000000000000000000000000000000000000000000000081526004018080602001828103825260218152602001806125f06021913960400191505060405180910390fd5b809150505b92915050565b600061160083836040518060400160405280601a81526020017f536166654d6174683a206469766973696f6e206279207a65726f000000000000815250611c3d565b905092915050565b60008061164764e8d4a510006116398761162b878961130890919063ffffffff16565b61153890919063ffffffff16565b6115be90919063ffffffff16565b9050600080821115611798576060600267ffffffffffffffff8111801561166d57600080fd5b5060405190808252806020026020018201604052801561169c5781602001602082028036833780820191505090505b5090507f0000000000000000000000000000000000000000000000000000000000000000816000815181106116cd57fe5b602002602001019073ffffffffffffffffffffffffffffffffffffffff16908173ffffffffffffffffffffffffffffffffffffffff1681525050888160018151811061171557fe5b602002602001019073ffffffffffffffffffffffffffffffffffffffff16908173ffffffffffffffffffffffffffffffffffffffff1681525050606061177c7f00000000000000000000000000000000000000000000000000000000000000008584611d03565b90508060018151811061178b57fe5b6020026020010151925050505b60008873ffffffffffffffffffffffffffffffffffffffff166370a08231896040518263ffffffff1660e01b8152600401808273ffffffffffffffffffffffffffffffffffffffff16815260200191505060206040518083038186803b15801561180157600080fd5b505afa158015611815573d6000803e3d6000fd5b505050506040513d602081101561182b57600080fd5b810190808051906020019092919050505090508181116118515760009350505050611860565b60008282039050809450505050505b95945050505050565b60006118788360000183611e7b565b60001c905092915050565b60006118ab836000018373ffffffffffffffffffffffffffffffffffffffff1660001b611efe565b905092915050565b60006118db836000018373ffffffffffffffffffffffffffffffffffffffff1660001b611f6e565b905092915050565b6060611945826040518060400160405280602081526020017f5361666545524332303a206c6f772d6c6576656c2063616c6c206661696c65648152508573ffffffffffffffffffffffffffffffffffffffff166120569092919063ffffffff16565b90506000815111156119cd5780806020019051602081101561196657600080fd5b81019080805190602001909291905050506119cc576040517f08c379a000000000000000000000000000000000000000000000000000000000815260040180806020018281038252602a815260200180612611602a913960400191505060405180910390fd5b5b505050565b6000838311158290611a7f576040517f08c379a00000000000000000000000000000000000000000000000000000000081526004018080602001828103825283818151815260200191508051906020019080838360005b83811015611a44578082015181840152602081019050611a29565b50505050905090810190601f168015611a715780820380516001836020036101000a031916815260200191505b509250505060405180910390fd5b5060008385039050809150509392505050565b600081600001805490509050919050565b600080836001016000848152602001908152602001600020541415905092915050565b6000808273ffffffffffffffffffffffffffffffffffffffff168473ffffffffffffffffffffffffffffffffffffffff161415611b4e576040517f08c379a00000000000000000000000000000000000000000000000000000000081526004018080602001828103825260238152602001806125cd6023913960400191505060405180910390fd5b8273ffffffffffffffffffffffffffffffffffffffff168473ffffffffffffffffffffffffffffffffffffffff1610611b88578284611b8b565b83835b8092508193505050600073ffffffffffffffffffffffffffffffffffffffff168273ffffffffffffffffffffffffffffffffffffffff161415611c36576040517f08c379a000000000000000000000000000000000000000000000000000000000815260040180806020018281038252601c8152602001807f50616e63616b654c6962726172793a205a45524f5f414444524553530000000081525060200191505060405180910390fd5b9250929050565b60008083118290611ce9576040517f08c379a00000000000000000000000000000000000000000000000000000000081526004018080602001828103825283818151815260200191508051906020019080838360005b83811015611cae578082015181840152602081019050611c93565b50505050905090810190601f168015611cdb5780820380516001836020036101000a031916815260200191505b509250505060405180910390fd5b506000838581611cf557fe5b049050809150509392505050565b6060600282511015611d7d576040517f08c379a000000000000000000000000000000000000000000000000000000000815260040180806020018281038252601c8152602001807f50616e63616b654c6962726172793a20494e56414c49445f504154480000000081525060200191505060405180910390fd5b815167ffffffffffffffff81118015611d9557600080fd5b50604051908082528060200260200182016040528015611dc45781602001602082028036833780820191505090505b5090508281600081518110611dd557fe5b60200260200101818152505060005b6001835103811015611e7357600080611e2787868581518110611e0357fe5b6020026020010151876001870181518110611e1a57fe5b602002602001015161206e565b91509150611e49848481518110611e3a57fe5b602002602001015183836121a3565b846001850181518110611e5857fe5b60200260200101818152505050508080600101915050611de4565b509392505050565b600081836000018054905011611edc576040517f08c379a000000000000000000000000000000000000000000000000000000000815260040180806020018281038252602281526020018061255c6022913960400191505060405180910390fd5b826000018281548110611eeb57fe5b9060005260206000200154905092915050565b6000611f0a8383611aa3565b611f63578260000182908060018154018082558091505060019003906000526020600020016000909190919091505582600001805490508360010160008481526020019081526020016000208190555060019050611f68565b600090505b92915050565b6000808360010160008481526020019081526020016000205490506000811461204a5760006001820390506000600186600001805490500390506000866000018281548110611fb957fe5b9060005260206000200154905080876000018481548110611fd657fe5b906000526020600020018190555060018301876001016000838152602001908152602001600020819055508660000180548061200e57fe5b60019003818190600052602060002001600090559055866001016000878152602001908152602001600020600090556001945050505050612050565b60009150505b92915050565b606061206584846000856122d3565b90509392505050565b600080600061207d8585611ac6565b50905061208b868686611397565b5060008061209a888888611397565b73ffffffffffffffffffffffffffffffffffffffff16630902f1ac6040518163ffffffff1660e01b815260040160606040518083038186803b1580156120df57600080fd5b505afa1580156120f3573d6000803e3d6000fd5b505050506040513d606081101561210957600080fd5b81019080805190602001909291908051906020019092919080519060200190929190505050506dffffffffffffffffffffffffffff1691506dffffffffffffffffffffffffffff1691508273ffffffffffffffffffffffffffffffffffffffff168773ffffffffffffffffffffffffffffffffffffffff161461218d578082612190565b81815b8095508196505050505050935093915050565b60008084116121fd576040517f08c379a000000000000000000000000000000000000000000000000000000000815260040180806020018281038252602981526020018061257e6029913960400191505060405180910390fd5b60008311801561220d5750600082115b612262576040517f08c379a000000000000000000000000000000000000000000000000000000000815260040180806020018281038252602681526020018061263b6026913960400191505060405180910390fd5b60006122796103e68661153890919063ffffffff16565b90506000612290848361153890919063ffffffff16565b905060006122bb836122ad6103e88961153890919063ffffffff16565b6114b090919063ffffffff16565b90508082816122c657fe5b0493505050509392505050565b60608247101561232e576040517f08c379a00000000000000000000000000000000000000000000000000000000081526004018080602001828103825260268152602001806125a76026913960400191505060405180910390fd5b6123378561247c565b6123a9576040517f08c379a000000000000000000000000000000000000000000000000000000000815260040180806020018281038252601d8152602001807f416464726573733a2063616c6c20746f206e6f6e2d636f6e747261637400000081525060200191505060405180910390fd5b600060608673ffffffffffffffffffffffffffffffffffffffff1685876040518082805190602001908083835b602083106123f957805182526020820191506020810190506020830392506123d6565b6001836020036101000a03801982511681845116808217855250505050505090500191505060006040518083038185875af1925050503d806000811461245b576040519150601f19603f3d011682016040523d82523d6000602084013e612460565b606091505b509150915061247082828661248f565b92505050949350505050565b600080823b905060008111915050919050565b6060831561249f57829050612554565b6000835111156124b25782518084602001fd5b816040517f08c379a00000000000000000000000000000000000000000000000000000000081526004018080602001828103825283818151815260200191508051906020019080838360005b838110156125195780820151818401526020810190506124fe565b50505050905090810190601f1680156125465780820380516001836020036101000a031916815260200191505b509250505060405180910390fd5b939250505056fe456e756d657261626c655365743a20696e646578206f7574206f6620626f756e647350616e63616b654c6962726172793a20494e53554646494349454e545f494e5055545f414d4f554e54416464726573733a20696e73756666696369656e742062616c616e636520666f722063616c6c50616e63616b654c6962726172793a204944454e544943414c5f414444524553534553536166654d6174683a206d756c7469706c69636174696f6e206f766572666c6f775361666545524332303a204552433230206f7065726174696f6e20646964206e6f74207375636365656450616e63616b654c6962726172793a20494e53554646494349454e545f4c4951554944495459a26469706673582212200c2c78b5f90e2e8a2d4c24ca5f2f332f4c4a529eb0a223f9d3e316b61fea342964736f6c63430007040033",
  "immutableReferences": {
    "1434": [
      {
        "length": 32,
        "start": 2181
      },
      {
        "length": 32,
        "start": 2260
      },
      {
        "length": 32,
        "start": 2314
      },
      {
        "length": 32,
        "start": 2496
      },
      {
        "length": 32,
        "start": 2690
      },
      {
        "length": 32,
        "start": 3260
      },
      {
        "length": 32,
        "start": 4143
      },
      {
        "length": 32,
        "start": 5793
      }
    ],
    "1436": [
      {
        "length": 32,
        "start": 2148
      },
      {
        "length": 32,
        "start": 2227
      },
      {
        "length": 32,
        "start": 5974
      }
    ]
  },
  "source": "// SPDX-License-Identifier: U-U-U-UPPPPP!!!\r\npragma solidity ^0.7.4;\r\n\r\n/* ROOTKIT:\r\nA floor calculator to use with ERC31337 AMM pairs\r\nEnsures 100% of accessible funds are backed at all times\r\n*/\r\n\r\nimport \"./IFloorCalculator.sol\";\r\nimport \"./SafeMath.sol\";\r\nimport \"./PancakeLibrary.sol\";\r\nimport \"./IPancakeFactory.sol\";\r\nimport \"./TokensRecoverable.sol\";\r\nimport \"./EnumerableSet.sol\";\r\n\r\ncontract EliteFloorCalculatorV1 is IFloorCalculator, TokensRecoverable\r\n{\r\n    using SafeMath for uint256;\r\n    using EnumerableSet for EnumerableSet.AddressSet;\r\n\r\n    IERC20 immutable rootedToken;\r\n    IPancakeFactory immutable pancakeFactory;\r\n    EnumerableSet.AddressSet ignoredAddresses;\r\n\r\n    constructor(IERC20 _rootedToken, IPancakeFactory _pancakeFactory)\r\n    {\r\n        rootedToken = _rootedToken;\r\n        pancakeFactory = _pancakeFactory;\r\n    }    \r\n\r\n    function setIgnoreAddresses(address ignoredAddress, bool add) public ownerOnly()\r\n    {\r\n        if (add) \r\n        { \r\n            ignoredAddresses.add(ignoredAddress); \r\n        } \r\n        else \r\n        { \r\n            ignoredAddresses.remove(ignoredAddress); \r\n        }\r\n    }\r\n\r\n    function isIgnoredAddress(address ignoredAddress) public view returns (bool)\r\n    {\r\n        return ignoredAddresses.contains(ignoredAddress);\r\n    }\r\n\r\n    function ignoredAddressCount() public view returns (uint256)\r\n    {\r\n        return ignoredAddresses.length();\r\n    }\r\n\r\n    function ignoredAddressAt(uint256 index) public view returns (address)\r\n    {\r\n        return ignoredAddresses.at(index);\r\n    }\r\n\r\n    function ignoredAddressesTotalBalance() public view returns (uint256)\r\n    {\r\n        uint256 total = 0;\r\n        for (uint i = 0; i < ignoredAddresses.length(); i++) \r\n        {\r\n            total = total.add(rootedToken.balanceOf(ignoredAddresses.at(i)));\r\n        }\r\n\r\n        return total;\r\n    }\r\n\r\n    function calculateExcessInPool(IERC20 token, address pair, uint256 liquidityShare, uint256 rootedTokenTotalSupply, uint256 rootedTokenPoolsLiquidity) internal view returns (uint256)\r\n    {\r\n        uint256 freeRootedToken = (rootedTokenTotalSupply.sub(rootedTokenPoolsLiquidity)).mul(liquidityShare).div(1e12);\r\n\r\n        uint256 sellAllProceeds = 0;\r\n        if (freeRootedToken > 0) \r\n        {\r\n            address[] memory path = new address[](2);\r\n            path[0] = address(rootedToken);\r\n            path[1] = address(token);\r\n            uint256[] memory amountsOut = PancakeLibrary.getAmountsOut(address(pancakeFactory), freeRootedToken, path);\r\n            sellAllProceeds = amountsOut[1];\r\n        }\r\n\r\n        uint256 backingInPool = token.balanceOf(pair);\r\n        if (backingInPool <= sellAllProceeds) { return 0; }\r\n        uint256 excessInPool = backingInPool - sellAllProceeds;\r\n\r\n        return excessInPool;\r\n    }\r\n\r\n    function calculateExcessInPools(IERC20 baseToken, IERC20 eliteToken) public view returns (uint256)\r\n    {\r\n        address rootedElitePair = PancakeLibrary.pairFor(address(pancakeFactory), address(rootedToken), address(eliteToken));\r\n        address rootedBasePair = PancakeLibrary.pairFor(address(pancakeFactory), address(rootedToken), address(baseToken));   \r\n        \r\n        uint256 rootedTokenTotalSupply = rootedToken.totalSupply().sub(ignoredAddressesTotalBalance());\r\n        uint256 rootedTokenPoolsLiquidity = rootedToken.balanceOf(rootedElitePair).add(rootedToken.balanceOf(rootedBasePair));\r\n        uint256 baseTokenPoolsLiquidity = eliteToken.balanceOf(rootedElitePair).add(baseToken.balanceOf(rootedBasePair));\r\n\r\n        uint256 rootedLiquidityShareInElitePair = rootedToken.balanceOf(rootedElitePair).mul(1e12).div(rootedTokenPoolsLiquidity);\r\n        uint256 eliteLiquidityShareInElitePair = eliteToken.balanceOf(rootedElitePair).mul(1e12).div(baseTokenPoolsLiquidity);\r\n        uint256 avgLiquidityShareInElitePair = (rootedLiquidityShareInElitePair.add(eliteLiquidityShareInElitePair)).div(2);\r\n        uint256 one = 1e12;\r\n\r\n        uint256 excessInElitePool = calculateExcessInPool(eliteToken, rootedElitePair, avgLiquidityShareInElitePair, rootedTokenTotalSupply, rootedTokenPoolsLiquidity);\r\n        uint256 excessInBasePool = calculateExcessInPool(baseToken, rootedBasePair, (one).sub(avgLiquidityShareInElitePair), rootedTokenTotalSupply, rootedTokenPoolsLiquidity);\r\n        return excessInElitePool.add(excessInBasePool);\r\n    }\r\n\r\n    function calculateSubFloor(IERC20 baseToken, IERC20 eliteToken) public override view returns (uint256)\r\n    {        \r\n        uint256 excessInPools = calculateExcessInPools(baseToken, eliteToken);\r\n\r\n        uint256 requiredBacking = eliteToken.totalSupply().sub(excessInPools);\r\n        uint256 currentBacking = baseToken.balanceOf(address(eliteToken));\r\n        if (requiredBacking >= currentBacking) { return 0; }\r\n        return currentBacking - requiredBacking;\r\n    }\r\n}",
  "sourcePath": "G:/projects/degen-protocol/SH33P-contracts/contracts/EliteFloorCalculatorV1.sol",
  "compiler": {
    "name": "solc",
    "version": "0.7.4+commit.3f05b770.Emscripten.clang"
  },
  "schemaVersion": "3.4.1",
  "updatedAt": "2022-01-17T07:34:42.482Z",
  "devdoc": {
    "kind": "dev",
    "methods": {},
    "version": 1
  },
  "userdoc": {
    "kind": "user",
    "methods": {},
    "version": 1
  }
}