{
  "contractName": "EliteFloorCalculator",
  "abi": [
    {
      "inputs": [
        {
          "internalType": "contract IERC20",
          "name": "_rootedToken",
          "type": "address"
        },
        {
          "internalType": "contract IERC20",
          "name": "_eliteToken",
          "type": "address"
        },
        {
          "internalType": "contract IERC20",
          "name": "_baseToken",
          "type": "address"
        },
        {
          "internalType": "contract IPancakeFactory",
          "name": "_pancakeFactory",
          "type": "address"
        },
        {
          "internalType": "contract IPancakeRouter02",
          "name": "_pancakeRouter",
          "type": "address"
        }
      ],
      "stateMutability": "nonpayable",
      "type": "constructor"
    },
    {
      "anonymous": false,
      "inputs": [
        {
          "indexed": true,
          "internalType": "address",
          "name": "previousOwner",
          "type": "address"
        },
        {
          "indexed": true,
          "internalType": "address",
          "name": "newOwner",
          "type": "address"
        }
      ],
      "name": "OwnershipTransferred",
      "type": "event"
    },
    {
      "inputs": [],
      "name": "claimOwnership",
      "outputs": [],
      "stateMutability": "nonpayable",
      "type": "function"
    },
    {
      "inputs": [],
      "name": "owner",
      "outputs": [
        {
          "internalType": "address",
          "name": "",
          "type": "address"
        }
      ],
      "stateMutability": "view",
      "type": "function"
    },
    {
      "inputs": [
        {
          "internalType": "contract IERC20",
          "name": "token",
          "type": "address"
        }
      ],
      "name": "recoverTokens",
      "outputs": [],
      "stateMutability": "nonpayable",
      "type": "function"
    },
    {
      "inputs": [
        {
          "internalType": "address",
          "name": "newOwner",
          "type": "address"
        }
      ],
      "name": "transferOwnership",
      "outputs": [],
      "stateMutability": "nonpayable",
      "type": "function"
    },
    {
      "inputs": [
        {
          "internalType": "address",
          "name": "ignoredAddress",
          "type": "address"
        },
        {
          "internalType": "bool",
          "name": "add",
          "type": "bool"
        }
      ],
      "name": "setIgnoreAddresses",
      "outputs": [],
      "stateMutability": "nonpayable",
      "type": "function"
    },
    {
      "inputs": [
        {
          "internalType": "address",
          "name": "ignoredAddress",
          "type": "address"
        }
      ],
      "name": "isIgnoredAddress",
      "outputs": [
        {
          "internalType": "bool",
          "name": "",
          "type": "bool"
        }
      ],
      "stateMutability": "view",
      "type": "function"
    },
    {
      "inputs": [],
      "name": "ignoredAddressCount",
      "outputs": [
        {
          "internalType": "uint256",
          "name": "",
          "type": "uint256"
        }
      ],
      "stateMutability": "view",
      "type": "function"
    },
    {
      "inputs": [
        {
          "internalType": "uint256",
          "name": "index",
          "type": "uint256"
        }
      ],
      "name": "ignoredAddressAt",
      "outputs": [
        {
          "internalType": "address",
          "name": "",
          "type": "address"
        }
      ],
      "stateMutability": "view",
      "type": "function"
    },
    {
      "inputs": [],
      "name": "ignoredAddressesTotalBalance",
      "outputs": [
        {
          "internalType": "uint256",
          "name": "",
          "type": "uint256"
        }
      ],
      "stateMutability": "view",
      "type": "function"
    },
    {
      "inputs": [
        {
          "internalType": "contract IERC20",
          "name": "baseToken",
          "type": "address"
        },
        {
          "internalType": "contract IERC20",
          "name": "eliteToken",
          "type": "address"
        }
      ],
      "name": "calculateSubFloor",
      "outputs": [
        {
          "internalType": "uint256",
          "name": "",
          "type": "uint256"
        }
      ],
      "stateMutability": "view",
      "type": "function"
    }
  ],
  "bytecode": "0x610120604052336000806101000a81548173ffffffffffffffffffffffffffffffffffffffff021916908373ffffffffffffffffffffffffffffffffffffffff16021790555034801561005157600080fd5b50604051611d43380380611d43833981810160405260a081101561007457600080fd5b8101908080519060200190929190805190602001909291908051906020019092919080519060200190929190805190602001909291905050508473ffffffffffffffffffffffffffffffffffffffff1660808173ffffffffffffffffffffffffffffffffffffffff1660601b815250508173ffffffffffffffffffffffffffffffffffffffff166101008173ffffffffffffffffffffffffffffffffffffffff1660601b815250508073ffffffffffffffffffffffffffffffffffffffff1660e08173ffffffffffffffffffffffffffffffffffffffff1660601b815250508173ffffffffffffffffffffffffffffffffffffffff1663e6a4390585876040518363ffffffff1660e01b8152600401808373ffffffffffffffffffffffffffffffffffffffff1681526020018273ffffffffffffffffffffffffffffffffffffffff1681526020019250505060206040518083038186803b1580156101d857600080fd5b505afa1580156101ec573d6000803e3d6000fd5b505050506040513d602081101561020257600080fd5b810190808051906020019092919050505073ffffffffffffffffffffffffffffffffffffffff1660a08173ffffffffffffffffffffffffffffffffffffffff1660601b815250508173ffffffffffffffffffffffffffffffffffffffff1663e6a4390584876040518363ffffffff1660e01b8152600401808373ffffffffffffffffffffffffffffffffffffffff1681526020018273ffffffffffffffffffffffffffffffffffffffff1681526020019250505060206040518083038186803b1580156102ce57600080fd5b505afa1580156102e2573d6000803e3d6000fd5b505050506040513d60208110156102f857600080fd5b810190808051906020019092919050505073ffffffffffffffffffffffffffffffffffffffff1660c08173ffffffffffffffffffffffffffffffffffffffff1660601b81525050505050505060805160601c60a05160601c60c05160601c60e05160601c6101005160601c61199d6103a6600039508061090852508061050552806106be5250806105e752806107805250806104c952806105ab52806108475280610e2d525061199d6000f3fe608060405234801561001057600080fd5b506004361061009e5760003560e01c80638da5cb5b116100665780638da5cb5b146101e1578063aa33d15814610215578063ae76200f1461026d578063d870d9d1146102bd578063f2fde38b146102db5761009e565b806316114acd146100a35780631937efa8146100e75780631b58f7531461015f5780634e71e0c81461017d578063664d962c14610187575b600080fd5b6100e5600480360360208110156100b957600080fd5b81019080803573ffffffffffffffffffffffffffffffffffffffff16906020019092919050505061031f565b005b610149600480360360408110156100fd57600080fd5b81019080803573ffffffffffffffffffffffffffffffffffffffff169060200190929190803573ffffffffffffffffffffffffffffffffffffffff1690602001909291905050506104c1565b6040518082815260200191505060405180910390f35b610167610b4b565b6040518082815260200191505060405180910390f35b610185610b5c565b005b6101c96004803603602081101561019d57600080fd5b81019080803573ffffffffffffffffffffffffffffffffffffffff169060200190929190505050610cb4565b60405180821515815260200191505060405180910390f35b6101e9610cd1565b604051808273ffffffffffffffffffffffffffffffffffffffff16815260200191505060405180910390f35b6102416004803603602081101561022b57600080fd5b8101908080359060200190929190505050610cf5565b604051808273ffffffffffffffffffffffffffffffffffffffff16815260200191505060405180910390f35b6102bb6004803603604081101561028357600080fd5b81019080803573ffffffffffffffffffffffffffffffffffffffff169060200190929190803515159060200190929190505050610d12565b005b6102c5610e0d565b6040518082815260200191505060405180910390f35b61031d600480360360208110156102f157600080fd5b81019080803573ffffffffffffffffffffffffffffffffffffffff169060200190929190505050610f26565b005b60008054906101000a900473ffffffffffffffffffffffffffffffffffffffff1673ffffffffffffffffffffffffffffffffffffffff163373ffffffffffffffffffffffffffffffffffffffff16146103e0576040517f08c379a000000000000000000000000000000000000000000000000000000000815260040180806020018281038252600a8152602001807f4f776e6572206f6e6c790000000000000000000000000000000000000000000081525060200191505060405180910390fd5b6103e98161102b565b6103f257600080fd5b6104be338273ffffffffffffffffffffffffffffffffffffffff166370a08231306040518263ffffffff1660e01b8152600401808273ffffffffffffffffffffffffffffffffffffffff16815260200191505060206040518083038186803b15801561045d57600080fd5b505afa158015610471573d6000803e3d6000fd5b505050506040513d602081101561048757600080fd5b81019080805190602001909291905050508373ffffffffffffffffffffffffffffffffffffffff166110649092919063ffffffff16565b50565b6000806106997f000000000000000000000000000000000000000000000000000000000000000073ffffffffffffffffffffffffffffffffffffffff166370a082317f00000000000000000000000000000000000000000000000000000000000000006040518263ffffffff1660e01b8152600401808273ffffffffffffffffffffffffffffffffffffffff16815260200191505060206040518083038186803b15801561056e57600080fd5b505afa158015610582573d6000803e3d6000fd5b505050506040513d602081101561059857600080fd5b81019080805190602001909291905050507f000000000000000000000000000000000000000000000000000000000000000073ffffffffffffffffffffffffffffffffffffffff166370a082317f00000000000000000000000000000000000000000000000000000000000000006040518263ffffffff1660e01b8152600401808273ffffffffffffffffffffffffffffffffffffffff16815260200191505060206040518083038186803b15801561065057600080fd5b505afa158015610664573d6000803e3d6000fd5b505050506040513d602081101561067a57600080fd5b810190808051906020019092919050505061110690919063ffffffff16565b905060006108328573ffffffffffffffffffffffffffffffffffffffff166370a082317f00000000000000000000000000000000000000000000000000000000000000006040518263ffffffff1660e01b8152600401808273ffffffffffffffffffffffffffffffffffffffff16815260200191505060206040518083038186803b15801561072757600080fd5b505afa15801561073b573d6000803e3d6000fd5b505050506040513d602081101561075157600080fd5b81019080805190602001909291905050508573ffffffffffffffffffffffffffffffffffffffff166370a082317f00000000000000000000000000000000000000000000000000000000000000006040518263ffffffff1660e01b8152600401808273ffffffffffffffffffffffffffffffffffffffff16815260200191505060206040518083038186803b1580156107e957600080fd5b505afa1580156107fd573d6000803e3d6000fd5b505050506040513d602081101561081357600080fd5b810190808051906020019092919050505061110690919063ffffffff16565b90506000610902610841610e0d565b6108f4857f000000000000000000000000000000000000000000000000000000000000000073ffffffffffffffffffffffffffffffffffffffff166318160ddd6040518163ffffffff1660e01b815260040160206040518083038186803b1580156108ab57600080fd5b505afa1580156108bf573d6000803e3d6000fd5b505050506040513d60208110156108d557600080fd5b810190808051906020019092919050505061118e90919063ffffffff16565b61118e90919063ffffffff16565b905060007f000000000000000000000000000000000000000000000000000000000000000073ffffffffffffffffffffffffffffffffffffffff1663054d50d48386866040518463ffffffff1660e01b815260040180848152602001838152602001828152602001935050505060206040518083038186803b15801561098757600080fd5b505afa15801561099b573d6000803e3d6000fd5b505050506040513d60208110156109b157600080fd5b8101908080519060200190929190505050905060006109d9828561118e90919063ffffffff16565b90506000610b118973ffffffffffffffffffffffffffffffffffffffff166370a082318a6040518263ffffffff1660e01b8152600401808273ffffffffffffffffffffffffffffffffffffffff16815260200191505060206040518083038186803b158015610a4757600080fd5b505afa158015610a5b573d6000803e3d6000fd5b505050506040513d6020811015610a7157600080fd5b81019080805190602001909291905050508973ffffffffffffffffffffffffffffffffffffffff166318160ddd6040518163ffffffff1660e01b815260040160206040518083038186803b158015610ac857600080fd5b505afa158015610adc573d6000803e3d6000fd5b505050506040513d6020811015610af257600080fd5b810190808051906020019092919050505061118e90919063ffffffff16565b9050818110610b295760009650505050505050610b45565b610b3c818361118e90919063ffffffff16565b96505050505050505b92915050565b6000610b5760026111d8565b905090565b3373ffffffffffffffffffffffffffffffffffffffff16600160009054906101000a900473ffffffffffffffffffffffffffffffffffffffff1673ffffffffffffffffffffffffffffffffffffffff1614610bb657600080fd5b6000600160006101000a81548173ffffffffffffffffffffffffffffffffffffffff021916908373ffffffffffffffffffffffffffffffffffffffff1602179055503373ffffffffffffffffffffffffffffffffffffffff1660008054906101000a900473ffffffffffffffffffffffffffffffffffffffff1673ffffffffffffffffffffffffffffffffffffffff167f8be0079c531659141344cd1fd0a4f28419497f9722a3daafe3b4186f6b6457e060405160405180910390a3336000806101000a81548173ffffffffffffffffffffffffffffffffffffffff021916908373ffffffffffffffffffffffffffffffffffffffff160217905550565b6000610cca8260026111ed90919063ffffffff16565b9050919050565b60008054906101000a900473ffffffffffffffffffffffffffffffffffffffff1681565b6000610d0b82600261121d90919063ffffffff16565b9050919050565b60008054906101000a900473ffffffffffffffffffffffffffffffffffffffff1673ffffffffffffffffffffffffffffffffffffffff163373ffffffffffffffffffffffffffffffffffffffff1614610dd3576040517f08c379a000000000000000000000000000000000000000000000000000000000815260040180806020018281038252600a8152602001807f4f776e6572206f6e6c790000000000000000000000000000000000000000000081525060200191505060405180910390fd5b8015610df357610ded82600261123790919063ffffffff16565b50610e09565b610e0782600261126790919063ffffffff16565b505b5050565b6000806000905060005b610e2160026111d8565b811015610f1e57610f0f7f000000000000000000000000000000000000000000000000000000000000000073ffffffffffffffffffffffffffffffffffffffff166370a08231610e7b84600261121d90919063ffffffff16565b6040518263ffffffff1660e01b8152600401808273ffffffffffffffffffffffffffffffffffffffff16815260200191505060206040518083038186803b158015610ec557600080fd5b505afa158015610ed9573d6000803e3d6000fd5b505050506040513d6020811015610eef57600080fd5b81019080805190602001909291905050508361110690919063ffffffff16565b91508080600101915050610e17565b508091505090565b60008054906101000a900473ffffffffffffffffffffffffffffffffffffffff1673ffffffffffffffffffffffffffffffffffffffff163373ffffffffffffffffffffffffffffffffffffffff1614610fe7576040517f08c379a000000000000000000000000000000000000000000000000000000000815260040180806020018281038252600a8152602001807f4f776e6572206f6e6c790000000000000000000000000000000000000000000081525060200191505060405180910390fd5b80600160006101000a81548173ffffffffffffffffffffffffffffffffffffffff021916908373ffffffffffffffffffffffffffffffffffffffff16021790555050565b60003073ffffffffffffffffffffffffffffffffffffffff168273ffffffffffffffffffffffffffffffffffffffff1614159050919050565b6111018363a9059cbb60e01b8484604051602401808373ffffffffffffffffffffffffffffffffffffffff16815260200182815260200192505050604051602081830303815290604052907bffffffffffffffffffffffffffffffffffffffffffffffffffffffff19166020820180517bffffffffffffffffffffffffffffffffffffffffffffffffffffffff8381831617835250505050611297565b505050565b600080828401905083811015611184576040517f08c379a000000000000000000000000000000000000000000000000000000000815260040180806020018281038252601b8152602001807f536166654d6174683a206164646974696f6e206f766572666c6f77000000000081525060200191505060405180910390fd5b8091505092915050565b60006111d083836040518060400160405280601e81526020017f536166654d6174683a207375627472616374696f6e206f766572666c6f770000815250611386565b905092915050565b60006111e682600001611446565b9050919050565b6000611215836000018373ffffffffffffffffffffffffffffffffffffffff1660001b611457565b905092915050565b600061122c836000018361147a565b60001c905092915050565b600061125f836000018373ffffffffffffffffffffffffffffffffffffffff1660001b6114fd565b905092915050565b600061128f836000018373ffffffffffffffffffffffffffffffffffffffff1660001b61156d565b905092915050565b60606112f9826040518060400160405280602081526020017f5361666545524332303a206c6f772d6c6576656c2063616c6c206661696c65648152508573ffffffffffffffffffffffffffffffffffffffff166116559092919063ffffffff16565b90506000815111156113815780806020019051602081101561131a57600080fd5b8101908080519060200190929190505050611380576040517f08c379a000000000000000000000000000000000000000000000000000000000815260040180806020018281038252602a81526020018061193e602a913960400191505060405180910390fd5b5b505050565b6000838311158290611433576040517f08c379a00000000000000000000000000000000000000000000000000000000081526004018080602001828103825283818151815260200191508051906020019080838360005b838110156113f85780820151818401526020810190506113dd565b50505050905090810190601f1680156114255780820380516001836020036101000a031916815260200191505b509250505060405180910390fd5b5060008385039050809150509392505050565b600081600001805490509050919050565b600080836001016000848152602001908152602001600020541415905092915050565b6000818360000180549050116114db576040517f08c379a00000000000000000000000000000000000000000000000000000000081526004018080602001828103825260228152602001806118f66022913960400191505060405180910390fd5b8260000182815481106114ea57fe5b9060005260206000200154905092915050565b60006115098383611457565b611562578260000182908060018154018082558091505060019003906000526020600020016000909190919091505582600001805490508360010160008481526020019081526020016000208190555060019050611567565b600090505b92915050565b6000808360010160008481526020019081526020016000205490506000811461164957600060018203905060006001866000018054905003905060008660000182815481106115b857fe5b90600052602060002001549050808760000184815481106115d557fe5b906000526020600020018190555060018301876001016000838152602001908152602001600020819055508660000180548061160d57fe5b6001900381819060005260206000200160009055905586600101600087815260200190815260200160002060009055600194505050505061164f565b60009150505b92915050565b6060611664848460008561166d565b90509392505050565b6060824710156116c8576040517f08c379a00000000000000000000000000000000000000000000000000000000081526004018080602001828103825260268152602001806119186026913960400191505060405180910390fd5b6116d185611816565b611743576040517f08c379a000000000000000000000000000000000000000000000000000000000815260040180806020018281038252601d8152602001807f416464726573733a2063616c6c20746f206e6f6e2d636f6e747261637400000081525060200191505060405180910390fd5b600060608673ffffffffffffffffffffffffffffffffffffffff1685876040518082805190602001908083835b602083106117935780518252602082019150602081019050602083039250611770565b6001836020036101000a03801982511681845116808217855250505050505090500191505060006040518083038185875af1925050503d80600081146117f5576040519150601f19603f3d011682016040523d82523d6000602084013e6117fa565b606091505b509150915061180a828286611829565b92505050949350505050565b600080823b905060008111915050919050565b60608315611839578290506118ee565b60008351111561184c5782518084602001fd5b816040517f08c379a00000000000000000000000000000000000000000000000000000000081526004018080602001828103825283818151815260200191508051906020019080838360005b838110156118b3578082015181840152602081019050611898565b50505050905090810190601f1680156118e05780820380516001836020036101000a031916815260200191505b509250505060405180910390fd5b939250505056fe456e756d657261626c655365743a20696e646578206f7574206f6620626f756e6473416464726573733a20696e73756666696369656e742062616c616e636520666f722063616c6c5361666545524332303a204552433230206f7065726174696f6e20646964206e6f742073756363656564a264697066735822122052b559bab4b4baa89c8f879b28f2c1db451bb2d39aef6cbd457cf2821426c32564736f6c63430007040033",
  "immutableReferences": {
    "1155": [
      {
        "length": 32,
        "start": 1225
      },
      {
        "length": 32,
        "start": 1451
      },
      {
        "length": 32,
        "start": 2119
      },
      {
        "length": 32,
        "start": 3629
      }
    ],
    "1157": [
      {
        "length": 32,
        "start": 1511
      },
      {
        "length": 32,
        "start": 1920
      }
    ],
    "1159": [
      {
        "length": 32,
        "start": 1285
      },
      {
        "length": 32,
        "start": 1726
      }
    ],
    "1161": [
      {
        "length": 32,
        "start": 2312
      }
    ]
  },
  "source": "// SPDX-License-Identifier: U-U-U-UPPPPP!!!\r\npragma solidity ^0.7.4;\r\n\r\n/* ROOTKIT:\r\nA floor calculator to use with ERC31337 AMM pairs\r\nEnsures 100% of accessible funds are backed at all times\r\n*/\r\n\r\nimport \"./IFloorCalculator.sol\";\r\nimport \"./SafeMath.sol\";\r\nimport \"./IPancakeRouter02.sol\";\r\nimport \"./IPancakeFactory.sol\";\r\nimport \"./TokensRecoverable.sol\";\r\nimport \"./EnumerableSet.sol\";\r\n\r\ncontract EliteFloorCalculator is IFloorCalculator, TokensRecoverable {\r\n    using SafeMath for uint256;\r\n    using EnumerableSet for EnumerableSet.AddressSet;\r\n\r\n    IERC20 immutable rootedToken;\r\n    address immutable rootedElitePair;\r\n    address immutable rootedBasePair;\r\n    IPancakeRouter02 immutable internal pancakeRouter;\r\n    IPancakeFactory immutable internal pancakeFactory;\r\n    EnumerableSet.AddressSet ignoredAddresses;\r\n\r\n    constructor(IERC20 _rootedToken, IERC20 _eliteToken, IERC20 _baseToken, IPancakeFactory _pancakeFactory, IPancakeRouter02 _pancakeRouter) {\r\n        rootedToken = _rootedToken;\r\n        pancakeFactory = _pancakeFactory;\r\n        pancakeRouter = _pancakeRouter;\r\n\r\n        rootedElitePair = _pancakeFactory.getPair(address(_eliteToken), address(_rootedToken));\r\n        rootedBasePair = _pancakeFactory.getPair(address(_baseToken), address(_rootedToken));\r\n    }    \r\n\r\n    function setIgnoreAddresses(address ignoredAddress, bool add) public ownerOnly() {\r\n        if (add) {\r\n            ignoredAddresses.add(ignoredAddress); \r\n        } else { \r\n            ignoredAddresses.remove(ignoredAddress); \r\n        }\r\n    }\r\n\r\n    function isIgnoredAddress(address ignoredAddress) public view returns (bool) {\r\n        return ignoredAddresses.contains(ignoredAddress);\r\n    }\r\n\r\n    function ignoredAddressCount() public view returns (uint256) {\r\n        return ignoredAddresses.length();\r\n    }\r\n\r\n    function ignoredAddressAt(uint256 index) public view returns (address) {\r\n        return ignoredAddresses.at(index);\r\n    }\r\n\r\n    function ignoredAddressesTotalBalance() public view returns (uint256) {\r\n        uint256 total = 0;\r\n        for (uint i = 0; i < ignoredAddresses.length(); i++) {\r\n            total = total.add(rootedToken.balanceOf(ignoredAddresses.at(i)));\r\n        }\r\n\r\n        return total;\r\n    }\r\n\r\n    function calculateSubFloor(IERC20 baseToken, IERC20 eliteToken) public override view returns (uint256) {\r\n        uint256 totalRootedInPairs = rootedToken.balanceOf(rootedElitePair).add(rootedToken.balanceOf(rootedBasePair));\r\n        uint256 totalBaseAndEliteInPairs = eliteToken.balanceOf(rootedElitePair).add(baseToken.balanceOf(rootedBasePair));\r\n        uint256 rootedCirculatingSupply = rootedToken.totalSupply().sub(totalRootedInPairs).sub(ignoredAddressesTotalBalance());\r\n        uint256 amountUntilFloor = pancakeRouter.getAmountOut(rootedCirculatingSupply, totalRootedInPairs, totalBaseAndEliteInPairs);\r\n        uint256 totalExcessInPools = totalBaseAndEliteInPairs.sub(amountUntilFloor);\r\n        uint256 previouslySwept = eliteToken.totalSupply().sub(baseToken.balanceOf(address(eliteToken)));\r\n        \r\n        if (previouslySwept >= totalExcessInPools) { return 0; }\r\n        return totalExcessInPools.sub(previouslySwept);\r\n    }\r\n}",
  "sourcePath": "G:/projects/degen-protocol/SH33P-contracts/contracts/EliteFloorCalculator.sol",
  "compiler": {
    "name": "solc",
    "version": "0.7.4+commit.3f05b770.Emscripten.clang"
  },
  "schemaVersion": "3.4.1",
  "updatedAt": "2022-01-17T07:34:42.475Z",
  "devdoc": {
    "kind": "dev",
    "methods": {},
    "version": 1
  },
  "userdoc": {
    "kind": "user",
    "methods": {},
    "version": 1
  }
}