{
  "contractName": "FeeSplitter",
  "abi": [
    {
      "inputs": [
        {
          "internalType": "address",
          "name": "_devAddress",
          "type": "address"
        },
        {
          "internalType": "address",
          "name": "_burnAddress",
          "type": "address"
        }
      ],
      "stateMutability": "nonpayable",
      "type": "constructor"
    },
    {
      "anonymous": false,
      "inputs": [
        {
          "indexed": true,
          "internalType": "address",
          "name": "previousOwner",
          "type": "address"
        },
        {
          "indexed": true,
          "internalType": "address",
          "name": "newOwner",
          "type": "address"
        }
      ],
      "name": "OwnershipTransferred",
      "type": "event"
    },
    {
      "inputs": [],
      "name": "burnAddress",
      "outputs": [
        {
          "internalType": "address",
          "name": "",
          "type": "address"
        }
      ],
      "stateMutability": "view",
      "type": "function",
      "constant": true
    },
    {
      "inputs": [
        {
          "internalType": "contract IGatedERC20",
          "name": "",
          "type": "address"
        }
      ],
      "name": "burnRates",
      "outputs": [
        {
          "internalType": "uint256",
          "name": "",
          "type": "uint256"
        }
      ],
      "stateMutability": "view",
      "type": "function",
      "constant": true
    },
    {
      "inputs": [],
      "name": "claimOwnership",
      "outputs": [],
      "stateMutability": "nonpayable",
      "type": "function"
    },
    {
      "inputs": [],
      "name": "deployerAddress",
      "outputs": [
        {
          "internalType": "address",
          "name": "",
          "type": "address"
        }
      ],
      "stateMutability": "view",
      "type": "function",
      "constant": true
    },
    {
      "inputs": [],
      "name": "devAddress",
      "outputs": [
        {
          "internalType": "address",
          "name": "",
          "type": "address"
        }
      ],
      "stateMutability": "view",
      "type": "function",
      "constant": true
    },
    {
      "inputs": [
        {
          "internalType": "contract IGatedERC20",
          "name": "",
          "type": "address"
        },
        {
          "internalType": "uint256",
          "name": "",
          "type": "uint256"
        }
      ],
      "name": "feeCollectors",
      "outputs": [
        {
          "internalType": "address",
          "name": "",
          "type": "address"
        }
      ],
      "stateMutability": "view",
      "type": "function",
      "constant": true
    },
    {
      "inputs": [
        {
          "internalType": "contract IGatedERC20",
          "name": "",
          "type": "address"
        },
        {
          "internalType": "uint256",
          "name": "",
          "type": "uint256"
        }
      ],
      "name": "feeRates",
      "outputs": [
        {
          "internalType": "uint256",
          "name": "",
          "type": "uint256"
        }
      ],
      "stateMutability": "view",
      "type": "function",
      "constant": true
    },
    {
      "inputs": [],
      "name": "owner",
      "outputs": [
        {
          "internalType": "address",
          "name": "",
          "type": "address"
        }
      ],
      "stateMutability": "view",
      "type": "function",
      "constant": true
    },
    {
      "inputs": [
        {
          "internalType": "contract IERC20",
          "name": "token",
          "type": "address"
        }
      ],
      "name": "recoverTokens",
      "outputs": [],
      "stateMutability": "nonpayable",
      "type": "function"
    },
    {
      "inputs": [
        {
          "internalType": "address",
          "name": "newOwner",
          "type": "address"
        }
      ],
      "name": "transferOwnership",
      "outputs": [],
      "stateMutability": "nonpayable",
      "type": "function"
    },
    {
      "inputs": [
        {
          "internalType": "address",
          "name": "_devAddress",
          "type": "address"
        }
      ],
      "name": "setDevAddress",
      "outputs": [],
      "stateMutability": "nonpayable",
      "type": "function"
    },
    {
      "inputs": [
        {
          "internalType": "address",
          "name": "_address",
          "type": "address"
        }
      ],
      "name": "setBurnAddress",
      "outputs": [],
      "stateMutability": "nonpayable",
      "type": "function"
    },
    {
      "inputs": [
        {
          "internalType": "contract IGatedERC20",
          "name": "token",
          "type": "address"
        },
        {
          "internalType": "uint256",
          "name": "burnRate",
          "type": "uint256"
        },
        {
          "internalType": "address[]",
          "name": "collectors",
          "type": "address[]"
        },
        {
          "internalType": "uint256[]",
          "name": "rates",
          "type": "uint256[]"
        }
      ],
      "name": "setFees",
      "outputs": [],
      "stateMutability": "nonpayable",
      "type": "function"
    },
    {
      "inputs": [
        {
          "internalType": "contract IGatedERC20",
          "name": "token",
          "type": "address"
        }
      ],
      "name": "payFees",
      "outputs": [],
      "stateMutability": "nonpayable",
      "type": "function"
    }
  ],
  "bytecode": "0x6080604052336000806101000a81548173ffffffffffffffffffffffffffffffffffffffff021916908373ffffffffffffffffffffffffffffffffffffffff1602179055506103e86002556103e86003553480156200005d57600080fd5b506040516200218938038062002189833981810160405281019062000083919062000165565b33600560006101000a81548173ffffffffffffffffffffffffffffffffffffffff021916908373ffffffffffffffffffffffffffffffffffffffff16021790555081600460006101000a81548173ffffffffffffffffffffffffffffffffffffffff021916908373ffffffffffffffffffffffffffffffffffffffff16021790555080600660006101000a81548173ffffffffffffffffffffffffffffffffffffffff021916908373ffffffffffffffffffffffffffffffffffffffff1602179055505050620001f4565b6000815190506200015f81620001da565b92915050565b600080604083850312156200017957600080fd5b600062000189858286016200014e565b92505060206200019c858286016200014e565b9150509250929050565b6000620001b382620001ba565b9050919050565b600073ffffffffffffffffffffffffffffffffffffffff82169050919050565b620001e581620001a6565b8114620001f157600080fd5b50565b611f8580620002046000396000f3fe608060405234801561001057600080fd5b50600436106100ea5760003560e01c8063b8f9197b1161008c578063d0d41fe111610066578063d0d41fe114610223578063df7a95e41461023f578063efdee94f1461026f578063f2fde38b1461028d576100ea565b8063b8f9197b146101bb578063c2503b75146101d7578063c8d4bc0a146101f3576100ea565b80634e71e0c8116100c85780634e71e0c8146101455780636555176b1461014f57806370d5ae051461017f5780638da5cb5b1461019d576100ea565b806316114acd146100ef5780633ad10ef61461010b5780634b0e721614610129575b600080fd5b61010960048036038101906101049190611a17565b6102a9565b005b61011361044b565b6040516101209190611ca5565b60405180910390f35b610143600480360381019061013e91906119c5565b610471565b005b61014d61059d565b005b61016960048036038101906101649190611a69565b6106f5565b6040516101769190611ca5565b60405180910390f35b610187610743565b6040516101949190611ca5565b60405180910390f35b6101a5610769565b6040516101b29190611ca5565b60405180910390f35b6101d560048036038101906101d09190611a40565b61078d565b005b6101f160048036038101906101ec9190611aa5565b610bff565b005b61020d60048036038101906102089190611a69565b610f6d565b60405161021a9190611d69565b60405180910390f35b61023d600480360381019061023891906119c5565b610f9e565b005b61025960048036038101906102549190611a40565b6110ca565b6040516102669190611d69565b60405180910390f35b6102776110e2565b6040516102849190611ca5565b60405180910390f35b6102a760048036038101906102a291906119c5565b611108565b005b60008054906101000a900473ffffffffffffffffffffffffffffffffffffffff1673ffffffffffffffffffffffffffffffffffffffff163373ffffffffffffffffffffffffffffffffffffffff161461036a576040517f08c379a000000000000000000000000000000000000000000000000000000000815260040180806020018281038252600a8152602001807f4f776e6572206f6e6c790000000000000000000000000000000000000000000081525060200191505060405180910390fd5b6103738161120d565b61037c57600080fd5b610448338273ffffffffffffffffffffffffffffffffffffffff166370a08231306040518263ffffffff1660e01b8152600401808273ffffffffffffffffffffffffffffffffffffffff16815260200191505060206040518083038186803b1580156103e757600080fd5b505afa1580156103fb573d6000803e3d6000fd5b505050506040513d602081101561041157600080fd5b81019080805190602001909291905050508373ffffffffffffffffffffffffffffffffffffffff1661131c9092919063ffffffff16565b50565b600460009054906101000a900473ffffffffffffffffffffffffffffffffffffffff1681565b600560009054906101000a900473ffffffffffffffffffffffffffffffffffffffff1673ffffffffffffffffffffffffffffffffffffffff163373ffffffffffffffffffffffffffffffffffffffff16148061051a5750600460009054906101000a900473ffffffffffffffffffffffffffffffffffffffff1673ffffffffffffffffffffffffffffffffffffffff163373ffffffffffffffffffffffffffffffffffffffff16145b610559576040517f08c379a000000000000000000000000000000000000000000000000000000000815260040161055090611d49565b60405180910390fd5b80600660006101000a81548173ffffffffffffffffffffffffffffffffffffffff021916908373ffffffffffffffffffffffffffffffffffffffff16021790555050565b3373ffffffffffffffffffffffffffffffffffffffff16600160009054906101000a900473ffffffffffffffffffffffffffffffffffffffff1673ffffffffffffffffffffffffffffffffffffffff16146105f757600080fd5b6000600160006101000a81548173ffffffffffffffffffffffffffffffffffffffff021916908373ffffffffffffffffffffffffffffffffffffffff1602179055503373ffffffffffffffffffffffffffffffffffffffff1660008054906101000a900473ffffffffffffffffffffffffffffffffffffffff1673ffffffffffffffffffffffffffffffffffffffff167f8be0079c531659141344cd1fd0a4f28419497f9722a3daafe3b4186f6b6457e060405160405180910390a3336000806101000a81548173ffffffffffffffffffffffffffffffffffffffff021916908373ffffffffffffffffffffffffffffffffffffffff160217905550565b6007602052816000526040600020818154811061071157600080fd5b906000526020600020016000915091509054906101000a900473ffffffffffffffffffffffffffffffffffffffff1681565b600660009054906101000a900473ffffffffffffffffffffffffffffffffffffffff1681565b60008054906101000a900473ffffffffffffffffffffffffffffffffffffffff1681565b60008173ffffffffffffffffffffffffffffffffffffffff166370a08231306040518263ffffffff1660e01b81526004016107c89190611ca5565b60206040518083038186803b1580156107e057600080fd5b505afa1580156107f4573d6000803e3d6000fd5b505050506040513d601f19601f820116820180604052508101906108189190611b38565b90506000811161085d576040517f08c379a000000000000000000000000000000000000000000000000000000000815260040161085490611ce9565b60405180910390fd5b6000600960008473ffffffffffffffffffffffffffffffffffffffff1673ffffffffffffffffffffffffffffffffffffffff1681526020019081526020016000205411156109a857600061271082600960008673ffffffffffffffffffffffffffffffffffffffff1673ffffffffffffffffffffffffffffffffffffffff1681526020019081526020016000205402816108f357fe5b0490508273ffffffffffffffffffffffffffffffffffffffff1663a9059cbb600660009054906101000a900473ffffffffffffffffffffffffffffffffffffffff16836040518363ffffffff1660e01b8152600401610953929190611cc0565b602060405180830381600087803b15801561096d57600080fd5b505af1158015610981573d6000803e3d6000fd5b505050506040513d601f19601f820116820180604052508101906109a591906119ee565b50505b6060600760008473ffffffffffffffffffffffffffffffffffffffff1673ffffffffffffffffffffffffffffffffffffffff168152602001908152602001600020805480602002602001604051908101604052809291908181526020018280548015610a6957602002820191906000526020600020905b8160009054906101000a900473ffffffffffffffffffffffffffffffffffffffff1673ffffffffffffffffffffffffffffffffffffffff1681526020019060010190808311610a1f575b505050505090506060600860008573ffffffffffffffffffffffffffffffffffffffff1673ffffffffffffffffffffffffffffffffffffffff168152602001908152602001600020805480602002602001604051908101604052809291908181526020018280548015610afb57602002820191906000526020600020905b815481526020019060010190808311610ae7575b5050505050905060005b8251811015610bf8576000838281518110610b1c57fe5b602002602001015190506000838381518110610b3457fe5b602002602001015190506000811115610be957600061271087830281610b5657fe5b0490508773ffffffffffffffffffffffffffffffffffffffff1663a9059cbb84836040518363ffffffff1660e01b8152600401610b94929190611cc0565b602060405180830381600087803b158015610bae57600080fd5b505af1158015610bc2573d6000803e3d6000fd5b505050506040513d601f19601f82011682018060405250810190610be691906119ee565b50505b50508080600101915050610b05565b5050505050565b60008054906101000a900473ffffffffffffffffffffffffffffffffffffffff1673ffffffffffffffffffffffffffffffffffffffff163373ffffffffffffffffffffffffffffffffffffffff1614610cc0576040517f08c379a000000000000000000000000000000000000000000000000000000000815260040180806020018281038252600a8152602001807f4f776e6572206f6e6c790000000000000000000000000000000000000000000081525060200191505060405180910390fd5b600460009054906101000a900473ffffffffffffffffffffffffffffffffffffffff1673ffffffffffffffffffffffffffffffffffffffff1682600081518110610d0657fe5b602002602001015173ffffffffffffffffffffffffffffffffffffffff1614610d64576040517f08c379a0000000000000000000000000000000000000000000000000000000008152600401610d5b90611d29565b60405180910390fd5b600083905060005b8251811015610d9a57828181518110610d8157fe5b6020026020010151820191508080600101915050610d6c565b506127108114610ddf576040517f08c379a0000000000000000000000000000000000000000000000000000000008152600401610dd690611d09565b60405180910390fd5b60008573ffffffffffffffffffffffffffffffffffffffff166370a08231306040518263ffffffff1660e01b8152600401610e1a9190611ca5565b60206040518083038186803b158015610e3257600080fd5b505afa158015610e46573d6000803e3d6000fd5b505050506040513d601f19601f82011682018060405250810190610e6a9190611b38565b1115610e7a57610e798561078d565b5b82600760008773ffffffffffffffffffffffffffffffffffffffff1673ffffffffffffffffffffffffffffffffffffffff1681526020019081526020016000209080519060200190610ecd92919061174d565b5081600860008773ffffffffffffffffffffffffffffffffffffffff1673ffffffffffffffffffffffffffffffffffffffff1681526020019081526020016000209080519060200190610f219291906117d7565b5083600960008773ffffffffffffffffffffffffffffffffffffffff1673ffffffffffffffffffffffffffffffffffffffff168152602001908152602001600020819055505050505050565b60086020528160005260406000208181548110610f8957600080fd5b90600052602060002001600091509150505481565b600560009054906101000a900473ffffffffffffffffffffffffffffffffffffffff1673ffffffffffffffffffffffffffffffffffffffff163373ffffffffffffffffffffffffffffffffffffffff1614806110475750600460009054906101000a900473ffffffffffffffffffffffffffffffffffffffff1673ffffffffffffffffffffffffffffffffffffffff163373ffffffffffffffffffffffffffffffffffffffff16145b611086576040517f08c379a000000000000000000000000000000000000000000000000000000000815260040161107d90611d49565b60405180910390fd5b80600460006101000a81548173ffffffffffffffffffffffffffffffffffffffff021916908373ffffffffffffffffffffffffffffffffffffffff16021790555050565b60096020528060005260406000206000915090505481565b600560009054906101000a900473ffffffffffffffffffffffffffffffffffffffff1681565b60008054906101000a900473ffffffffffffffffffffffffffffffffffffffff1673ffffffffffffffffffffffffffffffffffffffff163373ffffffffffffffffffffffffffffffffffffffff16146111c9576040517f08c379a000000000000000000000000000000000000000000000000000000000815260040180806020018281038252600a8152602001807f4f776e6572206f6e6c790000000000000000000000000000000000000000000081525060200191505060405180910390fd5b80600160006101000a81548173ffffffffffffffffffffffffffffffffffffffff021916908373ffffffffffffffffffffffffffffffffffffffff16021790555050565b60006060600760008473ffffffffffffffffffffffffffffffffffffffff1673ffffffffffffffffffffffffffffffffffffffff1681526020019081526020016000208054806020026020016040519081016040528092919081815260200182805480156112d057602002820191906000526020600020905b8160009054906101000a900473ffffffffffffffffffffffffffffffffffffffff1673ffffffffffffffffffffffffffffffffffffffff1681526020019060010190808311611286575b505050505090503073ffffffffffffffffffffffffffffffffffffffff168373ffffffffffffffffffffffffffffffffffffffff1614158015611314575060008151145b915050919050565b6113b98363a9059cbb60e01b8484604051602401808373ffffffffffffffffffffffffffffffffffffffff16815260200182815260200192505050604051602081830303815290604052907bffffffffffffffffffffffffffffffffffffffffffffffffffffffff19166020820180517bffffffffffffffffffffffffffffffffffffffffffffffffffffffff83818316178352505050506113be565b505050565b6060611420826040518060400160405280602081526020017f5361666545524332303a206c6f772d6c6576656c2063616c6c206661696c65648152508573ffffffffffffffffffffffffffffffffffffffff166114ad9092919063ffffffff16565b90506000815111156114a85780806020019051602081101561144157600080fd5b81019080805190602001909291905050506114a7576040517f08c379a000000000000000000000000000000000000000000000000000000000815260040180806020018281038252602a815260200180611f26602a913960400191505060405180910390fd5b5b505050565b60606114bc84846000856114c5565b90509392505050565b606082471015611520576040517f08c379a0000000000000000000000000000000000000000000000000000000008152600401808060200182810382526026815260200180611f006026913960400191505060405180910390fd5b6115298561166e565b61159b576040517f08c379a000000000000000000000000000000000000000000000000000000000815260040180806020018281038252601d8152602001807f416464726573733a2063616c6c20746f206e6f6e2d636f6e747261637400000081525060200191505060405180910390fd5b600060608673ffffffffffffffffffffffffffffffffffffffff1685876040518082805190602001908083835b602083106115eb57805182526020820191506020810190506020830392506115c8565b6001836020036101000a03801982511681845116808217855250505050505090500191505060006040518083038185875af1925050503d806000811461164d576040519150601f19603f3d011682016040523d82523d6000602084013e611652565b606091505b5091509150611662828286611681565b92505050949350505050565b600080823b905060008111915050919050565b6060831561169157829050611746565b6000835111156116a45782518084602001fd5b816040517f08c379a00000000000000000000000000000000000000000000000000000000081526004018080602001828103825283818151815260200191508051906020019080838360005b8381101561170b5780820151818401526020810190506116f0565b50505050905090810190601f1680156117385780820380516001836020036101000a031916815260200191505b509250505060405180910390fd5b9392505050565b8280548282559060005260206000209081019282156117c6579160200282015b828111156117c55782518260006101000a81548173ffffffffffffffffffffffffffffffffffffffff021916908373ffffffffffffffffffffffffffffffffffffffff1602179055509160200191906001019061176d565b5b5090506117d39190611824565b5090565b828054828255906000526020600020908101928215611813579160200282015b828111156118125782518255916020019190600101906117f7565b5b5090506118209190611824565b5090565b5b8082111561183d576000816000905550600101611825565b5090565b60008135905061185081611e8c565b92915050565b600082601f83011261186757600080fd5b813561187a61187582611db5565b611d84565b9150818183526020840193506020810190508385602084028201111561189f57600080fd5b60005b838110156118cf57816118b58882611841565b8452602084019350602083019250506001810190506118a2565b5050505092915050565b600082601f8301126118ea57600080fd5b81356118fd6118f882611de1565b611d84565b9150818183526020840193506020810190508385602084028201111561192257600080fd5b60005b838110156119525781611938888261199b565b845260208401935060208301925050600181019050611925565b5050505092915050565b60008151905061196b81611ea3565b92915050565b60008135905061198081611eba565b92915050565b60008135905061199581611ed1565b92915050565b6000813590506119aa81611ee8565b92915050565b6000815190506119bf81611ee8565b92915050565b6000602082840312156119d757600080fd5b60006119e584828501611841565b91505092915050565b600060208284031215611a0057600080fd5b6000611a0e8482850161195c565b91505092915050565b600060208284031215611a2957600080fd5b6000611a3784828501611971565b91505092915050565b600060208284031215611a5257600080fd5b6000611a6084828501611986565b91505092915050565b60008060408385031215611a7c57600080fd5b6000611a8a85828601611986565b9250506020611a9b8582860161199b565b9150509250929050565b60008060008060808587031215611abb57600080fd5b6000611ac987828801611986565b9450506020611ada8782880161199b565b935050604085013567ffffffffffffffff811115611af757600080fd5b611b0387828801611856565b925050606085013567ffffffffffffffff811115611b2057600080fd5b611b2c878288016118d9565b91505092959194509250565b600060208284031215611b4a57600080fd5b6000611b58848285016119b0565b91505092915050565b611b6a81611e1e565b82525050565b6000611b7d600e83611e0d565b91507f4e6f7468696e6720746f207061790000000000000000000000000000000000006000830152602082019050919050565b6000611bbd601b83611e0d565b91507f546f74616c206665652072617465206d757374206265203130302500000000006000830152602082019050919050565b6000611bfd602183611e0d565b91507f46697273742061646472657373206d757374206265206465762061646472657360008301527f73000000000000000000000000000000000000000000000000000000000000006020830152604082019050919050565b6000611c63601d83611e0d565b91507f4e6f742061206465706c6f796572206f722064657620616464726573730000006000830152602082019050919050565b611c9f81611e80565b82525050565b6000602082019050611cba6000830184611b61565b92915050565b6000604082019050611cd56000830185611b61565b611ce26020830184611c96565b9392505050565b60006020820190508181036000830152611d0281611b70565b9050919050565b60006020820190508181036000830152611d2281611bb0565b9050919050565b60006020820190508181036000830152611d4281611bf0565b9050919050565b60006020820190508181036000830152611d6281611c56565b9050919050565b6000602082019050611d7e6000830184611c96565b92915050565b6000604051905081810181811067ffffffffffffffff82111715611dab57611daa611e8a565b5b8060405250919050565b600067ffffffffffffffff821115611dd057611dcf611e8a565b5b602082029050602081019050919050565b600067ffffffffffffffff821115611dfc57611dfb611e8a565b5b602082029050602081019050919050565b600082825260208201905092915050565b6000611e2982611e60565b9050919050565b60008115159050919050565b6000611e4782611e1e565b9050919050565b6000611e5982611e1e565b9050919050565b600073ffffffffffffffffffffffffffffffffffffffff82169050919050565b6000819050919050565bfe5b611e9581611e1e565b8114611ea057600080fd5b50565b611eac81611e30565b8114611eb757600080fd5b50565b611ec381611e3c565b8114611ece57600080fd5b50565b611eda81611e4e565b8114611ee557600080fd5b50565b611ef181611e80565b8114611efc57600080fd5b5056fe416464726573733a20696e73756666696369656e742062616c616e636520666f722063616c6c5361666545524332303a204552433230206f7065726174696f6e20646964206e6f742073756363656564a264697066735822122047060e090012095a21a47287a55c0e15af6ae3d51a2cccd246fbea046c22199b64736f6c63430007040033",
  "immutableReferences": {},
  "source": "// SPDX-License-Identifier: U-U-U-UPPPPP!!!\r\npragma solidity ^0.7.4;\r\npragma experimental ABIEncoderV2;\r\n\r\nimport \"./IERC20.sol\";\r\nimport \"./IGatedERC20.sol\";\r\nimport \"./SafeMath.sol\";\r\nimport \"./SafeERC20.sol\";\r\nimport \"./Address.sol\";\r\nimport \"./TokensRecoverable.sol\";\r\n\r\ncontract FeeSplitter is TokensRecoverable {\r\n    using SafeMath for uint256;\r\n    using SafeERC20 for IERC20;\r\n    using Address for address;\r\n    \r\n    uint256 devRateMin = 1000;  \r\n    uint256 rootRateMin = 1000;\r\n\r\n    address public devAddress;\r\n    address public deployerAddress;\r\n\r\n    address public burnAddress;\r\n\r\n    mapping (IGatedERC20 => address[]) public feeCollectors;\r\n    mapping (IGatedERC20 => uint256[]) public feeRates;\r\n    mapping (IGatedERC20 => uint256) public burnRates;\r\n\r\n    constructor(address _devAddress, address _burnAddress) {\r\n        deployerAddress = msg.sender;\r\n        devAddress = _devAddress;\r\n        burnAddress = _burnAddress;\r\n    }\r\n\r\n    function setDevAddress(address _devAddress) public {\r\n        require (msg.sender == deployerAddress || msg.sender == devAddress, \"Not a deployer or dev address\");\r\n        devAddress = _devAddress;\r\n    }\r\n\r\n    function setBurnAddress(address _address) public {\r\n        require (msg.sender == deployerAddress || msg.sender == devAddress, \"Not a deployer or dev address\");\r\n        burnAddress = _address;\r\n    }\r\n\r\n    function setFees(IGatedERC20 token, uint256 burnRate, address[] memory collectors, uint256[] memory rates) public ownerOnly() {\r\n        //require (collectors.length == rates.length && collectors.length > 1, \"Fee Collectors and Rates must be the same size and contain at least 2 elements\");\r\n        require (collectors[0] == devAddress, \"First address must be dev address\");\r\n        //require (rates[0] >= devRateMin && rates[1] >= rootRateMin, \"First rate must be greater or equal to devRateMin and second rate must be greater or equal to rootRateMin\");\r\n        \r\n        uint256 totalRate = burnRate;\r\n        for (uint256 i = 0; i < rates.length; i++) {\r\n            totalRate = totalRate + rates[i];\r\n        }\r\n\r\n        require (totalRate == 10000, \"Total fee rate must be 100%\");\r\n        \r\n        if (token.balanceOf(address(this)) > 0) {\r\n            payFees(token);\r\n        }\r\n\r\n        feeCollectors[token] = collectors;\r\n        feeRates[token] = rates;\r\n        burnRates[token] = burnRate;\r\n    }\r\n\r\n    function payFees(IGatedERC20 token) public {\r\n        uint256 balance = token.balanceOf(address(this));\r\n        require (balance > 0, \"Nothing to pay\");\r\n\r\n        if (burnRates[token] > 0) {\r\n            uint256 burnAmount = burnRates[token] * balance / 10000;\r\n            token.transfer(burnAddress, burnAmount);\r\n        }\r\n\r\n        address[] memory collectors = feeCollectors[token];\r\n        uint256[] memory rates = feeRates[token];\r\n\r\n        for (uint256 i = 0; i < collectors.length; i++) {\r\n            address collector = collectors[i];\r\n            uint256 rate = rates[i];\r\n\r\n            if (rate > 0) {\r\n                uint256 feeAmount = rate * balance / 10000;\r\n                token.transfer(collector, feeAmount);\r\n            }\r\n        }\r\n    }\r\n\r\n    function canRecoverTokens(IERC20 token) internal override view returns (bool) {\r\n        address[] memory collectors = feeCollectors[IGatedERC20(address(token))];\r\n        return address(token) != address(this) && collectors.length == 0; \r\n    }\r\n}",
  "sourcePath": "G:/projects/degen-protocol/SH33P-contracts/contracts/FeeSplitter.sol",
  "compiler": {
    "name": "solc",
    "version": "0.7.4+commit.3f05b770.Emscripten.clang"
  },
  "schemaVersion": "3.4.1",
  "updatedAt": "2022-01-17T07:36:51.002Z",
  "networkType": "ethereum",
  "devdoc": {
    "kind": "dev",
    "methods": {},
    "version": 1
  },
  "userdoc": {
    "kind": "user",
    "methods": {},
    "version": 1
  }
}