{
  "contractName": "GangsterVault",
  "abi": [
    {
      "inputs": [
        {
          "internalType": "address",
          "name": "_buybackTokenAddress",
          "type": "address"
        },
        {
          "internalType": "address",
          "name": "_tokenAddress",
          "type": "address"
        },
        {
          "internalType": "address",
          "name": "_tokenRouter",
          "type": "address"
        },
        {
          "internalType": "address",
          "name": "_swapRouter",
          "type": "address"
        },
        {
          "internalType": "address",
          "name": "_reserveAddress",
          "type": "address"
        },
        {
          "internalType": "uint8",
          "name": "_dripRate",
          "type": "uint8"
        }
      ],
      "stateMutability": "nonpayable",
      "type": "constructor"
    },
    {
      "anonymous": false,
      "inputs": [
        {
          "indexed": true,
          "internalType": "address",
          "name": "previousOwner",
          "type": "address"
        },
        {
          "indexed": true,
          "internalType": "address",
          "name": "newOwner",
          "type": "address"
        }
      ],
      "name": "OwnershipTransferred",
      "type": "event"
    },
    {
      "anonymous": false,
      "inputs": [
        {
          "indexed": false,
          "internalType": "uint256",
          "name": "amount",
          "type": "uint256"
        },
        {
          "indexed": false,
          "internalType": "uint256",
          "name": "timestamp",
          "type": "uint256"
        }
      ],
      "name": "onBuyback",
      "type": "event"
    },
    {
      "anonymous": false,
      "inputs": [
        {
          "indexed": true,
          "internalType": "address",
          "name": "_user",
          "type": "address"
        },
        {
          "indexed": false,
          "internalType": "uint256",
          "name": "_compounded",
          "type": "uint256"
        },
        {
          "indexed": false,
          "internalType": "uint256",
          "name": "tokensMinted",
          "type": "uint256"
        },
        {
          "indexed": false,
          "internalType": "uint256",
          "name": "timestamp",
          "type": "uint256"
        }
      ],
      "name": "onCompound",
      "type": "event"
    },
    {
      "anonymous": false,
      "inputs": [
        {
          "indexed": true,
          "internalType": "address",
          "name": "_user",
          "type": "address"
        },
        {
          "indexed": false,
          "internalType": "uint256",
          "name": "_deposited",
          "type": "uint256"
        },
        {
          "indexed": false,
          "internalType": "uint256",
          "name": "tokensMinted",
          "type": "uint256"
        },
        {
          "indexed": false,
          "internalType": "uint256",
          "name": "timestamp",
          "type": "uint256"
        }
      ],
      "name": "onDeposit",
      "type": "event"
    },
    {
      "anonymous": false,
      "inputs": [
        {
          "indexed": true,
          "internalType": "address",
          "name": "from",
          "type": "address"
        },
        {
          "indexed": false,
          "internalType": "uint256",
          "name": "amount",
          "type": "uint256"
        },
        {
          "indexed": false,
          "internalType": "uint256",
          "name": "timestamp",
          "type": "uint256"
        }
      ],
      "name": "onDonate",
      "type": "event"
    },
    {
      "anonymous": false,
      "inputs": [
        {
          "indexed": true,
          "internalType": "address",
          "name": "from",
          "type": "address"
        },
        {
          "indexed": false,
          "internalType": "uint256",
          "name": "amount",
          "type": "uint256"
        },
        {
          "indexed": false,
          "internalType": "uint256",
          "name": "timestamp",
          "type": "uint256"
        }
      ],
      "name": "onDonateBNB",
      "type": "event"
    },
    {
      "anonymous": false,
      "inputs": [
        {
          "indexed": false,
          "internalType": "uint256",
          "name": "balance",
          "type": "uint256"
        },
        {
          "indexed": false,
          "internalType": "uint256",
          "name": "timestamp",
          "type": "uint256"
        }
      ],
      "name": "onRebase",
      "type": "event"
    },
    {
      "anonymous": false,
      "inputs": [
        {
          "indexed": true,
          "internalType": "address",
          "name": "_token",
          "type": "address"
        },
        {
          "indexed": false,
          "internalType": "uint256",
          "name": "timestamp",
          "type": "uint256"
        }
      ],
      "name": "onSetBuyback",
      "type": "event"
    },
    {
      "anonymous": false,
      "inputs": [
        {
          "indexed": false,
          "internalType": "uint256",
          "name": "_pool",
          "type": "uint256"
        },
        {
          "indexed": false,
          "internalType": "uint256",
          "name": "_divs",
          "type": "uint256"
        },
        {
          "indexed": false,
          "internalType": "uint256",
          "name": "_fees",
          "type": "uint256"
        },
        {
          "indexed": false,
          "internalType": "uint256",
          "name": "timestamp",
          "type": "uint256"
        }
      ],
      "name": "onSetFeeSplit",
      "type": "event"
    },
    {
      "anonymous": false,
      "inputs": [
        {
          "indexed": false,
          "internalType": "address",
          "name": "_oldSR",
          "type": "address"
        },
        {
          "indexed": false,
          "internalType": "address",
          "name": "_newSR",
          "type": "address"
        },
        {
          "indexed": false,
          "internalType": "uint256",
          "name": "timestamp",
          "type": "uint256"
        }
      ],
      "name": "onSetSwapRouter",
      "type": "event"
    },
    {
      "anonymous": false,
      "inputs": [
        {
          "indexed": false,
          "internalType": "address",
          "name": "_oldTR",
          "type": "address"
        },
        {
          "indexed": false,
          "internalType": "address",
          "name": "_newTR",
          "type": "address"
        },
        {
          "indexed": false,
          "internalType": "uint256",
          "name": "timestamp",
          "type": "uint256"
        }
      ],
      "name": "onSetTokenRouter",
      "type": "event"
    },
    {
      "anonymous": false,
      "inputs": [
        {
          "indexed": false,
          "internalType": "bool",
          "name": "_toggle",
          "type": "bool"
        },
        {
          "indexed": false,
          "internalType": "string",
          "name": "_reason",
          "type": "string"
        },
        {
          "indexed": false,
          "internalType": "uint256",
          "name": "timestamp",
          "type": "uint256"
        }
      ],
      "name": "onToggleBuyback",
      "type": "event"
    },
    {
      "anonymous": false,
      "inputs": [
        {
          "indexed": true,
          "internalType": "address",
          "name": "from",
          "type": "address"
        },
        {
          "indexed": true,
          "internalType": "address",
          "name": "to",
          "type": "address"
        },
        {
          "indexed": false,
          "internalType": "uint256",
          "name": "tokens",
          "type": "uint256"
        },
        {
          "indexed": false,
          "internalType": "uint256",
          "name": "timestamp",
          "type": "uint256"
        }
      ],
      "name": "onTransfer",
      "type": "event"
    },
    {
      "anonymous": false,
      "inputs": [
        {
          "indexed": true,
          "internalType": "address",
          "name": "_user",
          "type": "address"
        },
        {
          "indexed": false,
          "internalType": "uint256",
          "name": "invested",
          "type": "uint256"
        },
        {
          "indexed": false,
          "internalType": "uint256",
          "name": "tokens",
          "type": "uint256"
        },
        {
          "indexed": false,
          "internalType": "uint256",
          "name": "soldTokens",
          "type": "uint256"
        },
        {
          "indexed": false,
          "internalType": "uint256",
          "name": "timestamp",
          "type": "uint256"
        }
      ],
      "name": "onUpdate",
      "type": "event"
    },
    {
      "anonymous": false,
      "inputs": [
        {
          "indexed": true,
          "internalType": "address",
          "name": "_user",
          "type": "address"
        },
        {
          "indexed": false,
          "internalType": "uint256",
          "name": "_liquidated",
          "type": "uint256"
        },
        {
          "indexed": false,
          "internalType": "uint256",
          "name": "tokensEarned",
          "type": "uint256"
        },
        {
          "indexed": false,
          "internalType": "uint256",
          "name": "timestamp",
          "type": "uint256"
        }
      ],
      "name": "onWithdraw",
      "type": "event"
    },
    {
      "anonymous": false,
      "inputs": [
        {
          "indexed": true,
          "internalType": "address",
          "name": "_user",
          "type": "address"
        },
        {
          "indexed": false,
          "internalType": "uint256",
          "name": "_withdrawn",
          "type": "uint256"
        },
        {
          "indexed": false,
          "internalType": "uint256",
          "name": "timestamp",
          "type": "uint256"
        }
      ],
      "name": "onWithdraw",
      "type": "event"
    },
    {
      "inputs": [],
      "name": "bnbReceiver",
      "outputs": [
        {
          "internalType": "address payable",
          "name": "",
          "type": "address"
        }
      ],
      "stateMutability": "view",
      "type": "function"
    },
    {
      "inputs": [],
      "name": "buybackEnabled",
      "outputs": [
        {
          "internalType": "bool",
          "name": "",
          "type": "bool"
        }
      ],
      "stateMutability": "view",
      "type": "function"
    },
    {
      "inputs": [],
      "name": "buybackToken",
      "outputs": [
        {
          "internalType": "contract IERC20",
          "name": "",
          "type": "address"
        }
      ],
      "stateMutability": "view",
      "type": "function"
    },
    {
      "inputs": [],
      "name": "buybacksBalance",
      "outputs": [
        {
          "internalType": "uint256",
          "name": "",
          "type": "uint256"
        }
      ],
      "stateMutability": "view",
      "type": "function"
    },
    {
      "inputs": [],
      "name": "dripPoolBalance",
      "outputs": [
        {
          "internalType": "uint256",
          "name": "",
          "type": "uint256"
        }
      ],
      "stateMutability": "view",
      "type": "function"
    },
    {
      "inputs": [],
      "name": "dripRate",
      "outputs": [
        {
          "internalType": "uint8",
          "name": "",
          "type": "uint8"
        }
      ],
      "stateMutability": "view",
      "type": "function"
    },
    {
      "inputs": [],
      "name": "forDivs",
      "outputs": [
        {
          "internalType": "uint256",
          "name": "",
          "type": "uint256"
        }
      ],
      "stateMutability": "view",
      "type": "function"
    },
    {
      "inputs": [],
      "name": "forFees",
      "outputs": [
        {
          "internalType": "uint256",
          "name": "",
          "type": "uint256"
        }
      ],
      "stateMutability": "view",
      "type": "function"
    },
    {
      "inputs": [],
      "name": "forPool",
      "outputs": [
        {
          "internalType": "uint256",
          "name": "",
          "type": "uint256"
        }
      ],
      "stateMutability": "view",
      "type": "function"
    },
    {
      "inputs": [],
      "name": "getUnlockTime",
      "outputs": [
        {
          "internalType": "uint256",
          "name": "",
          "type": "uint256"
        }
      ],
      "stateMutability": "view",
      "type": "function"
    },
    {
      "inputs": [],
      "name": "lastPayout",
      "outputs": [
        {
          "internalType": "uint256",
          "name": "",
          "type": "uint256"
        }
      ],
      "stateMutability": "view",
      "type": "function"
    },
    {
      "inputs": [],
      "name": "lastRebaseTime",
      "outputs": [
        {
          "internalType": "uint256",
          "name": "",
          "type": "uint256"
        }
      ],
      "stateMutability": "view",
      "type": "function"
    },
    {
      "inputs": [
        {
          "internalType": "uint256",
          "name": "time",
          "type": "uint256"
        }
      ],
      "name": "lock",
      "outputs": [],
      "stateMutability": "nonpayable",
      "type": "function"
    },
    {
      "inputs": [],
      "name": "owner",
      "outputs": [
        {
          "internalType": "address",
          "name": "",
          "type": "address"
        }
      ],
      "stateMutability": "view",
      "type": "function"
    },
    {
      "inputs": [],
      "name": "payoutFrequency",
      "outputs": [
        {
          "internalType": "uint256",
          "name": "",
          "type": "uint256"
        }
      ],
      "stateMutability": "view",
      "type": "function"
    },
    {
      "inputs": [],
      "name": "rebaseFrequency",
      "outputs": [
        {
          "internalType": "uint256",
          "name": "",
          "type": "uint256"
        }
      ],
      "stateMutability": "view",
      "type": "function"
    },
    {
      "inputs": [],
      "name": "renounceOwnership",
      "outputs": [],
      "stateMutability": "nonpayable",
      "type": "function"
    },
    {
      "inputs": [],
      "name": "reserveAddress",
      "outputs": [
        {
          "internalType": "address",
          "name": "",
          "type": "address"
        }
      ],
      "stateMutability": "view",
      "type": "function"
    },
    {
      "inputs": [],
      "name": "router",
      "outputs": [
        {
          "internalType": "address",
          "name": "",
          "type": "address"
        }
      ],
      "stateMutability": "view",
      "type": "function"
    },
    {
      "inputs": [],
      "name": "stakingToken",
      "outputs": [
        {
          "internalType": "contract IERC20",
          "name": "",
          "type": "address"
        }
      ],
      "stateMutability": "view",
      "type": "function"
    },
    {
      "inputs": [],
      "name": "tokenAddress",
      "outputs": [
        {
          "internalType": "address",
          "name": "",
          "type": "address"
        }
      ],
      "stateMutability": "view",
      "type": "function"
    },
    {
      "inputs": [],
      "name": "tokenUniswapV2Router",
      "outputs": [
        {
          "internalType": "contract IPancakeRouter01",
          "name": "",
          "type": "address"
        }
      ],
      "stateMutability": "view",
      "type": "function"
    },
    {
      "inputs": [],
      "name": "totalBuyBack",
      "outputs": [
        {
          "internalType": "uint256",
          "name": "",
          "type": "uint256"
        }
      ],
      "stateMutability": "view",
      "type": "function"
    },
    {
      "inputs": [],
      "name": "totalClaims",
      "outputs": [
        {
          "internalType": "uint256",
          "name": "",
          "type": "uint256"
        }
      ],
      "stateMutability": "view",
      "type": "function"
    },
    {
      "inputs": [],
      "name": "totalDeposits",
      "outputs": [
        {
          "internalType": "uint256",
          "name": "",
          "type": "uint256"
        }
      ],
      "stateMutability": "view",
      "type": "function"
    },
    {
      "inputs": [],
      "name": "totalTxs",
      "outputs": [
        {
          "internalType": "uint256",
          "name": "",
          "type": "uint256"
        }
      ],
      "stateMutability": "view",
      "type": "function"
    },
    {
      "inputs": [
        {
          "internalType": "address",
          "name": "newOwner",
          "type": "address"
        }
      ],
      "name": "transferOwnership",
      "outputs": [],
      "stateMutability": "nonpayable",
      "type": "function"
    },
    {
      "inputs": [],
      "name": "uniswapV2Router",
      "outputs": [
        {
          "internalType": "contract IPancakeRouter01",
          "name": "",
          "type": "address"
        }
      ],
      "stateMutability": "view",
      "type": "function"
    },
    {
      "inputs": [],
      "name": "unlock",
      "outputs": [],
      "stateMutability": "nonpayable",
      "type": "function"
    },
    {
      "inputs": [],
      "name": "users",
      "outputs": [
        {
          "internalType": "uint256",
          "name": "",
          "type": "uint256"
        }
      ],
      "stateMutability": "view",
      "type": "function"
    },
    {
      "inputs": [],
      "name": "wbnb",
      "outputs": [
        {
          "internalType": "contract IERC20",
          "name": "",
          "type": "address"
        }
      ],
      "stateMutability": "view",
      "type": "function"
    },
    {
      "stateMutability": "payable",
      "type": "receive"
    },
    {
      "inputs": [],
      "name": "sweep",
      "outputs": [],
      "stateMutability": "nonpayable",
      "type": "function"
    },
    {
      "inputs": [
        {
          "internalType": "bool",
          "name": "enable",
          "type": "bool"
        },
        {
          "internalType": "string",
          "name": "_reason",
          "type": "string"
        }
      ],
      "name": "toggleBuyback",
      "outputs": [
        {
          "internalType": "bool",
          "name": "_success",
          "type": "bool"
        }
      ],
      "stateMutability": "nonpayable",
      "type": "function"
    },
    {
      "inputs": [
        {
          "internalType": "address",
          "name": "_tokenRouter",
          "type": "address"
        }
      ],
      "name": "updateTokenRouter",
      "outputs": [],
      "stateMutability": "nonpayable",
      "type": "function"
    },
    {
      "inputs": [
        {
          "internalType": "uint256",
          "name": "_amount",
          "type": "uint256"
        }
      ],
      "name": "donate",
      "outputs": [
        {
          "internalType": "uint256",
          "name": "",
          "type": "uint256"
        }
      ],
      "stateMutability": "nonpayable",
      "type": "function"
    },
    {
      "inputs": [
        {
          "internalType": "uint256",
          "name": "_amount",
          "type": "uint256"
        }
      ],
      "name": "deposit",
      "outputs": [
        {
          "internalType": "uint256",
          "name": "",
          "type": "uint256"
        }
      ],
      "stateMutability": "nonpayable",
      "type": "function"
    },
    {
      "inputs": [
        {
          "internalType": "address",
          "name": "_user",
          "type": "address"
        },
        {
          "internalType": "uint256",
          "name": "_amount",
          "type": "uint256"
        }
      ],
      "name": "depositTo",
      "outputs": [
        {
          "internalType": "uint256",
          "name": "",
          "type": "uint256"
        }
      ],
      "stateMutability": "nonpayable",
      "type": "function"
    },
    {
      "inputs": [],
      "name": "compound",
      "outputs": [],
      "stateMutability": "nonpayable",
      "type": "function"
    },
    {
      "inputs": [],
      "name": "harvest",
      "outputs": [],
      "stateMutability": "nonpayable",
      "type": "function"
    },
    {
      "inputs": [
        {
          "internalType": "uint256",
          "name": "_amount",
          "type": "uint256"
        }
      ],
      "name": "withdraw",
      "outputs": [],
      "stateMutability": "nonpayable",
      "type": "function"
    },
    {
      "inputs": [
        {
          "internalType": "address",
          "name": "_to",
          "type": "address"
        },
        {
          "internalType": "uint256",
          "name": "_amount",
          "type": "uint256"
        }
      ],
      "name": "transfer",
      "outputs": [
        {
          "internalType": "bool",
          "name": "",
          "type": "bool"
        }
      ],
      "stateMutability": "nonpayable",
      "type": "function"
    },
    {
      "inputs": [],
      "name": "myTokens",
      "outputs": [
        {
          "internalType": "uint256",
          "name": "",
          "type": "uint256"
        }
      ],
      "stateMutability": "view",
      "type": "function"
    },
    {
      "inputs": [],
      "name": "myEarnings",
      "outputs": [
        {
          "internalType": "uint256",
          "name": "",
          "type": "uint256"
        }
      ],
      "stateMutability": "view",
      "type": "function"
    },
    {
      "inputs": [
        {
          "internalType": "address",
          "name": "_user",
          "type": "address"
        }
      ],
      "name": "balanceOf",
      "outputs": [
        {
          "internalType": "uint256",
          "name": "",
          "type": "uint256"
        }
      ],
      "stateMutability": "view",
      "type": "function"
    },
    {
      "inputs": [
        {
          "internalType": "address",
          "name": "_user",
          "type": "address"
        }
      ],
      "name": "tokenBalance",
      "outputs": [
        {
          "internalType": "uint256",
          "name": "",
          "type": "uint256"
        }
      ],
      "stateMutability": "view",
      "type": "function"
    },
    {
      "inputs": [],
      "name": "totalBalance",
      "outputs": [
        {
          "internalType": "uint256",
          "name": "",
          "type": "uint256"
        }
      ],
      "stateMutability": "view",
      "type": "function"
    },
    {
      "inputs": [],
      "name": "totalSupply",
      "outputs": [
        {
          "internalType": "uint256",
          "name": "",
          "type": "uint256"
        }
      ],
      "stateMutability": "view",
      "type": "function"
    },
    {
      "inputs": [
        {
          "internalType": "address",
          "name": "_user",
          "type": "address"
        }
      ],
      "name": "dividendsOf",
      "outputs": [
        {
          "internalType": "uint256",
          "name": "",
          "type": "uint256"
        }
      ],
      "stateMutability": "view",
      "type": "function"
    },
    {
      "inputs": [],
      "name": "sellPrice",
      "outputs": [
        {
          "internalType": "uint256",
          "name": "",
          "type": "uint256"
        }
      ],
      "stateMutability": "pure",
      "type": "function"
    },
    {
      "inputs": [],
      "name": "buyPrice",
      "outputs": [
        {
          "internalType": "uint256",
          "name": "",
          "type": "uint256"
        }
      ],
      "stateMutability": "pure",
      "type": "function"
    },
    {
      "inputs": [
        {
          "internalType": "uint256",
          "name": "_amount",
          "type": "uint256"
        }
      ],
      "name": "calculateSharesReceived",
      "outputs": [
        {
          "internalType": "uint256",
          "name": "",
          "type": "uint256"
        }
      ],
      "stateMutability": "pure",
      "type": "function"
    },
    {
      "inputs": [
        {
          "internalType": "uint256",
          "name": "_amount",
          "type": "uint256"
        }
      ],
      "name": "calculateTokensReceived",
      "outputs": [
        {
          "internalType": "uint256",
          "name": "",
          "type": "uint256"
        }
      ],
      "stateMutability": "view",
      "type": "function"
    },
    {
      "inputs": [
        {
          "internalType": "address",
          "name": "_user",
          "type": "address"
        }
      ],
      "name": "accountOf",
      "outputs": [
        {
          "internalType": "uint256[14]",
          "name": "",
          "type": "uint256[14]"
        }
      ],
      "stateMutability": "view",
      "type": "function"
    },
    {
      "inputs": [
        {
          "internalType": "address",
          "name": "_user",
          "type": "address"
        }
      ],
      "name": "dailyEstimate",
      "outputs": [
        {
          "internalType": "uint256",
          "name": "",
          "type": "uint256"
        }
      ],
      "stateMutability": "view",
      "type": "function"
    },
    {
      "inputs": [
        {
          "internalType": "uint256",
          "name": "_pool",
          "type": "uint256"
        },
        {
          "internalType": "uint256",
          "name": "_divs",
          "type": "uint256"
        },
        {
          "internalType": "uint256",
          "name": "_fees",
          "type": "uint256"
        }
      ],
      "name": "setFeeSplit",
      "outputs": [
        {
          "internalType": "bool",
          "name": "_success",
          "type": "bool"
        }
      ],
      "stateMutability": "nonpayable",
      "type": "function"
    },
    {
      "inputs": [
        {
          "internalType": "address",
          "name": "_newToken",
          "type": "address"
        }
      ],
      "name": "setBuybackToken",
      "outputs": [
        {
          "internalType": "bool",
          "name": "_success",
          "type": "bool"
        }
      ],
      "stateMutability": "nonpayable",
      "type": "function"
    },
    {
      "inputs": [
        {
          "internalType": "address",
          "name": "_swapRouter",
          "type": "address"
        }
      ],
      "name": "setSwapRouter",
      "outputs": [
        {
          "internalType": "bool",
          "name": "_success",
          "type": "bool"
        }
      ],
      "stateMutability": "nonpayable",
      "type": "function"
    },
    {
      "inputs": [
        {
          "internalType": "address",
          "name": "_tokenRouter",
          "type": "address"
        }
      ],
      "name": "setTokenRouter",
      "outputs": [
        {
          "internalType": "bool",
          "name": "_success",
          "type": "bool"
        }
      ],
      "stateMutability": "nonpayable",
      "type": "function"
    }
  ],
  "bytecode": "0x6080604052735ffcf7fea55098945f66460a160136eed4e7faa9600960006101000a81548173ffffffffffffffffffffffffffffffffffffffff021916908373ffffffffffffffffffffffffffffffffffffffff1602179055503480156200006657600080fd5b506040516200659e3803806200659e833981810160405260c08110156200008c57600080fd5b810190808051906020019092919080519060200190929190805190602001909291908051906020019092919080519060200190929190805190602001909291905050506000620000e16200079a60201b60201c565b9050806000806101000a81548173ffffffffffffffffffffffffffffffffffffffff021916908373ffffffffffffffffffffffffffffffffffffffff1602179055508073ffffffffffffffffffffffffffffffffffffffff16600073ffffffffffffffffffffffffffffffffffffffff167f8be0079c531659141344cd1fd0a4f28419497f9722a3daafe3b4186f6b6457e060405160405180910390a350600073ffffffffffffffffffffffffffffffffffffffff168573ffffffffffffffffffffffffffffffffffffffff1614158015620001ea5750600073ffffffffffffffffffffffffffffffffffffffff168473ffffffffffffffffffffffffffffffffffffffff1614155b8015620002245750600073ffffffffffffffffffffffffffffffffffffffff168673ffffffffffffffffffffffffffffffffffffffff1614155b6200027b576040517f08c379a0000000000000000000000000000000000000000000000000000000008152600401808060200182810382526027815260200180620065776027913960400191505060405180910390fd5b84600860006101000a81548173ffffffffffffffffffffffffffffffffffffffff021916908373ffffffffffffffffffffffffffffffffffffffff16021790555084600360006101000a81548173ffffffffffffffffffffffffffffffffffffffff021916908373ffffffffffffffffffffffffffffffffffffffff160217905550600960009054906101000a900473ffffffffffffffffffffffffffffffffffffffff16915082600a60006101000a81548173ffffffffffffffffffffffffffffffffffffffff021916908373ffffffffffffffffffffffffffffffffffffffff16021790555033600b60006101000a81548173ffffffffffffffffffffffffffffffffffffffff021916908373ffffffffffffffffffffffffffffffffffffffff1602179055506001600b60146101000a81548160ff02191690831515021790555085600460006101000a81548173ffffffffffffffffffffffffffffffffffffffff021916908373ffffffffffffffffffffffffffffffffffffffff16021790555082600660006101000a81548173ffffffffffffffffffffffffffffffffffffffff021916908373ffffffffffffffffffffffffffffffffffffffff16021790555083600760006101000a81548173ffffffffffffffffffffffffffffffffffffffff021916908373ffffffffffffffffffffffffffffffffffffffff160217905550600660009054906101000a900473ffffffffffffffffffffffffffffffffffffffff1673ffffffffffffffffffffffffffffffffffffffff1663ad5c46486040518163ffffffff1660e01b815260040160206040518083038186803b158015620004eb57600080fd5b505afa15801562000500573d6000803e3d6000fd5b505050506040513d60208110156200051757600080fd5b810190808051906020019092919050505073ffffffffffffffffffffffffffffffffffffffff16600760009054906101000a900473ffffffffffffffffffffffffffffffffffffffff1673ffffffffffffffffffffffffffffffffffffffff1663ad5c46486040518163ffffffff1660e01b815260040160206040518083038186803b158015620005a757600080fd5b505afa158015620005bc573d6000803e3d6000fd5b505050506040513d6020811015620005d357600080fd5b810190808051906020019092919050505073ffffffffffffffffffffffffffffffffffffffff16146200066e576040517f08c379a00000000000000000000000000000000000000000000000000000000081526004018080602001828103825260188152602001807f526f75746572206973206e6f7420636f6d70617469626c65000000000000000081525060200191505060405180910390fd5b600660009054906101000a900473ffffffffffffffffffffffffffffffffffffffff1673ffffffffffffffffffffffffffffffffffffffff1663ad5c46486040518163ffffffff1660e01b815260040160206040518083038186803b158015620006d757600080fd5b505afa158015620006ec573d6000803e3d6000fd5b505050506040513d60208110156200070357600080fd5b8101908080519060200190929190505050600560006101000a81548173ffffffffffffffffffffffffffffffffffffffff021916908373ffffffffffffffffffffffffffffffffffffffff16021790555080601260006101000a81548160ff021916908360ff16021790555042600e81905550600660138190555060026014819055506002601581905550505050505050620007a2565b600033905090565b615dc580620007b26000396000f3fe6080604052600436106103845760003560e01c8063949e8acd116101d1578063d7c3771d11610102578063f4b50f74116100a0578063f887ea401161006f578063f887ea401461118a578063fbaf1bbd146111cb578063ffaad6a514611230578063ffe6bbd81461129f5761040d565b8063f4b50f74146110a2578063f69e2046146110cd578063f768e0ce146110e4578063f79ed94b146111495761040d565b8063eedc966a116100dc578063eedc966a14610f72578063f14faf6f14610fd7578063f202027514611026578063f2fde38b146110515761040d565b8063d7c3771d14610ea7578063dd46706414610ee8578063e02e1e9c14610f235761040d565b8063b6b55f251161016f578063cd8a3c4211610149578063cd8a3c4214610da6578063d050f26a14610e0d578063d1bf551014610e4e578063d326159214610e795761040d565b8063b6b55f2514610cc5578063b9db102a14610d14578063cafec33214610d3f5761040d565b8063a69df4b5116101ab578063a69df4b514610be7578063a9059cbb14610bfe578063ad7a672f14610c6f578063aecb6d2814610c9a5761040d565b8063949e8acd14610b505780639d76ea5814610b7b578063a01496de14610bbc5761040d565b806346951239116102b657806372f702f3116102545780638620410b116102235780638620410b14610a7857806389375abf14610aa35780638d72647e14610ace5780638da5cb5b14610b0f5761040d565b806372f702f3146109545780637d882097146109955780638086b8ba146109c057806381fce64514610a4d5761040d565b8063537a39bb11610290578063537a39bb14610882578063602bc62b146108ad57806370a08231146108d8578063715018a61461093d5761040d565b806346951239146107425780634b7503341461076d5780634bcab364146107985761040d565b80631f38b9cd1161032357806335faa416116102fd57806335faa41614610682578063412736571461069957806341c61383146107005780634641257d1461072b5761040d565b80631f38b9cd146105cb5780632e1a7d4d146105f65780632ef32948146106315761040d565b8063160d0da51161035f578063160d0da5146105075780631694505e1461053457806318160ddd146105755780631924063e146105a05761040d565b806265318b14610412578063026390011461047757806310d0ffdd146104b85761040d565b3661040d576103b5600b60009054906101000a900473ffffffffffffffffffffffffffffffffffffffff16346112ca565b3373ffffffffffffffffffffffffffffffffffffffff167f3c2bd1b3f5ca07afb09fbee41ac43da2b98d9c2e9832673052e546bd1d4c091d3442604051808381526020018281526020019250505060405180910390a2005b600080fd5b34801561041e57600080fd5b506104616004803603602081101561043557600080fd5b81019080803573ffffffffffffffffffffffffffffffffffffffff169060200190929190505050611404565b6040518082815260200191505060405180910390f35b34801561048357600080fd5b5061048c6114a4565b604051808273ffffffffffffffffffffffffffffffffffffffff16815260200191505060405180910390f35b3480156104c457600080fd5b506104f1600480360360208110156104db57600080fd5b81019080803590602001909291905050506114ca565b6040518082815260200191505060405180910390f35b34801561051357600080fd5b5061051c611515565b60405180821515815260200191505060405180910390f35b34801561054057600080fd5b50610549611528565b604051808273ffffffffffffffffffffffffffffffffffffffff16815260200191505060405180910390f35b34801561058157600080fd5b5061058a61154e565b6040518082815260200191505060405180910390f35b3480156105ac57600080fd5b506105b5611558565b6040518082815260200191505060405180910390f35b3480156105d757600080fd5b506105e061155e565b6040518082815260200191505060405180910390f35b34801561060257600080fd5b5061062f6004803603602081101561061957600080fd5b8101908080359060200190929190505050611564565b005b34801561063d57600080fd5b506106806004803603602081101561065457600080fd5b81019080803573ffffffffffffffffffffffffffffffffffffffff169060200190929190505050611893565b005b34801561068e57600080fd5b50610697611c27565b005b3480156106a557600080fd5b506106e8600480360360208110156106bc57600080fd5b81019080803573ffffffffffffffffffffffffffffffffffffffff169060200190929190505050611c62565b60405180821515815260200191505060405180910390f35b34801561070c57600080fd5b50610715611e8c565b6040518082815260200191505060405180910390f35b34801561073757600080fd5b50610740611e92565b005b34801561074e57600080fd5b50610757612144565b6040518082815260200191505060405180910390f35b34801561077957600080fd5b5061078261214a565b6040518082815260200191505060405180910390f35b3480156107a457600080fd5b5061086a600480360360408110156107bb57600080fd5b81019080803515159060200190929190803590602001906401000000008111156107e457600080fd5b8201836020820111156107f657600080fd5b8035906020019184600183028401116401000000008311171561081857600080fd5b91908080601f016020809104026020016040519081016040528093929190818152602001838380828437600081840152601f19601f82011690508083019250505050505050919291929050505061218b565b60405180821515815260200191505060405180910390f35b34801561088e57600080fd5b50610897612327565b6040518082815260200191505060405180910390f35b3480156108b957600080fd5b506108c261232d565b6040518082815260200191505060405180910390f35b3480156108e457600080fd5b50610927600480360360208110156108fb57600080fd5b81019080803573ffffffffffffffffffffffffffffffffffffffff169060200190929190505050612337565b6040518082815260200191505060405180910390f35b34801561094957600080fd5b50610952612380565b005b34801561096057600080fd5b50610969612506565b604051808273ffffffffffffffffffffffffffffffffffffffff16815260200191505060405180910390f35b3480156109a157600080fd5b506109aa61252c565b6040518082815260200191505060405180910390f35b3480156109cc57600080fd5b50610a0f600480360360208110156109e357600080fd5b81019080803573ffffffffffffffffffffffffffffffffffffffff169060200190929190505050612532565b6040518082600e60200280838360005b83811015610a3a578082015181840152602081019050610a1f565b5050505090500191505060405180910390f35b348015610a5957600080fd5b50610a626126cb565b6040518082815260200191505060405180910390f35b348015610a8457600080fd5b50610a8d6126d0565b6040518082815260200191505060405180910390f35b348015610aaf57600080fd5b50610ab8612711565b6040518082815260200191505060405180910390f35b348015610ada57600080fd5b50610ae3612717565b604051808273ffffffffffffffffffffffffffffffffffffffff16815260200191505060405180910390f35b348015610b1b57600080fd5b50610b2461273d565b604051808273ffffffffffffffffffffffffffffffffffffffff16815260200191505060405180910390f35b348015610b5c57600080fd5b50610b65612766565b6040518082815260200191505060405180910390f35b348015610b8757600080fd5b50610b90612776565b604051808273ffffffffffffffffffffffffffffffffffffffff16815260200191505060405180910390f35b348015610bc857600080fd5b50610bd161279c565b6040518082815260200191505060405180910390f35b348015610bf357600080fd5b50610bfc6127a2565b005b348015610c0a57600080fd5b50610c5760048036036040811015610c2157600080fd5b81019080803573ffffffffffffffffffffffffffffffffffffffff169060200190929190803590602001909291905050506129bf565b60405180821515815260200191505060405180910390f35b348015610c7b57600080fd5b50610c846129e6565b6040518082815260200191505060405180910390f35b348015610ca657600080fd5b50610caf612ab1565b6040518082815260200191505060405180910390f35b348015610cd157600080fd5b50610cfe60048036036020811015610ce857600080fd5b8101908080359060200190929190505050612ab7565b6040518082815260200191505060405180910390f35b348015610d2057600080fd5b50610d29612b99565b6040518082815260200191505060405180910390f35b348015610d4b57600080fd5b50610d8e60048036036020811015610d6257600080fd5b81019080803573ffffffffffffffffffffffffffffffffffffffff169060200190929190505050612b9f565b60405180821515815260200191505060405180910390f35b348015610db257600080fd5b50610df560048036036020811015610dc957600080fd5b81019080803573ffffffffffffffffffffffffffffffffffffffff169060200190929190505050612d7c565b60405180821515815260200191505060405180910390f35b348015610e1957600080fd5b50610e22612fa6565b604051808273ffffffffffffffffffffffffffffffffffffffff16815260200191505060405180910390f35b348015610e5a57600080fd5b50610e63612fcc565b6040518082815260200191505060405180910390f35b348015610e8557600080fd5b50610e8e612fd2565b604051808260ff16815260200191505060405180910390f35b348015610eb357600080fd5b50610ebc612fe5565b604051808273ffffffffffffffffffffffffffffffffffffffff16815260200191505060405180910390f35b348015610ef457600080fd5b50610f2160048036036020811015610f0b57600080fd5b810190808035906020019092919050505061300b565b005b348015610f2f57600080fd5b50610f5c60048036036020811015610f4657600080fd5b81019080803590602001909291905050506131fc565b6040518082815260200191505060405180910390f35b348015610f7e57600080fd5b50610fc160048036036020811015610f9557600080fd5b81019080803573ffffffffffffffffffffffffffffffffffffffff169060200190929190505050613237565b6040518082815260200191505060405180910390f35b348015610fe357600080fd5b5061101060048036036020811015610ffa57600080fd5b8101908080359060200190929190505050613258565b6040518082815260200191505060405180910390f35b34801561103257600080fd5b5061103b6133bf565b6040518082815260200191505060405180910390f35b34801561105d57600080fd5b506110a06004803603602081101561107457600080fd5b81019080803573ffffffffffffffffffffffffffffffffffffffff1690602001909291905050506133c5565b005b3480156110ae57600080fd5b506110b76135d0565b6040518082815260200191505060405180910390f35b3480156110d957600080fd5b506110e26135d6565b005b3480156110f057600080fd5b506111316004803603606081101561110757600080fd5b810190808035906020019092919080359060200190929190803590602001909291905050506135f5565b60405180821515815260200191505060405180910390f35b34801561115557600080fd5b5061115e613877565b604051808273ffffffffffffffffffffffffffffffffffffffff16815260200191505060405180910390f35b34801561119657600080fd5b5061119f61389d565b604051808273ffffffffffffffffffffffffffffffffffffffff16815260200191505060405180910390f35b3480156111d757600080fd5b5061121a600480360360208110156111ee57600080fd5b81019080803573ffffffffffffffffffffffffffffffffffffffff1690602001909291905050506138c3565b6040518082815260200191505060405180910390f35b34801561123c57600080fd5b506112896004803603604081101561125357600080fd5b81019080803573ffffffffffffffffffffffffffffffffffffffff16906020019092919080359060200190929190505050613982565b6040518082815260200191505060405180910390f35b3480156112ab57600080fd5b506112b4613bd2565b6040518082815260200191505060405180910390f35b80471015611340576040517f08c379a000000000000000000000000000000000000000000000000000000000815260040180806020018281038252601d8152602001807f416464726573733a20696e73756666696369656e742062616c616e636500000081525060200191505060405180910390fd5b60008273ffffffffffffffffffffffffffffffffffffffff168260405180600001905060006040518083038185875af1925050503d80600081146113a0576040519150601f19603f3d011682016040523d82523d6000602084013e6113a5565b606091505b50509050806113ff576040517f08c379a000000000000000000000000000000000000000000000000000000000815260040180806020018281038252603a815260200180615d12603a913960400191505060405180910390fd5b505050565b600068010000000000000000601b60008473ffffffffffffffffffffffffffffffffffffffff1673ffffffffffffffffffffffffffffffffffffffff16815260200190815260200160002054601c60008573ffffffffffffffffffffffffffffffffffffffff1673ffffffffffffffffffffffffffffffffffffffff1681526020019081526020016000205460185402038161149c57fe5b049050919050565b600460009054906101000a900473ffffffffffffffffffffffffffffffffffffffff1681565b60006017548211156114db57600080fd5b600082905060006114fa6114f383600a60ff16613be2565b6064613c68565b905060006115088383613cb2565b9050809350505050919050565b600b60149054906101000a900460ff1681565b600660009054906101000a900473ffffffffffffffffffffffffffffffffffffffff1681565b6000601754905090565b60165481565b60145481565b600061156e612766565b1161157857600080fd5b6000339050601c60008273ffffffffffffffffffffffffffffffffffffffff1673ffffffffffffffffffffffffffffffffffffffff168152602001908152602001600020548211156115c957600080fd5b600060646115db84600a60ff16613be2565b816115e257fe5b04905060006115f18483613cb2565b90506115ff60175485613cb2565b60178190555061164e601c60008573ffffffffffffffffffffffffffffffffffffffff1673ffffffffffffffffffffffffffffffffffffffff1681526020019081526020016000205485613cb2565b601c60008573ffffffffffffffffffffffffffffffffffffffff1673ffffffffffffffffffffffffffffffffffffffff168152602001908152602001600020819055506000680100000000000000008202856018540201905080601b60008673ffffffffffffffffffffffffffffffffffffffff1673ffffffffffffffffffffffffffffffffffffffff168152602001908152602001600020600082825403925050819055506116fd83613cfc565b8373ffffffffffffffffffffffffffffffffffffffff167f90ebb005d68efee044927e1e77e1fd0cecc508368aa72c39250a787eed5f0a7086844260405180848152602001838152602001828152602001935050505060405180910390a28373ffffffffffffffffffffffffffffffffffffffff167f29f64f6f46c82c5ecfa955fe7d093e63b4106b6dbe5193e00efd62c7384ef177601d60008773ffffffffffffffffffffffffffffffffffffffff1673ffffffffffffffffffffffffffffffffffffffff16815260200190815260200160002060000154601c60008873ffffffffffffffffffffffffffffffffffffffff1673ffffffffffffffffffffffffffffffffffffffff16815260200190815260200160002054601d60008973ffffffffffffffffffffffffffffffffffffffff1673ffffffffffffffffffffffffffffffffffffffff16815260200190815260200160002060010154426040518085815260200184815260200183815260200182815260200194505050505060405180910390a261188c613e36565b5050505050565b61189b613f87565b73ffffffffffffffffffffffffffffffffffffffff1660008054906101000a900473ffffffffffffffffffffffffffffffffffffffff1673ffffffffffffffffffffffffffffffffffffffff161461195b576040517f08c379a00000000000000000000000000000000000000000000000000000000081526004018080602001828103825260208152602001807f4f776e61626c653a2063616c6c6572206973206e6f7420746865206f776e657281525060200191505060405180910390fd5b600073ffffffffffffffffffffffffffffffffffffffff168173ffffffffffffffffffffffffffffffffffffffff1614156119fe576040517f08c379a00000000000000000000000000000000000000000000000000000000081526004018080602001828103825260128152602001807f526f75746572206d75737420626520736574000000000000000000000000000081525060200191505060405180910390fd5b80600760006101000a81548173ffffffffffffffffffffffffffffffffffffffff021916908373ffffffffffffffffffffffffffffffffffffffff160217905550600660009054906101000a900473ffffffffffffffffffffffffffffffffffffffff1673ffffffffffffffffffffffffffffffffffffffff1663ad5c46486040518163ffffffff1660e01b815260040160206040518083038186803b158015611aa757600080fd5b505afa158015611abb573d6000803e3d6000fd5b505050506040513d6020811015611ad157600080fd5b810190808051906020019092919050505073ffffffffffffffffffffffffffffffffffffffff16600760009054906101000a900473ffffffffffffffffffffffffffffffffffffffff1673ffffffffffffffffffffffffffffffffffffffff1663ad5c46486040518163ffffffff1660e01b815260040160206040518083038186803b158015611b6057600080fd5b505afa158015611b74573d6000803e3d6000fd5b505050506040513d6020811015611b8a57600080fd5b810190808051906020019092919050505073ffffffffffffffffffffffffffffffffffffffff1614611c24576040517f08c379a00000000000000000000000000000000000000000000000000000000081526004018080602001828103825260188152602001807f526f75746572206973206e6f7420636f6d70617469626c65000000000000000081525060200191505060405180910390fd5b50565b60006019541115611c6057611c51611c40601954613f8f565b601a54614d0e90919063ffffffff16565b601a8190555060006019819055505b565b6000611c6c613f87565b73ffffffffffffffffffffffffffffffffffffffff1660008054906101000a900473ffffffffffffffffffffffffffffffffffffffff1673ffffffffffffffffffffffffffffffffffffffff1614611d2c576040517f08c379a00000000000000000000000000000000000000000000000000000000081526004018080602001828103825260208152602001807f4f776e61626c653a2063616c6c6572206973206e6f7420746865206f776e657281525060200191505060405180910390fd5b611d3582614d96565b611da7576040517f08c379a00000000000000000000000000000000000000000000000000000000081526004018080602001828103825260128152602001807f4d5553545f42455f415f434f4e5452414354000000000000000000000000000081525060200191505060405180910390fd5b6000600660009054906101000a900473ffffffffffffffffffffffffffffffffffffffff16905082600660006101000a81548173ffffffffffffffffffffffffffffffffffffffff021916908373ffffffffffffffffffffffffffffffffffffffff1602179055507fb395e8b35432519316e0631f9c32b07f536482e5491701c5637553f6bdd3eb70818442604051808473ffffffffffffffffffffffffffffffffffffffff1681526020018373ffffffffffffffffffffffffffffffffffffffff168152602001828152602001935050505060405180910390a16001915050919050565b600f5481565b6000611e9c613bd2565b11611ea657600080fd5b60003390506000611eb5613bd2565b9050680100000000000000008102601b60008473ffffffffffffffffffffffffffffffffffffffff1673ffffffffffffffffffffffffffffffffffffffff16815260200190815260200160002060008282540192505081905550600360009054906101000a900473ffffffffffffffffffffffffffffffffffffffff1673ffffffffffffffffffffffffffffffffffffffff1663a9059cbb83836040518363ffffffff1660e01b8152600401808373ffffffffffffffffffffffffffffffffffffffff16815260200182815260200192505050602060405180830381600087803b158015611fa257600080fd5b505af1158015611fb6573d6000803e3d6000fd5b505050506040513d6020811015611fcc57600080fd5b81019080805190602001909291905050505061202a601d60008473ffffffffffffffffffffffffffffffffffffffff1673ffffffffffffffffffffffffffffffffffffffff1681526020019081526020016000206001015482614d0e565b601d60008473ffffffffffffffffffffffffffffffffffffffff1673ffffffffffffffffffffffffffffffffffffffff168152602001908152602001600020600101819055506001601d60008473ffffffffffffffffffffffffffffffffffffffff1673ffffffffffffffffffffffffffffffffffffffff168152602001908152602001600020600b01600082825401925050819055506001600d6000828254019250508190555080600f600082825401925050819055508173ffffffffffffffffffffffffffffffffffffffff167f1b091269e929df55d64d6ea7e9cadbe4fb38dce5ccdc995767bc515030dbfbbf8242604051808381526020018281526020019250505060405180910390a2612140613e36565b5050565b601a5481565b600080670de0b6b3a76400009050600061217261216b83600a60ff16613be2565b6064613c68565b905060006121808383613cb2565b905080935050505090565b6000612195613f87565b73ffffffffffffffffffffffffffffffffffffffff1660008054906101000a900473ffffffffffffffffffffffffffffffffffffffff1673ffffffffffffffffffffffffffffffffffffffff1614612255576040517f08c379a00000000000000000000000000000000000000000000000000000000081526004018080602001828103825260208152602001807f4f776e61626c653a2063616c6c6572206973206e6f7420746865206f776e657281525060200191505060405180910390fd5b82600b60146101000a81548160ff0219169083151502179055507f6da406f36a1d38f12c4fe71cb3bb0a032246cfcb253c9807f0b2dd484ed2f05f83834260405180841515815260200180602001838152602001828103825284818151815260200191508051906020019080838360005b838110156122e15780820151818401526020810190506122c6565b50505050905090810190601f16801561230e5780820380516001836020036101000a031916815260200191505b5094505050505060405180910390a16001905092915050565b600d5481565b6000600254905090565b6000601c60008373ffffffffffffffffffffffffffffffffffffffff1673ffffffffffffffffffffffffffffffffffffffff168152602001908152602001600020549050919050565b612388613f87565b73ffffffffffffffffffffffffffffffffffffffff1660008054906101000a900473ffffffffffffffffffffffffffffffffffffffff1673ffffffffffffffffffffffffffffffffffffffff1614612448576040517f08c379a00000000000000000000000000000000000000000000000000000000081526004018080602001828103825260208152602001807f4f776e61626c653a2063616c6c6572206973206e6f7420746865206f776e657281525060200191505060405180910390fd5b600073ffffffffffffffffffffffffffffffffffffffff1660008054906101000a900473ffffffffffffffffffffffffffffffffffffffff1673ffffffffffffffffffffffffffffffffffffffff167f8be0079c531659141344cd1fd0a4f28419497f9722a3daafe3b4186f6b6457e060405160405180910390a360008060006101000a81548173ffffffffffffffffffffffffffffffffffffffff021916908373ffffffffffffffffffffffffffffffffffffffff160217905550565b600360009054906101000a900473ffffffffffffffffffffffffffffffffffffffff1681565b60105481565b61253a615c59565b612542615c7c565b601d60008473ffffffffffffffffffffffffffffffffffffffff1673ffffffffffffffffffffffffffffffffffffffff168152602001908152602001600020604051806101c001604052908160008201548152602001600182015481526020016002820154815260200160038201548152602001600482015481526020016005820154815260200160068201548152602001600782015481526020016008820154815260200160098201548152602001600a8201548152602001600b8201548152602001600c8201548152602001600d820154815250509050612623615c59565b604051806101c0016040528083600001518152602001836020015181526020018360600151815260200183604001518152602001836080015181526020018360a0015181526020018360c0015181526020018360e0015181526020018361012001518152602001836101400151815260200183610160015181526020018361018001518152602001836101a00151815260200183610100015181525090508092505050919050565b600281565b600080670de0b6b3a7640000905060006126f86126f183600a60ff16613be2565b6064613c68565b905060006127068383614d0e565b905080935050505090565b61546081565b600560009054906101000a900473ffffffffffffffffffffffffffffffffffffffff1681565b60008060009054906101000a900473ffffffffffffffffffffffffffffffffffffffff16905090565b600061277133612337565b905090565b600860009054906101000a900473ffffffffffffffffffffffffffffffffffffffff1681565b60135481565b3373ffffffffffffffffffffffffffffffffffffffff16600160009054906101000a900473ffffffffffffffffffffffffffffffffffffffff1673ffffffffffffffffffffffffffffffffffffffff1614612848576040517f08c379a0000000000000000000000000000000000000000000000000000000008152600401808060200182810382526023815260200180615d6d6023913960400191505060405180910390fd5b60025442116128bf576040517f08c379a000000000000000000000000000000000000000000000000000000000815260040180806020018281038252601f8152602001807f436f6e7472616374206973206c6f636b656420756e74696c203720646179730081525060200191505060405180910390fd5b600160009054906101000a900473ffffffffffffffffffffffffffffffffffffffff1673ffffffffffffffffffffffffffffffffffffffff1660008054906101000a900473ffffffffffffffffffffffffffffffffffffffff1673ffffffffffffffffffffffffffffffffffffffff167f8be0079c531659141344cd1fd0a4f28419497f9722a3daafe3b4186f6b6457e060405160405180910390a3600160009054906101000a900473ffffffffffffffffffffffffffffffffffffffff166000806101000a81548173ffffffffffffffffffffffffffffffffffffffff021916908373ffffffffffffffffffffffffffffffffffffffff160217905550565b6000806129ca612766565b116129d457600080fd5b6129de8383614da9565b905092915050565b6000600360009054906101000a900473ffffffffffffffffffffffffffffffffffffffff1673ffffffffffffffffffffffffffffffffffffffff166370a08231306040518263ffffffff1660e01b8152600401808273ffffffffffffffffffffffffffffffffffffffff16815260200191505060206040518083038186803b158015612a7157600080fd5b505afa158015612a85573d6000803e3d6000fd5b505050506040513d6020811015612a9b57600080fd5b8101908080519060200190929190505050905090565b60115481565b6000600360009054906101000a900473ffffffffffffffffffffffffffffffffffffffff1673ffffffffffffffffffffffffffffffffffffffff1663095ea7b330846040518363ffffffff1660e01b8152600401808373ffffffffffffffffffffffffffffffffffffffff16815260200182815260200192505050602060405180830381600087803b158015612b4c57600080fd5b505af1158015612b60573d6000803e3d6000fd5b505050506040513d6020811015612b7657600080fd5b810190808051906020019092919050505050612b923383613982565b9050919050565b600e5481565b6000612ba9613f87565b73ffffffffffffffffffffffffffffffffffffffff1660008054906101000a900473ffffffffffffffffffffffffffffffffffffffff1673ffffffffffffffffffffffffffffffffffffffff1614612c69576040517f08c379a00000000000000000000000000000000000000000000000000000000081526004018080602001828103825260208152602001807f4f776e61626c653a2063616c6c6572206973206e6f7420746865206f776e657281525060200191505060405180910390fd5b612c7282614d96565b612ce4576040517f08c379a00000000000000000000000000000000000000000000000000000000081526004018080602001828103825260128152602001807f4d5553545f42455f415f434f4e5452414354000000000000000000000000000081525060200191505060405180910390fd5b81600460006101000a81548173ffffffffffffffffffffffffffffffffffffffff021916908373ffffffffffffffffffffffffffffffffffffffff1602179055508173ffffffffffffffffffffffffffffffffffffffff167f7f2b7d9344af529cc4344a736b35ea914d8d4430b7bc3f8b556db4be2349beb4426040518082815260200191505060405180910390a260019050919050565b6000612d86613f87565b73ffffffffffffffffffffffffffffffffffffffff1660008054906101000a900473ffffffffffffffffffffffffffffffffffffffff1673ffffffffffffffffffffffffffffffffffffffff1614612e46576040517f08c379a00000000000000000000000000000000000000000000000000000000081526004018080602001828103825260208152602001807f4f776e61626c653a2063616c6c6572206973206e6f7420746865206f776e657281525060200191505060405180910390fd5b612e4f82614d96565b612ec1576040517f08c379a00000000000000000000000000000000000000000000000000000000081526004018080602001828103825260128152602001807f4d5553545f42455f415f434f4e5452414354000000000000000000000000000081525060200191505060405180910390fd5b6000600760009054906101000a900473ffffffffffffffffffffffffffffffffffffffff16905082600760006101000a81548173ffffffffffffffffffffffffffffffffffffffff021916908373ffffffffffffffffffffffffffffffffffffffff1602179055507f4c7e106277c77263f08ef29bf590aed7b6dabc6f2c9d2dba5ceea55700cbc53c818442604051808473ffffffffffffffffffffffffffffffffffffffff1681526020018373ffffffffffffffffffffffffffffffffffffffff168152602001828152602001935050505060405180910390a16001915050919050565b600760009054906101000a900473ffffffffffffffffffffffffffffffffffffffff1681565b60155481565b601260009054906101000a900460ff1681565b600b60009054906101000a900473ffffffffffffffffffffffffffffffffffffffff1681565b613013613f87565b73ffffffffffffffffffffffffffffffffffffffff1660008054906101000a900473ffffffffffffffffffffffffffffffffffffffff1673ffffffffffffffffffffffffffffffffffffffff16146130d3576040517f08c379a00000000000000000000000000000000000000000000000000000000081526004018080602001828103825260208152602001807f4f776e61626c653a2063616c6c6572206973206e6f7420746865206f776e657281525060200191505060405180910390fd5b60008054906101000a900473ffffffffffffffffffffffffffffffffffffffff16600160006101000a81548173ffffffffffffffffffffffffffffffffffffffff021916908373ffffffffffffffffffffffffffffffffffffffff16021790555060008060006101000a81548173ffffffffffffffffffffffffffffffffffffffff021916908373ffffffffffffffffffffffffffffffffffffffff160217905550804201600281905550600073ffffffffffffffffffffffffffffffffffffffff1660008054906101000a900473ffffffffffffffffffffffffffffffffffffffff1673ffffffffffffffffffffffffffffffffffffffff167f8be0079c531659141344cd1fd0a4f28419497f9722a3daafe3b4186f6b6457e060405160405180910390a350565b60008061321761321084600a60ff16613be2565b6064613c68565b905060006132258483613cb2565b90506000819050809350505050919050565b60008173ffffffffffffffffffffffffffffffffffffffff16319050919050565b6000600360009054906101000a900473ffffffffffffffffffffffffffffffffffffffff1673ffffffffffffffffffffffffffffffffffffffff166323b872dd3330856040518463ffffffff1660e01b8152600401808473ffffffffffffffffffffffffffffffffffffffff1681526020018373ffffffffffffffffffffffffffffffffffffffff1681526020018281526020019350505050602060405180830381600087803b15801561330b57600080fd5b505af115801561331f573d6000803e3d6000fd5b505050506040513d602081101561333557600080fd5b810190808051906020019092919050505061334f57600080fd5b816011600082825401925050819055503373ffffffffffffffffffffffffffffffffffffffff167f0da1788c3e861a58a47f0d46073b13c4d66efcc259714744f920d1afe7b8dee58342604051808381526020018281526020019250505060405180910390a26011549050919050565b600c5481565b6133cd613f87565b73ffffffffffffffffffffffffffffffffffffffff1660008054906101000a900473ffffffffffffffffffffffffffffffffffffffff1673ffffffffffffffffffffffffffffffffffffffff161461348d576040517f08c379a00000000000000000000000000000000000000000000000000000000081526004018080602001828103825260208152602001807f4f776e61626c653a2063616c6c6572206973206e6f7420746865206f776e657281525060200191505060405180910390fd5b600073ffffffffffffffffffffffffffffffffffffffff168173ffffffffffffffffffffffffffffffffffffffff161415613513576040517f08c379a0000000000000000000000000000000000000000000000000000000008152600401808060200182810382526026815260200180615cec6026913960400191505060405180910390fd5b8073ffffffffffffffffffffffffffffffffffffffff1660008054906101000a900473ffffffffffffffffffffffffffffffffffffffff1673ffffffffffffffffffffffffffffffffffffffff167f8be0079c531659141344cd1fd0a4f28419497f9722a3daafe3b4186f6b6457e060405160405180910390a3806000806101000a81548173ffffffffffffffffffffffffffffffffffffffff021916908373ffffffffffffffffffffffffffffffffffffffff16021790555050565b60195481565b60006135e0613bd2565b116135ea57600080fd5b6135f2615496565b50565b60006135ff613f87565b73ffffffffffffffffffffffffffffffffffffffff1660008054906101000a900473ffffffffffffffffffffffffffffffffffffffff1673ffffffffffffffffffffffffffffffffffffffff16146136bf576040517f08c379a00000000000000000000000000000000000000000000000000000000081526004018080602001828103825260208152602001807f4f776e61626c653a2063616c6c6572206973206e6f7420746865206f776e657281525060200191505060405180910390fd5b600b60149054906101000a900460ff161561377357600a6136fb836136ed8688614d0e90919063ffffffff16565b614d0e90919063ffffffff16565b1461376e576040517f08c379a000000000000000000000000000000000000000000000000000000000815260040180806020018281038252601d8152602001807f54454e5f504f5254494f4e535f524551554952455f4449564953494f4e00000081525060200191505060405180910390fd5b613808565b600a6137888486614d0e90919063ffffffff16565b1480156137955750600082145b613807576040517f08c379a000000000000000000000000000000000000000000000000000000000815260040180806020018281038252601d8152602001807f54454e5f504f5254494f4e535f524551554952455f4449564953494f4e00000081525060200191505060405180910390fd5b5b8360138190555082601481905550816015819055507f08d110ad433f1256a341d6dd6049eacf2a5973940ebcf5afdfed000f3775b20c848484426040518085815260200184815260200183815260200182815260200194505050505060405180910390a1600190509392505050565b600960009054906101000a900473ffffffffffffffffffffffffffffffffffffffff1681565b600a60009054906101000a900473ffffffffffffffffffffffffffffffffffffffff1681565b60008061390060646138f2601260009054906101000a900460ff1660ff16601154613be290919063ffffffff16565b613c6890919063ffffffff16565b905060006017541161391357600061397a565b61397960175461396b601c60008773ffffffffffffffffffffffffffffffffffffffff1673ffffffffffffffffffffffffffffffffffffffff1681526020019081526020016000205484613be290919063ffffffff16565b613c6890919063ffffffff16565b5b915050919050565b6000600360009054906101000a900473ffffffffffffffffffffffffffffffffffffffff1673ffffffffffffffffffffffffffffffffffffffff166323b872dd3330856040518463ffffffff1660e01b8152600401808473ffffffffffffffffffffffffffffffffffffffff1681526020018373ffffffffffffffffffffffffffffffffffffffff1681526020018281526020019350505050602060405180830381600087803b158015613a3557600080fd5b505af1158015613a49573d6000803e3d6000fd5b505050506040513d6020811015613a5f57600080fd5b8101908080519060200190929190505050613a7957600080fd5b816010600082825401925050819055506000613a95848461578a565b90508373ffffffffffffffffffffffffffffffffffffffff167f29f64f6f46c82c5ecfa955fe7d093e63b4106b6dbe5193e00efd62c7384ef177601d60008773ffffffffffffffffffffffffffffffffffffffff1673ffffffffffffffffffffffffffffffffffffffff16815260200190815260200160002060000154601c60008873ffffffffffffffffffffffffffffffffffffffff1673ffffffffffffffffffffffffffffffffffffffff16815260200190815260200160002054601d60008973ffffffffffffffffffffffffffffffffffffffff1673ffffffffffffffffffffffffffffffffffffffff16815260200190815260200160002060010154426040518085815260200184815260200183815260200182815260200194505050505060405180910390a2613bc8613e36565b8091505092915050565b6000613bdd33611404565b905090565b600080831415613bf55760009050613c62565b6000828402905082848281613c0657fe5b0414613c5d576040517f08c379a0000000000000000000000000000000000000000000000000000000008152600401808060200182810382526021815260200180615d4c6021913960400191505060405180910390fd5b809150505b92915050565b6000613caa83836040518060400160405280601a81526020017f536166654d6174683a206469766973696f6e206279207a65726f000000000000815250615ab4565b905092915050565b6000613cf483836040518060400160405280601e81526020017f536166654d6174683a207375627472616374696f6e206f766572666c6f770000815250615b7a565b905092915050565b6000613d12600a83613c6890919063ffffffff16565b90506000613d2b60135483613be290919063ffffffff16565b90506000613d4460145484613be290919063ffffffff16565b90506000613d5d60155485613be290919063ffffffff16565b9050600b60149054906101000a900460ff1615613daf57613d8981601954614d0e90919063ffffffff16565b601981905550613da483601154614d0e90919063ffffffff16565b601181905550613de6565b613dc481601154614d0e90919063ffffffff16565b601181905550613ddf83601154614d0e90919063ffffffff16565b6011819055505b60006017541115613e1e57613e1360185460175468010000000000000000850281613e0d57fe5b04614d0e565b601881905550613e2f565b816011600082825401925050819055505b5050505050565b6000429050615460613e5360165483615c3a90919063ffffffff16565b1115613ea7577f2cfce469a63f2e9972b7f23da751e6943ed2b091c10e40b5c43b5f6105bf20ea613e826129e6565b82604051808381526020018281526020019250505060405180910390a1806016819055505b6002613eb582600e54615c3a565b118015613ec457506000601754115b15613f84576000613f1a62015180613f0c6064613efe601260009054906101000a900460ff1660ff16601154613be290919063ffffffff16565b613c6890919063ffffffff16565b613c6890919063ffffffff16565b90506000613f33600e5484615c3a90919063ffffffff16565b82029050613f4c81601154615c3a90919063ffffffff16565b601181905550613f7460185460175468010000000000000000840281613f6e57fe5b04614d0e565b60188190555082600e8190555050505b50565b600033905090565b600060606000600660009054906101000a900473ffffffffffffffffffffffffffffffffffffffff1673ffffffffffffffffffffffffffffffffffffffff1663ad5c46486040518163ffffffff1660e01b815260040160206040518083038186803b158015613ffd57600080fd5b505afa158015614011573d6000803e3d6000fd5b505050506040513d602081101561402757600080fd5b810190808051906020019092919050505073ffffffffffffffffffffffffffffffffffffffff16600860009054906101000a900473ffffffffffffffffffffffffffffffffffffffff1673ffffffffffffffffffffffffffffffffffffffff161490508061469e57600267ffffffffffffffff811180156140a757600080fd5b506040519080825280602002602001820160405280156140d65781602001602082028036833780820191505090505b509150600860009054906101000a900473ffffffffffffffffffffffffffffffffffffffff168260008151811061410957fe5b602002602001019073ffffffffffffffffffffffffffffffffffffffff16908173ffffffffffffffffffffffffffffffffffffffff1681525050600660009054906101000a900473ffffffffffffffffffffffffffffffffffffffff1673ffffffffffffffffffffffffffffffffffffffff1663ad5c46486040518163ffffffff1660e01b815260040160206040518083038186803b1580156141ab57600080fd5b505afa1580156141bf573d6000803e3d6000fd5b505050506040513d60208110156141d557600080fd5b8101908080519060200190929190505050826001815181106141f357fe5b602002602001019073ffffffffffffffffffffffffffffffffffffffff16908173ffffffffffffffffffffffffffffffffffffffff1681525050600360009054906101000a900473ffffffffffffffffffffffffffffffffffffffff1673ffffffffffffffffffffffffffffffffffffffff1663095ea7b3600760009054906101000a900473ffffffffffffffffffffffffffffffffffffffff16866040518363ffffffff1660e01b8152600401808373ffffffffffffffffffffffffffffffffffffffff16815260200182815260200192505050602060405180830381600087803b1580156142e257600080fd5b505af11580156142f6573d6000803e3d6000fd5b505050506040513d602081101561430c57600080fd5b810190808051906020019092919050505061432657600080fd5b6000600560009054906101000a900473ffffffffffffffffffffffffffffffffffffffff1673ffffffffffffffffffffffffffffffffffffffff166370a08231306040518263ffffffff1660e01b8152600401808273ffffffffffffffffffffffffffffffffffffffff16815260200191505060206040518083038186803b1580156143b157600080fd5b505afa1580156143c5573d6000803e3d6000fd5b505050506040513d60208110156143db57600080fd5b81019080805190602001909291905050509050600760009054906101000a900473ffffffffffffffffffffffffffffffffffffffff1673ffffffffffffffffffffffffffffffffffffffff166338ed17398660008630614445603c42614d0e90919063ffffffff16565b6040518663ffffffff1660e01b815260040180868152602001858152602001806020018473ffffffffffffffffffffffffffffffffffffffff168152602001838152602001828103825285818151815260200191508051906020019060200280838360005b838110156144c55780820151818401526020810190506144aa565b505050509050019650505050505050600060405180830381600087803b1580156144ee57600080fd5b505af1158015614502573d6000803e3d6000fd5b505050506040513d6000823e3d601f19601f82011682018060405250602081101561452c57600080fd5b810190808051604051939291908464010000000082111561454c57600080fd5b8382019150602082018581111561456257600080fd5b825186602082028301116401000000008211171561457f57600080fd5b8083526020830192505050908051906020019060200280838360005b838110156145b657808201518184015260208101905061459b565b505050509050016040525050505061469a81600560009054906101000a900473ffffffffffffffffffffffffffffffffffffffff1673ffffffffffffffffffffffffffffffffffffffff166370a08231306040518263ffffffff1660e01b8152600401808273ffffffffffffffffffffffffffffffffffffffff16815260200191505060206040518083038186803b15801561465157600080fd5b505afa158015614665573d6000803e3d6000fd5b505050506040513d602081101561467b57600080fd5b8101908080519060200190929190505050613cb290919063ffffffff16565b9450505b600267ffffffffffffffff811180156146b657600080fd5b506040519080825280602002602001820160405280156146e55781602001602082028036833780820191505090505b509150600660009054906101000a900473ffffffffffffffffffffffffffffffffffffffff1673ffffffffffffffffffffffffffffffffffffffff1663ad5c46486040518163ffffffff1660e01b815260040160206040518083038186803b15801561475057600080fd5b505afa158015614764573d6000803e3d6000fd5b505050506040513d602081101561477a57600080fd5b81019080805190602001909291905050508260008151811061479857fe5b602002602001019073ffffffffffffffffffffffffffffffffffffffff16908173ffffffffffffffffffffffffffffffffffffffff1681525050600460009054906101000a900473ffffffffffffffffffffffffffffffffffffffff168260018151811061480257fe5b602002602001019073ffffffffffffffffffffffffffffffffffffffff16908173ffffffffffffffffffffffffffffffffffffffff1681525050600560009054906101000a900473ffffffffffffffffffffffffffffffffffffffff1673ffffffffffffffffffffffffffffffffffffffff1663095ea7b3600660009054906101000a900473ffffffffffffffffffffffffffffffffffffffff16866040518363ffffffff1660e01b8152600401808373ffffffffffffffffffffffffffffffffffffffff16815260200182815260200192505050602060405180830381600087803b1580156148f157600080fd5b505af1158015614905573d6000803e3d6000fd5b505050506040513d602081101561491b57600080fd5b810190808051906020019092919050505061493557600080fd5b600660009054906101000a900473ffffffffffffffffffffffffffffffffffffffff1673ffffffffffffffffffffffffffffffffffffffff166338ed1739856000853061498c603c42614d0e90919063ffffffff16565b6040518663ffffffff1660e01b815260040180868152602001858152602001806020018473ffffffffffffffffffffffffffffffffffffffff168152602001838152602001828103825285818151815260200191508051906020019060200280838360005b83811015614a0c5780820151818401526020810190506149f1565b505050509050019650505050505050600060405180830381600087803b158015614a3557600080fd5b505af1158015614a49573d6000803e3d6000fd5b505050506040513d6000823e3d601f19601f820116820180604052506020811015614a7357600080fd5b8101908080516040519392919084640100000000821115614a9357600080fd5b83820191506020820185811115614aa957600080fd5b8251866020820283011164010000000082111715614ac657600080fd5b8083526020830192505050908051906020019060200280838360005b83811015614afd578082015181840152602081019050614ae2565b50505050905001604052505050506000600460009054906101000a900473ffffffffffffffffffffffffffffffffffffffff1673ffffffffffffffffffffffffffffffffffffffff166370a08231306040518263ffffffff1660e01b8152600401808273ffffffffffffffffffffffffffffffffffffffff16815260200191505060206040518083038186803b158015614b9657600080fd5b505afa158015614baa573d6000803e3d6000fd5b505050506040513d6020811015614bc057600080fd5b81019080805190602001909291905050509050600460009054906101000a900473ffffffffffffffffffffffffffffffffffffffff1673ffffffffffffffffffffffffffffffffffffffff1663a9059cbb600960009054906101000a900473ffffffffffffffffffffffffffffffffffffffff16836040518363ffffffff1660e01b8152600401808373ffffffffffffffffffffffffffffffffffffffff16815260200182815260200192505050602060405180830381600087803b158015614c8857600080fd5b505af1158015614c9c573d6000803e3d6000fd5b505050506040513d6020811015614cb257600080fd5b8101908080519060200190929190505050507fc7519e1412f71b225dc9594c1635e43a075ed355d27805c4416032c0555afa098142604051808381526020018281526020019250505060405180910390a1809350505050919050565b600080828401905083811015614d8c576040517f08c379a000000000000000000000000000000000000000000000000000000000815260040180806020018281038252601b8152602001807f536166654d6174683a206164646974696f6e206f766572666c6f77000000000081525060200191505060405180910390fd5b8091505092915050565b600080823b905060008111915050919050565b600080339050601c60008273ffffffffffffffffffffffffffffffffffffffff1673ffffffffffffffffffffffffffffffffffffffff16815260200190815260200160002054831115614dfb57600080fd5b6000614e05613bd2565b1115614e1457614e13611e92565b5b614e5d601c60008373ffffffffffffffffffffffffffffffffffffffff1673ffffffffffffffffffffffffffffffffffffffff1681526020019081526020016000205484613cb2565b601c60008373ffffffffffffffffffffffffffffffffffffffff1673ffffffffffffffffffffffffffffffffffffffff16815260200190815260200160002081905550614ee9601c60008673ffffffffffffffffffffffffffffffffffffffff1673ffffffffffffffffffffffffffffffffffffffff1681526020019081526020016000205484614d0e565b601c60008673ffffffffffffffffffffffffffffffffffffffff1673ffffffffffffffffffffffffffffffffffffffff168152602001908152602001600020819055508260185402601b60008373ffffffffffffffffffffffffffffffffffffffff1673ffffffffffffffffffffffffffffffffffffffff168152602001908152602001600020600082825403925050819055508260185402601b60008673ffffffffffffffffffffffffffffffffffffffff1673ffffffffffffffffffffffffffffffffffffffff168152602001908152602001600020600082825401925050819055506000601d60008673ffffffffffffffffffffffffffffffffffffffff1673ffffffffffffffffffffffffffffffffffffffff1681526020019081526020016000206000015414801561506257506000601d60008673ffffffffffffffffffffffffffffffffffffffff1673ffffffffffffffffffffffffffffffffffffffff16815260200190815260200160002060060154145b15615079576001600c600082825401925050819055505b6001601d60008373ffffffffffffffffffffffffffffffffffffffff1673ffffffffffffffffffffffffffffffffffffffff168152602001908152602001600020600c016000828254019250508190555082601d60008373ffffffffffffffffffffffffffffffffffffffff1673ffffffffffffffffffffffffffffffffffffffff1681526020019081526020016000206005016000828254019250508190555082601d60008673ffffffffffffffffffffffffffffffffffffffff1673ffffffffffffffffffffffffffffffffffffffff168152602001908152602001600020600601600082825401925050819055506001601d60008673ffffffffffffffffffffffffffffffffffffffff1673ffffffffffffffffffffffffffffffffffffffff168152602001908152602001600020600d01600082825401925050819055506001600d600082825401925050819055508373ffffffffffffffffffffffffffffffffffffffff168173ffffffffffffffffffffffffffffffffffffffff167f91c7d71a3ae3fb7cf61e00517bf4868e9e23d0bace5e304cbc3b68de5d85350e8542604051808381526020018281526020019250505060405180910390a38073ffffffffffffffffffffffffffffffffffffffff167f29f64f6f46c82c5ecfa955fe7d093e63b4106b6dbe5193e00efd62c7384ef177601d60008473ffffffffffffffffffffffffffffffffffffffff1673ffffffffffffffffffffffffffffffffffffffff16815260200190815260200160002060000154601c60008573ffffffffffffffffffffffffffffffffffffffff1673ffffffffffffffffffffffffffffffffffffffff16815260200190815260200160002054601d60008673ffffffffffffffffffffffffffffffffffffffff1673ffffffffffffffffffffffffffffffffffffffff16815260200190815260200160002060010154426040518085815260200184815260200183815260200182815260200194505050505060405180910390a28373ffffffffffffffffffffffffffffffffffffffff167f29f64f6f46c82c5ecfa955fe7d093e63b4106b6dbe5193e00efd62c7384ef177601d60008773ffffffffffffffffffffffffffffffffffffffff1673ffffffffffffffffffffffffffffffffffffffff16815260200190815260200160002060000154601c60008873ffffffffffffffffffffffffffffffffffffffff1673ffffffffffffffffffffffffffffffffffffffff16815260200190815260200160002054601d60008973ffffffffffffffffffffffffffffffffffffffff1673ffffffffffffffffffffffffffffffffffffffff16815260200190815260200160002060010154426040518085815260200184815260200183815260200182815260200194505050505060405180910390a2600191505092915050565b60008033905060006154a782611404565b9050680100000000000000008102601b60008473ffffffffffffffffffffffffffffffffffffffff1673ffffffffffffffffffffffffffffffffffffffff16815260200190815260200160002060008282540192505081905550600061550d338361578a565b90508273ffffffffffffffffffffffffffffffffffffffff167f193a876ac91d11a4a0a71ebef73b195ba55aa7c16d6755c93c21d973e692a02c83834260405180848152602001838152602001828152602001935050505060405180910390a26155b9601d60008573ffffffffffffffffffffffffffffffffffffffff1673ffffffffffffffffffffffffffffffffffffffff1681526020019081526020016000206002015483614d0e565b601d60008573ffffffffffffffffffffffffffffffffffffffff1673ffffffffffffffffffffffffffffffffffffffff168152602001908152602001600020600201819055506001601d60008573ffffffffffffffffffffffffffffffffffffffff1673ffffffffffffffffffffffffffffffffffffffff168152602001908152602001600020600801600082825401925050819055508273ffffffffffffffffffffffffffffffffffffffff167f29f64f6f46c82c5ecfa955fe7d093e63b4106b6dbe5193e00efd62c7384ef177601d60008673ffffffffffffffffffffffffffffffffffffffff1673ffffffffffffffffffffffffffffffffffffffff16815260200190815260200160002060000154601c60008773ffffffffffffffffffffffffffffffffffffffff1673ffffffffffffffffffffffffffffffffffffffff16815260200190815260200160002054601d60008873ffffffffffffffffffffffffffffffffffffffff1673ffffffffffffffffffffffffffffffffffffffff16815260200190815260200160002060010154426040518085815260200184815260200183815260200182815260200194505050505060405180910390a2615781613e36565b80935050505090565b600080601d60008573ffffffffffffffffffffffffffffffffffffffff1673ffffffffffffffffffffffffffffffffffffffff1681526020019081526020016000206000015414801561581f57506000601d60008573ffffffffffffffffffffffffffffffffffffffff1673ffffffffffffffffffffffffffffffffffffffff16815260200190815260200160002060060154145b15615836576001600c600082825401925050819055505b6001600d600082825401925050819055506000606461585984600a60ff16613be2565b8161586057fe5b049050600061586f8483613cb2565b90508473ffffffffffffffffffffffffffffffffffffffff167fb49bb132260f6aa1c86e2d2a3957c097216e6ec9b5fa15867289f058b4d297ac85834260405180848152602001838152602001828152602001935050505060405180910390a26000811180156158eb57506017546158e982601754614d0e565b115b6158f457600080fd5b60006017541115615914578060176000828254019250508190555061591c565b806017819055505b61592582613cfc565b61596e601c60008773ffffffffffffffffffffffffffffffffffffffff1673ffffffffffffffffffffffffffffffffffffffff1681526020019081526020016000205482614d0e565b601c60008773ffffffffffffffffffffffffffffffffffffffff1673ffffffffffffffffffffffffffffffffffffffff1681526020019081526020016000208190555060008160185402905080601b60008873ffffffffffffffffffffffffffffffffffffffff1673ffffffffffffffffffffffffffffffffffffffff1681526020019081526020016000206000828254019250508190555084601d60008873ffffffffffffffffffffffffffffffffffffffff1673ffffffffffffffffffffffffffffffffffffffff168152602001908152602001600020600001600082825401925050819055506001601d60008873ffffffffffffffffffffffffffffffffffffffff1673ffffffffffffffffffffffffffffffffffffffff1681526020019081526020016000206007016000828254019250508190555081935050505092915050565b60008083118290615b60576040517f08c379a00000000000000000000000000000000000000000000000000000000081526004018080602001828103825283818151815260200191508051906020019080838360005b83811015615b25578082015181840152602081019050615b0a565b50505050905090810190601f168015615b525780820380516001836020036101000a031916815260200191505b509250505060405180910390fd5b506000838581615b6c57fe5b049050809150509392505050565b6000838311158290615c27576040517f08c379a00000000000000000000000000000000000000000000000000000000081526004018080602001828103825283818151815260200191508051906020019080838360005b83811015615bec578082015181840152602081019050615bd1565b50505050905090810190601f168015615c195780820380516001836020036101000a031916815260200191505b509250505060405180910390fd5b5060008385039050809150509392505050565b600082821115615c4d5760009050615c53565b81830390505b92915050565b604051806101c00160405280600e90602082028036833780820191505090505090565b604051806101c001604052806000815260200160008152602001600081526020016000815260200160008152602001600081526020016000815260200160008152602001600081526020016000815260200160008152602001600081526020016000815260200160008152509056fe4f776e61626c653a206e6577206f776e657220697320746865207a65726f2061646472657373416464726573733a20756e61626c6520746f2073656e642076616c75652c20726563697069656e74206d61792068617665207265766572746564536166654d6174683a206d756c7469706c69636174696f6e206f766572666c6f77596f7520646f6e27742068617665207065726d697373696f6e20746f20756e6c6f636ba26469706673582212201875ded0f56653721f4af43dbc7f97cb4c03f578ce18dec29e6f1e1d761d467264736f6c6343000704003349455243323020616e64206c697175696469747920726f75746572206d75737420626520736574",
  "immutableReferences": {},
  "source": "// SPDX-License-Identifier: MIT\r\npragma solidity 0.7.4;\r\n\r\nimport './Address.sol';\r\nimport './SafeMath.sol';\r\nimport './SafeERC20.sol';\r\n\r\nimport './IERC20.sol';\r\nimport './IPancakeRouter01.sol';\r\n\r\nimport './Ownable.sol';\r\n\r\ncontract GangsterVault is Ownable {\r\n    using SafeERC20 for IERC20;\r\n    using SafeMath for uint;\r\n\r\n    // Import the BEP20 token interface\r\n    IERC20 public stakingToken;\r\n    IERC20 public buybackToken; // The token being bought back...\r\n    IERC20 public wbnb;\r\n\r\n    IPancakeRouter01 public uniswapV2Router;\r\n    IPancakeRouter01 public tokenUniswapV2Router;\r\n    \r\n    /////////////////////////////////\r\n    // CONFIGURABLES AND VARIABLES //\r\n    /////////////////////////////////\r\n    \r\n    // Store the token address and the reserve address\r\n    address public tokenAddress;\r\n    address public reserveAddress = 0x5FfcF7FEA55098945f66460a160136eED4e7faA9;\r\n    \r\n    address public router;\r\n    address payable public bnbReceiver;\r\n\r\n    bool public buybackEnabled;\r\n    \r\n    // Store the number of unique users and total Tx's \r\n    uint public users;\r\n    uint public totalTxs;\r\n    \r\n    // Store the starting time & block number and the last payout time\r\n    uint public lastPayout; // What time was the last payout (timestamp)?\r\n    \r\n    // Store the details of total deposits & claims\r\n    uint public totalClaims;\r\n    uint public totalDeposits;\r\n\r\n    // Store the total drip pool balance and rate\r\n    uint  public dripPoolBalance;\r\n    uint8 public dripRate;\r\n\r\n    // 10% fee on deposit and withdrawal\r\n    uint8 constant internal divsFee = 10;\r\n    uint256 constant internal magnitude = 2 ** 64;\r\n    \r\n    // How many portions of the fees does each receiver get?\r\n    uint public forPool;\r\n    uint public forDivs;\r\n    uint public forFees;\r\n\r\n    // Rebase and payout frequency\r\n    uint256 constant public rebaseFrequency = 6 hours;\r\n    uint256 constant public payoutFrequency = 2 seconds;\r\n    \r\n    // Timestamp of last rebase\r\n    uint256 public lastRebaseTime;\r\n    \r\n    // Current total tokens staked, and profit per share\r\n    uint256 private currentTotalStaked;\r\n    uint256 private profitPerShare_;\r\n    \r\n    uint public buybacksBalance;\r\n    uint public totalBuyBack;\r\n    \r\n    ////////////////////////////////////\r\n    // MODIFIERS                      //\r\n    ////////////////////////////////////\r\n\r\n    // Only holders - Caller must have funds in the vault\r\n    modifier onlyHolders {\r\n        require(myTokens() > 0);\r\n        _;\r\n    }\r\n    \r\n    // Only earners - Caller must have some earnings\r\n    modifier onlyEarners {\r\n        require(myEarnings() > 0);\r\n        _;\r\n    }\r\n\r\n    ////////////////////////////////////\r\n    // ACCOUNT STRUCT                 //\r\n    ////////////////////////////////////\r\n\r\n    struct Account {\r\n        uint deposited;\r\n        uint withdrawn;\r\n        uint compounded;\r\n        uint rewarded;\r\n        uint contributed;\r\n        uint transferredShares;\r\n        uint receivedShares;\r\n        \r\n        uint xInvested;\r\n        uint xCompounded;\r\n        uint xRewarded;\r\n        uint xContributed;\r\n        uint xWithdrawn;\r\n        uint xTransferredShares;\r\n        uint xReceivedShares;\r\n    }\r\n\r\n    ////////////////////////////////////\r\n    // MAPPINGS                       //\r\n    ////////////////////////////////////\r\n\r\n    mapping(address =>  int256) payoutsOf_;\r\n    mapping(address => uint256) balanceOf_;\r\n    mapping(address => Account) accountOf_;\r\n    \r\n    ////////////////////////////////////\r\n    // EVENTS                         //\r\n    ////////////////////////////////////\r\n    \r\n    event onDeposit( address indexed _user, uint256 _deposited,  uint256 tokensMinted, uint timestamp);\r\n    event onWithdraw(address indexed _user, uint256 _liquidated, uint256 tokensEarned, uint timestamp);\r\n    event onCompound(address indexed _user, uint256 _compounded, uint256 tokensMinted, uint timestamp);\r\n    event onWithdraw(address indexed _user, uint256 _withdrawn,                        uint timestamp);\r\n    event onTransfer(address indexed from,  address indexed to,  uint256 tokens,       uint timestamp);\r\n    event onUpdate(address indexed _user, uint256 invested, uint256 tokens, uint256 soldTokens, uint timestamp);\r\n    \r\n    event onRebase(uint256 balance, uint256 timestamp);\r\n    \r\n    event onDonate(address indexed from, uint256 amount, uint timestamp);\r\n    event onDonateBNB(address indexed from, uint256 amount, uint timestamp);\r\n    \r\n    event onBuyback(uint256 amount, uint256 timestamp);\r\n    event onSetBuyback(address indexed _token, uint256 timestamp);\r\n    event onToggleBuyback(bool _toggle, string _reason, uint256 timestamp);\r\n    \r\n    event onSetSwapRouter(address _oldSR, address _newSR, uint256 timestamp);\r\n    event onSetTokenRouter(address _oldTR, address _newTR, uint256 timestamp);\r\n    \r\n    event onSetFeeSplit(uint _pool, uint _divs, uint _fees, uint256 timestamp);\r\n    \r\n    ////////////////////////////////////\r\n    // CONSTRUCTOR                    //\r\n    ////////////////////////////////////\r\n\r\n    constructor(\r\n        address _buybackTokenAddress, \r\n        address _tokenAddress, \r\n        address _tokenRouter, \r\n        address _swapRouter,\r\n        address _reserveAddress,\r\n        uint8 _dripRate\r\n        ) Ownable() public {\r\n        require(_tokenAddress != address(0) && _tokenRouter != address(0) && _buybackTokenAddress != address(0), \"IERC20 and liquidity router must be set\");\r\n        \r\n        tokenAddress = _tokenAddress;\r\n        stakingToken = IERC20(_tokenAddress);\r\n        \r\n        _reserveAddress = reserveAddress;\r\n        \r\n        router = _swapRouter;\r\n        bnbReceiver = msg.sender;\r\n        \r\n        buybackEnabled = true;\r\n        buybackToken = IERC20(_buybackTokenAddress);\r\n\r\n        // Set Router interfaces and addresses...\r\n        uniswapV2Router = IPancakeRouter01(_swapRouter);\r\n        tokenUniswapV2Router = IPancakeRouter01(_tokenRouter);\r\n        \r\n         // Sanity Check: Router must be compatible\r\n        require(tokenUniswapV2Router.WETH() == uniswapV2Router.WETH(), \"Router is not compatible\");\r\n        \r\n        wbnb = IERC20(uniswapV2Router.WETH());\r\n        \r\n        // Set Drip Rate and last payout date (first time around)...\r\n        dripRate = _dripRate;\r\n        lastPayout = (block.timestamp);\r\n        \r\n        // Fee portions\r\n        forPool = 6;\r\n        forDivs = 2;\r\n        forFees = 2;\r\n    }\r\n    \r\n    ////////////////////////////////////\r\n    // FALLBACK                       //\r\n    ////////////////////////////////////\r\n    \r\n    receive() payable external {\r\n        Address.sendValue(bnbReceiver, msg.value);\r\n        emit onDonateBNB(msg.sender, msg.value, block.timestamp);\r\n    }\r\n    \r\n    ////////////////////////////////////\r\n    // WRITE FUNCTIONS                //\r\n    ////////////////////////////////////\r\n    \r\n    function sweep() public {\r\n        if (buybacksBalance >  0){\r\n            totalBuyBack = totalBuyBack.add(buyback(buybacksBalance));\r\n            buybacksBalance = 0;\r\n        }\r\n    }\r\n    \r\n    function toggleBuyback(bool enable, string memory _reason) onlyOwner public returns (bool _success) {\r\n\r\n        buybackEnabled = enable;\r\n        \r\n        emit onToggleBuyback(enable, _reason, block.timestamp);\r\n        return true;\r\n    }\r\n    \r\n    function updateTokenRouter(address _tokenRouter) onlyOwner public {\r\n        require(_tokenRouter != address(0), \"Router must be set\");\r\n        tokenUniswapV2Router = IPancakeRouter01(_tokenRouter);\r\n        \r\n        //Sanity check router\r\n        require(tokenUniswapV2Router.WETH() == uniswapV2Router.WETH(), \"Router is not compatible\");\r\n    }\r\n\r\n    // Donate\r\n    function donate(uint _amount) public returns (uint256) {\r\n        \r\n        // Move the tokens from the caller's wallet to this contract.\r\n        require(stakingToken.transferFrom(msg.sender, address(this), _amount));\r\n        \r\n        // Add the tokens to the drip pool balance\r\n        dripPoolBalance += _amount;\r\n        \r\n        // Tell the network, successful function - how much in the pool now?\r\n        emit onDonate(msg.sender, _amount, block.timestamp);\r\n        return dripPoolBalance;\r\n    }\r\n\r\n    // Deposit\r\n    function deposit(uint _amount) public returns (uint256)  {\r\n        \r\n        // Approve the token to be transferred by this contract\r\n        stakingToken.approve(address(this), _amount);\r\n        \r\n        // Return a call to depositTo...\r\n        return depositTo(msg.sender, _amount);\r\n    }\r\n\r\n    // DepositTo\r\n    function depositTo(address _user, uint _amount) public returns (uint256)  {\r\n        \r\n        // Move the tokens from the caller's wallet to this contract.\r\n        require(stakingToken.transferFrom(msg.sender, address(this), _amount));\r\n        \r\n        // Add the deposit to the totalDeposits...\r\n        totalDeposits += _amount;\r\n        \r\n        // Then actually call the deposit method...\r\n        uint amount = _depositTokens(_user, _amount);\r\n        \r\n        // Update the leaderboard...\r\n        emit onUpdate(_user, accountOf_[_user].deposited, balanceOf_[_user], accountOf_[_user].withdrawn, block.timestamp);\r\n        \r\n        // Then trigger a distribution for everyone, kind soul!\r\n        distribute();\r\n        \r\n        // Successful function - how many 'shares' (tokens) are the result?\r\n        return amount;\r\n    }\r\n\r\n    // Compound\r\n    function compound() onlyEarners public {\r\n         _compoundTokens();\r\n    }\r\n    \r\n    // Harvest\r\n    function harvest() onlyEarners public {\r\n        address _user = msg.sender;\r\n        uint256 _dividends = myEarnings();\r\n        \r\n        // Calculate the payout, add it to the user's total paid out accounting...\r\n        payoutsOf_[_user] += (int256) (_dividends * magnitude);\r\n        \r\n        // Pay the user their tokens to their wallet\r\n        stakingToken.transfer(_user,_dividends);\r\n\r\n        // Update accounting for user/total withdrawal stats...\r\n        accountOf_[_user].withdrawn = SafeMath.add(accountOf_[_user].withdrawn, _dividends);\r\n        accountOf_[_user].xWithdrawn += 1;\r\n        \r\n        // Update total Tx's and claims stats\r\n        totalTxs += 1;\r\n        totalClaims += _dividends;\r\n\r\n        // Tell the network...\r\n        emit onWithdraw(_user, _dividends, block.timestamp);\r\n\r\n        // Trigger a distribution for everyone, kind soul!\r\n        distribute();\r\n    }\r\n\r\n    // Withdraw\r\n    function withdraw(uint256 _amount) onlyHolders public {\r\n        address _user = msg.sender;\r\n        require(_amount <= balanceOf_[_user]);\r\n        \r\n        // Calculate dividends and 'shares' (tokens)\r\n        uint256 _undividedDividends = SafeMath.mul(_amount, divsFee) / 100;\r\n        uint256 _taxedTokens = SafeMath.sub(_amount, _undividedDividends);\r\n\r\n        // Subtract amounts from user and totals...\r\n        currentTotalStaked = SafeMath.sub(currentTotalStaked, _amount);\r\n        balanceOf_[_user] = SafeMath.sub(balanceOf_[_user], _amount);\r\n\r\n        // Update the payment ratios for the user and everyone else...\r\n        int256 _updatedPayouts = (int256) (profitPerShare_ * _amount + (_taxedTokens * magnitude));\r\n        payoutsOf_[_user] -= _updatedPayouts;\r\n\r\n        // Serve dividends between the drip and instant divs (4:1)...\r\n        allocateFees(_undividedDividends);\r\n        \r\n        // Tell the network, and trigger a distribution\r\n        emit onWithdraw( _user, _amount, _taxedTokens, block.timestamp);\r\n        \r\n        // Update the leaderboard...\r\n        emit onUpdate(_user, accountOf_[_user].deposited, balanceOf_[_user], accountOf_[_user].withdrawn, block.timestamp);\r\n        \r\n        // Trigger a distribution for everyone, kind soul!\r\n        distribute();\r\n    }\r\n\r\n    // Transfer\r\n    function transfer(address _to, uint256 _amount) onlyHolders external returns (bool) {\r\n        return _transferTokens(_to, _amount);\r\n    }\r\n    \r\n    ////////////////////////////////////\r\n    // VIEW FUNCTIONS                 //\r\n    ////////////////////////////////////\r\n\r\n    function myTokens() public view returns (uint256) {return balanceOf(msg.sender);}\r\n    function myEarnings() public view returns (uint256) {return dividendsOf(msg.sender);}\r\n\r\n    function balanceOf(address _user) public view returns (uint256) {return balanceOf_[_user];}\r\n    function tokenBalance(address _user) public view returns (uint256) {return _user.balance;}\r\n    function totalBalance() public view returns (uint256) {return stakingToken.balanceOf(address(this));}\r\n    function totalSupply() public view returns (uint256) {return currentTotalStaked;}\r\n    \r\n    function dividendsOf(address _user) public view returns (uint256) {\r\n        return (uint256) ((int256) (profitPerShare_ * balanceOf_[_user]) - payoutsOf_[_user]) / magnitude;\r\n    }\r\n\r\n    function sellPrice() public pure returns (uint256) {\r\n        uint256 _tokens = 1e18;\r\n        uint256 _dividends = SafeMath.div(SafeMath.mul(_tokens, divsFee), 100);\r\n        uint256 _taxedTokens = SafeMath.sub(_tokens, _dividends);\r\n        return _taxedTokens;\r\n    }\r\n\r\n    function buyPrice() public pure returns (uint256) {\r\n        uint256 _tokens = 1e18;\r\n        uint256 _dividends = SafeMath.div(SafeMath.mul(_tokens, divsFee), 100);\r\n        uint256 _taxedTokens = SafeMath.add(_tokens, _dividends);\r\n        return _taxedTokens;\r\n    }\r\n\r\n    function calculateSharesReceived(uint256 _amount) public pure returns (uint256) {\r\n        uint256 _divies = SafeMath.div(SafeMath.mul(_amount, divsFee), 100);\r\n        uint256 _remains = SafeMath.sub(_amount, _divies);\r\n        uint256 _result = _remains;\r\n        return  _result;\r\n    }\r\n\r\n    function calculateTokensReceived(uint256 _amount) public view returns (uint256) {\r\n        require(_amount <= currentTotalStaked);\r\n        uint256 _tokens  = _amount;\r\n        uint256 _divies  = SafeMath.div(SafeMath.mul(_tokens, divsFee), 100);\r\n        uint256 _remains = SafeMath.sub(_tokens, _divies);\r\n        return _remains;\r\n    }\r\n\r\n    function accountOf(address _user) public view returns (uint256[14] memory){\r\n        Account memory a = accountOf_[_user];\r\n        uint256[14] memory accountArray = [\r\n            a.deposited, \r\n            a.withdrawn, \r\n            a.rewarded, \r\n            a.compounded,\r\n            a.contributed, \r\n            a.transferredShares, \r\n            a.receivedShares, \r\n            a.xInvested, \r\n            a.xRewarded, \r\n            a.xContributed, \r\n            a.xWithdrawn, \r\n            a.xTransferredShares, \r\n            a.xReceivedShares, \r\n            a.xCompounded\r\n        ];\r\n        return accountArray;\r\n    }\r\n\r\n    function dailyEstimate(address _user) public view returns (uint256) {\r\n        uint256 share = dripPoolBalance.mul(dripRate).div(100);\r\n        return (currentTotalStaked > 0) ? share.mul(balanceOf_[_user]).div(currentTotalStaked) : 0;\r\n    }\r\n\r\n    /////////////////////////////////\r\n    // PUBLIC OWNER-ONLY FUNCTIONS //\r\n    /////////////////////////////////\r\n    \r\n    function setFeeSplit(uint256 _pool, uint256 _divs, uint256 _fees) public onlyOwner returns (bool _success) {\r\n        \r\n        // If the buyback portion is enabled...\r\n        if (buybackEnabled) {\r\n            // Require that the three parts together must equal ten.\r\n            require((_pool.add(_divs).add(_fees)) == 10, \"TEN_PORTIONS_REQUIRE_DIVISION\");\r\n        } else {\r\n            // Otherwise, require that only _pool and _divs together equals ten, and _fees equals zero.\r\n            require(_pool.add(_divs) == 10 && _fees == 0, \"TEN_PORTIONS_REQUIRE_DIVISION\");\r\n        }\r\n        \r\n        // Set the new values...\r\n        forPool = _pool;\r\n        forDivs = _divs;\r\n        forFees = _fees;\r\n        \r\n        // Tell the network, successful function!\r\n        emit onSetFeeSplit(_pool, _divs, _fees, block.timestamp);\r\n        return true;\r\n    }\r\n    \r\n    function setBuybackToken(address _newToken) public onlyOwner returns (bool _success) {\r\n        \r\n        // Sanity Check: _newToken must be a contract\r\n        require(Address.isContract(_newToken), \"MUST_BE_A_CONTRACT\");\r\n        \r\n        // set the buyback token...\r\n        buybackToken = IERC20(_newToken);\r\n        \r\n        // Tell the network, successful function!\r\n        emit onSetBuyback(_newToken, block.timestamp);\r\n        return true;\r\n    }\r\n    \r\n    function setSwapRouter(address _swapRouter) public onlyOwner returns (bool _success) {\r\n        \r\n        // Sanity Check: _swapRouter must be a contract.\r\n        require(Address.isContract(_swapRouter), \"MUST_BE_A_CONTRACT\");\r\n        \r\n        // Take note of the old address for the upcoming event emission...\r\n        address _oldSwapRouter = address(uniswapV2Router);\r\n        \r\n        // Update the router address...\r\n        uniswapV2Router = IPancakeRouter01(_swapRouter);\r\n        \r\n        // Tell the network, successful function!\r\n        emit onSetSwapRouter(_oldSwapRouter, _swapRouter, block.timestamp);\r\n        return true;\r\n    }\r\n    \r\n    function setTokenRouter(address _tokenRouter) public onlyOwner returns (bool _success) {\r\n        \r\n        // Sanity Check: _tokenRouter must be a contract.\r\n        require(Address.isContract(_tokenRouter), \"MUST_BE_A_CONTRACT\");\r\n        \r\n        // Take note of the old address for the upcoming event emission...\r\n        address _oldTokenRouter = address(tokenUniswapV2Router);\r\n        \r\n        // Update the router address...\r\n        tokenUniswapV2Router = IPancakeRouter01(_tokenRouter);\r\n        \r\n        // Tell the network, successful function!\r\n        emit onSetTokenRouter(_oldTokenRouter, _tokenRouter, block.timestamp);\r\n        return true;\r\n    }\r\n\r\n    ////////////////////////////////////\r\n    // PRIVATE / INTERNAL FUNCTIONS   //\r\n    ////////////////////////////////////\r\n\r\n    // Allocate fees (private method)\r\n    function allocateFees(uint fee) private {\r\n        uint256 _onePiece = fee.div(10);\r\n        \r\n        uint256 _forPool = (_onePiece.mul(forPool)); // for the Drip Pool\r\n        uint256 _forDivs = (_onePiece.mul(forDivs)); // for Instant Divs\r\n        uint256 _forFees = (_onePiece.mul(forFees)); // for Gangster Reserve\r\n        \r\n        // If buy backs are enabled, split the fee\r\n        if (buybackEnabled) {\r\n            buybacksBalance = buybacksBalance.add(_forFees);\r\n            dripPoolBalance = dripPoolBalance.add(_forPool);\r\n        } else {\r\n            dripPoolBalance = dripPoolBalance.add(_forFees);\r\n            dripPoolBalance = dripPoolBalance.add(_forPool);\r\n        }\r\n        \r\n        // If there's more than 0 tokens staked in the vault...\r\n        if (currentTotalStaked > 0) {\r\n            \r\n            // Distribute those instant divs...\r\n            profitPerShare_ = SafeMath.add(profitPerShare_, (_forDivs * magnitude) / currentTotalStaked);\r\n        } else {\r\n            // Otherwise add the divs portion to the drip pool balance.\r\n            dripPoolBalance += _forDivs;\r\n        }\r\n    }\r\n    \r\n    // Distribute (private method)\r\n    function distribute() private {\r\n        \r\n        uint _currentTimestamp = (block.timestamp);\r\n        \r\n        // Log a rebase, if it's time to do so...\r\n        if (_currentTimestamp.safeSub(lastRebaseTime) > rebaseFrequency) {\r\n            \r\n            // Tell the network...\r\n            emit onRebase(totalBalance(), _currentTimestamp);\r\n            \r\n            // Update the time this was last updated...\r\n            lastRebaseTime = _currentTimestamp;\r\n        }\r\n\r\n        // If there's any time difference...\r\n        if (SafeMath.safeSub(_currentTimestamp, lastPayout) > payoutFrequency && currentTotalStaked > 0) {\r\n            \r\n            // Calculate shares and profits...\r\n            uint256 share = dripPoolBalance.mul(dripRate).div(100).div(24 hours);\r\n            uint256 profit = share * _currentTimestamp.safeSub(lastPayout);\r\n            \r\n            // Subtract from drip pool balance and add to all user earnings\r\n            dripPoolBalance = dripPoolBalance.safeSub(profit);\r\n            profitPerShare_ = SafeMath.add(profitPerShare_, (profit * magnitude) / currentTotalStaked);\r\n            \r\n            // Update the last payout timestamp\r\n            lastPayout = _currentTimestamp;\r\n        }\r\n    }\r\n    \r\n    // Buyback (using WBNB as bridge)\r\n    function buyback(uint tokenAmount) private returns (uint) {\r\n        address[] memory path;\r\n        bool isWETH = tokenAddress == uniswapV2Router.WETH();\r\n        \r\n        if (!isWETH){\r\n            path = new address[](2);\r\n            path[0] = tokenAddress;\r\n            path[1] = uniswapV2Router.WETH();\r\n            \r\n            require(stakingToken.approve(address(tokenUniswapV2Router), tokenAmount));\r\n            \r\n            uint initial = wbnb.balanceOf(address(this));\r\n            \r\n            tokenUniswapV2Router.swapExactTokensForTokens(tokenAmount, 0, path, address(this), block.timestamp.add(1 minutes));\r\n            tokenAmount = wbnb.balanceOf(address(this)).sub(initial);\r\n        }\r\n        \r\n        //We always have WBNB sourced from the best liquidity pool for the core asset if necessary\r\n        path = new address[](2);\r\n        path[0] = uniswapV2Router.WETH();\r\n        path[1] = address(buybackToken);\r\n       \r\n        //Need to be able to approve the collateral token for transfer\r\n        require(wbnb.approve(address(uniswapV2Router), tokenAmount));\r\n\r\n        uniswapV2Router.swapExactTokensForTokens(tokenAmount, 0, path, address(this), block.timestamp.add(1 minutes));\r\n\r\n        //transfer elephant tokens (buyback)\r\n        uint _balance = buybackToken.balanceOf(address(this));\r\n        buybackToken.transfer(reserveAddress, _balance);\r\n\r\n        // Tell the network, successful function!\r\n        emit onBuyback(_balance, block.timestamp);\r\n        return _balance;\r\n    }\r\n    \r\n    // Deposit Tokens (internal method)\r\n    function _depositTokens(address _recipient, uint256 _amount) internal returns (uint256) {\r\n        \r\n        // If the recipient has zero activity, they're new - COUNT THEM!!!\r\n        if (accountOf_[_recipient].deposited == 0 && accountOf_[_recipient].receivedShares == 0) {\r\n            users += 1;\r\n        }\r\n\r\n        // Count this tx...\r\n        totalTxs += 1;\r\n\r\n        // Calculate dividends and 'shares' (tokens)\r\n        uint256 _undividedDividends = SafeMath.mul(_amount, divsFee) / 100;\r\n        uint256 _tokens = SafeMath.sub(_amount, _undividedDividends);\r\n        \r\n        // Tell the network...\r\n        emit onDeposit(_recipient, _amount, _tokens, block.timestamp);\r\n\r\n        // There needs to be something being added in this call...\r\n        require(_tokens > 0 && SafeMath.add(_tokens, currentTotalStaked) > currentTotalStaked);\r\n        if (currentTotalStaked > 0) {\r\n            currentTotalStaked += _tokens;\r\n        } else {\r\n            currentTotalStaked = _tokens;\r\n        }\r\n        \r\n        // Allocate fees, and balance to the recipient\r\n        allocateFees(_undividedDividends);\r\n        balanceOf_[_recipient] = SafeMath.add(balanceOf_[_recipient], _tokens);\r\n        \r\n        // Updated payouts...\r\n        int256 _updatedPayouts = (int256) (profitPerShare_ * _tokens);\r\n        \r\n        // Update stats...\r\n        payoutsOf_[_recipient] += _updatedPayouts;\r\n        accountOf_[_recipient].deposited += _amount;\r\n        accountOf_[_recipient].xInvested += 1;\r\n\r\n        // Successful function - how many \"shares\" generated?\r\n        return _tokens;\r\n    }\r\n    \r\n    // Compound (internal method)\r\n    function _compoundTokens() internal returns (uint256) {\r\n        address _user = msg.sender;\r\n        \r\n        // Quickly roll the caller's earnings into their payouts\r\n        uint256 _dividends = dividendsOf(_user);\r\n        payoutsOf_[_user] += (int256) (_dividends * magnitude);\r\n        \r\n        // Then actually trigger the deposit method\r\n        // (NOTE: No tokens required here, earnings are tokens already within the contract)\r\n        uint256 _tokens = _depositTokens(msg.sender, _dividends);\r\n        \r\n        // Tell the network...\r\n        emit onCompound(_user, _dividends, _tokens, block.timestamp);\r\n\r\n        // Then update the stats...\r\n        accountOf_[_user].compounded = SafeMath.add(accountOf_[_user].compounded, _dividends);\r\n        accountOf_[_user].xCompounded += 1;\r\n        \r\n        // Update the leaderboard...\r\n        emit onUpdate(_user, accountOf_[_user].deposited, balanceOf_[_user], accountOf_[_user].withdrawn, block.timestamp);\r\n        \r\n        // Then trigger a distribution for everyone, you kind soul!\r\n        distribute();\r\n        \r\n        // Successful function!\r\n        return _tokens;\r\n    }\r\n    \r\n    // Transfer Tokens (internal method)\r\n    function _transferTokens(address _recipient, uint256 _amount) internal returns (bool _success) {\r\n        address _sender = msg.sender;\r\n        require(_amount <= balanceOf_[_sender]);\r\n        \r\n        // Harvest any earnings before transferring, to help with cleaner accounting\r\n        if (myEarnings() > 0) {\r\n            harvest();\r\n        }\r\n        \r\n        // \"Move\" the tokens...\r\n        balanceOf_[_sender] = SafeMath.sub(balanceOf_[_sender], _amount);\r\n        balanceOf_[_recipient] = SafeMath.add(balanceOf_[_recipient], _amount);\r\n\r\n        // Adjust payout ratios to match the new balances...\r\n        payoutsOf_[_sender] -= (int256) (profitPerShare_ * _amount);\r\n        payoutsOf_[_recipient] += (int256) (profitPerShare_ * _amount);\r\n\r\n        // If the recipient has zero activity, they're new - COUNT THEM!!!\r\n        if (accountOf_[_recipient].deposited == 0 && accountOf_[_recipient].receivedShares == 0) {\r\n            users += 1;\r\n        }\r\n        \r\n        // Update stats...\r\n        accountOf_[_sender].xTransferredShares += 1;\r\n        accountOf_[_sender].transferredShares += _amount;\r\n        accountOf_[_recipient].receivedShares += _amount;\r\n        accountOf_[_recipient].xReceivedShares += 1;\r\n        \r\n        // Add this to the Tx counter...\r\n        totalTxs += 1;\r\n\r\n        // Tell the network, successful function!\r\n        emit onTransfer(_sender, _recipient, _amount, block.timestamp);\r\n        \r\n        // Update the leaderboard for sender...\r\n        emit onUpdate(_sender, accountOf_[_sender].deposited, balanceOf_[_sender], accountOf_[_sender].withdrawn, block.timestamp);\r\n        \r\n        // Update the leaderboard for recipient...\r\n        emit onUpdate(_recipient, accountOf_[_recipient].deposited, balanceOf_[_recipient], accountOf_[_recipient].withdrawn, block.timestamp);\r\n        \r\n        return true;\r\n    }\r\n}",
  "sourcePath": "G:/projects/degen-protocol/SH33P-contracts/contracts/GangsterVault.sol",
  "compiler": {
    "name": "solc",
    "version": "0.7.4+commit.3f05b770.Emscripten.clang"
  },
  "schemaVersion": "3.4.1",
  "updatedAt": "2021-12-05T02:45:48.870Z",
  "devdoc": {
    "kind": "dev",
    "methods": {
      "owner()": {
        "details": "Returns the address of the current owner."
      },
      "renounceOwnership()": {
        "details": "Leaves the contract without owner. It will not be possible to call `onlyOwner` functions anymore. Can only be called by the current owner. NOTE: Renouncing ownership will leave the contract without an owner, thereby removing any functionality that is only available to the owner."
      },
      "transferOwnership(address)": {
        "details": "Transfers ownership of the contract to a new account (`newOwner`). Can only be called by the current owner."
      }
    },
    "version": 1
  },
  "userdoc": {
    "kind": "user",
    "methods": {},
    "version": 1
  }
}