{
  "contractName": "LiquidityController",
  "abi": [
    {
      "inputs": [
        {
          "internalType": "contract IPancakeRouter02",
          "name": "_pancakeRouter",
          "type": "address"
        },
        {
          "internalType": "contract IERC20",
          "name": "_base",
          "type": "address"
        },
        {
          "internalType": "contract IERC20",
          "name": "_rooted",
          "type": "address"
        },
        {
          "internalType": "contract IERC31337",
          "name": "_elite",
          "type": "address"
        },
        {
          "internalType": "contract IFloorCalculator",
          "name": "_calculator",
          "type": "address"
        },
        {
          "internalType": "contract RootedTransferGate",
          "name": "_gate",
          "type": "address"
        }
      ],
      "stateMutability": "nonpayable",
      "type": "constructor"
    },
    {
      "anonymous": false,
      "inputs": [
        {
          "indexed": true,
          "internalType": "address",
          "name": "previousOwner",
          "type": "address"
        },
        {
          "indexed": true,
          "internalType": "address",
          "name": "newOwner",
          "type": "address"
        }
      ],
      "name": "OwnershipTransferred",
      "type": "event"
    },
    {
      "inputs": [],
      "name": "calculator",
      "outputs": [
        {
          "internalType": "contract IFloorCalculator",
          "name": "",
          "type": "address"
        }
      ],
      "stateMutability": "view",
      "type": "function"
    },
    {
      "inputs": [],
      "name": "claimOwnership",
      "outputs": [],
      "stateMutability": "nonpayable",
      "type": "function"
    },
    {
      "inputs": [],
      "name": "gate",
      "outputs": [
        {
          "internalType": "contract RootedTransferGate",
          "name": "",
          "type": "address"
        }
      ],
      "stateMutability": "view",
      "type": "function"
    },
    {
      "inputs": [
        {
          "internalType": "address",
          "name": "",
          "type": "address"
        }
      ],
      "name": "liquidityControllers",
      "outputs": [
        {
          "internalType": "bool",
          "name": "",
          "type": "bool"
        }
      ],
      "stateMutability": "view",
      "type": "function"
    },
    {
      "inputs": [],
      "name": "owner",
      "outputs": [
        {
          "internalType": "address",
          "name": "",
          "type": "address"
        }
      ],
      "stateMutability": "view",
      "type": "function"
    },
    {
      "inputs": [
        {
          "internalType": "contract IERC20",
          "name": "token",
          "type": "address"
        }
      ],
      "name": "recoverTokens",
      "outputs": [],
      "stateMutability": "nonpayable",
      "type": "function"
    },
    {
      "inputs": [
        {
          "internalType": "address",
          "name": "newOwner",
          "type": "address"
        }
      ],
      "name": "transferOwnership",
      "outputs": [],
      "stateMutability": "nonpayable",
      "type": "function"
    },
    {
      "inputs": [
        {
          "internalType": "address",
          "name": "controlAddress",
          "type": "address"
        },
        {
          "internalType": "bool",
          "name": "controller",
          "type": "bool"
        }
      ],
      "name": "setLiquidityController",
      "outputs": [],
      "stateMutability": "nonpayable",
      "type": "function"
    },
    {
      "inputs": [
        {
          "internalType": "contract IFloorCalculator",
          "name": "_calculator",
          "type": "address"
        },
        {
          "internalType": "contract RootedTransferGate",
          "name": "_gate",
          "type": "address"
        }
      ],
      "name": "setCalculatorAndGate",
      "outputs": [],
      "stateMutability": "nonpayable",
      "type": "function"
    },
    {
      "inputs": [
        {
          "internalType": "uint256",
          "name": "amount",
          "type": "uint256"
        },
        {
          "internalType": "address",
          "name": "token",
          "type": "address"
        },
        {
          "internalType": "uint16",
          "name": "tax",
          "type": "uint16"
        },
        {
          "internalType": "uint256",
          "name": "time",
          "type": "uint256"
        }
      ],
      "name": "removeBuyAndTax",
      "outputs": [],
      "stateMutability": "nonpayable",
      "type": "function"
    },
    {
      "inputs": [
        {
          "internalType": "uint256",
          "name": "amount",
          "type": "uint256"
        }
      ],
      "name": "balancePriceBase",
      "outputs": [],
      "stateMutability": "nonpayable",
      "type": "function"
    },
    {
      "inputs": [
        {
          "internalType": "uint256",
          "name": "amount",
          "type": "uint256"
        }
      ],
      "name": "balancePriceElite",
      "outputs": [],
      "stateMutability": "nonpayable",
      "type": "function"
    },
    {
      "inputs": [
        {
          "internalType": "address",
          "name": "token",
          "type": "address"
        },
        {
          "internalType": "uint256",
          "name": "amountToSpend",
          "type": "uint256"
        },
        {
          "internalType": "uint16",
          "name": "tax",
          "type": "uint16"
        },
        {
          "internalType": "uint256",
          "name": "time",
          "type": "uint256"
        }
      ],
      "name": "buyAndTax",
      "outputs": [],
      "stateMutability": "nonpayable",
      "type": "function"
    },
    {
      "inputs": [],
      "name": "sweepFloor",
      "outputs": [],
      "stateMutability": "nonpayable",
      "type": "function"
    },
    {
      "inputs": [
        {
          "internalType": "uint256",
          "name": "liquidity",
          "type": "uint256"
        }
      ],
      "name": "zapEliteToBase",
      "outputs": [],
      "stateMutability": "nonpayable",
      "type": "function"
    },
    {
      "inputs": [
        {
          "internalType": "uint256",
          "name": "liquidity",
          "type": "uint256"
        }
      ],
      "name": "zapBaseToElite",
      "outputs": [],
      "stateMutability": "nonpayable",
      "type": "function"
    },
    {
      "inputs": [
        {
          "internalType": "uint256",
          "name": "baseAmount",
          "type": "uint256"
        }
      ],
      "name": "wrapToElite",
      "outputs": [],
      "stateMutability": "nonpayable",
      "type": "function"
    },
    {
      "inputs": [
        {
          "internalType": "uint256",
          "name": "eliteAmount",
          "type": "uint256"
        }
      ],
      "name": "unwrapElite",
      "outputs": [],
      "stateMutability": "nonpayable",
      "type": "function"
    },
    {
      "inputs": [
        {
          "internalType": "address",
          "name": "eliteOrBase",
          "type": "address"
        },
        {
          "internalType": "uint256",
          "name": "baseAmount",
          "type": "uint256"
        }
      ],
      "name": "addLiquidity",
      "outputs": [],
      "stateMutability": "nonpayable",
      "type": "function"
    },
    {
      "inputs": [
        {
          "internalType": "address",
          "name": "eliteOrBase",
          "type": "address"
        },
        {
          "internalType": "uint256",
          "name": "tokens",
          "type": "uint256"
        }
      ],
      "name": "removeLiquidity",
      "outputs": [],
      "stateMutability": "nonpayable",
      "type": "function"
    },
    {
      "inputs": [
        {
          "internalType": "address",
          "name": "token",
          "type": "address"
        },
        {
          "internalType": "uint256",
          "name": "amountToSpend",
          "type": "uint256"
        }
      ],
      "name": "buyRooted",
      "outputs": [],
      "stateMutability": "nonpayable",
      "type": "function"
    },
    {
      "inputs": [
        {
          "internalType": "address",
          "name": "token",
          "type": "address"
        },
        {
          "internalType": "uint256",
          "name": "amountToSpend",
          "type": "uint256"
        }
      ],
      "name": "sellRooted",
      "outputs": [],
      "stateMutability": "nonpayable",
      "type": "function"
    }
  ],
  "bytecode": "0x610160604052336000806101000a81548173ffffffffffffffffffffffffffffffffffffffff021916908373ffffffffffffffffffffffffffffffffffffffff1602179055503480156200005257600080fd5b5060405162003cd338038062003cd3833981810160405260c08110156200007857600080fd5b810190808051906020019092919080519060200190929190805190602001909291908051906020019092919080519060200190929190805190602001909291905050508573ffffffffffffffffffffffffffffffffffffffff1660808173ffffffffffffffffffffffffffffffffffffffff1660601b815250508473ffffffffffffffffffffffffffffffffffffffff1660e08173ffffffffffffffffffffffffffffffffffffffff1660601b815250508273ffffffffffffffffffffffffffffffffffffffff166101008173ffffffffffffffffffffffffffffffffffffffff1660601b815250508373ffffffffffffffffffffffffffffffffffffffff1660c08173ffffffffffffffffffffffffffffffffffffffff1660601b8152505081600260006101000a81548173ffffffffffffffffffffffffffffffffffffffff021916908373ffffffffffffffffffffffffffffffffffffffff16021790555080600360006101000a81548173ffffffffffffffffffffffffffffffffffffffff021916908373ffffffffffffffffffffffffffffffffffffffff16021790555060008673ffffffffffffffffffffffffffffffffffffffff1663c45a01556040518163ffffffff1660e01b815260040160206040518083038186803b1580156200026357600080fd5b505afa15801562000278573d6000803e3d6000fd5b505050506040513d60208110156200028f57600080fd5b810190808051906020019092919050505090508073ffffffffffffffffffffffffffffffffffffffff1660a08173ffffffffffffffffffffffffffffffffffffffff1660601b815250508573ffffffffffffffffffffffffffffffffffffffff1663095ea7b3857fffffffffffffffffffffffffffffffffffffffffffffffffffffffffffffffff6040518363ffffffff1660e01b8152600401808373ffffffffffffffffffffffffffffffffffffffff16815260200182815260200192505050602060405180830381600087803b1580156200036b57600080fd5b505af115801562000380573d6000803e3d6000fd5b505050506040513d60208110156200039757600080fd5b8101908080519060200190929190505050508573ffffffffffffffffffffffffffffffffffffffff1663095ea7b3887fffffffffffffffffffffffffffffffffffffffffffffffffffffffffffffffff6040518363ffffffff1660e01b8152600401808373ffffffffffffffffffffffffffffffffffffffff16815260200182815260200192505050602060405180830381600087803b1580156200043b57600080fd5b505af115801562000450573d6000803e3d6000fd5b505050506040513d60208110156200046757600080fd5b8101908080519060200190929190505050508473ffffffffffffffffffffffffffffffffffffffff1663095ea7b3887fffffffffffffffffffffffffffffffffffffffffffffffffffffffffffffffff6040518363ffffffff1660e01b8152600401808373ffffffffffffffffffffffffffffffffffffffff16815260200182815260200192505050602060405180830381600087803b1580156200050b57600080fd5b505af115801562000520573d6000803e3d6000fd5b505050506040513d60208110156200053757600080fd5b81019080805190602001909291905050505060008173ffffffffffffffffffffffffffffffffffffffff1663e6a4390588886040518363ffffffff1660e01b8152600401808373ffffffffffffffffffffffffffffffffffffffff1681526020018273ffffffffffffffffffffffffffffffffffffffff1681526020019250505060206040518083038186803b158015620005d157600080fd5b505afa158015620005e6573d6000803e3d6000fd5b505050506040513d6020811015620005fd57600080fd5b810190808051906020019092919050505090508073ffffffffffffffffffffffffffffffffffffffff1663095ea7b3897fffffffffffffffffffffffffffffffffffffffffffffffffffffffffffffffff6040518363ffffffff1660e01b8152600401808373ffffffffffffffffffffffffffffffffffffffff16815260200182815260200192505050602060405180830381600087803b158015620006a257600080fd5b505af1158015620006b7573d6000803e3d6000fd5b505050506040513d6020811015620006ce57600080fd5b8101908080519060200190929190505050508073ffffffffffffffffffffffffffffffffffffffff166101408173ffffffffffffffffffffffffffffffffffffffff1660601b815250508473ffffffffffffffffffffffffffffffffffffffff1663095ea7b3897fffffffffffffffffffffffffffffffffffffffffffffffffffffffffffffffff6040518363ffffffff1660e01b8152600401808373ffffffffffffffffffffffffffffffffffffffff16815260200182815260200192505050602060405180830381600087803b158015620007aa57600080fd5b505af1158015620007bf573d6000803e3d6000fd5b505050506040513d6020811015620007d657600080fd5b81019080805190602001909291905050505060008273ffffffffffffffffffffffffffffffffffffffff1663e6a4390587896040518363ffffffff1660e01b8152600401808373ffffffffffffffffffffffffffffffffffffffff1681526020018273ffffffffffffffffffffffffffffffffffffffff1681526020019250505060206040518083038186803b1580156200087057600080fd5b505afa15801562000885573d6000803e3d6000fd5b505050506040513d60208110156200089c57600080fd5b810190808051906020019092919050505090508073ffffffffffffffffffffffffffffffffffffffff1663095ea7b38a7fffffffffffffffffffffffffffffffffffffffffffffffffffffffffffffffff6040518363ffffffff1660e01b8152600401808373ffffffffffffffffffffffffffffffffffffffff16815260200182815260200192505050602060405180830381600087803b1580156200094157600080fd5b505af115801562000956573d6000803e3d6000fd5b505050506040513d60208110156200096d57600080fd5b8101908080519060200190929190505050508073ffffffffffffffffffffffffffffffffffffffff166101208173ffffffffffffffffffffffffffffffffffffffff1660601b8152505050505050505050505060805160601c60a05160601c60c05160601c60e05160601c6101005160601c6101205160601c6101405160601c61325562000a7e6000395050806107665280610aae5280610bfb528061152052806115ae528061177a52806117a35280611b715280611b9a5280611dc75280611e555250806114f7528061174e5280611c285280611e81525080612518528061285f52806128815280612dba5280612e78525050806124db528061263752806128225280612a4b52506132556000f3fe608060405234801561001057600080fd5b50600436106101425760003560e01c80638da5cb5b116100b8578063d0a8d2f31161007c578063d0a8d2f3146104cd578063db5b604a146104fb578063dd44ca5814610549578063ef9f608a146105ad578063f20d8c78146105fb578063f2fde38b1461066157610142565b80638da5cb5b146103bb57806392527506146103ef578063a201ccf61461041d578063ca15d2b91461046b578063ce3e39c01461049957610142565b80634711db711161010a5780634711db711461024b5780634e71e0c8146102b1578063528d8b21146102bb578063566887001461030b5780637a0ebc88146103595780638a43af271461038d57610142565b80630e3c0f9b1461014757806316114acd14610151578063240a53d414610195578063261af624146101ef5780633a5f269e1461021d575b600080fd5b61014f6106a5565b005b6101936004803603602081101561016757600080fd5b81019080803573ffffffffffffffffffffffffffffffffffffffff16906020019092919050505061082b565b005b6101d7600480360360208110156101ab57600080fd5b81019080803573ffffffffffffffffffffffffffffffffffffffff1690602001909291905050506109cd565b60405180821515815260200191505060405180910390f35b61021b6004803603602081101561020557600080fd5b81019080803590602001909291905050506109ed565b005b6102496004803603602081101561023357600080fd5b8101908080359060200190929190505050610b3a565b005b6102af6004803603608081101561026157600080fd5b8101908080359060200190929190803573ffffffffffffffffffffffffffffffffffffffff169060200190929190803561ffff16906020019092919080359060200190929190505050610c87565b005b6102b9610f1c565b005b610309600480360360408110156102d157600080fd5b81019080803573ffffffffffffffffffffffffffffffffffffffff169060200190929190803515159060200190929190505050611074565b005b6103576004803603604081101561032157600080fd5b81019080803573ffffffffffffffffffffffffffffffffffffffff16906020019092919080359060200190929190505050611190565b005b61036161137d565b604051808273ffffffffffffffffffffffffffffffffffffffff16815260200191505060405180910390f35b6103b9600480360360208110156103a357600080fd5b81019080803590602001909291905050506113a3565b005b6103c3611666565b604051808273ffffffffffffffffffffffffffffffffffffffff16815260200191505060405180910390f35b61041b6004803603602081101561040557600080fd5b810190808035906020019092919050505061168a565b005b6104696004803603604081101561043357600080fd5b81019080803573ffffffffffffffffffffffffffffffffffffffff1690602001909291908035906020019092919050505061182f565b005b6104976004803603602081101561048157600080fd5b8101908080359060200190929190505050611a1d565b005b6104a1611ce0565b604051808273ffffffffffffffffffffffffffffffffffffffff16815260200191505060405180910390f35b6104f9600480360360208110156104e357600080fd5b8101908080359060200190929190505050611d06565b005b6105476004803603604081101561051157600080fd5b81019080803573ffffffffffffffffffffffffffffffffffffffff16906020019092919080359060200190929190505050611eab565b005b6105ab6004803603604081101561055f57600080fd5b81019080803573ffffffffffffffffffffffffffffffffffffffff169060200190929190803573ffffffffffffffffffffffffffffffffffffffff169060200190929190505050611f79565b005b6105f9600480360360408110156105c357600080fd5b81019080803573ffffffffffffffffffffffffffffffffffffffff169060200190929190803590602001909291905050506120c0565b005b61065f6004803603608081101561061157600080fd5b81019080803573ffffffffffffffffffffffffffffffffffffffff16906020019092919080359060200190929190803561ffff1690602001909291908035906020019092919050505061218e565b005b6106a36004803603602081101561067757600080fd5b81019080803573ffffffffffffffffffffffffffffffffffffffff1690602001909291905050506122f7565b005b600460003373ffffffffffffffffffffffffffffffffffffffff1673ffffffffffffffffffffffffffffffffffffffff16815260200190815260200160002060009054906101000a900460ff16610764576040517f08c379a000000000000000000000000000000000000000000000000000000000815260040180806020018281038252601a8152602001807f4e6f742061204c697175696469747920436f6e74726f6c6c657200000000000081525060200191505060405180910390fd5b7f000000000000000000000000000000000000000000000000000000000000000073ffffffffffffffffffffffffffffffffffffffff1663b12a22a2306040518263ffffffff1660e01b8152600401808273ffffffffffffffffffffffffffffffffffffffff168152602001915050602060405180830381600087803b1580156107ed57600080fd5b505af1158015610801573d6000803e3d6000fd5b505050506040513d602081101561081757600080fd5b810190808051906020019092919050505050565b60008054906101000a900473ffffffffffffffffffffffffffffffffffffffff1673ffffffffffffffffffffffffffffffffffffffff163373ffffffffffffffffffffffffffffffffffffffff16146108ec576040517f08c379a000000000000000000000000000000000000000000000000000000000815260040180806020018281038252600a8152602001807f4f776e6572206f6e6c790000000000000000000000000000000000000000000081525060200191505060405180910390fd5b6108f5816123fc565b6108fe57600080fd5b6109ca338273ffffffffffffffffffffffffffffffffffffffff166370a08231306040518263ffffffff1660e01b8152600401808273ffffffffffffffffffffffffffffffffffffffff16815260200191505060206040518083038186803b15801561096957600080fd5b505afa15801561097d573d6000803e3d6000fd5b505050506040513d602081101561099357600080fd5b81019080805190602001909291905050508373ffffffffffffffffffffffffffffffffffffffff166124359092919063ffffffff16565b50565b60046020528060005260406000206000915054906101000a900460ff1681565b600460003373ffffffffffffffffffffffffffffffffffffffff1673ffffffffffffffffffffffffffffffffffffffff16815260200190815260200160002060009054906101000a900460ff16610aac576040517f08c379a000000000000000000000000000000000000000000000000000000000815260040180806020018281038252601a8152602001807f4e6f742061204c697175696469747920436f6e74726f6c6c657200000000000081525060200191505060405180910390fd5b7f000000000000000000000000000000000000000000000000000000000000000073ffffffffffffffffffffffffffffffffffffffff1663315a095d826040518263ffffffff1660e01b815260040180828152602001915050600060405180830381600087803b158015610b1f57600080fd5b505af1158015610b33573d6000803e3d6000fd5b5050505050565b600460003373ffffffffffffffffffffffffffffffffffffffff1673ffffffffffffffffffffffffffffffffffffffff16815260200190815260200160002060009054906101000a900460ff16610bf9576040517f08c379a000000000000000000000000000000000000000000000000000000000815260040180806020018281038252601a8152602001807f4e6f742061204c697175696469747920436f6e74726f6c6c657200000000000081525060200191505060405180910390fd5b7f000000000000000000000000000000000000000000000000000000000000000073ffffffffffffffffffffffffffffffffffffffff1663dd49756e826040518263ffffffff1660e01b815260040180828152602001915050600060405180830381600087803b158015610c6c57600080fd5b505af1158015610c80573d6000803e3d6000fd5b5050505050565b600460003373ffffffffffffffffffffffffffffffffffffffff1673ffffffffffffffffffffffffffffffffffffffff16815260200190815260200160002060009054906101000a900460ff16610d46576040517f08c379a000000000000000000000000000000000000000000000000000000000815260040180806020018281038252601a8152602001807f4e6f742061204c697175696469747920436f6e74726f6c6c657200000000000081525060200191505060405180910390fd5b600360009054906101000a900473ffffffffffffffffffffffffffffffffffffffff1673ffffffffffffffffffffffffffffffffffffffff16638327eb8760016040518263ffffffff1660e01b8152600401808215158152602001915050600060405180830381600087803b158015610dbe57600080fd5b505af1158015610dd2573d6000803e3d6000fd5b50505050610de083856124d7565b9350610dec8385612631565b50600360009054906101000a900473ffffffffffffffffffffffffffffffffffffffff1673ffffffffffffffffffffffffffffffffffffffff166313b0dc9883836040518363ffffffff1660e01b8152600401808361ffff16815260200182815260200192505050600060405180830381600087803b158015610e6e57600080fd5b505af1158015610e82573d6000803e3d6000fd5b50505050600360009054906101000a900473ffffffffffffffffffffffffffffffffffffffff1673ffffffffffffffffffffffffffffffffffffffff16638327eb8760006040518263ffffffff1660e01b8152600401808215158152602001915050600060405180830381600087803b158015610efe57600080fd5b505af1158015610f12573d6000803e3d6000fd5b5050505050505050565b3373ffffffffffffffffffffffffffffffffffffffff16600160009054906101000a900473ffffffffffffffffffffffffffffffffffffffff1673ffffffffffffffffffffffffffffffffffffffff1614610f7657600080fd5b6000600160006101000a81548173ffffffffffffffffffffffffffffffffffffffff021916908373ffffffffffffffffffffffffffffffffffffffff1602179055503373ffffffffffffffffffffffffffffffffffffffff1660008054906101000a900473ffffffffffffffffffffffffffffffffffffffff1673ffffffffffffffffffffffffffffffffffffffff167f8be0079c531659141344cd1fd0a4f28419497f9722a3daafe3b4186f6b6457e060405160405180910390a3336000806101000a81548173ffffffffffffffffffffffffffffffffffffffff021916908373ffffffffffffffffffffffffffffffffffffffff160217905550565b60008054906101000a900473ffffffffffffffffffffffffffffffffffffffff1673ffffffffffffffffffffffffffffffffffffffff163373ffffffffffffffffffffffffffffffffffffffff1614611135576040517f08c379a000000000000000000000000000000000000000000000000000000000815260040180806020018281038252600a8152602001807f4f776e6572206f6e6c790000000000000000000000000000000000000000000081525060200191505060405180910390fd5b80600460008473ffffffffffffffffffffffffffffffffffffffff1673ffffffffffffffffffffffffffffffffffffffff16815260200190815260200160002060006101000a81548160ff0219169083151502179055505050565b600460003373ffffffffffffffffffffffffffffffffffffffff1673ffffffffffffffffffffffffffffffffffffffff16815260200190815260200160002060009054906101000a900460ff1661124f576040517f08c379a000000000000000000000000000000000000000000000000000000000815260040180806020018281038252601a8152602001807f4e6f742061204c697175696469747920436f6e74726f6c6c657200000000000081525060200191505060405180910390fd5b600360009054906101000a900473ffffffffffffffffffffffffffffffffffffffff1673ffffffffffffffffffffffffffffffffffffffff16638327eb8760016040518263ffffffff1660e01b8152600401808215158152602001915050600060405180830381600087803b1580156112c757600080fd5b505af11580156112db573d6000803e3d6000fd5b505050506112e98282612820565b600360009054906101000a900473ffffffffffffffffffffffffffffffffffffffff1673ffffffffffffffffffffffffffffffffffffffff16638327eb8760006040518263ffffffff1660e01b8152600401808215158152602001915050600060405180830381600087803b15801561136157600080fd5b505af1158015611375573d6000803e3d6000fd5b505050505050565b600360009054906101000a900473ffffffffffffffffffffffffffffffffffffffff1681565b600460003373ffffffffffffffffffffffffffffffffffffffff1673ffffffffffffffffffffffffffffffffffffffff16815260200190815260200160002060009054906101000a900460ff16611462576040517f08c379a000000000000000000000000000000000000000000000000000000000815260040180806020018281038252601a8152602001807f4e6f742061204c697175696469747920436f6e74726f6c6c657200000000000081525060200191505060405180910390fd5b600360009054906101000a900473ffffffffffffffffffffffffffffffffffffffff1673ffffffffffffffffffffffffffffffffffffffff16638327eb8760016040518263ffffffff1660e01b8152600401808215158152602001915050600060405180830381600087803b1580156114da57600080fd5b505af11580156114ee573d6000803e3d6000fd5b5050505061151c7f0000000000000000000000000000000000000000000000000000000000000000826124d7565b90507f000000000000000000000000000000000000000000000000000000000000000073ffffffffffffffffffffffffffffffffffffffff1663dd49756e826040518263ffffffff1660e01b815260040180828152602001915050600060405180830381600087803b15801561159157600080fd5b505af11580156115a5573d6000803e3d6000fd5b505050506115d37f000000000000000000000000000000000000000000000000000000000000000082612820565b600360009054906101000a900473ffffffffffffffffffffffffffffffffffffffff1673ffffffffffffffffffffffffffffffffffffffff16638327eb8760006040518263ffffffff1660e01b8152600401808215158152602001915050600060405180830381600087803b15801561164b57600080fd5b505af115801561165f573d6000803e3d6000fd5b5050505050565b60008054906101000a900473ffffffffffffffffffffffffffffffffffffffff1681565b600460003373ffffffffffffffffffffffffffffffffffffffff1673ffffffffffffffffffffffffffffffffffffffff16815260200190815260200160002060009054906101000a900460ff16611749576040517f08c379a000000000000000000000000000000000000000000000000000000000815260040180806020018281038252601a8152602001807f4e6f742061204c697175696469747920436f6e74726f6c6c657200000000000081525060200191505060405180910390fd5b6117737f000000000000000000000000000000000000000000000000000000000000000082612631565b905061179f7f000000000000000000000000000000000000000000000000000000000000000082612a45565b90507f000000000000000000000000000000000000000000000000000000000000000073ffffffffffffffffffffffffffffffffffffffff1663315a095d826040518263ffffffff1660e01b815260040180828152602001915050600060405180830381600087803b15801561181457600080fd5b505af1158015611828573d6000803e3d6000fd5b5050505050565b600460003373ffffffffffffffffffffffffffffffffffffffff1673ffffffffffffffffffffffffffffffffffffffff16815260200190815260200160002060009054906101000a900460ff166118ee576040517f08c379a000000000000000000000000000000000000000000000000000000000815260040180806020018281038252601a8152602001807f4e6f742061204c697175696469747920436f6e74726f6c6c657200000000000081525060200191505060405180910390fd5b600360009054906101000a900473ffffffffffffffffffffffffffffffffffffffff1673ffffffffffffffffffffffffffffffffffffffff16638327eb8760016040518263ffffffff1660e01b8152600401808215158152602001915050600060405180830381600087803b15801561196657600080fd5b505af115801561197a573d6000803e3d6000fd5b5050505061198882826124d7565b50600360009054906101000a900473ffffffffffffffffffffffffffffffffffffffff1673ffffffffffffffffffffffffffffffffffffffff16638327eb8760006040518263ffffffff1660e01b8152600401808215158152602001915050600060405180830381600087803b158015611a0157600080fd5b505af1158015611a15573d6000803e3d6000fd5b505050505050565b600460003373ffffffffffffffffffffffffffffffffffffffff1673ffffffffffffffffffffffffffffffffffffffff16815260200190815260200160002060009054906101000a900460ff16611adc576040517f08c379a000000000000000000000000000000000000000000000000000000000815260040180806020018281038252601a8152602001807f4e6f742061204c697175696469747920436f6e74726f6c6c657200000000000081525060200191505060405180910390fd5b600360009054906101000a900473ffffffffffffffffffffffffffffffffffffffff1673ffffffffffffffffffffffffffffffffffffffff16638327eb8760016040518263ffffffff1660e01b8152600401808215158152602001915050600060405180830381600087803b158015611b5457600080fd5b505af1158015611b68573d6000803e3d6000fd5b50505050611b967f0000000000000000000000000000000000000000000000000000000000000000826124d7565b90507f000000000000000000000000000000000000000000000000000000000000000073ffffffffffffffffffffffffffffffffffffffff1663315a095d826040518263ffffffff1660e01b815260040180828152602001915050600060405180830381600087803b158015611c0b57600080fd5b505af1158015611c1f573d6000803e3d6000fd5b50505050611c4d7f000000000000000000000000000000000000000000000000000000000000000082612820565b600360009054906101000a900473ffffffffffffffffffffffffffffffffffffffff1673ffffffffffffffffffffffffffffffffffffffff16638327eb8760006040518263ffffffff1660e01b8152600401808215158152602001915050600060405180830381600087803b158015611cc557600080fd5b505af1158015611cd9573d6000803e3d6000fd5b5050505050565b600260009054906101000a900473ffffffffffffffffffffffffffffffffffffffff1681565b600460003373ffffffffffffffffffffffffffffffffffffffff1673ffffffffffffffffffffffffffffffffffffffff16815260200190815260200160002060009054906101000a900460ff16611dc5576040517f08c379a000000000000000000000000000000000000000000000000000000000815260040180806020018281038252601a8152602001807f4e6f742061204c697175696469747920436f6e74726f6c6c657200000000000081525060200191505060405180910390fd5b7f000000000000000000000000000000000000000000000000000000000000000073ffffffffffffffffffffffffffffffffffffffff1663dd49756e826040518263ffffffff1660e01b815260040180828152602001915050600060405180830381600087803b158015611e3857600080fd5b505af1158015611e4c573d6000803e3d6000fd5b50505050611e7a7f000000000000000000000000000000000000000000000000000000000000000082612631565b9050611ea67f000000000000000000000000000000000000000000000000000000000000000082612a45565b905050565b600460003373ffffffffffffffffffffffffffffffffffffffff1673ffffffffffffffffffffffffffffffffffffffff16815260200190815260200160002060009054906101000a900460ff16611f6a576040517f08c379a000000000000000000000000000000000000000000000000000000000815260040180806020018281038252601a8152602001807f4e6f742061204c697175696469747920436f6e74726f6c6c657200000000000081525060200191505060405180910390fd5b611f748282612a45565b505050565b60008054906101000a900473ffffffffffffffffffffffffffffffffffffffff1673ffffffffffffffffffffffffffffffffffffffff163373ffffffffffffffffffffffffffffffffffffffff161461203a576040517f08c379a000000000000000000000000000000000000000000000000000000000815260040180806020018281038252600a8152602001807f4f776e6572206f6e6c790000000000000000000000000000000000000000000081525060200191505060405180910390fd5b81600260006101000a81548173ffffffffffffffffffffffffffffffffffffffff021916908373ffffffffffffffffffffffffffffffffffffffff16021790555080600360006101000a81548173ffffffffffffffffffffffffffffffffffffffff021916908373ffffffffffffffffffffffffffffffffffffffff1602179055505050565b600460003373ffffffffffffffffffffffffffffffffffffffff1673ffffffffffffffffffffffffffffffffffffffff16815260200190815260200160002060009054906101000a900460ff1661217f576040517f08c379a000000000000000000000000000000000000000000000000000000000815260040180806020018281038252601a8152602001807f4e6f742061204c697175696469747920436f6e74726f6c6c657200000000000081525060200191505060405180910390fd5b6121898282612631565b505050565b600460003373ffffffffffffffffffffffffffffffffffffffff1673ffffffffffffffffffffffffffffffffffffffff16815260200190815260200160002060009054906101000a900460ff1661224d576040517f08c379a000000000000000000000000000000000000000000000000000000000815260040180806020018281038252601a8152602001807f4e6f742061204c697175696469747920436f6e74726f6c6c657200000000000081525060200191505060405180910390fd5b6122578484612631565b50600360009054906101000a900473ffffffffffffffffffffffffffffffffffffffff1673ffffffffffffffffffffffffffffffffffffffff166313b0dc9883836040518363ffffffff1660e01b8152600401808361ffff16815260200182815260200192505050600060405180830381600087803b1580156122d957600080fd5b505af11580156122ed573d6000803e3d6000fd5b5050505050505050565b60008054906101000a900473ffffffffffffffffffffffffffffffffffffffff1673ffffffffffffffffffffffffffffffffffffffff163373ffffffffffffffffffffffffffffffffffffffff16146123b8576040517f08c379a000000000000000000000000000000000000000000000000000000000815260040180806020018281038252600a8152602001807f4f776e6572206f6e6c790000000000000000000000000000000000000000000081525060200191505060405180910390fd5b80600160006101000a81548173ffffffffffffffffffffffffffffffffffffffff021916908373ffffffffffffffffffffffffffffffffffffffff16021790555050565b60003073ffffffffffffffffffffffffffffffffffffffff168273ffffffffffffffffffffffffffffffffffffffff1614159050919050565b6124d28363a9059cbb60e01b8484604051602401808373ffffffffffffffffffffffffffffffffffffffff16815260200182815260200192505050604051602081830303815290604052907bffffffffffffffffffffffffffffffffffffffffffffffffffffffff19166020820180517bffffffffffffffffffffffffffffffffffffffffffffffffffffffff8381831617835250505050612c34565b505050565b60007f000000000000000000000000000000000000000000000000000000000000000073ffffffffffffffffffffffffffffffffffffffff1663baa2abde847f00000000000000000000000000000000000000000000000000000000000000008560008030426040518863ffffffff1660e01b8152600401808873ffffffffffffffffffffffffffffffffffffffff1681526020018773ffffffffffffffffffffffffffffffffffffffff1681526020018681526020018581526020018481526020018373ffffffffffffffffffffffffffffffffffffffff1681526020018281526020019750505050505050506040805180830381600087803b1580156125de57600080fd5b505af11580156125f2573d6000803e3d6000fd5b505050506040513d604081101561260857600080fd5b810190808051906020019092919080519060200190929190505050508092505081905092915050565b600060607f000000000000000000000000000000000000000000000000000000000000000073ffffffffffffffffffffffffffffffffffffffff166338ed173984600061267d88612d23565b30426040518663ffffffff1660e01b815260040180868152602001858152602001806020018473ffffffffffffffffffffffffffffffffffffffff168152602001838152602001828103825285818151815260200191508051906020019060200280838360005b838110156126ff5780820151818401526020810190506126e4565b505050509050019650505050505050600060405180830381600087803b15801561272857600080fd5b505af115801561273c573d6000803e3d6000fd5b505050506040513d6000823e3d601f19601f82011682018060405250602081101561276657600080fd5b810190808051604051939291908464010000000082111561278657600080fd5b8382019150602082018581111561279c57600080fd5b82518660208202830111640100000000821117156127b957600080fd5b8083526020830192505050908051906020019060200280838360005b838110156127f05780820151818401526020810190506127d5565b5050505090500160405250505090508060018151811061280c57fe5b602002602001015192508291505092915050565b7f000000000000000000000000000000000000000000000000000000000000000073ffffffffffffffffffffffffffffffffffffffff1663e8e33700837f0000000000000000000000000000000000000000000000000000000000000000847f000000000000000000000000000000000000000000000000000000000000000073ffffffffffffffffffffffffffffffffffffffff166370a08231306040518263ffffffff1660e01b8152600401808273ffffffffffffffffffffffffffffffffffffffff16815260200191505060206040518083038186803b15801561290657600080fd5b505afa15801561291a573d6000803e3d6000fd5b505050506040513d602081101561293057600080fd5b810190808051906020019092919050505060008030426040518963ffffffff1660e01b8152600401808973ffffffffffffffffffffffffffffffffffffffff1681526020018873ffffffffffffffffffffffffffffffffffffffff1681526020018781526020018681526020018581526020018481526020018373ffffffffffffffffffffffffffffffffffffffff16815260200182815260200198505050505050505050606060405180830381600087803b1580156129ef57600080fd5b505af1158015612a03573d6000803e3d6000fd5b505050506040513d6060811015612a1957600080fd5b810190808051906020019092919080519060200190929190805190602001909291905050505050505050565b600060607f000000000000000000000000000000000000000000000000000000000000000073ffffffffffffffffffffffffffffffffffffffff166338ed1739846000612a9188612e29565b30426040518663ffffffff1660e01b815260040180868152602001858152602001806020018473ffffffffffffffffffffffffffffffffffffffff168152602001838152602001828103825285818151815260200191508051906020019060200280838360005b83811015612b13578082015181840152602081019050612af8565b505050509050019650505050505050600060405180830381600087803b158015612b3c57600080fd5b505af1158015612b50573d6000803e3d6000fd5b505050506040513d6000823e3d601f19601f820116820180604052506020811015612b7a57600080fd5b8101908080516040519392919084640100000000821115612b9a57600080fd5b83820191506020820185811115612bb057600080fd5b8251866020820283011164010000000082111715612bcd57600080fd5b8083526020830192505050908051906020019060200280838360005b83811015612c04578082015181840152602081019050612be9565b50505050905001604052505050905080600181518110612c2057fe5b602002602001015192508291505092915050565b6060612c96826040518060400160405280602081526020017f5361666545524332303a206c6f772d6c6576656c2063616c6c206661696c65648152508573ffffffffffffffffffffffffffffffffffffffff16612f2f9092919063ffffffff16565b9050600081511115612d1e57808060200190516020811015612cb757600080fd5b8101908080519060200190929190505050612d1d576040517f08c379a000000000000000000000000000000000000000000000000000000000815260040180806020018281038252602a8152602001806131f6602a913960400191505060405180910390fd5b5b505050565b606080600267ffffffffffffffff81118015612d3e57600080fd5b50604051908082528060200260200182016040528015612d6d5781602001602082028036833780820191505090505b5090508281600081518110612d7e57fe5b602002602001019073ffffffffffffffffffffffffffffffffffffffff16908173ffffffffffffffffffffffffffffffffffffffff16815250507f000000000000000000000000000000000000000000000000000000000000000081600181518110612de657fe5b602002602001019073ffffffffffffffffffffffffffffffffffffffff16908173ffffffffffffffffffffffffffffffffffffffff168152505080915050919050565b606080600267ffffffffffffffff81118015612e4457600080fd5b50604051908082528060200260200182016040528015612e735781602001602082028036833780820191505090505b5090507f000000000000000000000000000000000000000000000000000000000000000081600081518110612ea457fe5b602002602001019073ffffffffffffffffffffffffffffffffffffffff16908173ffffffffffffffffffffffffffffffffffffffff16815250508281600181518110612eec57fe5b602002602001019073ffffffffffffffffffffffffffffffffffffffff16908173ffffffffffffffffffffffffffffffffffffffff168152505080915050919050565b6060612f3e8484600085612f47565b90509392505050565b606082471015612fa2576040517f08c379a00000000000000000000000000000000000000000000000000000000081526004018080602001828103825260268152602001806131d06026913960400191505060405180910390fd5b612fab856130f0565b61301d576040517f08c379a000000000000000000000000000000000000000000000000000000000815260040180806020018281038252601d8152602001807f416464726573733a2063616c6c20746f206e6f6e2d636f6e747261637400000081525060200191505060405180910390fd5b600060608673ffffffffffffffffffffffffffffffffffffffff1685876040518082805190602001908083835b6020831061306d578051825260208201915060208101905060208303925061304a565b6001836020036101000a03801982511681845116808217855250505050505090500191505060006040518083038185875af1925050503d80600081146130cf576040519150601f19603f3d011682016040523d82523d6000602084013e6130d4565b606091505b50915091506130e4828286613103565b92505050949350505050565b600080823b905060008111915050919050565b60608315613113578290506131c8565b6000835111156131265782518084602001fd5b816040517f08c379a00000000000000000000000000000000000000000000000000000000081526004018080602001828103825283818151815260200191508051906020019080838360005b8381101561318d578082015181840152602081019050613172565b50505050905090810190601f1680156131ba5780820380516001836020036101000a031916815260200191505b509250505060405180910390fd5b939250505056fe416464726573733a20696e73756666696369656e742062616c616e636520666f722063616c6c5361666545524332303a204552433230206f7065726174696f6e20646964206e6f742073756363656564a264697066735822122090bd794a35a2a94faf714db8929db031751f80e37bf58471c1398022c50ef2cb64736f6c63430007040033",
  "immutableReferences": {
    "4970": [
      {
        "length": 32,
        "start": 9435
      },
      {
        "length": 32,
        "start": 9783
      },
      {
        "length": 32,
        "start": 10274
      },
      {
        "length": 32,
        "start": 10827
      }
    ],
    "4974": [
      {
        "length": 32,
        "start": 9496
      },
      {
        "length": 32,
        "start": 10335
      },
      {
        "length": 32,
        "start": 10369
      },
      {
        "length": 32,
        "start": 11706
      },
      {
        "length": 32,
        "start": 11896
      }
    ],
    "4976": [
      {
        "length": 32,
        "start": 5367
      },
      {
        "length": 32,
        "start": 5966
      },
      {
        "length": 32,
        "start": 7208
      },
      {
        "length": 32,
        "start": 7809
      }
    ],
    "4978": [
      {
        "length": 32,
        "start": 1894
      },
      {
        "length": 32,
        "start": 2734
      },
      {
        "length": 32,
        "start": 3067
      },
      {
        "length": 32,
        "start": 5408
      },
      {
        "length": 32,
        "start": 5550
      },
      {
        "length": 32,
        "start": 6010
      },
      {
        "length": 32,
        "start": 6051
      },
      {
        "length": 32,
        "start": 7025
      },
      {
        "length": 32,
        "start": 7066
      },
      {
        "length": 32,
        "start": 7623
      },
      {
        "length": 32,
        "start": 7765
      }
    ]
  },
  "source": "// SPDX-License-Identifier: U-U-U-UPPPPP!!!\r\npragma solidity ^0.7.4;\r\n\r\nimport \"./TokensRecoverable.sol\";\r\nimport \"./IERC31337.sol\";\r\nimport \"./IPancakeRouter02.sol\";\r\nimport \"./IERC20.sol\";\r\nimport \"./RootedTransferGate.sol\";\r\nimport \"./IPancakeFactory.sol\";\r\nimport \"./SafeMath.sol\";\r\nimport \"./ILiquidityController.sol\";\r\nimport \"./IFloorCalculator.sol\";\r\n\r\ncontract LiquidityController is TokensRecoverable, ILiquidityController\r\n{\r\n    using SafeMath for uint256;\r\n\r\n    IPancakeRouter02 immutable pancakeRouter;\r\n    IPancakeFactory immutable pancakeFactory;\r\n    IERC20 immutable rooted;\r\n    IERC20 immutable base;\r\n    IERC31337 immutable elite;\r\n    IERC20 immutable rootedEliteLP;\r\n    IERC20 immutable rootedBaseLP;\r\n    IFloorCalculator public calculator;\r\n    RootedTransferGate public gate;\r\n    mapping(address => bool) public liquidityControllers;\r\n\r\n    constructor(IPancakeRouter02 _pancakeRouter, IERC20 _base, IERC20 _rooted, IERC31337 _elite, IFloorCalculator _calculator, RootedTransferGate _gate) \r\n    {\r\n        pancakeRouter = _pancakeRouter;\r\n        base = _base;\r\n        elite = _elite;\r\n        rooted = _rooted;\r\n        calculator = _calculator;\r\n        gate = _gate;\r\n\r\n        IPancakeFactory _pancakeFactory = IPancakeFactory(_pancakeRouter.factory());\r\n        pancakeFactory = _pancakeFactory;        \r\n        \r\n        _base.approve(address(_elite), uint256(-1));\r\n        _base.approve(address(_pancakeRouter), uint256(-1));\r\n        _rooted.approve(address(_pancakeRouter), uint256(-1));\r\n        IERC20 _rootedBaseLP = IERC20(_pancakeFactory.getPair(address(_base), address(_rooted)));\r\n        _rootedBaseLP.approve(address(_pancakeRouter), uint256(-1));\r\n        rootedBaseLP = _rootedBaseLP;\r\n        _elite.approve(address(_pancakeRouter), uint256(-1));\r\n        IERC20 _rootedEliteLP = IERC20(_pancakeFactory.getPair(address(_elite), address(_rooted)));\r\n        _rootedEliteLP.approve(address(_pancakeRouter), uint256(-1));\r\n        rootedEliteLP = _rootedEliteLP;\r\n    }\r\n\r\n    modifier liquidityControllerOnly()\r\n    {\r\n        require(liquidityControllers[msg.sender], \"Not a Liquidity Controller\");\r\n        _;\r\n    }\r\n\r\n    // Owner function to enable other contracts or addresses to use the Liquidity Controller\r\n    function setLiquidityController(address controlAddress, bool controller) public ownerOnly()\r\n    {\r\n        liquidityControllers[controlAddress] = controller;\r\n    }\r\n\r\n    function setCalculatorAndGate(IFloorCalculator _calculator, RootedTransferGate _gate) public ownerOnly()\r\n    {\r\n        calculator = _calculator;\r\n        gate = _gate;\r\n    }\r\n\r\n    // Removes liquidity, buys from either pool, sets a temporary dump tax\r\n    function removeBuyAndTax(uint256 amount, address token, uint16 tax, uint256 time) public override liquidityControllerOnly()\r\n    {\r\n        gate.setUnrestricted(true);\r\n        amount = removeLiq(token, amount);\r\n        buyRootedToken(token, amount);\r\n        gate.setDumpTax(tax, time);\r\n        gate.setUnrestricted(false);\r\n    }\r\n\r\n    // Use Base tokens held by this contract to buy from the Base Pool and sell in the Elite Pool\r\n    function balancePriceBase(uint256 amount) public override liquidityControllerOnly()\r\n    {\r\n        amount = buyRootedToken(address(base), amount);\r\n        amount = sellRootedToken(address(elite), amount);\r\n        elite.withdrawTokens(amount);\r\n    }\r\n\r\n    // Use Base tokens held by this contract to buy from the Elite Pool and sell in the Base Pool\r\n    function balancePriceElite(uint256 amount) public override liquidityControllerOnly()\r\n    {        \r\n        elite.depositTokens(amount);\r\n        amount = buyRootedToken(address(elite), amount);\r\n        amount = sellRootedToken(address(base), amount);\r\n    }\r\n\r\n    // Uses value in the controller to buy\r\n    function buyAndTax(address token, uint256 amountToSpend, uint16 tax, uint256 time) public override liquidityControllerOnly()\r\n    {\r\n        buyRootedToken(token, amountToSpend);\r\n        gate.setDumpTax(tax, time);\r\n    }\r\n\r\n    // Sweeps the Base token under the floor to this address\r\n    function sweepFloor() public override liquidityControllerOnly()\r\n    {\r\n        elite.sweepFloor(address(this));\r\n    }\r\n\r\n    // Move liquidity from Elite pool --->> Base pool\r\n    function zapEliteToBase(uint256 liquidity) public override liquidityControllerOnly() \r\n    {       \r\n        gate.setUnrestricted(true);\r\n        liquidity = removeLiq(address(elite), liquidity);\r\n        elite.withdrawTokens(liquidity);\r\n        addLiq(address(base), liquidity);\r\n        gate.setUnrestricted(false);\r\n    }\r\n\r\n    // Move liquidity from Base pool --->> Elite pool\r\n    function zapBaseToElite(uint256 liquidity) public override liquidityControllerOnly() \r\n    {\r\n        gate.setUnrestricted(true);\r\n        liquidity = removeLiq(address(base), liquidity);\r\n        elite.depositTokens(liquidity);\r\n        addLiq(address(elite), liquidity);\r\n        gate.setUnrestricted(false);\r\n    }\r\n\r\n    function wrapToElite(uint256 baseAmount) public override liquidityControllerOnly() \r\n    {\r\n        elite.depositTokens(baseAmount);\r\n    }\r\n\r\n    function unwrapElite(uint256 eliteAmount) public override liquidityControllerOnly() \r\n    {\r\n        elite.withdrawTokens(eliteAmount);\r\n    }\r\n\r\n    function addLiquidity(address eliteOrBase, uint256 baseAmount) public override liquidityControllerOnly() \r\n    {\r\n        gate.setUnrestricted(true);\r\n        addLiq(eliteOrBase, baseAmount);\r\n        gate.setUnrestricted(false);\r\n    }\r\n\r\n    function removeLiquidity(address eliteOrBase, uint256 tokens) public override liquidityControllerOnly()\r\n    {\r\n        gate.setUnrestricted(true);\r\n        removeLiq(eliteOrBase, tokens);\r\n        gate.setUnrestricted(false);\r\n    }\r\n\r\n    function buyRooted(address token, uint256 amountToSpend) public override liquidityControllerOnly()\r\n    {\r\n        buyRootedToken(token, amountToSpend);\r\n    }\r\n\r\n    function sellRooted(address token, uint256 amountToSpend) public override liquidityControllerOnly()\r\n    {\r\n        sellRootedToken(token, amountToSpend);\r\n    }\r\n\r\n    function addLiq(address eliteOrBase, uint256 baseAmount) internal \r\n    {\r\n        pancakeRouter.addLiquidity(address(eliteOrBase), address(rooted), baseAmount, rooted.balanceOf(address(this)), 0, 0, address(this), block.timestamp);\r\n    }\r\n\r\n    function removeLiq(address eliteOrBase, uint256 tokens) internal returns (uint256)\r\n    {\r\n        (tokens, ) = pancakeRouter.removeLiquidity(address(eliteOrBase), address(rooted), tokens, 0, 0, address(this), block.timestamp);\r\n        return tokens;\r\n    }\r\n\r\n    function buyRootedToken(address token, uint256 amountToSpend) internal returns (uint256)\r\n    {\r\n        uint256[] memory amounts = pancakeRouter.swapExactTokensForTokens(amountToSpend, 0, buyPath(token), address(this), block.timestamp);\r\n        amountToSpend = amounts[1];\r\n        return amountToSpend;\r\n    }\r\n\r\n    function sellRootedToken(address token, uint256 amountToSpend) internal returns (uint256)\r\n    {\r\n        uint256[] memory amounts = pancakeRouter.swapExactTokensForTokens(amountToSpend, 0, sellPath(token), address(this), block.timestamp);\r\n        amountToSpend = amounts[1];\r\n        return amountToSpend;\r\n    }\r\n\r\n    function buyPath(address token) internal view returns (address[] memory) \r\n    {\r\n        address[] memory path = new address[](2);\r\n        path[0] = address(token);\r\n        path[1] = address(rooted);\r\n        return path;\r\n    }\r\n\r\n    function sellPath(address token) internal view returns (address[] memory) \r\n    {\r\n        address[] memory path = new address[](2);\r\n        path[0] = address(rooted);\r\n        path[1] = address(token);\r\n        return path;\r\n    }\r\n}",
  "sourcePath": "G:/projects/degen-protocol/SH33P-contracts/contracts/LiquidityController.sol",
  "compiler": {
    "name": "solc",
    "version": "0.7.4+commit.3f05b770.Emscripten.clang"
  },
  "schemaVersion": "3.4.1",
  "updatedAt": "2022-01-17T07:34:42.562Z",
  "devdoc": {
    "kind": "dev",
    "methods": {},
    "version": 1
  },
  "userdoc": {
    "kind": "user",
    "methods": {},
    "version": 1
  }
}