{
  "contractName": "MarketDistribution",
  "abi": [
    {
      "inputs": [
        {
          "internalType": "address",
          "name": "_oneshotController",
          "type": "address"
        },
        {
          "internalType": "address",
          "name": "_multisplitterAddress",
          "type": "address"
        }
      ],
      "stateMutability": "nonpayable",
      "type": "constructor"
    },
    {
      "anonymous": false,
      "inputs": [
        {
          "indexed": true,
          "internalType": "address",
          "name": "previousOwner",
          "type": "address"
        },
        {
          "indexed": true,
          "internalType": "address",
          "name": "newOwner",
          "type": "address"
        }
      ],
      "name": "OwnershipTransferred",
      "type": "event"
    },
    {
      "inputs": [],
      "name": "baseToken",
      "outputs": [
        {
          "internalType": "contract IERC20",
          "name": "",
          "type": "address"
        }
      ],
      "stateMutability": "view",
      "type": "function"
    },
    {
      "inputs": [],
      "name": "burnPit",
      "outputs": [
        {
          "internalType": "address",
          "name": "",
          "type": "address"
        }
      ],
      "stateMutability": "view",
      "type": "function"
    },
    {
      "inputs": [],
      "name": "claimOwnership",
      "outputs": [],
      "stateMutability": "nonpayable",
      "type": "function"
    },
    {
      "inputs": [
        {
          "internalType": "address",
          "name": "",
          "type": "address"
        }
      ],
      "name": "claimTime",
      "outputs": [
        {
          "internalType": "uint256",
          "name": "",
          "type": "uint256"
        }
      ],
      "stateMutability": "view",
      "type": "function"
    },
    {
      "inputs": [],
      "name": "distributionComplete",
      "outputs": [
        {
          "internalType": "bool",
          "name": "",
          "type": "bool"
        }
      ],
      "stateMutability": "view",
      "type": "function"
    },
    {
      "inputs": [],
      "name": "eliteToken",
      "outputs": [
        {
          "internalType": "contract IERC31337",
          "name": "",
          "type": "address"
        }
      ],
      "stateMutability": "view",
      "type": "function"
    },
    {
      "inputs": [],
      "name": "liquidityController",
      "outputs": [
        {
          "internalType": "address",
          "name": "",
          "type": "address"
        }
      ],
      "stateMutability": "view",
      "type": "function"
    },
    {
      "inputs": [],
      "name": "marketGeneration",
      "outputs": [
        {
          "internalType": "contract IMarketGeneration",
          "name": "",
          "type": "address"
        }
      ],
      "stateMutability": "view",
      "type": "function"
    },
    {
      "inputs": [],
      "name": "multisplitterAddress",
      "outputs": [
        {
          "internalType": "address",
          "name": "",
          "type": "address"
        }
      ],
      "stateMutability": "view",
      "type": "function"
    },
    {
      "inputs": [],
      "name": "oneshotController",
      "outputs": [
        {
          "internalType": "address",
          "name": "",
          "type": "address"
        }
      ],
      "stateMutability": "view",
      "type": "function"
    },
    {
      "inputs": [],
      "name": "owner",
      "outputs": [
        {
          "internalType": "address",
          "name": "",
          "type": "address"
        }
      ],
      "stateMutability": "view",
      "type": "function"
    },
    {
      "inputs": [],
      "name": "preBuyForContributorsPercent",
      "outputs": [
        {
          "internalType": "uint16",
          "name": "",
          "type": "uint16"
        }
      ],
      "stateMutability": "view",
      "type": "function"
    },
    {
      "inputs": [],
      "name": "preBuyForMarketStabilizationPercent",
      "outputs": [
        {
          "internalType": "uint16",
          "name": "",
          "type": "uint16"
        }
      ],
      "stateMutability": "view",
      "type": "function"
    },
    {
      "inputs": [],
      "name": "projectSetupPercent",
      "outputs": [
        {
          "internalType": "uint16",
          "name": "",
          "type": "uint16"
        }
      ],
      "stateMutability": "view",
      "type": "function"
    },
    {
      "inputs": [
        {
          "internalType": "contract IERC20",
          "name": "token",
          "type": "address"
        }
      ],
      "name": "recoverTokens",
      "outputs": [],
      "stateMutability": "nonpayable",
      "type": "function"
    },
    {
      "inputs": [],
      "name": "recoveryDate",
      "outputs": [
        {
          "internalType": "uint256",
          "name": "",
          "type": "uint256"
        }
      ],
      "stateMutability": "view",
      "type": "function"
    },
    {
      "inputs": [
        {
          "internalType": "address",
          "name": "",
          "type": "address"
        }
      ],
      "name": "remainingClaim",
      "outputs": [
        {
          "internalType": "uint256",
          "name": "",
          "type": "uint256"
        }
      ],
      "stateMutability": "view",
      "type": "function"
    },
    {
      "inputs": [],
      "name": "remainingMintableSupply",
      "outputs": [
        {
          "internalType": "uint256",
          "name": "",
          "type": "uint256"
        }
      ],
      "stateMutability": "view",
      "type": "function"
    },
    {
      "inputs": [],
      "name": "rootedBaseLP",
      "outputs": [
        {
          "internalType": "contract IPancakePair",
          "name": "",
          "type": "address"
        }
      ],
      "stateMutability": "view",
      "type": "function"
    },
    {
      "inputs": [],
      "name": "rootedBottom",
      "outputs": [
        {
          "internalType": "uint256",
          "name": "",
          "type": "uint256"
        }
      ],
      "stateMutability": "view",
      "type": "function"
    },
    {
      "inputs": [],
      "name": "rootedEliteLP",
      "outputs": [
        {
          "internalType": "contract IPancakePair",
          "name": "",
          "type": "address"
        }
      ],
      "stateMutability": "view",
      "type": "function"
    },
    {
      "inputs": [],
      "name": "rootedToken",
      "outputs": [
        {
          "internalType": "contract RootedToken",
          "name": "",
          "type": "address"
        }
      ],
      "stateMutability": "view",
      "type": "function"
    },
    {
      "inputs": [],
      "name": "totalBaseTokenCollected",
      "outputs": [
        {
          "internalType": "uint256",
          "name": "",
          "type": "uint256"
        }
      ],
      "stateMutability": "view",
      "type": "function"
    },
    {
      "inputs": [],
      "name": "totalBoughtForContributors",
      "outputs": [
        {
          "internalType": "uint256",
          "name": "",
          "type": "uint256"
        }
      ],
      "stateMutability": "view",
      "type": "function"
    },
    {
      "inputs": [
        {
          "internalType": "address",
          "name": "",
          "type": "address"
        }
      ],
      "name": "totalClaim",
      "outputs": [
        {
          "internalType": "uint256",
          "name": "",
          "type": "uint256"
        }
      ],
      "stateMutability": "view",
      "type": "function"
    },
    {
      "inputs": [],
      "name": "totalRooted",
      "outputs": [
        {
          "internalType": "uint256",
          "name": "",
          "type": "uint256"
        }
      ],
      "stateMutability": "view",
      "type": "function"
    },
    {
      "inputs": [
        {
          "internalType": "address",
          "name": "newOwner",
          "type": "address"
        }
      ],
      "name": "transferOwnership",
      "outputs": [],
      "stateMutability": "nonpayable",
      "type": "function"
    },
    {
      "inputs": [],
      "name": "vestingDuration",
      "outputs": [
        {
          "internalType": "uint256",
          "name": "",
          "type": "uint256"
        }
      ],
      "stateMutability": "view",
      "type": "function"
    },
    {
      "inputs": [],
      "name": "vestingPeriodEndTime",
      "outputs": [
        {
          "internalType": "uint256",
          "name": "",
          "type": "uint256"
        }
      ],
      "stateMutability": "view",
      "type": "function"
    },
    {
      "inputs": [],
      "name": "vestingPeriodStartTime",
      "outputs": [
        {
          "internalType": "uint256",
          "name": "",
          "type": "uint256"
        }
      ],
      "stateMutability": "view",
      "type": "function"
    },
    {
      "inputs": [
        {
          "internalType": "contract RootedToken",
          "name": "_rootedToken",
          "type": "address"
        },
        {
          "internalType": "contract IERC31337",
          "name": "_eliteToken",
          "type": "address"
        },
        {
          "internalType": "address",
          "name": "_burnPit",
          "type": "address"
        },
        {
          "internalType": "address",
          "name": "_liquidityController",
          "type": "address"
        },
        {
          "internalType": "contract IPancakeRouter02",
          "name": "_pancakeRouter",
          "type": "address"
        },
        {
          "internalType": "contract IMarketGeneration",
          "name": "_marketGeneration",
          "type": "address"
        },
        {
          "internalType": "uint256",
          "name": "_vestingDuration",
          "type": "uint256"
        },
        {
          "internalType": "uint16",
          "name": "_projectSetupPercent",
          "type": "uint16"
        },
        {
          "internalType": "uint16",
          "name": "_preBuyForContributorsPercent",
          "type": "uint16"
        },
        {
          "internalType": "uint16",
          "name": "_preBuyForMarketStabilizationPercent",
          "type": "uint16"
        }
      ],
      "name": "init",
      "outputs": [],
      "stateMutability": "nonpayable",
      "type": "function"
    },
    {
      "inputs": [],
      "name": "setupEliteRooted",
      "outputs": [],
      "stateMutability": "nonpayable",
      "type": "function"
    },
    {
      "inputs": [],
      "name": "setupBaseRooted",
      "outputs": [],
      "stateMutability": "nonpayable",
      "type": "function"
    },
    {
      "inputs": [],
      "name": "completeSetup",
      "outputs": [],
      "stateMutability": "nonpayable",
      "type": "function"
    },
    {
      "inputs": [],
      "name": "distribute",
      "outputs": [],
      "stateMutability": "nonpayable",
      "type": "function"
    },
    {
      "inputs": [
        {
          "internalType": "address",
          "name": "account",
          "type": "address"
        }
      ],
      "name": "getTotalClaim",
      "outputs": [
        {
          "internalType": "uint256",
          "name": "",
          "type": "uint256"
        }
      ],
      "stateMutability": "view",
      "type": "function"
    },
    {
      "inputs": [
        {
          "internalType": "address",
          "name": "account",
          "type": "address"
        }
      ],
      "name": "claim",
      "outputs": [],
      "stateMutability": "nonpayable",
      "type": "function"
    }
  ],
  "bytecode": "0x60a0604052336000806101000a81548173ffffffffffffffffffffffffffffffffffffffff021916908373ffffffffffffffffffffffffffffffffffffffff16021790555069d3c21bcecceda100000060809081525062278d0042016014553480156200006b57600080fd5b506040516200588b3803806200588b833981810160405260408110156200009157600080fd5b81019080805190602001909291908051906020019092919050505081600b60006101000a81548173ffffffffffffffffffffffffffffffffffffffff021916908373ffffffffffffffffffffffffffffffffffffffff16021790555080600d60006101000a81548173ffffffffffffffffffffffffffffffffffffffff021916908373ffffffffffffffffffffffffffffffffffffffff160217905550505060805161573b620001506000398061111c5280612c9d525061573b6000f3fe608060405234801561001057600080fd5b50600436106102275760003560e01c8063700d544d11610130578063b3f891f1116100b8578063e6e978f51161007c578063e6e978f51461088b578063ea85c889146108a9578063f1fb8de5146108dd578063f2fde38b146108fb578063fb4cfe441461093f57610227565b8063b3f891f11461081b578063c4cb5e9814610839578063c55dae6314610843578063d67af17c14610877578063e4fc6b6d1461088157610227565b80638aea8f71116100ff5780638aea8f71146107695780638da5cb5b14610773578063abba222e146107a7578063abdbd49a146107db578063af4050f2146107f957610227565b8063700d544d1461058257806372b420261461069b5780637bb723f8146106f35780637d9aff4b1461071157610227565b80632144b4ba116101b35780634b4c99fc116101825780634b4c99fc146104845780634c443127146104b85780634e71e0c81461051057806350e0407e1461051a5780635d77cf191461054e57610227565b80632144b4ba146103d057806323dbf825146103ee578063349f0b901461040e57806349c472401461042c57610227565b80631514617e116101fa5780631514617e146102d857806316114acd146102f657806318fc8ed91461033a5780631dedd5fc1461036e5780631e83409a1461038c57610227565b8063032a48db1461022c5780630d410ca8146102605780630da840cd1461028257806310f4597c146102b6575b600080fd5b610234610973565b604051808273ffffffffffffffffffffffffffffffffffffffff16815260200191505060405180910390f35b610268610999565b604051808261ffff16815260200191505060405180910390f35b61028a6109ad565b604051808273ffffffffffffffffffffffffffffffffffffffff16815260200191505060405180910390f35b6102be6109d3565b604051808261ffff16815260200191505060405180910390f35b6102e06109e7565b6040518082815260200191505060405180910390f35b6103386004803603602081101561030c57600080fd5b81019080803573ffffffffffffffffffffffffffffffffffffffff1690602001909291905050506109ed565b005b610342610b8f565b604051808273ffffffffffffffffffffffffffffffffffffffff16815260200191505060405180910390f35b610376610bb5565b6040518082815260200191505060405180910390f35b6103ce600480360360208110156103a257600080fd5b81019080803573ffffffffffffffffffffffffffffffffffffffff169060200190929190505050610bbb565b005b6103d861111a565b6040518082815260200191505060405180910390f35b6103f661113e565b60405180821515815260200191505060405180910390f35b610416611151565b6040518082815260200191505060405180910390f35b61046e6004803603602081101561044257600080fd5b81019080803573ffffffffffffffffffffffffffffffffffffffff169060200190929190505050611157565b6040518082815260200191505060405180910390f35b61048c61116f565b604051808273ffffffffffffffffffffffffffffffffffffffff16815260200191505060405180910390f35b6104fa600480360360208110156104ce57600080fd5b81019080803573ffffffffffffffffffffffffffffffffffffffff169060200190929190505050611195565b6040518082815260200191505060405180910390f35b6105186111ad565b005b610522611305565b604051808273ffffffffffffffffffffffffffffffffffffffff16815260200191505060405180910390f35b61055661132b565b604051808273ffffffffffffffffffffffffffffffffffffffff16815260200191505060405180910390f35b610699600480360361014081101561059957600080fd5b81019080803573ffffffffffffffffffffffffffffffffffffffff169060200190929190803573ffffffffffffffffffffffffffffffffffffffff169060200190929190803573ffffffffffffffffffffffffffffffffffffffff169060200190929190803573ffffffffffffffffffffffffffffffffffffffff169060200190929190803573ffffffffffffffffffffffffffffffffffffffff169060200190929190803573ffffffffffffffffffffffffffffffffffffffff16906020019092919080359060200190929190803561ffff169060200190929190803561ffff169060200190929190803561ffff169060200190929190505050611351565b005b6106dd600480360360208110156106b157600080fd5b81019080803573ffffffffffffffffffffffffffffffffffffffff169060200190929190505050611789565b6040518082815260200191505060405180910390f35b6106fb611933565b6040518082815260200191505060405180910390f35b6107536004803603602081101561072757600080fd5b81019080803573ffffffffffffffffffffffffffffffffffffffff169060200190929190505050611939565b6040518082815260200191505060405180910390f35b610771611951565b005b61077b612100565b604051808273ffffffffffffffffffffffffffffffffffffffff16815260200191505060405180910390f35b6107af612124565b604051808273ffffffffffffffffffffffffffffffffffffffff16815260200191505060405180910390f35b6107e361214a565b6040518082815260200191505060405180910390f35b610801612150565b604051808261ffff16815260200191505060405180910390f35b610823612164565b6040518082815260200191505060405180910390f35b61084161216a565b005b61084b6124ee565b604051808273ffffffffffffffffffffffffffffffffffffffff16815260200191505060405180910390f35b61087f612514565b005b610889612898565b005b610893613389565b6040518082815260200191505060405180910390f35b6108b161338f565b604051808273ffffffffffffffffffffffffffffffffffffffff16815260200191505060405180910390f35b6108e56133b5565b6040518082815260200191505060405180910390f35b61093d6004803603602081101561091157600080fd5b81019080803573ffffffffffffffffffffffffffffffffffffffff1690602001909291905050506133bb565b005b6109476134c0565b604051808273ffffffffffffffffffffffffffffffffffffffff16815260200191505060405180910390f35b600660009054906101000a900473ffffffffffffffffffffffffffffffffffffffff1681565b601560049054906101000a900461ffff1681565b600560009054906101000a900473ffffffffffffffffffffffffffffffffffffffff1681565b601560029054906101000a900461ffff1681565b60185481565b60008054906101000a900473ffffffffffffffffffffffffffffffffffffffff1673ffffffffffffffffffffffffffffffffffffffff163373ffffffffffffffffffffffffffffffffffffffff1614610aae576040517f08c379a000000000000000000000000000000000000000000000000000000000815260040180806020018281038252600a8152602001807f4f776e6572206f6e6c790000000000000000000000000000000000000000000081525060200191505060405180910390fd5b610ab7816134e6565b610ac057600080fd5b610b8c338273ffffffffffffffffffffffffffffffffffffffff166370a08231306040518263ffffffff1660e01b8152600401808273ffffffffffffffffffffffffffffffffffffffff16815260200191505060206040518083038186803b158015610b2b57600080fd5b505afa158015610b3f573d6000803e3d6000fd5b505050506040513d6020811015610b5557600080fd5b81019080805190602001909291905050508373ffffffffffffffffffffffffffffffffffffffff1661354d9092919063ffffffff16565b50565b600d60009054906101000a900473ffffffffffffffffffffffffffffffffffffffff1681565b60165481565b600d60149054906101000a900460ff16610c3d576040517f08c379a000000000000000000000000000000000000000000000000000000000815260040180806020018281038252601d8152602001807f446973747269627574696f6e206973206e6f7420636f6d706c6574656400000081525060200191505060405180910390fd5b600260009054906101000a900473ffffffffffffffffffffffffffffffffffffffff1673ffffffffffffffffffffffffffffffffffffffff163373ffffffffffffffffffffffffffffffffffffffff1614610d00576040517f08c379a000000000000000000000000000000000000000000000000000000000815260040180806020018281038252600c8152602001807f556e617574686f72697a6564000000000000000000000000000000000000000081525060200191505060405180910390fd5b6000601260008373ffffffffffffffffffffffffffffffffffffffff1673ffffffffffffffffffffffffffffffffffffffff168152602001908152602001600020541415610dd757610d5181611789565b601360008373ffffffffffffffffffffffffffffffffffffffff1673ffffffffffffffffffffffffffffffffffffffff168152602001908152602001600020819055601260008373ffffffffffffffffffffffffffffffffffffffff1673ffffffffffffffffffffffffffffffffffffffff168152602001908152602001600020819055505b6000601260008373ffffffffffffffffffffffffffffffffffffffff1673ffffffffffffffffffffffffffffffffffffffff16815260200190815260200160002054905060004260175411610e2e57601754610e30565b425b905080601160008573ffffffffffffffffffffffffffffffffffffffff1673ffffffffffffffffffffffffffffffffffffffff1681526020019081526020016000205410610ee6576040517f08c379a000000000000000000000000000000000000000000000000000000000815260040180806020018281038252600f8152602001807f416c726561647920636c61696d6564000000000000000000000000000000000081525060200191505060405180910390fd5b600080601160008673ffffffffffffffffffffffffffffffffffffffff1673ffffffffffffffffffffffffffffffffffffffff1681526020019081526020016000205414610f7357601160008573ffffffffffffffffffffffffffffffffffffffff1673ffffffffffffffffffffffffffffffffffffffff16815260200190815260200160002054610f77565b6016545b9050610fb2601854610fa485610f9685876135ef90919063ffffffff16565b61363990919063ffffffff16565b6136bf90919063ffffffff16565b925042601160008673ffffffffffffffffffffffffffffffffffffffff1673ffffffffffffffffffffffffffffffffffffffff1681526020019081526020016000208190555082601360008673ffffffffffffffffffffffffffffffffffffffff1673ffffffffffffffffffffffffffffffffffffffff16815260200190815260200160002060008282540392505081905550600560009054906101000a900473ffffffffffffffffffffffffffffffffffffffff1673ffffffffffffffffffffffffffffffffffffffff1663a9059cbb85856040518363ffffffff1660e01b8152600401808373ffffffffffffffffffffffffffffffffffffffff16815260200182815260200192505050602060405180830381600087803b1580156110d857600080fd5b505af11580156110ec573d6000803e3d6000fd5b505050506040513d602081101561110257600080fd5b81019080805190602001909291905050505050505050565b7f000000000000000000000000000000000000000000000000000000000000000081565b600d60149054906101000a900460ff1681565b60105481565b60126020528060005260406000206000915090505481565b600960009054906101000a900473ffffffffffffffffffffffffffffffffffffffff1681565b60116020528060005260406000206000915090505481565b3373ffffffffffffffffffffffffffffffffffffffff16600160009054906101000a900473ffffffffffffffffffffffffffffffffffffffff1673ffffffffffffffffffffffffffffffffffffffff161461120757600080fd5b6000600160006101000a81548173ffffffffffffffffffffffffffffffffffffffff021916908373ffffffffffffffffffffffffffffffffffffffff1602179055503373ffffffffffffffffffffffffffffffffffffffff1660008054906101000a900473ffffffffffffffffffffffffffffffffffffffff1673ffffffffffffffffffffffffffffffffffffffff167f8be0079c531659141344cd1fd0a4f28419497f9722a3daafe3b4186f6b6457e060405160405180910390a3336000806101000a81548173ffffffffffffffffffffffffffffffffffffffff021916908373ffffffffffffffffffffffffffffffffffffffff160217905550565b600b60009054906101000a900473ffffffffffffffffffffffffffffffffffffffff1681565b600c60009054906101000a900473ffffffffffffffffffffffffffffffffffffffff1681565b60008054906101000a900473ffffffffffffffffffffffffffffffffffffffff1673ffffffffffffffffffffffffffffffffffffffff163373ffffffffffffffffffffffffffffffffffffffff1614611412576040517f08c379a000000000000000000000000000000000000000000000000000000000815260040180806020018281038252600a8152602001807f4f776e6572206f6e6c790000000000000000000000000000000000000000000081525060200191505060405180910390fd5b89600560006101000a81548173ffffffffffffffffffffffffffffffffffffffff021916908373ffffffffffffffffffffffffffffffffffffffff16021790555088600660006101000a81548173ffffffffffffffffffffffffffffffffffffffff021916908373ffffffffffffffffffffffffffffffffffffffff16021790555087600a60006101000a81548173ffffffffffffffffffffffffffffffffffffffff021916908373ffffffffffffffffffffffffffffffffffffffff1602179055508873ffffffffffffffffffffffffffffffffffffffff1663996c6cc36040518163ffffffff1660e01b815260040160206040518083038186803b15801561151b57600080fd5b505afa15801561152f573d6000803e3d6000fd5b505050506040513d602081101561154557600080fd5b8101908080519060200190929190505050600760006101000a81548173ffffffffffffffffffffffffffffffffffffffff021916908373ffffffffffffffffffffffffffffffffffffffff16021790555086600c60006101000a81548173ffffffffffffffffffffffffffffffffffffffff021916908373ffffffffffffffffffffffffffffffffffffffff16021790555085600360006101000a81548173ffffffffffffffffffffffffffffffffffffffff021916908373ffffffffffffffffffffffffffffffffffffffff1602179055508573ffffffffffffffffffffffffffffffffffffffff1663c45a01556040518163ffffffff1660e01b815260040160206040518083038186803b15801561165e57600080fd5b505afa158015611672573d6000803e3d6000fd5b505050506040513d602081101561168857600080fd5b8101908080519060200190929190505050600460006101000a81548173ffffffffffffffffffffffffffffffffffffffff021916908373ffffffffffffffffffffffffffffffffffffffff16021790555084600260006101000a81548173ffffffffffffffffffffffffffffffffffffffff021916908373ffffffffffffffffffffffffffffffffffffffff16021790555062015180840260188190555082601560006101000a81548161ffff021916908361ffff16021790555081601560026101000a81548161ffff021916908361ffff16021790555080601560046101000a81548161ffff021916908361ffff16021790555050505050505050505050565b600080600260009054906101000a900473ffffffffffffffffffffffffffffffffffffffff1673ffffffffffffffffffffffffffffffffffffffff1663e2dc4310846040518263ffffffff1660e01b8152600401808273ffffffffffffffffffffffffffffffffffffffff16815260200191505060206040518083038186803b15801561181557600080fd5b505afa158015611829573d6000803e3d6000fd5b505050506040513d602081101561183f57600080fd5b810190808051906020019092919050505090506000811461192857611923600260009054906101000a900473ffffffffffffffffffffffffffffffffffffffff1673ffffffffffffffffffffffffffffffffffffffff16630dcf4b8f6040518163ffffffff1660e01b815260040160206040518083038186803b1580156118c557600080fd5b505afa1580156118d9573d6000803e3d6000fd5b505050506040513d60208110156118ef57600080fd5b8101908080519060200190929190505050611915600f548461363990919063ffffffff16565b6136bf90919063ffffffff16565b61192b565b60005b915050919050565b60175481565b60136020528060005260406000206000915090505481565b60008054906101000a900473ffffffffffffffffffffffffffffffffffffffff1673ffffffffffffffffffffffffffffffffffffffff163373ffffffffffffffffffffffffffffffffffffffff1614611a12576040517f08c379a000000000000000000000000000000000000000000000000000000000815260040180806020018281038252600a8152602001807f4f776e6572206f6e6c790000000000000000000000000000000000000000000081525060200191505060405180910390fd5b600073ffffffffffffffffffffffffffffffffffffffff16600860009054906101000a900473ffffffffffffffffffffffffffffffffffffffff1673ffffffffffffffffffffffffffffffffffffffff161415611ad7576040517f08c379a00000000000000000000000000000000000000000000000000000000081526004018080602001828103825260208152602001807f526f6f74656420456c69746520706f6f6c206973206e6f74206372656174656481525060200191505060405180910390fd5b600073ffffffffffffffffffffffffffffffffffffffff16600960009054906101000a900473ffffffffffffffffffffffffffffffffffffffff1673ffffffffffffffffffffffffffffffffffffffff161415611b9c576040517f08c379a000000000000000000000000000000000000000000000000000000000815260040180806020018281038252601f8152602001807f526f6f746564204261736520706f6f6c206973206e6f7420637265617465640081525060200191505060405180910390fd5b600660009054906101000a900473ffffffffffffffffffffffffffffffffffffffff1673ffffffffffffffffffffffffffffffffffffffff1663095ea7b3600360009054906101000a900473ffffffffffffffffffffffffffffffffffffffff167fffffffffffffffffffffffffffffffffffffffffffffffffffffffffffffffff6040518363ffffffff1660e01b8152600401808373ffffffffffffffffffffffffffffffffffffffff16815260200182815260200192505050602060405180830381600087803b158015611c7157600080fd5b505af1158015611c85573d6000803e3d6000fd5b505050506040513d6020811015611c9b57600080fd5b810190808051906020019092919050505050600560009054906101000a900473ffffffffffffffffffffffffffffffffffffffff1673ffffffffffffffffffffffffffffffffffffffff1663095ea7b3600360009054906101000a900473ffffffffffffffffffffffffffffffffffffffff167fffffffffffffffffffffffffffffffffffffffffffffffffffffffffffffffff6040518363ffffffff1660e01b8152600401808373ffffffffffffffffffffffffffffffffffffffff16815260200182815260200192505050602060405180830381600087803b158015611d8257600080fd5b505af1158015611d96573d6000803e3d6000fd5b505050506040513d6020811015611dac57600080fd5b810190808051906020019092919050505050611e4d600360009054906101000a900473ffffffffffffffffffffffffffffffffffffffff167fffffffffffffffffffffffffffffffffffffffffffffffffffffffffffffffff600760009054906101000a900473ffffffffffffffffffffffffffffffffffffffff1673ffffffffffffffffffffffffffffffffffffffff166137099092919063ffffffff16565b611edc600660009054906101000a900473ffffffffffffffffffffffffffffffffffffffff167fffffffffffffffffffffffffffffffffffffffffffffffffffffffffffffffff600760009054906101000a900473ffffffffffffffffffffffffffffffffffffffff1673ffffffffffffffffffffffffffffffffffffffff166137099092919063ffffffff16565b600960009054906101000a900473ffffffffffffffffffffffffffffffffffffffff1673ffffffffffffffffffffffffffffffffffffffff1663095ea7b3600360009054906101000a900473ffffffffffffffffffffffffffffffffffffffff167fffffffffffffffffffffffffffffffffffffffffffffffffffffffffffffffff6040518363ffffffff1660e01b8152600401808373ffffffffffffffffffffffffffffffffffffffff16815260200182815260200192505050602060405180830381600087803b158015611fb157600080fd5b505af1158015611fc5573d6000803e3d6000fd5b505050506040513d6020811015611fdb57600080fd5b810190808051906020019092919050505050600860009054906101000a900473ffffffffffffffffffffffffffffffffffffffff1673ffffffffffffffffffffffffffffffffffffffff1663095ea7b3600360009054906101000a900473ffffffffffffffffffffffffffffffffffffffff167fffffffffffffffffffffffffffffffffffffffffffffffffffffffffffffffff6040518363ffffffff1660e01b8152600401808373ffffffffffffffffffffffffffffffffffffffff16815260200182815260200192505050602060405180830381600087803b1580156120c257600080fd5b505af11580156120d6573d6000803e3d6000fd5b505050506040513d60208110156120ec57600080fd5b810190808051906020019092919050505050565b60008054906101000a900473ffffffffffffffffffffffffffffffffffffffff1681565b600260009054906101000a900473ffffffffffffffffffffffffffffffffffffffff1681565b600e5481565b601560009054906101000a900461ffff1681565b60145481565b600460009054906101000a900473ffffffffffffffffffffffffffffffffffffffff1673ffffffffffffffffffffffffffffffffffffffff1663e6a43905600760009054906101000a900473ffffffffffffffffffffffffffffffffffffffff16600560009054906101000a900473ffffffffffffffffffffffffffffffffffffffff166040518363ffffffff1660e01b8152600401808373ffffffffffffffffffffffffffffffffffffffff1681526020018273ffffffffffffffffffffffffffffffffffffffff1681526020019250505060206040518083038186803b15801561225557600080fd5b505afa158015612269573d6000803e3d6000fd5b505050506040513d602081101561227f57600080fd5b8101908080519060200190929190505050600960006101000a81548173ffffffffffffffffffffffffffffffffffffffff021916908373ffffffffffffffffffffffffffffffffffffffff160217905550600073ffffffffffffffffffffffffffffffffffffffff16600960009054906101000a900473ffffffffffffffffffffffffffffffffffffffff1673ffffffffffffffffffffffffffffffffffffffff1614156124ec57600460009054906101000a900473ffffffffffffffffffffffffffffffffffffffff1673ffffffffffffffffffffffffffffffffffffffff1663c9c65396600760009054906101000a900473ffffffffffffffffffffffffffffffffffffffff16600560009054906101000a900473ffffffffffffffffffffffffffffffffffffffff166040518363ffffffff1660e01b8152600401808373ffffffffffffffffffffffffffffffffffffffff1681526020018273ffffffffffffffffffffffffffffffffffffffff16815260200192505050602060405180830381600087803b15801561241457600080fd5b505af1158015612428573d6000803e3d6000fd5b505050506040513d602081101561243e57600080fd5b8101908080519060200190929190505050600960006101000a81548173ffffffffffffffffffffffffffffffffffffffff021916908373ffffffffffffffffffffffffffffffffffffffff160217905550600073ffffffffffffffffffffffffffffffffffffffff16600960009054906101000a900473ffffffffffffffffffffffffffffffffffffffff1673ffffffffffffffffffffffffffffffffffffffff1614156124eb57600080fd5b5b565b600760009054906101000a900473ffffffffffffffffffffffffffffffffffffffff1681565b600460009054906101000a900473ffffffffffffffffffffffffffffffffffffffff1673ffffffffffffffffffffffffffffffffffffffff1663e6a43905600660009054906101000a900473ffffffffffffffffffffffffffffffffffffffff16600560009054906101000a900473ffffffffffffffffffffffffffffffffffffffff166040518363ffffffff1660e01b8152600401808373ffffffffffffffffffffffffffffffffffffffff1681526020018273ffffffffffffffffffffffffffffffffffffffff1681526020019250505060206040518083038186803b1580156125ff57600080fd5b505afa158015612613573d6000803e3d6000fd5b505050506040513d602081101561262957600080fd5b8101908080519060200190929190505050600860006101000a81548173ffffffffffffffffffffffffffffffffffffffff021916908373ffffffffffffffffffffffffffffffffffffffff160217905550600073ffffffffffffffffffffffffffffffffffffffff16600860009054906101000a900473ffffffffffffffffffffffffffffffffffffffff1673ffffffffffffffffffffffffffffffffffffffff16141561289657600460009054906101000a900473ffffffffffffffffffffffffffffffffffffffff1673ffffffffffffffffffffffffffffffffffffffff1663c9c65396600660009054906101000a900473ffffffffffffffffffffffffffffffffffffffff16600560009054906101000a900473ffffffffffffffffffffffffffffffffffffffff166040518363ffffffff1660e01b8152600401808373ffffffffffffffffffffffffffffffffffffffff1681526020018273ffffffffffffffffffffffffffffffffffffffff16815260200192505050602060405180830381600087803b1580156127be57600080fd5b505af11580156127d2573d6000803e3d6000fd5b505050506040513d60208110156127e857600080fd5b8101908080519060200190929190505050600860006101000a81548173ffffffffffffffffffffffffffffffffffffffff021916908373ffffffffffffffffffffffffffffffffffffffff160217905550600073ffffffffffffffffffffffffffffffffffffffff16600860009054906101000a900473ffffffffffffffffffffffffffffffffffffffff1673ffffffffffffffffffffffffffffffffffffffff16141561289557600080fd5b5b565b600260009054906101000a900473ffffffffffffffffffffffffffffffffffffffff1673ffffffffffffffffffffffffffffffffffffffff163373ffffffffffffffffffffffffffffffffffffffff161461295b576040517f08c379a000000000000000000000000000000000000000000000000000000000815260040180806020018281038252600c8152602001807f556e617574686f72697a6564000000000000000000000000000000000000000081525060200191505060405180910390fd5b600d60149054906101000a900460ff16156129de576040517f08c379a00000000000000000000000000000000000000000000000000000000081526004018080602001828103825260158152602001807f446973747269627574696f6e20636f6d706c657465000000000000000000000081525060200191505060405180910390fd5b4260168190555060185442016017819055506001600d60146101000a81548160ff021916908315150217905550600760009054906101000a900473ffffffffffffffffffffffffffffffffffffffff1673ffffffffffffffffffffffffffffffffffffffff166370a08231600260009054906101000a900473ffffffffffffffffffffffffffffffffffffffff166040518263ffffffff1660e01b8152600401808273ffffffffffffffffffffffffffffffffffffffff16815260200191505060206040518083038186803b158015612ab657600080fd5b505afa158015612aca573d6000803e3d6000fd5b505050506040513d6020811015612ae057600080fd5b8101908080519060200190929190505050600e81905550612b483330600e54600760009054906101000a900473ffffffffffffffffffffffffffffffffffffffff1673ffffffffffffffffffffffffffffffffffffffff166137ab909392919063ffffffff16565b6000600560009054906101000a900473ffffffffffffffffffffffffffffffffffffffff1673ffffffffffffffffffffffffffffffffffffffff1663b49753436040518163ffffffff1660e01b815260040160206040518083038186803b158015612bb257600080fd5b505afa158015612bc6573d6000803e3d6000fd5b505050506040513d6020811015612bdc57600080fd5b810190808051906020019092919050505090508073ffffffffffffffffffffffffffffffffffffffff16638327eb8760016040518263ffffffff1660e01b8152600401808215158152602001915050600060405180830381600087803b158015612c4557600080fd5b505af1158015612c59573d6000803e3d6000fd5b50505050600560009054906101000a900473ffffffffffffffffffffffffffffffffffffffff1673ffffffffffffffffffffffffffffffffffffffff1663a0712d687f00000000000000000000000000000000000000000000000000000000000000006040518263ffffffff1660e01b815260040180828152602001915050600060405180830381600087803b158015612cf257600080fd5b505af1158015612d06573d6000803e3d6000fd5b5050505060006934f086f3b33b684000009050600560009054906101000a900473ffffffffffffffffffffffffffffffffffffffff1673ffffffffffffffffffffffffffffffffffffffff1663a9059cbb600d60009054906101000a900473ffffffffffffffffffffffffffffffffffffffff16836040518363ffffffff1660e01b8152600401808373ffffffffffffffffffffffffffffffffffffffff16815260200182815260200192505050602060405180830381600087803b158015612dce57600080fd5b505af1158015612de2573d6000803e3d6000fd5b505050506040513d6020811015612df857600080fd5b810190808051906020019092919050505050612e1261386c565b600660009054906101000a900473ffffffffffffffffffffffffffffffffffffffff1673ffffffffffffffffffffffffffffffffffffffff1663b12a22a2306040518263ffffffff1660e01b8152600401808273ffffffffffffffffffffffffffffffffffffffff168152602001915050602060405180830381600087803b158015612e9d57600080fd5b505af1158015612eb1573d6000803e3d6000fd5b505050506040513d6020811015612ec757600080fd5b810190808051906020019092919050505050600660009054906101000a900473ffffffffffffffffffffffffffffffffffffffff1673ffffffffffffffffffffffffffffffffffffffff1663dd49756e600760009054906101000a900473ffffffffffffffffffffffffffffffffffffffff1673ffffffffffffffffffffffffffffffffffffffff166370a08231306040518263ffffffff1660e01b8152600401808273ffffffffffffffffffffffffffffffffffffffff16815260200191505060206040518083038186803b158015612fa057600080fd5b505afa158015612fb4573d6000803e3d6000fd5b505050506040513d6020811015612fca57600080fd5b81019080805190602001909291905050506040518263ffffffff1660e01b815260040180828152602001915050600060405180830381600087803b15801561301157600080fd5b505af1158015613025573d6000803e3d6000fd5b50505050613031613cca565b613039613ede565b6130416141cf565b6000612710601560009054906101000a900461ffff1661ffff16600e54028161306657fe5b049050600760009054906101000a900473ffffffffffffffffffffffffffffffffffffffff1673ffffffffffffffffffffffffffffffffffffffff1663a9059cbb600b60009054906101000a900473ffffffffffffffffffffffffffffffffffffffff16836040518363ffffffff1660e01b8152600401808373ffffffffffffffffffffffffffffffffffffffff16815260200182815260200192505050602060405180830381600087803b15801561311e57600080fd5b505af1158015613132573d6000803e3d6000fd5b505050506040513d602081101561314857600080fd5b810190808051906020019092919050505050600760009054906101000a900473ffffffffffffffffffffffffffffffffffffffff1673ffffffffffffffffffffffffffffffffffffffff1663a9059cbb600c60009054906101000a900473ffffffffffffffffffffffffffffffffffffffff16600760009054906101000a900473ffffffffffffffffffffffffffffffffffffffff1673ffffffffffffffffffffffffffffffffffffffff166370a08231306040518263ffffffff1660e01b8152600401808273ffffffffffffffffffffffffffffffffffffffff16815260200191505060206040518083038186803b15801561324457600080fd5b505afa158015613258573d6000803e3d6000fd5b505050506040513d602081101561326e57600080fd5b81019080805190602001909291905050506040518363ffffffff1660e01b8152600401808373ffffffffffffffffffffffffffffffffffffffff16815260200182815260200192505050602060405180830381600087803b1580156132d257600080fd5b505af11580156132e6573d6000803e3d6000fd5b505050506040513d60208110156132fc57600080fd5b810190808051906020019092919050505050613316614448565b8273ffffffffffffffffffffffffffffffffffffffff16638327eb8760006040518263ffffffff1660e01b8152600401808215158152602001915050600060405180830381600087803b15801561336c57600080fd5b505af1158015613380573d6000803e3d6000fd5b50505050505050565b60195481565b600a60009054906101000a900473ffffffffffffffffffffffffffffffffffffffff1681565b600f5481565b60008054906101000a900473ffffffffffffffffffffffffffffffffffffffff1673ffffffffffffffffffffffffffffffffffffffff163373ffffffffffffffffffffffffffffffffffffffff161461347c576040517f08c379a000000000000000000000000000000000000000000000000000000000815260040180806020018281038252600a8152602001807f4f776e6572206f6e6c790000000000000000000000000000000000000000000081525060200191505060405180910390fd5b80600160006101000a81548173ffffffffffffffffffffffffffffffffffffffff021916908373ffffffffffffffffffffffffffffffffffffffff16021790555050565b600860009054906101000a900473ffffffffffffffffffffffffffffffffffffffff1681565b60006014544211806135465750600560009054906101000a900473ffffffffffffffffffffffffffffffffffffffff1673ffffffffffffffffffffffffffffffffffffffff168273ffffffffffffffffffffffffffffffffffffffff1614155b9050919050565b6135ea8363a9059cbb60e01b8484604051602401808373ffffffffffffffffffffffffffffffffffffffff16815260200182815260200192505050604051602081830303815290604052907bffffffffffffffffffffffffffffffffffffffffffffffffffffffff19166020820180517bffffffffffffffffffffffffffffffffffffffffffffffffffffffff8381831617835250505050614f2f565b505050565b600061363183836040518060400160405280601e81526020017f536166654d6174683a207375627472616374696f6e206f766572666c6f77000081525061501e565b905092915050565b60008083141561364c57600090506136b9565b600082840290508284828161365d57fe5b04146136b4576040517f08c379a00000000000000000000000000000000000000000000000000000000081526004018080602001828103825260218152602001806156bb6021913960400191505060405180910390fd5b809150505b92915050565b600061370183836040518060400160405280601a81526020017f536166654d6174683a206469766973696f6e206279207a65726f0000000000008152506150de565b905092915050565b6137a68363095ea7b360e01b8484604051602401808373ffffffffffffffffffffffffffffffffffffffff16815260200182815260200192505050604051602081830303815290604052907bffffffffffffffffffffffffffffffffffffffffffffffffffffffff19166020820180517bffffffffffffffffffffffffffffffffffffffffffffffffffffffff8381831617835250505050614f2f565b505050565b613866846323b872dd60e01b858585604051602401808473ffffffffffffffffffffffffffffffffffffffff1681526020018373ffffffffffffffffffffffffffffffffffffffff1681526020018281526020019350505050604051602081830303815290604052907bffffffffffffffffffffffffffffffffffffffffffffffffffffffff19166020820180517bffffffffffffffffffffffffffffffffffffffffffffffffffffffff8381831617835250505050614f2f565b50505050565b600660009054906101000a900473ffffffffffffffffffffffffffffffffffffffff1673ffffffffffffffffffffffffffffffffffffffff1663dd49756e600760009054906101000a900473ffffffffffffffffffffffffffffffffffffffff1673ffffffffffffffffffffffffffffffffffffffff166370a08231306040518263ffffffff1660e01b8152600401808273ffffffffffffffffffffffffffffffffffffffff16815260200191505060206040518083038186803b15801561393357600080fd5b505afa158015613947573d6000803e3d6000fd5b505050506040513d602081101561395d57600080fd5b81019080805190602001909291905050506040518263ffffffff1660e01b815260040180828152602001915050600060405180830381600087803b1580156139a457600080fd5b505af11580156139b8573d6000803e3d6000fd5b50505050600360009054906101000a900473ffffffffffffffffffffffffffffffffffffffff1673ffffffffffffffffffffffffffffffffffffffff1663e8e33700600660009054906101000a900473ffffffffffffffffffffffffffffffffffffffff16600560009054906101000a900473ffffffffffffffffffffffffffffffffffffffff16600660009054906101000a900473ffffffffffffffffffffffffffffffffffffffff1673ffffffffffffffffffffffffffffffffffffffff166370a08231306040518263ffffffff1660e01b8152600401808273ffffffffffffffffffffffffffffffffffffffff16815260200191505060206040518083038186803b158015613ac957600080fd5b505afa158015613add573d6000803e3d6000fd5b505050506040513d6020811015613af357600080fd5b8101908080519060200190929190505050600560009054906101000a900473ffffffffffffffffffffffffffffffffffffffff1673ffffffffffffffffffffffffffffffffffffffff166370a08231306040518263ffffffff1660e01b8152600401808273ffffffffffffffffffffffffffffffffffffffff16815260200191505060206040518083038186803b158015613b8d57600080fd5b505afa158015613ba1573d6000803e3d6000fd5b505050506040513d6020811015613bb757600080fd5b810190808051906020019092919050505060008030426040518963ffffffff1660e01b8152600401808973ffffffffffffffffffffffffffffffffffffffff1681526020018873ffffffffffffffffffffffffffffffffffffffff1681526020018781526020018681526020018581526020018481526020018373ffffffffffffffffffffffffffffffffffffffff16815260200182815260200198505050505050505050606060405180830381600087803b158015613c7657600080fd5b505af1158015613c8a573d6000803e3d6000fd5b505050506040513d6060811015613ca057600080fd5b81019080805190602001909291908051906020019092919080519060200190929190505050505050565b6000612710601560049054906101000a900461ffff1661ffff16600e540281613cef57fe5b0490506060600360009054906101000a900473ffffffffffffffffffffffffffffffffffffffff1673ffffffffffffffffffffffffffffffffffffffff166338ed1739836000613d3d6151a4565b30426040518663ffffffff1660e01b815260040180868152602001858152602001806020018473ffffffffffffffffffffffffffffffffffffffff168152602001838152602001828103825285818151815260200191508051906020019060200280838360005b83811015613dbf578082015181840152602081019050613da4565b505050509050019650505050505050600060405180830381600087803b158015613de857600080fd5b505af1158015613dfc573d6000803e3d6000fd5b505050506040513d6000823e3d601f19601f820116820180604052506020811015613e2657600080fd5b8101908080516040519392919084640100000000821115613e4657600080fd5b83820191506020820185811115613e5c57600080fd5b8251866020820283011164010000000082111715613e7957600080fd5b8083526020830192505050908051906020019060200280838360005b83811015613eb0578082015181840152602081019050613e95565b50505050905001604052505050905080600181518110613ecc57fe5b60200260200101516019819055505050565b6000612710601560029054906101000a900461ffff1661ffff16600e540281613f0357fe5b0490506000600660009054906101000a900473ffffffffffffffffffffffffffffffffffffffff1673ffffffffffffffffffffffffffffffffffffffff166370a08231306040518263ffffffff1660e01b8152600401808273ffffffffffffffffffffffffffffffffffffffff16815260200191505060206040518083038186803b158015613f9157600080fd5b505afa158015613fa5573d6000803e3d6000fd5b505050506040513d6020811015613fbb57600080fd5b810190808051906020019092919050505090506000818311613fdd5782613fdf565b815b90506060600360009054906101000a900473ffffffffffffffffffffffffffffffffffffffff1673ffffffffffffffffffffffffffffffffffffffff166338ed173983600061402c6151a4565b30426040518663ffffffff1660e01b815260040180868152602001858152602001806020018473ffffffffffffffffffffffffffffffffffffffff168152602001838152602001828103825285818151815260200191508051906020019060200280838360005b838110156140ae578082015181840152602081019050614093565b505050509050019650505050505050600060405180830381600087803b1580156140d757600080fd5b505af11580156140eb573d6000803e3d6000fd5b505050506040513d6000823e3d601f19601f82011682018060405250602081101561411557600080fd5b810190808051604051939291908464010000000082111561413557600080fd5b8382019150602082018581111561414b57600080fd5b825186602082028301116401000000008211171561416857600080fd5b8083526020830192505050908051906020019060200280838360005b8381101561419f578082015181840152602081019050614184565b505050509050016040525050509050806001815181106141bb57fe5b6020026020010151600f8190555050505050565b6060600360009054906101000a900473ffffffffffffffffffffffffffffffffffffffff1673ffffffffffffffffffffffffffffffffffffffff166338ed1739601954600061421c6152cc565b30426040518663ffffffff1660e01b815260040180868152602001858152602001806020018473ffffffffffffffffffffffffffffffffffffffff168152602001838152602001828103825285818151815260200191508051906020019060200280838360005b8381101561429e578082015181840152602081019050614283565b505050509050019650505050505050600060405180830381600087803b1580156142c757600080fd5b505af11580156142db573d6000803e3d6000fd5b505050506040513d6000823e3d601f19601f82011682018060405250602081101561430557600080fd5b810190808051604051939291908464010000000082111561432557600080fd5b8382019150602082018581111561433b57600080fd5b825186602082028301116401000000008211171561435857600080fd5b8083526020830192505050908051906020019060200280838360005b8381101561438f578082015181840152602081019050614374565b5050505090500160405250505090506000816001815181106143ad57fe5b60200260200101519050600660009054906101000a900473ffffffffffffffffffffffffffffffffffffffff1673ffffffffffffffffffffffffffffffffffffffff1663315a095d826040518263ffffffff1660e01b815260040180828152602001915050600060405180830381600087803b15801561442c57600080fd5b505af1158015614440573d6000803e3d6000fd5b505050505050565b60006145fe600860009054906101000a900473ffffffffffffffffffffffffffffffffffffffff1673ffffffffffffffffffffffffffffffffffffffff166318160ddd6040518163ffffffff1660e01b815260040160206040518083038186803b1580156144b557600080fd5b505afa1580156144c9573d6000803e3d6000fd5b505050506040513d60208110156144df57600080fd5b81019080805190602001909291905050506145f0670de0b6b3a7640000600660009054906101000a900473ffffffffffffffffffffffffffffffffffffffff1673ffffffffffffffffffffffffffffffffffffffff166370a08231600860009054906101000a900473ffffffffffffffffffffffffffffffffffffffff166040518263ffffffff1660e01b8152600401808273ffffffffffffffffffffffffffffffffffffffff16815260200191505060206040518083038186803b1580156145a757600080fd5b505afa1580156145bb573d6000803e3d6000fd5b505050506040513d60208110156145d157600080fd5b810190808051906020019092919050505061363990919063ffffffff16565b6136bf90919063ffffffff16565b9050600061471482614706670de0b6b3a7640000600760009054906101000a900473ffffffffffffffffffffffffffffffffffffffff1673ffffffffffffffffffffffffffffffffffffffff166370a08231600660009054906101000a900473ffffffffffffffffffffffffffffffffffffffff166040518263ffffffff1660e01b8152600401808273ffffffffffffffffffffffffffffffffffffffff16815260200191505060206040518083038186803b1580156146bd57600080fd5b505afa1580156146d1573d6000803e3d6000fd5b505050506040513d60208110156146e757600080fd5b810190808051906020019092919050505061363990919063ffffffff16565b6136bf90919063ffffffff16565b9050600080600360009054906101000a900473ffffffffffffffffffffffffffffffffffffffff1673ffffffffffffffffffffffffffffffffffffffff1663baa2abde600660009054906101000a900473ffffffffffffffffffffffffffffffffffffffff16600560009054906101000a900473ffffffffffffffffffffffffffffffffffffffff168660008030426040518863ffffffff1660e01b8152600401808873ffffffffffffffffffffffffffffffffffffffff1681526020018773ffffffffffffffffffffffffffffffffffffffff1681526020018681526020018581526020018481526020018373ffffffffffffffffffffffffffffffffffffffff1681526020018281526020019750505050505050506040805180830381600087803b15801561484457600080fd5b505af1158015614858573d6000803e3d6000fd5b505050506040513d604081101561486e57600080fd5b810190808051906020019092919080519060200190929190505050915091506000600760009054906101000a900473ffffffffffffffffffffffffffffffffffffffff1673ffffffffffffffffffffffffffffffffffffffff166370a08231600660009054906101000a900473ffffffffffffffffffffffffffffffffffffffff166040518263ffffffff1660e01b8152600401808273ffffffffffffffffffffffffffffffffffffffff16815260200191505060206040518083038186803b15801561493a57600080fd5b505afa15801561494e573d6000803e3d6000fd5b505050506040513d602081101561496457600080fd5b8101908080519060200190929190505050905060008184116149865783614988565b815b9050600660009054906101000a900473ffffffffffffffffffffffffffffffffffffffff1673ffffffffffffffffffffffffffffffffffffffff1663315a095d826040518263ffffffff1660e01b815260040180828152602001915050600060405180830381600087803b1580156149ff57600080fd5b505af1158015614a13573d6000803e3d6000fd5b50505050600360009054906101000a900473ffffffffffffffffffffffffffffffffffffffff1673ffffffffffffffffffffffffffffffffffffffff1663e8e33700600760009054906101000a900473ffffffffffffffffffffffffffffffffffffffff16600560009054906101000a900473ffffffffffffffffffffffffffffffffffffffff168487600080600c60009054906101000a900473ffffffffffffffffffffffffffffffffffffffff16426040518963ffffffff1660e01b8152600401808973ffffffffffffffffffffffffffffffffffffffff1681526020018873ffffffffffffffffffffffffffffffffffffffff1681526020018781526020018681526020018581526020018481526020018373ffffffffffffffffffffffffffffffffffffffff16815260200182815260200198505050505050505050606060405180830381600087803b158015614b6d57600080fd5b505af1158015614b81573d6000803e3d6000fd5b505050506040513d6060811015614b9757600080fd5b81019080805190602001909291908051906020019092919080519060200190929190505050505050600860009054906101000a900473ffffffffffffffffffffffffffffffffffffffff1673ffffffffffffffffffffffffffffffffffffffff1663a9059cbb600c60009054906101000a900473ffffffffffffffffffffffffffffffffffffffff16600860009054906101000a900473ffffffffffffffffffffffffffffffffffffffff1673ffffffffffffffffffffffffffffffffffffffff166370a08231306040518263ffffffff1660e01b8152600401808273ffffffffffffffffffffffffffffffffffffffff16815260200191505060206040518083038186803b158015614ca957600080fd5b505afa158015614cbd573d6000803e3d6000fd5b505050506040513d6020811015614cd357600080fd5b81019080805190602001909291905050506040518363ffffffff1660e01b8152600401808373ffffffffffffffffffffffffffffffffffffffff16815260200182815260200192505050602060405180830381600087803b158015614d3757600080fd5b505af1158015614d4b573d6000803e3d6000fd5b505050506040513d6020811015614d6157600080fd5b810190808051906020019092919050505050600660009054906101000a900473ffffffffffffffffffffffffffffffffffffffff1673ffffffffffffffffffffffffffffffffffffffff1663a9059cbb600c60009054906101000a900473ffffffffffffffffffffffffffffffffffffffff16600660009054906101000a900473ffffffffffffffffffffffffffffffffffffffff1673ffffffffffffffffffffffffffffffffffffffff166370a08231306040518263ffffffff1660e01b8152600401808273ffffffffffffffffffffffffffffffffffffffff16815260200191505060206040518083038186803b158015614e5d57600080fd5b505afa158015614e71573d6000803e3d6000fd5b505050506040513d6020811015614e8757600080fd5b81019080805190602001909291905050506040518363ffffffff1660e01b8152600401808373ffffffffffffffffffffffffffffffffffffffff16815260200182815260200192505050602060405180830381600087803b158015614eeb57600080fd5b505af1158015614eff573d6000803e3d6000fd5b505050506040513d6020811015614f1557600080fd5b810190808051906020019092919050505050505050505050565b6060614f91826040518060400160405280602081526020017f5361666545524332303a206c6f772d6c6576656c2063616c6c206661696c65648152508573ffffffffffffffffffffffffffffffffffffffff166153f49092919063ffffffff16565b905060008151111561501957808060200190516020811015614fb257600080fd5b8101908080519060200190929190505050615018576040517f08c379a000000000000000000000000000000000000000000000000000000000815260040180806020018281038252602a8152602001806156dc602a913960400191505060405180910390fd5b5b505050565b60008383111582906150cb576040517f08c379a00000000000000000000000000000000000000000000000000000000081526004018080602001828103825283818151815260200191508051906020019080838360005b83811015615090578082015181840152602081019050615075565b50505050905090810190601f1680156150bd5780820380516001836020036101000a031916815260200191505b509250505060405180910390fd5b5060008385039050809150509392505050565b6000808311829061518a576040517f08c379a00000000000000000000000000000000000000000000000000000000081526004018080602001828103825283818151815260200191508051906020019080838360005b8381101561514f578082015181840152602081019050615134565b50505050905090810190601f16801561517c5780820380516001836020036101000a031916815260200191505b509250505060405180910390fd5b50600083858161519657fe5b049050809150509392505050565b606080600267ffffffffffffffff811180156151bf57600080fd5b506040519080825280602002602001820160405280156151ee5781602001602082028036833780820191505090505b509050600660009054906101000a900473ffffffffffffffffffffffffffffffffffffffff168160008151811061522157fe5b602002602001019073ffffffffffffffffffffffffffffffffffffffff16908173ffffffffffffffffffffffffffffffffffffffff1681525050600560009054906101000a900473ffffffffffffffffffffffffffffffffffffffff168160018151811061528b57fe5b602002602001019073ffffffffffffffffffffffffffffffffffffffff16908173ffffffffffffffffffffffffffffffffffffffff16815250508091505090565b606080600267ffffffffffffffff811180156152e757600080fd5b506040519080825280602002602001820160405280156153165781602001602082028036833780820191505090505b509050600560009054906101000a900473ffffffffffffffffffffffffffffffffffffffff168160008151811061534957fe5b602002602001019073ffffffffffffffffffffffffffffffffffffffff16908173ffffffffffffffffffffffffffffffffffffffff1681525050600660009054906101000a900473ffffffffffffffffffffffffffffffffffffffff16816001815181106153b357fe5b602002602001019073ffffffffffffffffffffffffffffffffffffffff16908173ffffffffffffffffffffffffffffffffffffffff16815250508091505090565b6060615403848460008561540c565b90509392505050565b606082471015615467576040517f08c379a00000000000000000000000000000000000000000000000000000000081526004018080602001828103825260268152602001806156956026913960400191505060405180910390fd5b615470856155b5565b6154e2576040517f08c379a000000000000000000000000000000000000000000000000000000000815260040180806020018281038252601d8152602001807f416464726573733a2063616c6c20746f206e6f6e2d636f6e747261637400000081525060200191505060405180910390fd5b600060608673ffffffffffffffffffffffffffffffffffffffff1685876040518082805190602001908083835b60208310615532578051825260208201915060208101905060208303925061550f565b6001836020036101000a03801982511681845116808217855250505050505090500191505060006040518083038185875af1925050503d8060008114615594576040519150601f19603f3d011682016040523d82523d6000602084013e615599565b606091505b50915091506155a98282866155c8565b92505050949350505050565b600080823b905060008111915050919050565b606083156155d85782905061568d565b6000835111156155eb5782518084602001fd5b816040517f08c379a00000000000000000000000000000000000000000000000000000000081526004018080602001828103825283818151815260200191508051906020019080838360005b83811015615652578082015181840152602081019050615637565b50505050905090810190601f16801561567f5780820380516001836020036101000a031916815260200191505b509250505060405180910390fd5b939250505056fe416464726573733a20696e73756666696369656e742062616c616e636520666f722063616c6c536166654d6174683a206d756c7469706c69636174696f6e206f766572666c6f775361666545524332303a204552433230206f7065726174696f6e20646964206e6f742073756363656564a2646970667358221220ccdcc3a33f3ec688a185a959ebfec7cf5024bc2484bae849dee8bd050625aa8764736f6c63430007040033",
  "immutableReferences": {
    "6209": [
      {
        "length": 32,
        "start": 4380
      },
      {
        "length": 32,
        "start": 11421
      }
    ]
  },
  "source": "// SPDX-License-Identifier: U-U-U-UPPPPP!!!\r\npragma solidity ^0.7.4;\r\n\r\nimport \"./IMarketDistribution.sol\";\r\nimport \"./IMarketGeneration.sol\";\r\nimport \"./RootedToken.sol\";\r\nimport \"./RootedTransferGate.sol\";\r\nimport \"./TokensRecoverable.sol\";\r\nimport \"./SafeMath.sol\";\r\nimport \"./IERC31337.sol\";\r\nimport \"./IERC20.sol\";\r\nimport \"./IPancakeRouter02.sol\";\r\nimport \"./IPancakeFactory.sol\";\r\nimport \"./IPancakePair.sol\";\r\nimport \"./SafeERC20.sol\";\r\n\r\ncontract MarketDistribution is TokensRecoverable, IMarketDistribution {\r\n    using SafeMath for uint256;\r\n    using SafeERC20 for IERC20;\r\n\r\n    IMarketGeneration public marketGeneration;\r\n    IPancakeRouter02 pancakeRouter;\r\n    IPancakeFactory pancakeFactory;\r\n    RootedToken public rootedToken;\r\n    IERC31337 public eliteToken;\r\n    IERC20 public baseToken;\r\n\r\n    IPancakePair public rootedEliteLP;\r\n    IPancakePair public rootedBaseLP;\r\n\r\n    address public burnPit;\r\n    address public oneshotController;\r\n    address public liquidityController;\r\n    address public multisplitterAddress;\r\n\r\n    bool public override distributionComplete;\r\n\r\n    uint256 public immutable totalRooted = 1e24; // 1 Million, or dynamically set\r\n\r\n    uint256 public totalBaseTokenCollected;\r\n    uint256 public totalBoughtForContributors;\r\n\r\n    uint256 public remainingMintableSupply;\r\n\r\n    mapping (address => uint256) public claimTime;\r\n    mapping (address => uint256) public totalClaim;\r\n    mapping (address => uint256) public remainingClaim;\r\n    \r\n    uint256 public recoveryDate = block.timestamp + 2592000; // 1 Month\r\n    \r\n    uint16 public projectSetupPercent;\r\n    uint16 public preBuyForContributorsPercent;\r\n    uint16 public preBuyForMarketStabilizationPercent;\r\n\r\n    uint256 public override vestingPeriodStartTime;\r\n    uint256 public override vestingPeriodEndTime; \r\n    \r\n    uint256 public vestingDuration;\r\n    uint256 public rootedBottom;\r\n\r\n    constructor(address _oneshotController, address _multisplitterAddress) {\r\n        oneshotController = _oneshotController;\r\n        multisplitterAddress = _multisplitterAddress;\r\n    }\r\n\r\n    function init(\r\n        RootedToken _rootedToken, \r\n        IERC31337 _eliteToken, \r\n        address _burnPit, \r\n        address _liquidityController, \r\n        IPancakeRouter02 _pancakeRouter, \r\n        IMarketGeneration _marketGeneration, \r\n        uint256 _vestingDuration, \r\n        uint16 _projectSetupPercent, \r\n        uint16 _preBuyForContributorsPercent, \r\n        uint16 _preBuyForMarketStabilizationPercent) public ownerOnly() \r\n    {\r\n        rootedToken = _rootedToken;\r\n        eliteToken = _eliteToken;\r\n        burnPit = _burnPit;\r\n        baseToken = _eliteToken.wrappedToken();\r\n        liquidityController = _liquidityController;\r\n        pancakeRouter = _pancakeRouter;\r\n        pancakeFactory = IPancakeFactory(_pancakeRouter.factory());\r\n        marketGeneration = _marketGeneration;\r\n        vestingDuration = (_vestingDuration * 1 days);\r\n        projectSetupPercent = _projectSetupPercent;\r\n        preBuyForContributorsPercent = _preBuyForContributorsPercent;\r\n        preBuyForMarketStabilizationPercent = _preBuyForMarketStabilizationPercent;\r\n    }\r\n\r\n    function setupEliteRooted() public {\r\n        rootedEliteLP = IPancakePair(pancakeFactory.getPair(address(eliteToken), address(rootedToken)));\r\n        if (address(rootedEliteLP) == address(0)) {\r\n            rootedEliteLP = IPancakePair(pancakeFactory.createPair(address(eliteToken), address(rootedToken)));\r\n            require (address(rootedEliteLP) != address(0));\r\n        }\r\n    }\r\n\r\n    function setupBaseRooted() public {\r\n        rootedBaseLP = IPancakePair(pancakeFactory.getPair(address(baseToken), address(rootedToken)));\r\n        if (address(rootedBaseLP) == address(0)) {\r\n            rootedBaseLP = IPancakePair(pancakeFactory.createPair(address(baseToken), address(rootedToken)));\r\n            require (address(rootedBaseLP) != address(0));\r\n        }\r\n    }\r\n\r\n    function completeSetup() public ownerOnly() {\r\n        require (address(rootedEliteLP) != address(0), \"Rooted Elite pool is not created\");\r\n        require (address(rootedBaseLP) != address(0), \"Rooted Base pool is not created\");   \r\n\r\n        eliteToken.approve(address(pancakeRouter), uint256(-1));\r\n        rootedToken.approve(address(pancakeRouter), uint256(-1));\r\n        baseToken.safeApprove(address(pancakeRouter), uint256(-1));\r\n        baseToken.safeApprove(address(eliteToken), uint256(-1));\r\n        rootedBaseLP.approve(address(pancakeRouter), uint256(-1));\r\n        rootedEliteLP.approve(address(pancakeRouter), uint256(-1));\r\n    }\r\n\r\n    // baseToken = WBNB\r\n    function distribute() public override {\r\n        require (msg.sender == address(marketGeneration), \"Unauthorized\");\r\n        require (!distributionComplete, \"Distribution complete\");\r\n   \r\n        vestingPeriodStartTime = block.timestamp;\r\n        vestingPeriodEndTime = block.timestamp + vestingDuration;\r\n        distributionComplete = true;\r\n\r\n        totalBaseTokenCollected = baseToken.balanceOf(address(marketGeneration));\r\n        baseToken.safeTransferFrom(msg.sender, address(this), totalBaseTokenCollected);  \r\n\r\n        RootedTransferGate gate = RootedTransferGate(address(rootedToken.transferGate()));\r\n\r\n        gate.setUnrestricted(true);\r\n        rootedToken.mint(totalRooted);\r\n\r\n        uint256 staffTokens = (250000000000000000000000);\r\n        rootedToken.transfer(multisplitterAddress, staffTokens);\r\n\r\n        createRootedEliteLiquidity();\r\n\r\n        eliteToken.sweepFloor(address(this));\r\n        eliteToken.depositTokens(baseToken.balanceOf(address(this)));\r\n                \r\n        buyTheBottom();\r\n        preBuyForContributors();\r\n        sellTheTop();\r\n\r\n        // WBNB\r\n        uint256 totalBase = totalBaseTokenCollected * projectSetupPercent / 10000;\r\n\r\n        baseToken.transfer(oneshotController, totalBase);\r\n        baseToken.transfer(liquidityController, baseToken.balanceOf(address(this)));\r\n\r\n        createRootedBaseLiquidity();\r\n\r\n        gate.setUnrestricted(false);\r\n    }\r\n\r\n    function createRootedEliteLiquidity() private {\r\n        eliteToken.depositTokens(baseToken.balanceOf(address(this)));\r\n        pancakeRouter.addLiquidity(address(eliteToken), address(rootedToken), eliteToken.balanceOf(address(this)), rootedToken.balanceOf(address(this)), 0, 0, address(this), block.timestamp);\r\n    }\r\n\r\n    function buyTheBottom() private {\r\n        uint256 amount = totalBaseTokenCollected * preBuyForMarketStabilizationPercent / 10000;  \r\n        uint256[] memory amounts = pancakeRouter.swapExactTokensForTokens(amount, 0, eliteRootedPath(), address(this), block.timestamp);        \r\n        rootedBottom = amounts[1];\r\n    }\r\n\r\n    function sellTheTop() private {\r\n        uint256[] memory amounts = pancakeRouter.swapExactTokensForTokens(rootedBottom, 0, rootedElitePath(), address(this), block.timestamp);\r\n        uint256 eliteAmount = amounts[1];\r\n        eliteToken.withdrawTokens(eliteAmount);\r\n    }\r\n\r\n    function preBuyForContributors() private {\r\n        uint256 preBuyAmount = totalBaseTokenCollected * preBuyForContributorsPercent / 10000;\r\n        uint256 eliteBalance = eliteToken.balanceOf(address(this));\r\n        uint256 amount = preBuyAmount > eliteBalance ? eliteBalance : preBuyAmount;\r\n        uint256[] memory amounts = pancakeRouter.swapExactTokensForTokens(amount, 0, eliteRootedPath(), address(this), block.timestamp);\r\n        totalBoughtForContributors = amounts[1];\r\n    }\r\n\r\n    function createRootedBaseLiquidity() private {\r\n        uint256 elitePerLpToken = eliteToken.balanceOf(address(rootedEliteLP)).mul(1e18).div(rootedEliteLP.totalSupply());\r\n        uint256 lpAmountToRemove = baseToken.balanceOf(address(eliteToken)).mul(1e18).div(elitePerLpToken);\r\n        \r\n        (uint256 eliteAmount, uint256 rootedAmount) = pancakeRouter.removeLiquidity(address(eliteToken), address(rootedToken), lpAmountToRemove, 0, 0, address(this), block.timestamp);\r\n        \r\n        uint256 baseInElite = baseToken.balanceOf(address(eliteToken));\r\n        uint256 baseAmount = eliteAmount > baseInElite ? baseInElite : eliteAmount;       \r\n        \r\n        eliteToken.withdrawTokens(baseAmount);\r\n        pancakeRouter.addLiquidity(address(baseToken), address(rootedToken), baseAmount, rootedAmount, 0, 0, liquidityController, block.timestamp);\r\n        rootedEliteLP.transfer(liquidityController, rootedEliteLP.balanceOf(address(this)));\r\n        eliteToken.transfer(liquidityController, eliteToken.balanceOf(address(this)));\r\n    }\r\n\r\n    function eliteRootedPath() private view returns (address[] memory) {\r\n        address[] memory path = new address[](2);\r\n        path[0] = address(eliteToken);\r\n        path[1] = address(rootedToken);\r\n        return path;\r\n    }\r\n\r\n    function rootedElitePath() private view returns (address[] memory) {\r\n        address[] memory path = new address[](2);\r\n        path[0] = address(rootedToken);\r\n        path[1] = address(eliteToken);\r\n        return path;\r\n    }\r\n    \r\n    function getTotalClaim(address account) public view returns (uint256) {\r\n        uint256 contribution = marketGeneration.contribution(account);\r\n        return contribution == 0 ? 0 : contribution.mul(totalBoughtForContributors).div(marketGeneration.totalContribution());\r\n    }\r\n\r\n    function claim(address account) public override {\r\n        require (distributionComplete, \"Distribution is not completed\");\r\n        require (msg.sender == address(marketGeneration), \"Unauthorized\");\r\n\r\n        if (totalClaim[account] == 0){\r\n            totalClaim[account] = remainingClaim[account] = getTotalClaim(account);\r\n        }\r\n\r\n        uint256 share = totalClaim[account];\r\n        uint256 endTime = vestingPeriodEndTime > block.timestamp ? block.timestamp : vestingPeriodEndTime;\r\n\r\n        require (claimTime[account] < endTime, \"Already claimed\");\r\n\r\n        uint256 claimStartTime = claimTime[account] == 0 ? vestingPeriodStartTime : claimTime[account];\r\n        share = (endTime.sub(claimStartTime)).mul(share).div(vestingDuration);\r\n        claimTime[account] = block.timestamp;\r\n        remainingClaim[account] -= share;\r\n        rootedToken.transfer(account, share);\r\n    }\r\n\r\n    function canRecoverTokens(IERC20 token) internal override view returns (bool) {\r\n        return block.timestamp > recoveryDate || token != rootedToken;\r\n    }\r\n}",
  "sourcePath": "G:/projects/degen-protocol/SH33P-contracts/contracts/MarketDistribution.sol",
  "compiler": {
    "name": "solc",
    "version": "0.7.4+commit.3f05b770.Emscripten.clang"
  },
  "schemaVersion": "3.4.1",
  "updatedAt": "2022-01-17T07:34:42.585Z",
  "devdoc": {
    "kind": "dev",
    "methods": {},
    "version": 1
  },
  "userdoc": {
    "kind": "user",
    "methods": {},
    "version": 1
  }
}