{
  "contractName": "MarketGeneration",
  "abi": [
    {
      "inputs": [],
      "stateMutability": "nonpayable",
      "type": "constructor"
    },
    {
      "anonymous": false,
      "inputs": [
        {
          "indexed": true,
          "internalType": "address",
          "name": "previousOwner",
          "type": "address"
        },
        {
          "indexed": true,
          "internalType": "address",
          "name": "newOwner",
          "type": "address"
        }
      ],
      "name": "OwnershipTransferred",
      "type": "event"
    },
    {
      "anonymous": false,
      "inputs": [
        {
          "indexed": true,
          "internalType": "address",
          "name": "_caller",
          "type": "address"
        },
        {
          "indexed": false,
          "internalType": "uint256",
          "name": "_value",
          "type": "uint256"
        },
        {
          "indexed": false,
          "internalType": "uint256",
          "name": "_timestamp",
          "type": "uint256"
        }
      ],
      "name": "onContribute",
      "type": "event"
    },
    {
      "inputs": [],
      "name": "baseToken",
      "outputs": [
        {
          "internalType": "contract IERC20",
          "name": "",
          "type": "address"
        }
      ],
      "stateMutability": "view",
      "type": "function"
    },
    {
      "inputs": [],
      "name": "claimOwnership",
      "outputs": [],
      "stateMutability": "nonpayable",
      "type": "function"
    },
    {
      "inputs": [
        {
          "internalType": "address",
          "name": "",
          "type": "address"
        }
      ],
      "name": "contribution",
      "outputs": [
        {
          "internalType": "uint256",
          "name": "",
          "type": "uint256"
        }
      ],
      "stateMutability": "view",
      "type": "function"
    },
    {
      "inputs": [],
      "name": "finishTime",
      "outputs": [
        {
          "internalType": "uint256",
          "name": "",
          "type": "uint256"
        }
      ],
      "stateMutability": "view",
      "type": "function"
    },
    {
      "inputs": [],
      "name": "hardCap",
      "outputs": [
        {
          "internalType": "uint256",
          "name": "",
          "type": "uint256"
        }
      ],
      "stateMutability": "view",
      "type": "function"
    },
    {
      "inputs": [],
      "name": "isActive",
      "outputs": [
        {
          "internalType": "bool",
          "name": "",
          "type": "bool"
        }
      ],
      "stateMutability": "view",
      "type": "function"
    },
    {
      "inputs": [],
      "name": "marketDistribution",
      "outputs": [
        {
          "internalType": "contract IMarketDistribution",
          "name": "",
          "type": "address"
        }
      ],
      "stateMutability": "view",
      "type": "function"
    },
    {
      "inputs": [],
      "name": "maxContribution",
      "outputs": [
        {
          "internalType": "uint256",
          "name": "",
          "type": "uint256"
        }
      ],
      "stateMutability": "view",
      "type": "function"
    },
    {
      "inputs": [],
      "name": "owner",
      "outputs": [
        {
          "internalType": "address",
          "name": "",
          "type": "address"
        }
      ],
      "stateMutability": "view",
      "type": "function"
    },
    {
      "inputs": [
        {
          "internalType": "contract IERC20",
          "name": "token",
          "type": "address"
        }
      ],
      "name": "recoverTokens",
      "outputs": [],
      "stateMutability": "nonpayable",
      "type": "function"
    },
    {
      "inputs": [],
      "name": "refundsAllowedUntil",
      "outputs": [
        {
          "internalType": "uint256",
          "name": "",
          "type": "uint256"
        }
      ],
      "stateMutability": "view",
      "type": "function"
    },
    {
      "inputs": [],
      "name": "startTime",
      "outputs": [
        {
          "internalType": "uint256",
          "name": "",
          "type": "uint256"
        }
      ],
      "stateMutability": "view",
      "type": "function"
    },
    {
      "inputs": [],
      "name": "totalContribution",
      "outputs": [
        {
          "internalType": "uint256",
          "name": "",
          "type": "uint256"
        }
      ],
      "stateMutability": "view",
      "type": "function"
    },
    {
      "inputs": [
        {
          "internalType": "address",
          "name": "newOwner",
          "type": "address"
        }
      ],
      "name": "transferOwnership",
      "outputs": [],
      "stateMutability": "nonpayable",
      "type": "function"
    },
    {
      "stateMutability": "payable",
      "type": "receive"
    },
    {
      "inputs": [
        {
          "internalType": "address",
          "name": "_user",
          "type": "address"
        }
      ],
      "name": "contributionAllowed",
      "outputs": [
        {
          "internalType": "uint256",
          "name": "",
          "type": "uint256"
        }
      ],
      "stateMutability": "view",
      "type": "function"
    },
    {
      "inputs": [],
      "name": "tokensToHardCap",
      "outputs": [
        {
          "internalType": "uint256",
          "name": "",
          "type": "uint256"
        }
      ],
      "stateMutability": "view",
      "type": "function"
    },
    {
      "inputs": [
        {
          "internalType": "contract IERC20",
          "name": "_baseToken",
          "type": "address"
        }
      ],
      "name": "init",
      "outputs": [],
      "stateMutability": "nonpayable",
      "type": "function"
    },
    {
      "inputs": [
        {
          "internalType": "contract IMarketDistribution",
          "name": "_marketDistribution",
          "type": "address"
        }
      ],
      "name": "activate",
      "outputs": [],
      "stateMutability": "nonpayable",
      "type": "function"
    },
    {
      "inputs": [
        {
          "internalType": "contract IMarketDistribution",
          "name": "_marketDistribution",
          "type": "address"
        }
      ],
      "name": "setMarketDistribution",
      "outputs": [],
      "stateMutability": "nonpayable",
      "type": "function"
    },
    {
      "inputs": [],
      "name": "complete",
      "outputs": [],
      "stateMutability": "nonpayable",
      "type": "function"
    },
    {
      "inputs": [],
      "name": "allowRefunds",
      "outputs": [],
      "stateMutability": "nonpayable",
      "type": "function"
    },
    {
      "inputs": [],
      "name": "claim",
      "outputs": [],
      "stateMutability": "nonpayable",
      "type": "function"
    },
    {
      "inputs": [],
      "name": "contribute",
      "outputs": [],
      "stateMutability": "payable",
      "type": "function"
    }
  ],
  "bytecode": "0x6080604052336000806101000a81548173ffffffffffffffffffffffffffffffffffffffff021916908373ffffffffffffffffffffffffffffffffffffffff16021790555034801561005057600080fd5b5069021e19e0c9bab240000060088190555069a968163f0a57b4000000600581905550612302806100826000396000f3fe6080604052600436106101445760003560e01c806375c074e1116100b6578063d7bb99ba1161006f578063d7bb99ba14610555578063dfb72d921461055f578063e2dc43101461058a578063f28b5fcf146105ef578063f2fde38b14610640578063fb86a40414610691576101d5565b806375c074e1146103ed57806378e97925146104185780637948d8db146104435780638d3d6576146104a85780638da5cb5b146104d3578063c55dae6314610514576101d5565b806322f3e2d41161010857806322f3e2d4146103395780634e71d92d146103665780634e71e0c81461037d578063522e1177146103945780635958611e146103ab57806359c656df146103d6576101d5565b80630dcf4b8f146101da57806316114acd1461020557806319ab453c146102565780631b535d49146102a75780631c5a9d9c146102e8576101d5565b366101d557600360149054906101000a900460ff166101cb576040517f08c379a00000000000000000000000000000000000000000000000000000000081526004018080602001828103825260178152602001807f446973747269627574696f6e206e6f742061637469766500000000000000000081525060200191505060405180910390fd5b6101d36106bc565b005b600080fd5b3480156101e657600080fd5b506101ef610937565b6040518082815260200191505060405180910390f35b34801561021157600080fd5b506102546004803603602081101561022857600080fd5b81019080803573ffffffffffffffffffffffffffffffffffffffff16906020019092919050505061093d565b005b34801561026257600080fd5b506102a56004803603602081101561027957600080fd5b81019080803573ffffffffffffffffffffffffffffffffffffffff169060200190929190505050610adf565b005b3480156102b357600080fd5b506102bc610c75565b604051808273ffffffffffffffffffffffffffffffffffffffff16815260200191505060405180910390f35b3480156102f457600080fd5b506103376004803603602081101561030b57600080fd5b81019080803573ffffffffffffffffffffffffffffffffffffffff169060200190929190505050610c9b565b005b34801561034557600080fd5b5061034e610ea1565b60405180821515815260200191505060405180910390f35b34801561037257600080fd5b5061037b610eb4565b005b34801561038957600080fd5b5061039261102d565b005b3480156103a057600080fd5b506103a9611185565b005b3480156103b757600080fd5b506103c0611500565b6040518082815260200191505060405180910390f35b3480156103e257600080fd5b506103eb611506565b005b3480156103f957600080fd5b5061040261168d565b6040518082815260200191505060405180910390f35b34801561042457600080fd5b5061042d611693565b6040518082815260200191505060405180910390f35b34801561044f57600080fd5b506104926004803603602081101561046657600080fd5b81019080803573ffffffffffffffffffffffffffffffffffffffff169060200190929190505050611699565b6040518082815260200191505060405180910390f35b3480156104b457600080fd5b506104bd6116f6565b6040518082815260200191505060405180910390f35b3480156104df57600080fd5b506104e86116fc565b604051808273ffffffffffffffffffffffffffffffffffffffff16815260200191505060405180910390f35b34801561052057600080fd5b50610529611720565b604051808273ffffffffffffffffffffffffffffffffffffffff16815260200191505060405180910390f35b61055d6106bc565b005b34801561056b57600080fd5b50610574611746565b6040518082815260200191505060405180910390f35b34801561059657600080fd5b506105d9600480360360208110156105ad57600080fd5b81019080803573ffffffffffffffffffffffffffffffffffffffff16906020019092919050505061177c565b6040518082815260200191505060405180910390f35b3480156105fb57600080fd5b5061063e6004803603602081101561061257600080fd5b81019080803573ffffffffffffffffffffffffffffffffffffffff169060200190929190505050611794565b005b34801561064c57600080fd5b5061068f6004803603602081101561066357600080fd5b81019080803573ffffffffffffffffffffffffffffffffffffffff169060200190929190505050611a26565b005b34801561069d57600080fd5b506106a6611b2b565b6040518082815260200191505060405180910390f35b34600034600a60003373ffffffffffffffffffffffffffffffffffffffff1673ffffffffffffffffffffffffffffffffffffffff16815260200190815260200160002054019050600854811061077a576040517f08c379a00000000000000000000000000000000000000000000000000000000081526004018080602001828103825260108152602001807f524553554c54535f4f5645525f4d41580000000000000000000000000000000081525060200191505060405180910390fd5b346000610785611746565b90508082106107fc576040517f08c379a000000000000000000000000000000000000000000000000000000000815260040180806020018281038252600e8152602001807f5441524745545f5245414348454400000000000000000000000000000000000081525060200191505060405180910390fd5b600360149054906101000a900460ff1661087e576040517f08c379a00000000000000000000000000000000000000000000000000000000081526004018080602001828103825260178152602001807f446973747269627574696f6e206e6f742061637469766500000000000000000081525060200191505060405180910390fd5b34600a60003373ffffffffffffffffffffffffffffffffffffffff1673ffffffffffffffffffffffffffffffffffffffff16815260200190815260200160002060008282540192505081905550346004600082825401925050819055503373ffffffffffffffffffffffffffffffffffffffff167fc5e578961e5bd7481ccf1d1bdfbad97b9f1ddfad520f061ca764a57018f3febe3442604051808381526020018281526020019250505060405180910390a250505050565b60045481565b60008054906101000a900473ffffffffffffffffffffffffffffffffffffffff1673ffffffffffffffffffffffffffffffffffffffff163373ffffffffffffffffffffffffffffffffffffffff16146109fe576040517f08c379a000000000000000000000000000000000000000000000000000000000815260040180806020018281038252600a8152602001807f4f776e6572206f6e6c790000000000000000000000000000000000000000000081525060200191505060405180910390fd5b610a0781611b31565b610a1057600080fd5b610adc338273ffffffffffffffffffffffffffffffffffffffff166370a08231306040518263ffffffff1660e01b8152600401808273ffffffffffffffffffffffffffffffffffffffff16815260200191505060206040518083038186803b158015610a7b57600080fd5b505afa158015610a8f573d6000803e3d6000fd5b505050506040513d6020811015610aa557600080fd5b81019080805190602001909291905050508373ffffffffffffffffffffffffffffffffffffffff16611b6a9092919063ffffffff16565b50565b60008054906101000a900473ffffffffffffffffffffffffffffffffffffffff1673ffffffffffffffffffffffffffffffffffffffff163373ffffffffffffffffffffffffffffffffffffffff1614610ba0576040517f08c379a000000000000000000000000000000000000000000000000000000000815260040180806020018281038252600a8152602001807f4f776e6572206f6e6c790000000000000000000000000000000000000000000081525060200191505060405180910390fd5b600360149054906101000a900460ff16158015610bbf57506009544210155b610c31576040517f08c379a00000000000000000000000000000000000000000000000000000000081526004018080602001828103825260118152602001807f416c72656164792061637469766174656400000000000000000000000000000081525060200191505060405180910390fd5b80600260006101000a81548173ffffffffffffffffffffffffffffffffffffffff021916908373ffffffffffffffffffffffffffffffffffffffff16021790555050565b600360009054906101000a900473ffffffffffffffffffffffffffffffffffffffff1681565b60008054906101000a900473ffffffffffffffffffffffffffffffffffffffff1673ffffffffffffffffffffffffffffffffffffffff163373ffffffffffffffffffffffffffffffffffffffff1614610d5c576040517f08c379a000000000000000000000000000000000000000000000000000000000815260040180806020018281038252600a8152602001807f4f776e6572206f6e6c790000000000000000000000000000000000000000000081525060200191505060405180910390fd5b600360149054906101000a900460ff16158015610d7b57506009544210155b610ded576040517f08c379a00000000000000000000000000000000000000000000000000000000081526004018080602001828103825260118152602001807f416c72656164792061637469766174656400000000000000000000000000000081525060200191505060405180910390fd5b600073ffffffffffffffffffffffffffffffffffffffff168173ffffffffffffffffffffffffffffffffffffffff161415610e2757600080fd5b80600360006101000a81548173ffffffffffffffffffffffffffffffffffffffff021916908373ffffffffffffffffffffffffffffffffffffffff1602179055506001600360146101000a81548160ff0219169083151502179055506103e842026006819055506103e862093a8042010260078190555050565b600360149054906101000a900460ff1681565b6000600a60003373ffffffffffffffffffffffffffffffffffffffff1673ffffffffffffffffffffffffffffffffffffffff16815260200190815260200160002054905060008111610f6e576040517f08c379a00000000000000000000000000000000000000000000000000000000081526004018080602001828103825260108152602001807f4e6f7468696e6720746f20636c61696d0000000000000000000000000000000081525060200191505060405180910390fd5b426009541115610f8657610f8181611c0c565b61102a565b600360009054906101000a900473ffffffffffffffffffffffffffffffffffffffff1673ffffffffffffffffffffffffffffffffffffffff16631e83409a336040518263ffffffff1660e01b8152600401808273ffffffffffffffffffffffffffffffffffffffff168152602001915050600060405180830381600087803b15801561101157600080fd5b505af1158015611025573d6000803e3d6000fd5b505050505b50565b3373ffffffffffffffffffffffffffffffffffffffff16600160009054906101000a900473ffffffffffffffffffffffffffffffffffffffff1673ffffffffffffffffffffffffffffffffffffffff161461108757600080fd5b6000600160006101000a81548173ffffffffffffffffffffffffffffffffffffffff021916908373ffffffffffffffffffffffffffffffffffffffff1602179055503373ffffffffffffffffffffffffffffffffffffffff1660008054906101000a900473ffffffffffffffffffffffffffffffffffffffff1673ffffffffffffffffffffffffffffffffffffffff167f8be0079c531659141344cd1fd0a4f28419497f9722a3daafe3b4186f6b6457e060405160405180910390a3336000806101000a81548173ffffffffffffffffffffffffffffffffffffffff021916908373ffffffffffffffffffffffffffffffffffffffff160217905550565b60008054906101000a900473ffffffffffffffffffffffffffffffffffffffff1673ffffffffffffffffffffffffffffffffffffffff163373ffffffffffffffffffffffffffffffffffffffff1614611246576040517f08c379a000000000000000000000000000000000000000000000000000000000815260040180806020018281038252600a8152602001807f4f776e6572206f6e6c790000000000000000000000000000000000000000000081525060200191505060405180910390fd5b600360149054906101000a900460ff166112c8576040517f08c379a00000000000000000000000000000000000000000000000000000000081526004018080602001828103825260178152602001807f446973747269627574696f6e206e6f742061637469766500000000000000000081525060200191505060405180910390fd5b600954421015611340576040517f08c379a000000000000000000000000000000000000000000000000000000000815260040180806020018281038252601d8152602001807f526566756e6420706572696f64206973207374696c6c2061637469766500000081525060200191505060405180910390fd5b6000600360146101000a81548160ff0219169083151502179055506000471415611369576114fe565b600260009054906101000a900473ffffffffffffffffffffffffffffffffffffffff1673ffffffffffffffffffffffffffffffffffffffff1663d0e30db0476040518263ffffffff1660e01b81526004016000604051808303818588803b1580156113d357600080fd5b505af11580156113e7573d6000803e3d6000fd5b505050505061147b600360009054906101000a900473ffffffffffffffffffffffffffffffffffffffff167fffffffffffffffffffffffffffffffffffffffffffffffffffffffffffffffff600260009054906101000a900473ffffffffffffffffffffffffffffffffffffffff1673ffffffffffffffffffffffffffffffffffffffff16611d419092919063ffffffff16565b600360009054906101000a900473ffffffffffffffffffffffffffffffffffffffff1673ffffffffffffffffffffffffffffffffffffffff1663e4fc6b6d6040518163ffffffff1660e01b8152600401600060405180830381600087803b1580156114e557600080fd5b505af11580156114f9573d6000803e3d6000fd5b505050505b565b60075481565b60008054906101000a900473ffffffffffffffffffffffffffffffffffffffff1673ffffffffffffffffffffffffffffffffffffffff163373ffffffffffffffffffffffffffffffffffffffff16146115c7576040517f08c379a000000000000000000000000000000000000000000000000000000000815260040180806020018281038252600a8152602001807f4f776e6572206f6e6c790000000000000000000000000000000000000000000081525060200191505060405180910390fd5b600360149054906101000a900460ff16611649576040517f08c379a00000000000000000000000000000000000000000000000000000000081526004018080602001828103825260178152602001807f446973747269627574696f6e206e6f742061637469766500000000000000000081525060200191505060405180910390fd5b6000600360146101000a81548160ff0219169083151502179055507fffffffffffffffffffffffffffffffffffffffffffffffffffffffffffffffff600981905550565b60095481565b60065481565b60006116ef600a60008473ffffffffffffffffffffffffffffffffffffffff1673ffffffffffffffffffffffffffffffffffffffff16815260200190815260200160002054600854611de390919063ffffffff16565b9050919050565b60085481565b60008054906101000a900473ffffffffffffffffffffffffffffffffffffffff1681565b600260009054906101000a900473ffffffffffffffffffffffffffffffffffffffff1681565b6000804790508060055411156117735761176b81600554611de390919063ffffffff16565b915050611779565b60009150505b90565b600a6020528060005260406000206000915090505481565b60008054906101000a900473ffffffffffffffffffffffffffffffffffffffff1673ffffffffffffffffffffffffffffffffffffffff163373ffffffffffffffffffffffffffffffffffffffff1614611855576040517f08c379a000000000000000000000000000000000000000000000000000000000815260040180806020018281038252600a8152602001807f4f776e6572206f6e6c790000000000000000000000000000000000000000000081525060200191505060405180910390fd5b600360149054906101000a900460ff166118d7576040517f08c379a00000000000000000000000000000000000000000000000000000000081526004018080602001828103825260178152602001807f446973747269627574696f6e206e6f742061637469766500000000000000000081525060200191505060405180910390fd5b600073ffffffffffffffffffffffffffffffffffffffff168173ffffffffffffffffffffffffffffffffffffffff16141561197a576040517f08c379a000000000000000000000000000000000000000000000000000000000815260040180806020018281038252601b8152602001807f496e76616c6964206d61726b657420646973747269627574696f6e000000000081525060200191505060405180910390fd5b600360009054906101000a900473ffffffffffffffffffffffffffffffffffffffff1673ffffffffffffffffffffffffffffffffffffffff168173ffffffffffffffffffffffffffffffffffffffff1614156119d557611a23565b80600360006101000a81548173ffffffffffffffffffffffffffffffffffffffff021916908373ffffffffffffffffffffffffffffffffffffffff1602179055506201518042016009819055505b50565b60008054906101000a900473ffffffffffffffffffffffffffffffffffffffff1673ffffffffffffffffffffffffffffffffffffffff163373ffffffffffffffffffffffffffffffffffffffff1614611ae7576040517f08c379a000000000000000000000000000000000000000000000000000000000815260040180806020018281038252600a8152602001807f4f776e6572206f6e6c790000000000000000000000000000000000000000000081525060200191505060405180910390fd5b80600160006101000a81548173ffffffffffffffffffffffffffffffffffffffff021916908373ffffffffffffffffffffffffffffffffffffffff16021790555050565b60055481565b60003073ffffffffffffffffffffffffffffffffffffffff168273ffffffffffffffffffffffffffffffffffffffff1614159050919050565b611c078363a9059cbb60e01b8484604051602401808373ffffffffffffffffffffffffffffffffffffffff16815260200182815260200192505050604051602081830303815290604052907bffffffffffffffffffffffffffffffffffffffffffffffffffffffff19166020820180517bffffffffffffffffffffffffffffffffffffffffffffffffffffffff8381831617835250505050611e2d565b505050565b60003373ffffffffffffffffffffffffffffffffffffffff168260405180600001905060006040518083038185875af1925050503d8060008114611c6c576040519150601f19603f3d011682016040523d82523d6000602084013e611c71565b606091505b5050905080611ce8576040517f08c379a00000000000000000000000000000000000000000000000000000000081526004018080602001828103825260168152602001807f526566756e64207472616e73666572206661696c65640000000000000000000081525060200191505060405180910390fd5b816004600082825403925050819055506000600a60003373ffffffffffffffffffffffffffffffffffffffff1673ffffffffffffffffffffffffffffffffffffffff168152602001908152602001600020819055505050565b611dde8363095ea7b360e01b8484604051602401808373ffffffffffffffffffffffffffffffffffffffff16815260200182815260200192505050604051602081830303815290604052907bffffffffffffffffffffffffffffffffffffffffffffffffffffffff19166020820180517bffffffffffffffffffffffffffffffffffffffffffffffffffffffff8381831617835250505050611e2d565b505050565b6000611e2583836040518060400160405280601e81526020017f536166654d6174683a207375627472616374696f6e206f766572666c6f770000815250611f1c565b905092915050565b6060611e8f826040518060400160405280602081526020017f5361666545524332303a206c6f772d6c6576656c2063616c6c206661696c65648152508573ffffffffffffffffffffffffffffffffffffffff16611fdc9092919063ffffffff16565b9050600081511115611f1757808060200190516020811015611eb057600080fd5b8101908080519060200190929190505050611f16576040517f08c379a000000000000000000000000000000000000000000000000000000000815260040180806020018281038252602a8152602001806122a3602a913960400191505060405180910390fd5b5b505050565b6000838311158290611fc9576040517f08c379a00000000000000000000000000000000000000000000000000000000081526004018080602001828103825283818151815260200191508051906020019080838360005b83811015611f8e578082015181840152602081019050611f73565b50505050905090810190601f168015611fbb5780820380516001836020036101000a031916815260200191505b509250505060405180910390fd5b5060008385039050809150509392505050565b6060611feb8484600085611ff4565b90509392505050565b60608247101561204f576040517f08c379a000000000000000000000000000000000000000000000000000000000815260040180806020018281038252602681526020018061227d6026913960400191505060405180910390fd5b6120588561219d565b6120ca576040517f08c379a000000000000000000000000000000000000000000000000000000000815260040180806020018281038252601d8152602001807f416464726573733a2063616c6c20746f206e6f6e2d636f6e747261637400000081525060200191505060405180910390fd5b600060608673ffffffffffffffffffffffffffffffffffffffff1685876040518082805190602001908083835b6020831061211a57805182526020820191506020810190506020830392506120f7565b6001836020036101000a03801982511681845116808217855250505050505090500191505060006040518083038185875af1925050503d806000811461217c576040519150601f19603f3d011682016040523d82523d6000602084013e612181565b606091505b50915091506121918282866121b0565b92505050949350505050565b600080823b905060008111915050919050565b606083156121c057829050612275565b6000835111156121d35782518084602001fd5b816040517f08c379a00000000000000000000000000000000000000000000000000000000081526004018080602001828103825283818151815260200191508051906020019080838360005b8381101561223a57808201518184015260208101905061221f565b50505050905090810190601f1680156122675780820380516001836020036101000a031916815260200191505b509250505060405180910390fd5b939250505056fe416464726573733a20696e73756666696369656e742062616c616e636520666f722063616c6c5361666545524332303a204552433230206f7065726174696f6e20646964206e6f742073756363656564a2646970667358221220e2b8422e0e1db6e8723099fcdb3fa234571111f08995e3a729b1f24d23a195d364736f6c63430007040033",
  "immutableReferences": {},
  "source": "// SPDX-License-Identifier: U-U-U-UPPPPP!!!\r\npragma solidity ^0.7.4;\r\n\r\nimport \"./IMarketDistribution.sol\";\r\nimport \"./IMarketGeneration.sol\";\r\nimport \"./TokensRecoverable.sol\";\r\nimport \"./SafeERC20.sol\";\r\nimport \"./SafeMath.sol\";\r\nimport \"./IERC20.sol\";\r\nimport \"./IWBNB.sol\";\r\n\r\ncontract MarketGeneration is TokensRecoverable, IMarketGeneration {\r\n    using SafeERC20 for IERC20;\r\n    using SafeMath for uint256;\r\n\r\n    IERC20 public baseToken;\r\n    IMarketDistribution public marketDistribution;\r\n\r\n    bool public isActive;\r\n\r\n    uint256 public override totalContribution;\r\n\r\n    uint256 public hardCap;\r\n    uint256 public startTime;\r\n    uint256 public finishTime;\r\n    uint256 public maxContribution;\r\n    uint256 public refundsAllowedUntil;\r\n\r\n    mapping (address => uint256) public override contribution;\r\n\r\n    modifier active() {\r\n        require (isActive, \"Distribution not active\");\r\n        _;\r\n    }\r\n\r\n    modifier checkUserContribution(uint256 _value) {\r\n        uint256 _newContributionTotal = (contribution[msg.sender] + msg.value);\r\n        require(_newContributionTotal < maxContribution, \"RESULTS_OVER_MAX\");\r\n        _;\r\n    }\r\n\r\n    modifier checkHardCap(uint256 _amount) {\r\n        uint256 _remaining = tokensToHardCap();\r\n        require(_amount < _remaining, \"TARGET_REACHED\");\r\n        _;\r\n    }\r\n\r\n    event onContribute(address indexed _caller, uint256 _value, uint256 _timestamp);\r\n\r\n    constructor() {\r\n        maxContribution = 10000000000000000000000;\r\n        hardCap = (800000000000000000000000);\r\n    }\r\n\r\n    function contributionAllowed(address _user) public view returns (uint256) {\r\n        return (maxContribution.sub(contribution[_user]));\r\n    }\r\n\r\n    function tokensToHardCap() public view returns (uint256) {\r\n        uint256 _collected = address(this).balance;\r\n\r\n        if (hardCap > _collected) {\r\n            return ((hardCap).sub(_collected));\r\n        }\r\n\r\n        return 0;\r\n    }\r\n\r\n    function init(IERC20 _baseToken) public ownerOnly() {\r\n        require (!isActive && block.timestamp >= refundsAllowedUntil, \"Already activated\");\r\n        baseToken = _baseToken;\r\n    }\r\n\r\n    function activate(IMarketDistribution _marketDistribution) public ownerOnly() {\r\n        require (!isActive && block.timestamp >= refundsAllowedUntil, \"Already activated\");        \r\n        require (address(_marketDistribution) != address(0));\r\n        marketDistribution = _marketDistribution;\r\n        isActive = true;\r\n\r\n        startTime = (block.timestamp * 1000);\r\n        finishTime = ((block.timestamp + 7 days) * 1000);\r\n    }\r\n\r\n    function setMarketDistribution(IMarketDistribution _marketDistribution) public ownerOnly() active() {\r\n        require (address(_marketDistribution) != address(0), \"Invalid market distribution\");\r\n        if (_marketDistribution == marketDistribution) { return; }\r\n        marketDistribution = _marketDistribution;\r\n\r\n        // Give everyone 1 day to claim refunds if they don't approve of the new distributor\r\n        refundsAllowedUntil = block.timestamp + 86400;\r\n    }\r\n\r\n    function complete() public ownerOnly() active() {\r\n        require (block.timestamp >= refundsAllowedUntil, \"Refund period is still active\");\r\n\r\n        isActive = false;\r\n        if (address(this).balance == 0) { return; }\r\n        \r\n        IWBNB(address(baseToken)).deposit{ value: address(this).balance }();\r\n        baseToken.safeApprove(address(marketDistribution), uint256(-1));\r\n\r\n        marketDistribution.distribute();\r\n    }\r\n\r\n    function allowRefunds() public ownerOnly() active() {\r\n        isActive = false;\r\n        refundsAllowedUntil = uint256(-1);\r\n    }\r\n\r\n    function refund(uint256 amount) private {\r\n        (bool success,) = msg.sender.call{ value: amount }(\"\");\r\n        require (success, \"Refund transfer failed\");  \r\n          \r\n        totalContribution -= amount;\r\n        contribution[msg.sender] = 0;\r\n    }\r\n\r\n    function claim() public {\r\n        uint256 amount = contribution[msg.sender];\r\n        require (amount > 0, \"Nothing to claim\");\r\n        \r\n        if (refundsAllowedUntil > block.timestamp) {\r\n            refund(amount);\r\n        } else {\r\n            marketDistribution.claim(msg.sender);\r\n        }\r\n    }\r\n\r\n    function contribute() public payable checkUserContribution(msg.value) checkHardCap(msg.value) active() {\r\n        contribution[msg.sender] += msg.value;\r\n        totalContribution += msg.value;\r\n\r\n        emit onContribute(msg.sender, msg.value, block.timestamp);\r\n    }\r\n\r\n    receive() external payable active() {\r\n        contribute();\r\n    }\r\n}",
  "sourcePath": "G:/projects/degen-protocol/SH33P-contracts/contracts/MarketGeneration.sol",
  "compiler": {
    "name": "solc",
    "version": "0.7.4+commit.3f05b770.Emscripten.clang"
  },
  "schemaVersion": "3.4.1",
  "updatedAt": "2022-01-17T07:34:42.603Z",
  "devdoc": {
    "kind": "dev",
    "methods": {},
    "version": 1
  },
  "userdoc": {
    "kind": "user",
    "methods": {},
    "version": 1
  }
}