{
  "contractName": "Multisplitter",
  "abi": [
    {
      "inputs": [
        {
          "internalType": "address payable",
          "name": "_user1",
          "type": "address"
        },
        {
          "internalType": "address payable",
          "name": "_user2",
          "type": "address"
        },
        {
          "internalType": "address payable",
          "name": "_user3",
          "type": "address"
        },
        {
          "internalType": "address payable",
          "name": "_user4",
          "type": "address"
        },
        {
          "internalType": "address payable",
          "name": "_user5",
          "type": "address"
        }
      ],
      "stateMutability": "nonpayable",
      "type": "constructor"
    },
    {
      "anonymous": false,
      "inputs": [
        {
          "indexed": true,
          "internalType": "address",
          "name": "previousOwner",
          "type": "address"
        },
        {
          "indexed": true,
          "internalType": "address",
          "name": "newOwner",
          "type": "address"
        }
      ],
      "name": "OwnershipTransferred",
      "type": "event"
    },
    {
      "anonymous": false,
      "inputs": [
        {
          "indexed": false,
          "internalType": "address",
          "name": "addr",
          "type": "address"
        }
      ],
      "name": "WhitelistedAddressAdded",
      "type": "event"
    },
    {
      "anonymous": false,
      "inputs": [
        {
          "indexed": false,
          "internalType": "address",
          "name": "addr",
          "type": "address"
        }
      ],
      "name": "WhitelistedAddressRemoved",
      "type": "event"
    },
    {
      "anonymous": false,
      "inputs": [
        {
          "indexed": true,
          "internalType": "address",
          "name": "_caller",
          "type": "address"
        },
        {
          "indexed": false,
          "internalType": "uint256",
          "name": "_amount",
          "type": "uint256"
        },
        {
          "indexed": false,
          "internalType": "uint256",
          "name": "_timestamp",
          "type": "uint256"
        }
      ],
      "name": "onDistribute",
      "type": "event"
    },
    {
      "anonymous": false,
      "inputs": [
        {
          "indexed": true,
          "internalType": "address",
          "name": "_recipient",
          "type": "address"
        },
        {
          "indexed": false,
          "internalType": "uint256",
          "name": "_amount",
          "type": "uint256"
        },
        {
          "indexed": false,
          "internalType": "uint256",
          "name": "_timestamp",
          "type": "uint256"
        }
      ],
      "name": "onPushPayment",
      "type": "event"
    },
    {
      "anonymous": false,
      "inputs": [
        {
          "indexed": true,
          "internalType": "address",
          "name": "_caller",
          "type": "address"
        },
        {
          "indexed": true,
          "internalType": "address",
          "name": "_newAddress",
          "type": "address"
        },
        {
          "indexed": false,
          "internalType": "uint256",
          "name": "_timestamp",
          "type": "uint256"
        }
      ],
      "name": "onUpdateAddress",
      "type": "event"
    },
    {
      "inputs": [],
      "name": "activateDeactivateWhitelist",
      "outputs": [],
      "stateMutability": "nonpayable",
      "type": "function"
    },
    {
      "inputs": [
        {
          "internalType": "address",
          "name": "addr",
          "type": "address"
        }
      ],
      "name": "addAddressToWhitelist",
      "outputs": [
        {
          "internalType": "bool",
          "name": "success",
          "type": "bool"
        }
      ],
      "stateMutability": "nonpayable",
      "type": "function"
    },
    {
      "inputs": [
        {
          "internalType": "address[]",
          "name": "addrs",
          "type": "address[]"
        }
      ],
      "name": "addAddressesToWhitelist",
      "outputs": [
        {
          "internalType": "bool",
          "name": "success",
          "type": "bool"
        }
      ],
      "stateMutability": "nonpayable",
      "type": "function"
    },
    {
      "inputs": [],
      "name": "deployer",
      "outputs": [
        {
          "internalType": "address",
          "name": "",
          "type": "address"
        }
      ],
      "stateMutability": "view",
      "type": "function"
    },
    {
      "inputs": [],
      "name": "getUnlockTime",
      "outputs": [
        {
          "internalType": "uint256",
          "name": "",
          "type": "uint256"
        }
      ],
      "stateMutability": "view",
      "type": "function"
    },
    {
      "inputs": [
        {
          "internalType": "uint256",
          "name": "time",
          "type": "uint256"
        }
      ],
      "name": "lock",
      "outputs": [],
      "stateMutability": "nonpayable",
      "type": "function"
    },
    {
      "inputs": [],
      "name": "owner",
      "outputs": [
        {
          "internalType": "address",
          "name": "",
          "type": "address"
        }
      ],
      "stateMutability": "view",
      "type": "function"
    },
    {
      "inputs": [
        {
          "internalType": "address",
          "name": "addr",
          "type": "address"
        }
      ],
      "name": "removeAddressFromWhitelist",
      "outputs": [
        {
          "internalType": "bool",
          "name": "success",
          "type": "bool"
        }
      ],
      "stateMutability": "nonpayable",
      "type": "function"
    },
    {
      "inputs": [
        {
          "internalType": "address[]",
          "name": "addrs",
          "type": "address[]"
        }
      ],
      "name": "removeAddressesFromWhitelist",
      "outputs": [
        {
          "internalType": "bool",
          "name": "success",
          "type": "bool"
        }
      ],
      "stateMutability": "nonpayable",
      "type": "function"
    },
    {
      "inputs": [],
      "name": "renounceOwnership",
      "outputs": [],
      "stateMutability": "nonpayable",
      "type": "function"
    },
    {
      "inputs": [],
      "name": "token",
      "outputs": [
        {
          "internalType": "contract IERC20",
          "name": "",
          "type": "address"
        }
      ],
      "stateMutability": "view",
      "type": "function"
    },
    {
      "inputs": [
        {
          "internalType": "address",
          "name": "newOwner",
          "type": "address"
        }
      ],
      "name": "transferOwnership",
      "outputs": [],
      "stateMutability": "nonpayable",
      "type": "function"
    },
    {
      "inputs": [],
      "name": "unlock",
      "outputs": [],
      "stateMutability": "nonpayable",
      "type": "function"
    },
    {
      "inputs": [
        {
          "internalType": "address",
          "name": "",
          "type": "address"
        }
      ],
      "name": "whitelist",
      "outputs": [
        {
          "internalType": "bool",
          "name": "",
          "type": "bool"
        }
      ],
      "stateMutability": "view",
      "type": "function"
    },
    {
      "stateMutability": "payable",
      "type": "receive"
    },
    {
      "inputs": [
        {
          "internalType": "uint256",
          "name": "_id",
          "type": "uint256"
        }
      ],
      "name": "baseBalanceOf",
      "outputs": [
        {
          "internalType": "uint256",
          "name": "_balance",
          "type": "uint256"
        }
      ],
      "stateMutability": "view",
      "type": "function"
    },
    {
      "inputs": [
        {
          "internalType": "uint256",
          "name": "_id",
          "type": "uint256"
        }
      ],
      "name": "tokenBalanceOf",
      "outputs": [
        {
          "internalType": "uint256",
          "name": "_balance",
          "type": "uint256"
        }
      ],
      "stateMutability": "view",
      "type": "function"
    },
    {
      "inputs": [],
      "name": "distribute",
      "outputs": [
        {
          "internalType": "bool",
          "name": "_success",
          "type": "bool"
        }
      ],
      "stateMutability": "nonpayable",
      "type": "function"
    },
    {
      "inputs": [
        {
          "internalType": "address",
          "name": "_token",
          "type": "address"
        }
      ],
      "name": "distributeTokens",
      "outputs": [
        {
          "internalType": "bool",
          "name": "_success",
          "type": "bool"
        }
      ],
      "stateMutability": "nonpayable",
      "type": "function"
    },
    {
      "inputs": [
        {
          "internalType": "uint256",
          "name": "_userId",
          "type": "uint256"
        },
        {
          "internalType": "address payable",
          "name": "_newAddress",
          "type": "address"
        }
      ],
      "name": "updateAddress",
      "outputs": [
        {
          "internalType": "bool",
          "name": "_success",
          "type": "bool"
        }
      ],
      "stateMutability": "nonpayable",
      "type": "function"
    },
    {
      "inputs": [
        {
          "internalType": "address",
          "name": "_token",
          "type": "address"
        },
        {
          "internalType": "uint256",
          "name": "_userId",
          "type": "uint256"
        }
      ],
      "name": "pushTokenPayment",
      "outputs": [
        {
          "internalType": "bool",
          "name": "_success",
          "type": "bool"
        }
      ],
      "stateMutability": "nonpayable",
      "type": "function"
    },
    {
      "inputs": [
        {
          "internalType": "uint256",
          "name": "_userId",
          "type": "uint256"
        }
      ],
      "name": "pushPayment",
      "outputs": [
        {
          "internalType": "bool",
          "name": "_success",
          "type": "bool"
        }
      ],
      "stateMutability": "nonpayable",
      "type": "function"
    },
    {
      "inputs": [
        {
          "internalType": "uint256",
          "name": "_userId",
          "type": "uint256"
        },
        {
          "internalType": "uint256",
          "name": "_balance",
          "type": "uint256"
        }
      ],
      "name": "reset",
      "outputs": [],
      "stateMutability": "nonpayable",
      "type": "function"
    }
  ],
  "bytecode": "0x60806040526001600360006101000a81548160ff0219169083151502179055503480156200002c57600080fd5b5060405162002c2838038062002c28833981810160405260a08110156200005257600080fd5b81019080805190602001909291908051906020019092919080519060200190929190805190602001909291908051906020019092919050505060006200009d620003a160201b60201c565b9050806000806101000a81548173ffffffffffffffffffffffffffffffffffffffff021916908373ffffffffffffffffffffffffffffffffffffffff1602179055508073ffffffffffffffffffffffffffffffffffffffff16600073ffffffffffffffffffffffffffffffffffffffff167f8be0079c531659141344cd1fd0a4f28419497f9722a3daafe3b4186f6b6457e060405160405180910390a35084600660006001815260200190815260200160002060000160006101000a81548173ffffffffffffffffffffffffffffffffffffffff021916908373ffffffffffffffffffffffffffffffffffffffff16021790555083600660006002815260200190815260200160002060000160006101000a81548173ffffffffffffffffffffffffffffffffffffffff021916908373ffffffffffffffffffffffffffffffffffffffff16021790555082600660006003815260200190815260200160002060000160006101000a81548173ffffffffffffffffffffffffffffffffffffffff021916908373ffffffffffffffffffffffffffffffffffffffff16021790555081600660006004815260200190815260200160002060000160006101000a81548173ffffffffffffffffffffffffffffffffffffffff021916908373ffffffffffffffffffffffffffffffffffffffff16021790555080600660006005815260200190815260200160002060000160006101000a81548173ffffffffffffffffffffffffffffffffffffffff021916908373ffffffffffffffffffffffffffffffffffffffff160217905550620002fa85620003a960201b60201c565b506200030c84620003a960201b60201c565b506200031e83620003a960201b60201c565b506200033082620003a960201b60201c565b506200034281620003a960201b60201c565b506200035433620003a960201b60201c565b5033600560006101000a81548173ffffffffffffffffffffffffffffffffffffffff021916908373ffffffffffffffffffffffffffffffffffffffff16021790555050505050506200057d565b600033905090565b6000620003bb620003a160201b60201c565b73ffffffffffffffffffffffffffffffffffffffff1660008054906101000a900473ffffffffffffffffffffffffffffffffffffffff1673ffffffffffffffffffffffffffffffffffffffff16146200047c576040517f08c379a00000000000000000000000000000000000000000000000000000000081526004018080602001828103825260208152602001807f4f776e61626c653a2063616c6c6572206973206e6f7420746865206f776e657281525060200191505060405180910390fd5b600460008373ffffffffffffffffffffffffffffffffffffffff1673ffffffffffffffffffffffffffffffffffffffff16815260200190815260200160002060009054906101000a900460ff1662000578576001600460008473ffffffffffffffffffffffffffffffffffffffff1673ffffffffffffffffffffffffffffffffffffffff16815260200190815260200160002060006101000a81548160ff0219169083151502179055507fd1bba68c128cc3f427e5831b3c6f99f480b6efa6b9e80c757768f6124158cc3f82604051808273ffffffffffffffffffffffffffffffffffffffff16815260200191505060405180910390a1600190505b919050565b61269b806200058d6000396000f3fe6080604052600436106101395760003560e01c80637b9417c8116100ab578063d5f394881161006f578063d5f3948814610644578063dd46706414610685578063e2ec6ec3146106c0578063e4fc6b6d1461075c578063f2fde38b14610789578063fc0c546a146107da57610140565b80637b9417c8146104b75780638da5cb5b1461051e5780639b19251a1461055f578063a69df4b5146105c6578063b1d17c98146105dd57610140565b80632ab29df7116100fd5780632ab29df71461034d5780632c4bdc43146103be5780633050f6dc146103d5578063602bc62b14610424578063715018a61461044f5780637580d7a41461046657610140565b80630a3f81bc1461014557806313f4dd25146101b65780631dc436371461020557806324953eaa1461024a578063286dd3f5146102e657610140565b3661014057005b600080fd5b34801561015157600080fd5b5061019e6004803603604081101561016857600080fd5b81019080803573ffffffffffffffffffffffffffffffffffffffff1690602001909291908035906020019092919050505061081b565b60405180821515815260200191505060405180910390f35b3480156101c257600080fd5b506101ef600480360360208110156101d957600080fd5b8101908080359060200190929190505050610a77565b6040518082815260200191505060405180910390f35b34801561021157600080fd5b506102486004803603604081101561022857600080fd5b810190808035906020019092919080359060200190929190505050610a97565b005b34801561025657600080fd5b506102ce6004803603602081101561026d57600080fd5b810190808035906020019064010000000081111561028a57600080fd5b82018360208201111561029c57600080fd5b803590602001918460208302840111640100000000831117156102be57600080fd5b9091929391929390505050610b79565b60405180821515815260200191505060405180910390f35b3480156102f257600080fd5b506103356004803603602081101561030957600080fd5b81019080803573ffffffffffffffffffffffffffffffffffffffff169060200190929190505050610ca0565b60405180821515815260200191505060405180910390f35b34801561035957600080fd5b506103a66004803603604081101561037057600080fd5b8101908080359060200190929190803573ffffffffffffffffffffffffffffffffffffffff169060200190929190505050610e6b565b60405180821515815260200191505060405180910390f35b3480156103ca57600080fd5b506103d361100d565b005b3480156103e157600080fd5b5061040e600480360360208110156103f857600080fd5b8101908080359060200190929190505050611101565b6040518082815260200191505060405180910390f35b34801561043057600080fd5b50610439611121565b6040518082815260200191505060405180910390f35b34801561045b57600080fd5b5061046461112b565b005b34801561047257600080fd5b5061049f6004803603602081101561048957600080fd5b81019080803590602001909291905050506112b1565b60405180821515815260200191505060405180910390f35b3480156104c357600080fd5b50610506600480360360208110156104da57600080fd5b81019080803573ffffffffffffffffffffffffffffffffffffffff169060200190929190505050611442565b60405180821515815260200191505060405180910390f35b34801561052a57600080fd5b5061053361160c565b604051808273ffffffffffffffffffffffffffffffffffffffff16815260200191505060405180910390f35b34801561056b57600080fd5b506105ae6004803603602081101561058257600080fd5b81019080803573ffffffffffffffffffffffffffffffffffffffff169060200190929190505050611635565b60405180821515815260200191505060405180910390f35b3480156105d257600080fd5b506105db611655565b005b3480156105e957600080fd5b5061062c6004803603602081101561060057600080fd5b81019080803573ffffffffffffffffffffffffffffffffffffffff169060200190929190505050611872565b60405180821515815260200191505060405180910390f35b34801561065057600080fd5b50610659611c33565b604051808273ffffffffffffffffffffffffffffffffffffffff16815260200191505060405180910390f35b34801561069157600080fd5b506106be600480360360208110156106a857600080fd5b8101908080359060200190929190505050611c59565b005b3480156106cc57600080fd5b50610744600480360360208110156106e357600080fd5b810190808035906020019064010000000081111561070057600080fd5b82018360208201111561071257600080fd5b8035906020019184602083028401116401000000008311171561073457600080fd5b9091929391929390505050611e4a565b60405180821515815260200191505060405180910390f35b34801561076857600080fd5b50610771611f71565b60405180821515815260200191505060405180910390f35b34801561079557600080fd5b506107d8600480360360208110156107ac57600080fd5b81019080803573ffffffffffffffffffffffffffffffffffffffff16906020019092919050505061222c565b005b3480156107e657600080fd5b506107ef612437565b604051808273ffffffffffffffffffffffffffffffffffffffff16815260200191505060405180910390f35b600082600760006101000a81548173ffffffffffffffffffffffffffffffffffffffff021916908373ffffffffffffffffffffffffffffffffffffffff160217905550600060066000848152602001908152602001600020600201549050600081116108ef576040517f08c379a000000000000000000000000000000000000000000000000000000000815260040180806020018281038252600a8152602001807f4e4f5f42414c414e43450000000000000000000000000000000000000000000081525060200191505060405180910390fd5b6000600660008581526020019081526020016000206002018190555060006006600085815260200190815260200160002060000160009054906101000a900473ffffffffffffffffffffffffffffffffffffffff169050600760009054906101000a900473ffffffffffffffffffffffffffffffffffffffff1673ffffffffffffffffffffffffffffffffffffffff1663a9059cbb82846040518363ffffffff1660e01b8152600401808373ffffffffffffffffffffffffffffffffffffffff16815260200182815260200192505050602060405180830381600087803b1580156109d957600080fd5b505af11580156109ed573d6000803e3d6000fd5b505050506040513d6020811015610a0357600080fd5b8101908080519060200190929190505050508073ffffffffffffffffffffffffffffffffffffffff167fb9cc23325bea72abf8c1dfeb37c174b99ba6159cd387a3c2dec2c5f1fbffd30c8342604051808381526020018281526020019250505060405180910390a260019250505092915050565b600060066000838152602001908152602001600020600201549050919050565b600560009054906101000a900473ffffffffffffffffffffffffffffffffffffffff1673ffffffffffffffffffffffffffffffffffffffff163373ffffffffffffffffffffffffffffffffffffffff1614610b5a576040517f08c379a000000000000000000000000000000000000000000000000000000000815260040180806020018281038252600d8152602001807f4f4e4c595f4445504c4f5945520000000000000000000000000000000000000081525060200191505060405180910390fd5b8060066000848152602001908152602001600020600101819055505050565b6000610b8361245d565b73ffffffffffffffffffffffffffffffffffffffff1660008054906101000a900473ffffffffffffffffffffffffffffffffffffffff1673ffffffffffffffffffffffffffffffffffffffff1614610c43576040517f08c379a00000000000000000000000000000000000000000000000000000000081526004018080602001828103825260208152602001807f4f776e61626c653a2063616c6c6572206973206e6f7420746865206f776e657281525060200191505060405180910390fd5b60005b83839050811015610c9957610c82848483818110610c6057fe5b9050602002013573ffffffffffffffffffffffffffffffffffffffff16610ca0565b15610c8c57600191505b8080600101915050610c46565b5092915050565b6000610caa61245d565b73ffffffffffffffffffffffffffffffffffffffff1660008054906101000a900473ffffffffffffffffffffffffffffffffffffffff1673ffffffffffffffffffffffffffffffffffffffff1614610d6a576040517f08c379a00000000000000000000000000000000000000000000000000000000081526004018080602001828103825260208152602001807f4f776e61626c653a2063616c6c6572206973206e6f7420746865206f776e657281525060200191505060405180910390fd5b600460008373ffffffffffffffffffffffffffffffffffffffff1673ffffffffffffffffffffffffffffffffffffffff16815260200190815260200160002060009054906101000a900460ff1615610e66576000600460008473ffffffffffffffffffffffffffffffffffffffff1673ffffffffffffffffffffffffffffffffffffffff16815260200190815260200160002060006101000a81548160ff0219169083151502179055507ff1abf01a1043b7c244d128e8595cf0c1d10743b022b03a02dffd8ca3bf729f5a82604051808273ffffffffffffffffffffffffffffffffffffffff16815260200191505060405180910390a1600190505b919050565b6000806006600085815260200190815260200160002060000160009054906101000a900473ffffffffffffffffffffffffffffffffffffffff1690508073ffffffffffffffffffffffffffffffffffffffff163373ffffffffffffffffffffffffffffffffffffffff1614610f48576040517f08c379a000000000000000000000000000000000000000000000000000000000815260040180806020018281038252601f8152602001807f43414e4e4f545f4348414e47455f46524f4d5f4f544845525f57414c4c45540081525060200191505060405180910390fd5b826006600086815260200190815260200160002060000160006101000a81548173ffffffffffffffffffffffffffffffffffffffff021916908373ffffffffffffffffffffffffffffffffffffffff1602179055508273ffffffffffffffffffffffffffffffffffffffff168173ffffffffffffffffffffffffffffffffffffffff167faf8548af88748daebd38ce35407c9d4efb82b87984769695e4e8ab4a8d335507426040518082815260200191505060405180910390a3600191505092915050565b61101561245d565b73ffffffffffffffffffffffffffffffffffffffff1660008054906101000a900473ffffffffffffffffffffffffffffffffffffffff1673ffffffffffffffffffffffffffffffffffffffff16146110d5576040517f08c379a00000000000000000000000000000000000000000000000000000000081526004018080602001828103825260208152602001807f4f776e61626c653a2063616c6c6572206973206e6f7420746865206f776e657281525060200191505060405180910390fd5b600360009054906101000a900460ff1615600360006101000a81548160ff021916908315150217905550565b600060066000838152602001908152602001600020600101549050919050565b6000600254905090565b61113361245d565b73ffffffffffffffffffffffffffffffffffffffff1660008054906101000a900473ffffffffffffffffffffffffffffffffffffffff1673ffffffffffffffffffffffffffffffffffffffff16146111f3576040517f08c379a00000000000000000000000000000000000000000000000000000000081526004018080602001828103825260208152602001807f4f776e61626c653a2063616c6c6572206973206e6f7420746865206f776e657281525060200191505060405180910390fd5b600073ffffffffffffffffffffffffffffffffffffffff1660008054906101000a900473ffffffffffffffffffffffffffffffffffffffff1673ffffffffffffffffffffffffffffffffffffffff167f8be0079c531659141344cd1fd0a4f28419497f9722a3daafe3b4186f6b6457e060405160405180910390a360008060006101000a81548173ffffffffffffffffffffffffffffffffffffffff021916908373ffffffffffffffffffffffffffffffffffffffff160217905550565b6000806006600084815260200190815260200160002060010154905060008111611343576040517f08c379a000000000000000000000000000000000000000000000000000000000815260040180806020018281038252600a8152602001807f4e4f5f42414c414e43450000000000000000000000000000000000000000000081525060200191505060405180910390fd5b6000600660008581526020019081526020016000206001018190555060006006600085815260200190815260200160002060000160009054906101000a900473ffffffffffffffffffffffffffffffffffffffff1690508073ffffffffffffffffffffffffffffffffffffffff166108fc839081150290604051600060405180830381858888f193505050501580156113e0573d6000803e3d6000fd5b508073ffffffffffffffffffffffffffffffffffffffff167fb9cc23325bea72abf8c1dfeb37c174b99ba6159cd387a3c2dec2c5f1fbffd30c8342604051808381526020018281526020019250505060405180910390a2600192505050919050565b600061144c61245d565b73ffffffffffffffffffffffffffffffffffffffff1660008054906101000a900473ffffffffffffffffffffffffffffffffffffffff1673ffffffffffffffffffffffffffffffffffffffff161461150c576040517f08c379a00000000000000000000000000000000000000000000000000000000081526004018080602001828103825260208152602001807f4f776e61626c653a2063616c6c6572206973206e6f7420746865206f776e657281525060200191505060405180910390fd5b600460008373ffffffffffffffffffffffffffffffffffffffff1673ffffffffffffffffffffffffffffffffffffffff16815260200190815260200160002060009054906101000a900460ff16611607576001600460008473ffffffffffffffffffffffffffffffffffffffff1673ffffffffffffffffffffffffffffffffffffffff16815260200190815260200160002060006101000a81548160ff0219169083151502179055507fd1bba68c128cc3f427e5831b3c6f99f480b6efa6b9e80c757768f6124158cc3f82604051808273ffffffffffffffffffffffffffffffffffffffff16815260200191505060405180910390a1600190505b919050565b60008060009054906101000a900473ffffffffffffffffffffffffffffffffffffffff16905090565b60046020528060005260406000206000915054906101000a900460ff1681565b3373ffffffffffffffffffffffffffffffffffffffff16600160009054906101000a900473ffffffffffffffffffffffffffffffffffffffff1673ffffffffffffffffffffffffffffffffffffffff16146116fb576040517f08c379a00000000000000000000000000000000000000000000000000000000081526004018080602001828103825260238152602001806126436023913960400191505060405180910390fd5b6002544211611772576040517f08c379a000000000000000000000000000000000000000000000000000000000815260040180806020018281038252601f8152602001807f436f6e7472616374206973206c6f636b656420756e74696c203720646179730081525060200191505060405180910390fd5b600160009054906101000a900473ffffffffffffffffffffffffffffffffffffffff1673ffffffffffffffffffffffffffffffffffffffff1660008054906101000a900473ffffffffffffffffffffffffffffffffffffffff1673ffffffffffffffffffffffffffffffffffffffff167f8be0079c531659141344cd1fd0a4f28419497f9722a3daafe3b4186f6b6457e060405160405180910390a3600160009054906101000a900473ffffffffffffffffffffffffffffffffffffffff166000806101000a81548173ffffffffffffffffffffffffffffffffffffffff021916908373ffffffffffffffffffffffffffffffffffffffff160217905550565b6000600360009054906101000a900460ff161561194957600460003373ffffffffffffffffffffffffffffffffffffffff1673ffffffffffffffffffffffffffffffffffffffff16815260200190815260200160002060009054906101000a900460ff16611948576040517f08c379a000000000000000000000000000000000000000000000000000000000815260040180806020018281038252600f8152602001807f6e6f742077686974656c6973746564000000000000000000000000000000000081525060200191505060405180910390fd5b5b81600760006101000a81548173ffffffffffffffffffffffffffffffffffffffff021916908373ffffffffffffffffffffffffffffffffffffffff1602179055506000600760009054906101000a900473ffffffffffffffffffffffffffffffffffffffff1673ffffffffffffffffffffffffffffffffffffffff166370a08231306040518263ffffffff1660e01b8152600401808273ffffffffffffffffffffffffffffffffffffffff16815260200191505060206040518083038186803b158015611a1557600080fd5b505afa158015611a29573d6000803e3d6000fd5b505050506040513d6020811015611a3f57600080fd5b81019080805190602001909291905050509050611a7b612710611a6d6107d08461246590919063ffffffff16565b6124eb90919063ffffffff16565b600660006001815260200190815260200160002060020160008282540192505081905550611ac8612710611aba6107d08461246590919063ffffffff16565b6124eb90919063ffffffff16565b600660006002815260200190815260200160002060020160008282540192505081905550611b15612710611b076107d08461246590919063ffffffff16565b6124eb90919063ffffffff16565b600660006003815260200190815260200160002060020160008282540192505081905550611b62612710611b546107d08461246590919063ffffffff16565b6124eb90919063ffffffff16565b600660006004815260200190815260200160002060020160008282540192505081905550611baf612710611ba16107d08461246590919063ffffffff16565b6124eb90919063ffffffff16565b6006600060058152602001908152602001600020600201600082825401925050819055503373ffffffffffffffffffffffffffffffffffffffff167fb9cc23325bea72abf8c1dfeb37c174b99ba6159cd387a3c2dec2c5f1fbffd30c8242604051808381526020018281526020019250505060405180910390a26001915050919050565b600560009054906101000a900473ffffffffffffffffffffffffffffffffffffffff1681565b611c6161245d565b73ffffffffffffffffffffffffffffffffffffffff1660008054906101000a900473ffffffffffffffffffffffffffffffffffffffff1673ffffffffffffffffffffffffffffffffffffffff1614611d21576040517f08c379a00000000000000000000000000000000000000000000000000000000081526004018080602001828103825260208152602001807f4f776e61626c653a2063616c6c6572206973206e6f7420746865206f776e657281525060200191505060405180910390fd5b60008054906101000a900473ffffffffffffffffffffffffffffffffffffffff16600160006101000a81548173ffffffffffffffffffffffffffffffffffffffff021916908373ffffffffffffffffffffffffffffffffffffffff16021790555060008060006101000a81548173ffffffffffffffffffffffffffffffffffffffff021916908373ffffffffffffffffffffffffffffffffffffffff160217905550804201600281905550600073ffffffffffffffffffffffffffffffffffffffff1660008054906101000a900473ffffffffffffffffffffffffffffffffffffffff1673ffffffffffffffffffffffffffffffffffffffff167f8be0079c531659141344cd1fd0a4f28419497f9722a3daafe3b4186f6b6457e060405160405180910390a350565b6000611e5461245d565b73ffffffffffffffffffffffffffffffffffffffff1660008054906101000a900473ffffffffffffffffffffffffffffffffffffffff1673ffffffffffffffffffffffffffffffffffffffff1614611f14576040517f08c379a00000000000000000000000000000000000000000000000000000000081526004018080602001828103825260208152602001807f4f776e61626c653a2063616c6c6572206973206e6f7420746865206f776e657281525060200191505060405180910390fd5b60005b83839050811015611f6a57611f53848483818110611f3157fe5b9050602002013573ffffffffffffffffffffffffffffffffffffffff16611442565b15611f5d57600191505b8080600101915050611f17565b5092915050565b6000600360009054906101000a900460ff161561204857600460003373ffffffffffffffffffffffffffffffffffffffff1673ffffffffffffffffffffffffffffffffffffffff16815260200190815260200160002060009054906101000a900460ff16612047576040517f08c379a000000000000000000000000000000000000000000000000000000000815260040180806020018281038252600f8152602001807f6e6f742077686974656c6973746564000000000000000000000000000000000081525060200191505060405180910390fd5b5b60004790506120766127106120686107d08461246590919063ffffffff16565b6124eb90919063ffffffff16565b6006600060018152602001908152602001600020600101600082825401925050819055506120c36127106120b56107d08461246590919063ffffffff16565b6124eb90919063ffffffff16565b6006600060028152602001908152602001600020600101600082825401925050819055506121106127106121026107d08461246590919063ffffffff16565b6124eb90919063ffffffff16565b60066000600381526020019081526020016000206001016000828254019250508190555061215d61271061214f6107d08461246590919063ffffffff16565b6124eb90919063ffffffff16565b6006600060048152602001908152602001600020600101600082825401925050819055506121aa61271061219c6107d08461246590919063ffffffff16565b6124eb90919063ffffffff16565b6006600060058152602001908152602001600020600101600082825401925050819055503373ffffffffffffffffffffffffffffffffffffffff167fb9cc23325bea72abf8c1dfeb37c174b99ba6159cd387a3c2dec2c5f1fbffd30c8242604051808381526020018281526020019250505060405180910390a2600191505090565b61223461245d565b73ffffffffffffffffffffffffffffffffffffffff1660008054906101000a900473ffffffffffffffffffffffffffffffffffffffff1673ffffffffffffffffffffffffffffffffffffffff16146122f4576040517f08c379a00000000000000000000000000000000000000000000000000000000081526004018080602001828103825260208152602001807f4f776e61626c653a2063616c6c6572206973206e6f7420746865206f776e657281525060200191505060405180910390fd5b600073ffffffffffffffffffffffffffffffffffffffff168173ffffffffffffffffffffffffffffffffffffffff16141561237a576040517f08c379a00000000000000000000000000000000000000000000000000000000081526004018080602001828103825260268152602001806125fc6026913960400191505060405180910390fd5b8073ffffffffffffffffffffffffffffffffffffffff1660008054906101000a900473ffffffffffffffffffffffffffffffffffffffff1673ffffffffffffffffffffffffffffffffffffffff167f8be0079c531659141344cd1fd0a4f28419497f9722a3daafe3b4186f6b6457e060405160405180910390a3806000806101000a81548173ffffffffffffffffffffffffffffffffffffffff021916908373ffffffffffffffffffffffffffffffffffffffff16021790555050565b600760009054906101000a900473ffffffffffffffffffffffffffffffffffffffff1681565b600033905090565b60008083141561247857600090506124e5565b600082840290508284828161248957fe5b04146124e0576040517f08c379a00000000000000000000000000000000000000000000000000000000081526004018080602001828103825260218152602001806126226021913960400191505060405180910390fd5b809150505b92915050565b600061252d83836040518060400160405280601a81526020017f536166654d6174683a206469766973696f6e206279207a65726f000000000000815250612535565b905092915050565b600080831182906125e1576040517f08c379a00000000000000000000000000000000000000000000000000000000081526004018080602001828103825283818151815260200191508051906020019080838360005b838110156125a657808201518184015260208101905061258b565b50505050905090810190601f1680156125d35780820380516001836020036101000a031916815260200191505b509250505060405180910390fd5b5060008385816125ed57fe5b04905080915050939250505056fe4f776e61626c653a206e6577206f776e657220697320746865207a65726f2061646472657373536166654d6174683a206d756c7469706c69636174696f6e206f766572666c6f77596f7520646f6e27742068617665207065726d697373696f6e20746f20756e6c6f636ba2646970667358221220b8499be32a1a1674b2c8a1f29b2df7cfdd63327ef3da570fe998f1ae57c6ba6264736f6c63430007040033",
  "immutableReferences": {},
  "source": "// SPDX-License-Identifier: U-U-U-UPPPPP!!!\r\npragma solidity 0.7.4;\r\n\r\nimport \"./Address.sol\";\r\nimport \"./SafeMath.sol\";\r\nimport \"./SafeERC20.sol\";\r\nimport \"./IERC20.sol\";\r\nimport \"./Whitelist.sol\";\r\n\r\ncontract Multisplitter is Whitelist {\r\n    using Address for address;\r\n    using SafeMath for uint256;\r\n    using SafeERC20 for IERC20;\r\n\r\n    struct User {\r\n        address payable wallet;\r\n        uint256 baseBalance;\r\n        uint256 tokenBalance;\r\n    }\r\n\r\n    address public deployer;\r\n\r\n    mapping(uint256 => User) _user;\r\n\r\n    modifier onlyDeployer() {\r\n        require(msg.sender == deployer, \"ONLY_DEPLOYER\");\r\n        _;\r\n    }\r\n\r\n    IERC20 public token;\r\n\r\n    event onUpdateAddress(address indexed _caller, address indexed _newAddress, uint256 _timestamp);\r\n    event onPushPayment(address indexed _recipient, uint256 _amount, uint256 _timestamp);\r\n    event onDistribute(address indexed _caller, uint256 _amount, uint256 _timestamp);\r\n\r\n    constructor(\r\n        address payable _user1, \r\n        address payable _user2, \r\n        address payable _user3, \r\n        address payable _user4, \r\n        address payable _user5\r\n    ) {\r\n        _user[1].wallet = _user1; // Sheep\r\n        _user[2].wallet = _user2; // Shane\r\n        _user[3].wallet = _user3; // Rhino\r\n        _user[4].wallet = _user4; // MadDog\r\n        _user[5].wallet = _user5; // JP\r\n\r\n        addAddressToWhitelist(_user1);\r\n        addAddressToWhitelist(_user2);\r\n        addAddressToWhitelist(_user3);\r\n        addAddressToWhitelist(_user4);\r\n        addAddressToWhitelist(_user5);\r\n        addAddressToWhitelist(msg.sender);\r\n\r\n        deployer = msg.sender;\r\n    }\r\n\r\n    receive() external payable {\r\n\r\n    }\r\n\r\n    function baseBalanceOf(uint256 _id) public view returns (uint256 _balance) {\r\n        return (_user[_id].baseBalance);\r\n    }\r\n\r\n    function tokenBalanceOf(uint256 _id) public view returns (uint256 _balance) {\r\n        return (_user[_id].tokenBalance);\r\n    }\r\n\r\n    function distribute() public onlyWhitelisted() returns (bool _success) {\r\n        uint256 tokens = address(this).balance;\r\n\r\n        _user[1].baseBalance += tokens.mul(2000).div(10000);\r\n        _user[2].baseBalance += tokens.mul(2000).div(10000);\r\n        _user[3].baseBalance += tokens.mul(2000).div(10000);\r\n        _user[4].baseBalance += tokens.mul(2000).div(10000);\r\n        _user[5].baseBalance += tokens.mul(2000).div(10000);\r\n\r\n        emit onPushPayment(msg.sender, tokens, block.timestamp);\r\n        return true;\r\n    }\r\n\r\n    function distributeTokens(address _token) public onlyWhitelisted() returns (bool _success) {\r\n        token = IERC20(_token);\r\n        uint256 tokens = token.balanceOf(address(this));\r\n\r\n        _user[1].tokenBalance += tokens.mul(2000).div(10000);\r\n        _user[2].tokenBalance += tokens.mul(2000).div(10000);\r\n        _user[3].tokenBalance += tokens.mul(2000).div(10000);\r\n        _user[4].tokenBalance += tokens.mul(2000).div(10000);\r\n        _user[5].tokenBalance += tokens.mul(2000).div(10000);\r\n\r\n        emit onPushPayment(msg.sender, tokens, block.timestamp);\r\n        return true;\r\n    }\r\n\r\n    function updateAddress(uint256 _userId, address payable _newAddress) public returns (bool _success) {\r\n        address _oldAddress = _user[_userId].wallet;\r\n        require(msg.sender == _oldAddress, \"CANNOT_CHANGE_FROM_OTHER_WALLET\");\r\n\r\n        _user[_userId].wallet = _newAddress;\r\n\r\n        emit onUpdateAddress(_oldAddress, _newAddress, block.timestamp);\r\n        return true;\r\n    }\r\n\r\n    function pushTokenPayment(address _token, uint256 _userId) public returns (bool _success) {\r\n        token = IERC20(_token);\r\n\r\n        uint256 _entitlement = _user[_userId].tokenBalance;\r\n        require(_entitlement > 0, \"NO_BALANCE\");\r\n\r\n        _user[_userId].tokenBalance = 0;\r\n\r\n        address _recipient = _user[_userId].wallet;\r\n        token.transfer(_recipient, _entitlement);\r\n\r\n        emit onPushPayment(_recipient, _entitlement, block.timestamp);\r\n        return true;\r\n    }\r\n\r\n    function pushPayment(uint256 _userId) public returns (bool _success) {\r\n        uint256 _entitlement = _user[_userId].baseBalance;\r\n        require(_entitlement > 0, \"NO_BALANCE\");\r\n\r\n        _user[_userId].baseBalance = 0;\r\n\r\n        address payable _recipient = _user[_userId].wallet;\r\n        _recipient.transfer(_entitlement);\r\n\r\n        emit onPushPayment(_recipient, _entitlement, block.timestamp);\r\n        return true;\r\n    }\r\n\r\n    function reset(uint256 _userId, uint256 _balance) public onlyDeployer() {\r\n        _user[_userId].baseBalance = _balance;\r\n    }\r\n}",
  "sourcePath": "G:/projects/degen-protocol/SH33P-contracts/contracts/Multisplitter.sol",
  "compiler": {
    "name": "solc",
    "version": "0.7.4+commit.3f05b770.Emscripten.clang"
  },
  "schemaVersion": "3.4.1",
  "updatedAt": "2022-01-17T07:34:42.620Z",
  "devdoc": {
    "kind": "dev",
    "methods": {
      "owner()": {
        "details": "Returns the address of the current owner."
      },
      "renounceOwnership()": {
        "details": "Leaves the contract without owner. It will not be possible to call `onlyOwner` functions anymore. Can only be called by the current owner. NOTE: Renouncing ownership will leave the contract without an owner, thereby removing any functionality that is only available to the owner."
      },
      "transferOwnership(address)": {
        "details": "Transfers ownership of the contract to a new account (`newOwner`). Can only be called by the current owner."
      }
    },
    "version": 1
  },
  "userdoc": {
    "kind": "user",
    "methods": {},
    "version": 1
  }
}