{
  "contractName": "PresaleWhitelist",
  "abi": [
    {
      "inputs": [],
      "stateMutability": "nonpayable",
      "type": "constructor"
    },
    {
      "anonymous": false,
      "inputs": [
        {
          "indexed": true,
          "internalType": "address",
          "name": "previousOwner",
          "type": "address"
        },
        {
          "indexed": true,
          "internalType": "address",
          "name": "newOwner",
          "type": "address"
        }
      ],
      "name": "OwnershipTransferred",
      "type": "event"
    },
    {
      "anonymous": false,
      "inputs": [
        {
          "indexed": false,
          "internalType": "address",
          "name": "addr",
          "type": "address"
        }
      ],
      "name": "WhitelistedAddressAdded",
      "type": "event"
    },
    {
      "anonymous": false,
      "inputs": [
        {
          "indexed": false,
          "internalType": "address",
          "name": "addr",
          "type": "address"
        }
      ],
      "name": "WhitelistedAddressRemoved",
      "type": "event"
    },
    {
      "inputs": [
        {
          "internalType": "address",
          "name": "",
          "type": "address"
        }
      ],
      "name": "whitelist",
      "outputs": [
        {
          "internalType": "bool",
          "name": "",
          "type": "bool"
        }
      ],
      "stateMutability": "view",
      "type": "function"
    },
    {
      "inputs": [],
      "name": "whitelistOperator",
      "outputs": [
        {
          "internalType": "address",
          "name": "",
          "type": "address"
        }
      ],
      "stateMutability": "view",
      "type": "function"
    },
    {
      "inputs": [],
      "name": "activateDeactivateWhitelist",
      "outputs": [],
      "stateMutability": "nonpayable",
      "type": "function"
    },
    {
      "inputs": [
        {
          "internalType": "address",
          "name": "addr",
          "type": "address"
        }
      ],
      "name": "addAddressToWhitelist",
      "outputs": [
        {
          "internalType": "bool",
          "name": "success",
          "type": "bool"
        }
      ],
      "stateMutability": "nonpayable",
      "type": "function"
    },
    {
      "inputs": [
        {
          "internalType": "address[]",
          "name": "addrs",
          "type": "address[]"
        }
      ],
      "name": "addAddressesToWhitelist",
      "outputs": [
        {
          "internalType": "bool",
          "name": "success",
          "type": "bool"
        }
      ],
      "stateMutability": "nonpayable",
      "type": "function"
    },
    {
      "inputs": [
        {
          "internalType": "address",
          "name": "addr",
          "type": "address"
        }
      ],
      "name": "removeAddressFromWhitelist",
      "outputs": [
        {
          "internalType": "bool",
          "name": "success",
          "type": "bool"
        }
      ],
      "stateMutability": "nonpayable",
      "type": "function"
    },
    {
      "inputs": [
        {
          "internalType": "address[]",
          "name": "addrs",
          "type": "address[]"
        }
      ],
      "name": "removeAddressesFromWhitelist",
      "outputs": [
        {
          "internalType": "bool",
          "name": "success",
          "type": "bool"
        }
      ],
      "stateMutability": "nonpayable",
      "type": "function"
    }
  ],
  "bytecode": "0x60806040526001600060146101000a81548160ff02191690831515021790555034801561002b57600080fd5b50600061003c6100df60201b60201c565b9050806000806101000a81548173ffffffffffffffffffffffffffffffffffffffff021916908373ffffffffffffffffffffffffffffffffffffffff1602179055508073ffffffffffffffffffffffffffffffffffffffff16600073ffffffffffffffffffffffffffffffffffffffff167f8be0079c531659141344cd1fd0a4f28419497f9722a3daafe3b4186f6b6457e060405160405180910390a3506100e7565b600033905090565b610a49806100f66000396000f3fe608060405234801561001057600080fd5b506004361061007d5760003560e01c806344c437821161005b57806344c43782146101755780637b9417c8146101a95780639b19251a14610203578063e2ec6ec31461025d5761007d565b806324953eaa14610082578063286dd3f5146101115780632c4bdc431461016b575b600080fd5b6100f96004803603602081101561009857600080fd5b81019080803590602001906401000000008111156100b557600080fd5b8201836020820111156100c757600080fd5b803590602001918460208302840111640100000000831117156100e957600080fd5b90919293919293905050506102ec565b60405180821515815260200191505060405180910390f35b6101536004803603602081101561012757600080fd5b81019080803573ffffffffffffffffffffffffffffffffffffffff169060200190929190505050610413565b60405180821515815260200191505060405180910390f35b6101736105de565b005b61017d6106d2565b604051808273ffffffffffffffffffffffffffffffffffffffff16815260200191505060405180910390f35b6101eb600480360360208110156101bf57600080fd5b81019080803573ffffffffffffffffffffffffffffffffffffffff1690602001909291905050506106fb565b60405180821515815260200191505060405180910390f35b6102456004803603602081101561021957600080fd5b81019080803573ffffffffffffffffffffffffffffffffffffffff1690602001909291905050506108c4565b60405180821515815260200191505060405180910390f35b6102d46004803603602081101561027357600080fd5b810190808035906020019064010000000081111561029057600080fd5b8201836020820111156102a257600080fd5b803590602001918460208302840111640100000000831117156102c457600080fd5b90919293919293905050506108e4565b60405180821515815260200191505060405180910390f35b60006102f6610a0b565b73ffffffffffffffffffffffffffffffffffffffff1660008054906101000a900473ffffffffffffffffffffffffffffffffffffffff1673ffffffffffffffffffffffffffffffffffffffff16146103b6576040517f08c379a00000000000000000000000000000000000000000000000000000000081526004018080602001828103825260208152602001807f4f776e61626c653a2063616c6c6572206973206e6f7420746865206f776e657281525060200191505060405180910390fd5b60005b8383905081101561040c576103f58484838181106103d357fe5b9050602002013573ffffffffffffffffffffffffffffffffffffffff16610413565b156103ff57600191505b80806001019150506103b9565b5092915050565b600061041d610a0b565b73ffffffffffffffffffffffffffffffffffffffff1660008054906101000a900473ffffffffffffffffffffffffffffffffffffffff1673ffffffffffffffffffffffffffffffffffffffff16146104dd576040517f08c379a00000000000000000000000000000000000000000000000000000000081526004018080602001828103825260208152602001807f4f776e61626c653a2063616c6c6572206973206e6f7420746865206f776e657281525060200191505060405180910390fd5b600160008373ffffffffffffffffffffffffffffffffffffffff1673ffffffffffffffffffffffffffffffffffffffff16815260200190815260200160002060009054906101000a900460ff16156105d9576000600160008473ffffffffffffffffffffffffffffffffffffffff1673ffffffffffffffffffffffffffffffffffffffff16815260200190815260200160002060006101000a81548160ff0219169083151502179055507ff1abf01a1043b7c244d128e8595cf0c1d10743b022b03a02dffd8ca3bf729f5a82604051808273ffffffffffffffffffffffffffffffffffffffff16815260200191505060405180910390a1600190505b919050565b6105e6610a0b565b73ffffffffffffffffffffffffffffffffffffffff1660008054906101000a900473ffffffffffffffffffffffffffffffffffffffff1673ffffffffffffffffffffffffffffffffffffffff16146106a6576040517f08c379a00000000000000000000000000000000000000000000000000000000081526004018080602001828103825260208152602001807f4f776e61626c653a2063616c6c6572206973206e6f7420746865206f776e657281525060200191505060405180910390fd5b600060149054906101000a900460ff1615600060146101000a81548160ff021916908315150217905550565b60008060009054906101000a900473ffffffffffffffffffffffffffffffffffffffff16905090565b6000610705610a0b565b73ffffffffffffffffffffffffffffffffffffffff1660008054906101000a900473ffffffffffffffffffffffffffffffffffffffff1673ffffffffffffffffffffffffffffffffffffffff16146107c5576040517f08c379a00000000000000000000000000000000000000000000000000000000081526004018080602001828103825260208152602001807f4f776e61626c653a2063616c6c6572206973206e6f7420746865206f776e657281525060200191505060405180910390fd5b600160008373ffffffffffffffffffffffffffffffffffffffff1673ffffffffffffffffffffffffffffffffffffffff16815260200190815260200160002060009054906101000a900460ff166108bf5760018060008473ffffffffffffffffffffffffffffffffffffffff1673ffffffffffffffffffffffffffffffffffffffff16815260200190815260200160002060006101000a81548160ff0219169083151502179055507fd1bba68c128cc3f427e5831b3c6f99f480b6efa6b9e80c757768f6124158cc3f82604051808273ffffffffffffffffffffffffffffffffffffffff16815260200191505060405180910390a1600190505b919050565b60016020528060005260406000206000915054906101000a900460ff1681565b60006108ee610a0b565b73ffffffffffffffffffffffffffffffffffffffff1660008054906101000a900473ffffffffffffffffffffffffffffffffffffffff1673ffffffffffffffffffffffffffffffffffffffff16146109ae576040517f08c379a00000000000000000000000000000000000000000000000000000000081526004018080602001828103825260208152602001807f4f776e61626c653a2063616c6c6572206973206e6f7420746865206f776e657281525060200191505060405180910390fd5b60005b83839050811015610a04576109ed8484838181106109cb57fe5b9050602002013573ffffffffffffffffffffffffffffffffffffffff166106fb565b156109f757600191505b80806001019150506109b1565b5092915050565b60003390509056fea26469706673582212204c3cf65d83707c5712dda17cb1be4297e74a7fa806aa08b52220a3d6ea24c61164736f6c63430007040033",
  "immutableReferences": {},
  "source": "// SPDX-License-Identifier: U-U-U-UPPPPP!!!\r\npragma solidity 0.7.4;\r\n\r\nimport \"./Context.sol\";\r\n \r\ncontract PresaleWhitelist is Context {\r\n    address private _owner;\r\n\r\n    bool active = true;\r\n\r\n    mapping(address => bool) public whitelist;\r\n\r\n    event WhitelistedAddressAdded(address addr);\r\n    event WhitelistedAddressRemoved(address addr);\r\n\r\n    event OwnershipTransferred(address indexed previousOwner, address indexed newOwner);\r\n\r\n    constructor () {\r\n        address msgSender = _msgSender();\r\n        _owner = msgSender;\r\n        emit OwnershipTransferred(address(0), msgSender);\r\n    }\r\n\r\n    function whitelistOperator() public view returns (address) {\r\n        return _owner;\r\n    }\r\n\r\n    modifier onlyOperator() {\r\n        require(_owner == _msgSender(), \"Ownable: caller is not the owner\");\r\n        _;\r\n    }\r\n\r\n    modifier onlyWhitelisted() {\r\n        if(active){\r\n            require(whitelist[msg.sender], 'not whitelisted');\r\n        }\r\n        _;\r\n    }\r\n\r\n    function activateDeactivateWhitelist() public onlyOperator {\r\n        active = !active;\r\n    }\r\n\r\n    function addAddressToWhitelist(address addr) public onlyOperator returns(bool success) {\r\n        if (!whitelist[addr]) {\r\n            whitelist[addr] = true;\r\n            emit WhitelistedAddressAdded(addr);\r\n            success = true;\r\n        }\r\n    }\r\n\r\n    function addAddressesToWhitelist(address[] calldata addrs) public onlyOperator returns(bool success) {\r\n        for (uint256 i = 0; i < addrs.length; i++) {\r\n            if (addAddressToWhitelist(addrs[i])) {\r\n                success = true;\r\n            }\r\n        }\r\n    }\r\n\r\n    function removeAddressFromWhitelist(address addr) onlyOperator public returns(bool success) {\r\n        if (whitelist[addr]) {\r\n            whitelist[addr] = false;\r\n            emit WhitelistedAddressRemoved(addr);\r\n            success = true;\r\n        }\r\n    }\r\n\r\n    function removeAddressesFromWhitelist(address[] calldata addrs) onlyOperator public returns(bool success) {\r\n        for (uint256 i = 0; i < addrs.length; i++) {\r\n            if (removeAddressFromWhitelist(addrs[i])) {\r\n                success = true;\r\n            }\r\n        }\r\n    }\r\n}",
  "sourcePath": "G:/projects/degen-protocol/SH33P-contracts/contracts/PresaleWhitelist.sol",
  "compiler": {
    "name": "solc",
    "version": "0.7.4+commit.3f05b770.Emscripten.clang"
  },
  "schemaVersion": "3.4.1",
  "updatedAt": "2022-01-17T07:34:42.646Z",
  "devdoc": {
    "kind": "dev",
    "methods": {},
    "version": 1
  },
  "userdoc": {
    "kind": "user",
    "methods": {},
    "version": 1
  }
}