{
  "contractName": "RootedTransferGate",
  "abi": [
    {
      "inputs": [
        {
          "internalType": "contract ILiquidityLockedERC20",
          "name": "_rootedToken",
          "type": "address"
        },
        {
          "internalType": "contract IPancakeRouter02",
          "name": "_pancakeRouter",
          "type": "address"
        }
      ],
      "stateMutability": "nonpayable",
      "type": "constructor"
    },
    {
      "anonymous": false,
      "inputs": [
        {
          "indexed": true,
          "internalType": "address",
          "name": "previousOwner",
          "type": "address"
        },
        {
          "indexed": true,
          "internalType": "address",
          "name": "newOwner",
          "type": "address"
        }
      ],
      "name": "OwnershipTransferred",
      "type": "event"
    },
    {
      "inputs": [],
      "name": "claimOwnership",
      "outputs": [],
      "stateMutability": "nonpayable",
      "type": "function"
    },
    {
      "inputs": [],
      "name": "dumpTaxDurationInSeconds",
      "outputs": [
        {
          "internalType": "uint256",
          "name": "",
          "type": "uint256"
        }
      ],
      "stateMutability": "view",
      "type": "function"
    },
    {
      "inputs": [],
      "name": "dumpTaxEndTimestamp",
      "outputs": [
        {
          "internalType": "uint256",
          "name": "",
          "type": "uint256"
        }
      ],
      "stateMutability": "view",
      "type": "function"
    },
    {
      "inputs": [],
      "name": "dumpTaxStartRate",
      "outputs": [
        {
          "internalType": "uint16",
          "name": "",
          "type": "uint16"
        }
      ],
      "stateMutability": "view",
      "type": "function"
    },
    {
      "inputs": [
        {
          "internalType": "address",
          "name": "",
          "type": "address"
        }
      ],
      "name": "feeControllers",
      "outputs": [
        {
          "internalType": "bool",
          "name": "",
          "type": "bool"
        }
      ],
      "stateMutability": "view",
      "type": "function"
    },
    {
      "inputs": [],
      "name": "feeSplitter",
      "outputs": [
        {
          "internalType": "address",
          "name": "",
          "type": "address"
        }
      ],
      "stateMutability": "view",
      "type": "function"
    },
    {
      "inputs": [],
      "name": "feesRate",
      "outputs": [
        {
          "internalType": "uint16",
          "name": "",
          "type": "uint16"
        }
      ],
      "stateMutability": "view",
      "type": "function"
    },
    {
      "inputs": [
        {
          "internalType": "address",
          "name": "",
          "type": "address"
        }
      ],
      "name": "freeParticipant",
      "outputs": [
        {
          "internalType": "bool",
          "name": "",
          "type": "bool"
        }
      ],
      "stateMutability": "view",
      "type": "function"
    },
    {
      "inputs": [
        {
          "internalType": "address",
          "name": "",
          "type": "address"
        }
      ],
      "name": "freeParticipantControllers",
      "outputs": [
        {
          "internalType": "bool",
          "name": "",
          "type": "bool"
        }
      ],
      "stateMutability": "view",
      "type": "function"
    },
    {
      "inputs": [],
      "name": "mainPool",
      "outputs": [
        {
          "internalType": "contract IPancakePair",
          "name": "",
          "type": "address"
        }
      ],
      "stateMutability": "view",
      "type": "function"
    },
    {
      "inputs": [],
      "name": "owner",
      "outputs": [
        {
          "internalType": "address",
          "name": "",
          "type": "address"
        }
      ],
      "stateMutability": "view",
      "type": "function"
    },
    {
      "inputs": [
        {
          "internalType": "address",
          "name": "",
          "type": "address"
        }
      ],
      "name": "poolsTaxRates",
      "outputs": [
        {
          "internalType": "uint16",
          "name": "",
          "type": "uint16"
        }
      ],
      "stateMutability": "view",
      "type": "function"
    },
    {
      "inputs": [
        {
          "internalType": "contract IERC20",
          "name": "token",
          "type": "address"
        }
      ],
      "name": "recoverTokens",
      "outputs": [],
      "stateMutability": "nonpayable",
      "type": "function"
    },
    {
      "inputs": [
        {
          "internalType": "address",
          "name": "newOwner",
          "type": "address"
        }
      ],
      "name": "transferOwnership",
      "outputs": [],
      "stateMutability": "nonpayable",
      "type": "function"
    },
    {
      "inputs": [],
      "name": "unrestricted",
      "outputs": [
        {
          "internalType": "bool",
          "name": "",
          "type": "bool"
        }
      ],
      "stateMutability": "view",
      "type": "function"
    },
    {
      "inputs": [
        {
          "internalType": "address",
          "name": "",
          "type": "address"
        }
      ],
      "name": "unrestrictedControllers",
      "outputs": [
        {
          "internalType": "bool",
          "name": "",
          "type": "bool"
        }
      ],
      "stateMutability": "view",
      "type": "function"
    },
    {
      "inputs": [
        {
          "internalType": "address",
          "name": "unrestrictedController",
          "type": "address"
        },
        {
          "internalType": "bool",
          "name": "allow",
          "type": "bool"
        }
      ],
      "name": "setUnrestrictedController",
      "outputs": [],
      "stateMutability": "nonpayable",
      "type": "function"
    },
    {
      "inputs": [
        {
          "internalType": "address",
          "name": "freeParticipantController",
          "type": "address"
        },
        {
          "internalType": "bool",
          "name": "allow",
          "type": "bool"
        }
      ],
      "name": "setFreeParticipantController",
      "outputs": [],
      "stateMutability": "nonpayable",
      "type": "function"
    },
    {
      "inputs": [
        {
          "internalType": "address",
          "name": "feeController",
          "type": "address"
        },
        {
          "internalType": "bool",
          "name": "allow",
          "type": "bool"
        }
      ],
      "name": "setFeeControllers",
      "outputs": [],
      "stateMutability": "nonpayable",
      "type": "function"
    },
    {
      "inputs": [
        {
          "internalType": "address",
          "name": "_feeSplitter",
          "type": "address"
        }
      ],
      "name": "setFeeSplitter",
      "outputs": [],
      "stateMutability": "nonpayable",
      "type": "function"
    },
    {
      "inputs": [
        {
          "internalType": "address",
          "name": "participant",
          "type": "address"
        },
        {
          "internalType": "bool",
          "name": "free",
          "type": "bool"
        }
      ],
      "name": "setFreeParticipant",
      "outputs": [],
      "stateMutability": "nonpayable",
      "type": "function"
    },
    {
      "inputs": [
        {
          "internalType": "bool",
          "name": "_unrestricted",
          "type": "bool"
        }
      ],
      "name": "setUnrestricted",
      "outputs": [],
      "stateMutability": "nonpayable",
      "type": "function"
    },
    {
      "inputs": [
        {
          "internalType": "contract IPancakePair",
          "name": "_mainPool",
          "type": "address"
        }
      ],
      "name": "setMainPool",
      "outputs": [],
      "stateMutability": "nonpayable",
      "type": "function"
    },
    {
      "inputs": [
        {
          "internalType": "address",
          "name": "pool",
          "type": "address"
        },
        {
          "internalType": "uint16",
          "name": "taxRate",
          "type": "uint16"
        }
      ],
      "name": "setPoolTaxRate",
      "outputs": [],
      "stateMutability": "nonpayable",
      "type": "function"
    },
    {
      "inputs": [
        {
          "internalType": "uint16",
          "name": "startTaxRate",
          "type": "uint16"
        },
        {
          "internalType": "uint256",
          "name": "durationInSeconds",
          "type": "uint256"
        }
      ],
      "name": "setDumpTax",
      "outputs": [],
      "stateMutability": "nonpayable",
      "type": "function"
    },
    {
      "inputs": [],
      "name": "getDumpTax",
      "outputs": [
        {
          "internalType": "uint256",
          "name": "",
          "type": "uint256"
        }
      ],
      "stateMutability": "view",
      "type": "function"
    },
    {
      "inputs": [
        {
          "internalType": "uint16",
          "name": "_feesRate",
          "type": "uint16"
        }
      ],
      "name": "setFees",
      "outputs": [],
      "stateMutability": "nonpayable",
      "type": "function"
    },
    {
      "inputs": [
        {
          "internalType": "address",
          "name": "",
          "type": "address"
        },
        {
          "internalType": "address",
          "name": "from",
          "type": "address"
        },
        {
          "internalType": "address",
          "name": "to",
          "type": "address"
        },
        {
          "internalType": "uint256",
          "name": "amount",
          "type": "uint256"
        }
      ],
      "name": "handleTransfer",
      "outputs": [
        {
          "internalType": "uint256",
          "name": "",
          "type": "uint256"
        }
      ],
      "stateMutability": "nonpayable",
      "type": "function"
    }
  ],
  "bytecode": "0x60e0604052336000806101000a81548173ffffffffffffffffffffffffffffffffffffffff021916908373ffffffffffffffffffffffffffffffffffffffff1602179055503480156200005157600080fd5b50604051620027ad380380620027ad833981810160405281019062000077919062000216565b8173ffffffffffffffffffffffffffffffffffffffff1660c08173ffffffffffffffffffffffffffffffffffffffff1660601b815250508073ffffffffffffffffffffffffffffffffffffffff1660808173ffffffffffffffffffffffffffffffffffffffff1660601b815250508073ffffffffffffffffffffffffffffffffffffffff1663c45a01556040518163ffffffff1660e01b815260040160206040518083038186803b1580156200012c57600080fd5b505afa15801562000141573d6000803e3d6000fd5b505050506040513d601f19601f82011682018060405250810190620001679190620001ea565b73ffffffffffffffffffffffffffffffffffffffff1660a08173ffffffffffffffffffffffffffffffffffffffff1660601b81525050505062000301565b600081519050620001b681620002b3565b92915050565b600081519050620001cd81620002cd565b92915050565b600081519050620001e481620002e7565b92915050565b600060208284031215620001fd57600080fd5b60006200020d84828501620001a5565b91505092915050565b600080604083850312156200022a57600080fd5b60006200023a85828601620001bc565b92505060206200024d85828601620001d3565b9150509250929050565b6000620002648262000293565b9050919050565b6000620002788262000257565b9050919050565b60006200028c8262000257565b9050919050565b600073ffffffffffffffffffffffffffffffffffffffff82169050919050565b620002be8162000257565b8114620002ca57600080fd5b50565b620002d8816200026b565b8114620002e457600080fd5b50565b620002f2816200027f565b8114620002fe57600080fd5b50565b60805160601c60a05160601c60c05160601c6124806200032d60003980610e9b525050506124806000f3fe608060405234801561001057600080fd5b50600436106101c45760003560e01c80638327eb87116100f9578063b40e180b11610097578063e30b472f11610071578063e30b472f146104b9578063e4eebe82146104e9578063f2fde38b14610505578063f77a4ba014610521576101c4565b8063b40e180b14610463578063c380213e14610481578063ca1123c21461049d576101c4565b80639aa3d4bd116100d35780639aa3d4bd146103ef5780639c8c247c1461040d578063a5a302d314610429578063b17fb9d614610447576101c4565b80638327eb87146103855780638da5cb5b146103a157806395c47d06146103bf576101c4565b80633e2a196e116101665780634e71e0c8116101405780634e71e0c8146102fd5780636052970c1461030757806368fcfc47146103255780637da6b49614610355576101c4565b80633e2a196e146102a757806345d63cd3146102c3578063467ee03c146102df576101c4565b806316114acd116101a257806316114acd1461023357806326278f861461024f57806329dbecb11461026d57806339a8c0fa14610289576101c4565b806308a7595b146101c9578063127043c3146101f957806313b0dc9814610217575b600080fd5b6101e360048036038101906101de9190611d90565b610551565b6040516101f0919061218c565b60405180910390f35b610201610571565b60405161020e919061228b565b60405180910390f35b610231600480360381019061022c9190611f38565b610585565b005b61024d60048036038101906102489190611ebd565b6106e1565b005b610257610883565b604051610264919061218c565b60405180910390f35b61028760048036038101906102829190611ee6565b610896565b005b61029161099b565b60405161029e91906122a6565b60405180910390f35b6102c160048036038101906102bc9190611e1c565b6109f6565b005b6102dd60048036038101906102d89190611e1c565b610b12565b005b6102e7610c2e565b6040516102f491906122a6565b60405180910390f35b610305610c34565b005b61030f610d8c565b60405161031c9190612171565b60405180910390f35b61033f600480360381019061033a9190611d90565b610db2565b60405161034c919061228b565b60405180910390f35b61036f600480360381019061036a9190611d90565b610dd3565b60405161037c919061218c565b60405180910390f35b61039f600480360381019061039a9190611e94565b610df3565b005b6103a9610f4c565b6040516103b69190612171565b60405180910390f35b6103d960048036038101906103d49190611db9565b610f70565b6040516103e691906122a6565b60405180910390f35b6103f7611112565b60405161040491906122a6565b60405180910390f35b61042760048036038101906104229190611e1c565b611118565b005b610431611255565b60405161043e91906121a7565b60405180910390f35b610461600480360381019061045c9190611d90565b61127b565b005b61046b611380565b604051610478919061228b565b60405180910390f35b61049b60048036038101906104969190611e1c565b611394565b005b6104b760048036038101906104b29190611f0f565b6114b0565b005b6104d360048036038101906104ce9190611d90565b6115fb565b6040516104e0919061218c565b60405180910390f35b61050360048036038101906104fe9190611e58565b61161b565b005b61051f600480360381019061051a9190611d90565b611783565b005b61053b60048036038101906105369190611d90565b611888565b604051610548919061218c565b60405180910390f35b60046020528060005260406000206000915054906101000a900460ff1681565b600760149054906101000a900461ffff1681565b600360003373ffffffffffffffffffffffffffffffffffffffff1673ffffffffffffffffffffffffffffffffffffffff16815260200190815260200160002060009054906101000a900460ff1680610628575060008054906101000a900473ffffffffffffffffffffffffffffffffffffffff1673ffffffffffffffffffffffffffffffffffffffff163373ffffffffffffffffffffffffffffffffffffffff16145b610667576040517f08c379a000000000000000000000000000000000000000000000000000000000815260040161065e9061220b565b60405180910390fd5b6127108261ffff1611156106b0576040517f08c379a00000000000000000000000000000000000000000000000000000000081526004016106a79061222b565b60405180910390fd5b81600860146101000a81548161ffff021916908361ffff16021790555080600981905550804201600a819055505050565b60008054906101000a900473ffffffffffffffffffffffffffffffffffffffff1673ffffffffffffffffffffffffffffffffffffffff163373ffffffffffffffffffffffffffffffffffffffff16146107a2576040517f08c379a000000000000000000000000000000000000000000000000000000000815260040180806020018281038252600a8152602001807f4f776e6572206f6e6c790000000000000000000000000000000000000000000081525060200191505060405180910390fd5b6107ab816118a8565b6107b457600080fd5b610880338273ffffffffffffffffffffffffffffffffffffffff166370a08231306040518263ffffffff1660e01b8152600401808273ffffffffffffffffffffffffffffffffffffffff16815260200191505060206040518083038186803b15801561081f57600080fd5b505afa158015610833573d6000803e3d6000fd5b505050506040513d602081101561084957600080fd5b81019080805190602001909291905050508373ffffffffffffffffffffffffffffffffffffffff166118e19092919063ffffffff16565b50565b600160149054906101000a900460ff1681565b60008054906101000a900473ffffffffffffffffffffffffffffffffffffffff1673ffffffffffffffffffffffffffffffffffffffff163373ffffffffffffffffffffffffffffffffffffffff1614610957576040517f08c379a000000000000000000000000000000000000000000000000000000000815260040180806020018281038252600a8152602001807f4f776e6572206f6e6c790000000000000000000000000000000000000000000081525060200191505060405180910390fd5b80600860006101000a81548173ffffffffffffffffffffffffffffffffffffffff021916908373ffffffffffffffffffffffffffffffffffffffff16021790555050565b6000600a5442106109af57600090506109f3565b670de0b6b3a7640000600954670de0b6b3a764000042600a5403600860149054906101000a900461ffff1661ffff160202816109e757fe5b04816109ef57fe5b0490505b90565b60008054906101000a900473ffffffffffffffffffffffffffffffffffffffff1673ffffffffffffffffffffffffffffffffffffffff163373ffffffffffffffffffffffffffffffffffffffff1614610ab7576040517f08c379a000000000000000000000000000000000000000000000000000000000815260040180806020018281038252600a8152602001807f4f776e6572206f6e6c790000000000000000000000000000000000000000000081525060200191505060405180910390fd5b80600360008473ffffffffffffffffffffffffffffffffffffffff1673ffffffffffffffffffffffffffffffffffffffff16815260200190815260200160002060006101000a81548160ff0219169083151502179055505050565b60008054906101000a900473ffffffffffffffffffffffffffffffffffffffff1673ffffffffffffffffffffffffffffffffffffffff163373ffffffffffffffffffffffffffffffffffffffff1614610bd3576040517f08c379a000000000000000000000000000000000000000000000000000000000815260040180806020018281038252600a8152602001807f4f776e6572206f6e6c790000000000000000000000000000000000000000000081525060200191505060405180910390fd5b80600260008473ffffffffffffffffffffffffffffffffffffffff1673ffffffffffffffffffffffffffffffffffffffff16815260200190815260200160002060006101000a81548160ff0219169083151502179055505050565b600a5481565b3373ffffffffffffffffffffffffffffffffffffffff16600160009054906101000a900473ffffffffffffffffffffffffffffffffffffffff1673ffffffffffffffffffffffffffffffffffffffff1614610c8e57600080fd5b6000600160006101000a81548173ffffffffffffffffffffffffffffffffffffffff021916908373ffffffffffffffffffffffffffffffffffffffff1602179055503373ffffffffffffffffffffffffffffffffffffffff1660008054906101000a900473ffffffffffffffffffffffffffffffffffffffff1673ffffffffffffffffffffffffffffffffffffffff167f8be0079c531659141344cd1fd0a4f28419497f9722a3daafe3b4186f6b6457e060405160405180910390a3336000806101000a81548173ffffffffffffffffffffffffffffffffffffffff021916908373ffffffffffffffffffffffffffffffffffffffff160217905550565b600760009054906101000a900473ffffffffffffffffffffffffffffffffffffffff1681565b60066020528060005260406000206000915054906101000a900461ffff1681565b60026020528060005260406000206000915054906101000a900460ff1681565b600260003373ffffffffffffffffffffffffffffffffffffffff1673ffffffffffffffffffffffffffffffffffffffff16815260200190815260200160002060009054906101000a900460ff16610e7f576040517f08c379a0000000000000000000000000000000000000000000000000000000008152600401610e769061224b565b60405180910390fd5b80600160146101000a81548160ff0219169083151502179055507f000000000000000000000000000000000000000000000000000000000000000073ffffffffffffffffffffffffffffffffffffffff1663449113f2600860009054906101000a900473ffffffffffffffffffffffffffffffffffffffff1683156040518363ffffffff1660e01b8152600401610f179291906121c2565b600060405180830381600087803b158015610f3157600080fd5b505af1158015610f45573d6000803e3d6000fd5b5050505050565b60008054906101000a900473ffffffffffffffffffffffffffffffffffffffff1681565b6000600160149054906101000a900460ff1680610fd65750600560008573ffffffffffffffffffffffffffffffffffffffff1673ffffffffffffffffffffffffffffffffffffffff16815260200190815260200160002060009054906101000a900460ff165b8061102a5750600560008473ffffffffffffffffffffffffffffffffffffffff1673ffffffffffffffffffffffffffffffffffffffff16815260200190815260200160002060009054906101000a900460ff165b15611038576000905061110a565b6000600660008573ffffffffffffffffffffffffffffffffffffffff1673ffffffffffffffffffffffffffffffffffffffff16815260200190815260200160002060009054906101000a900461ffff169050600760149054906101000a900461ffff1661ffff168161ffff1611156110e45760008161ffff166110b961099b565b0190506127108110156110d957612710818502816110d357fe5b046110db565b835b9250505061110a565b612710600760149054906101000a900461ffff1661ffff1684028161110557fe5b049150505b949350505050565b60095481565b60008054906101000a900473ffffffffffffffffffffffffffffffffffffffff1673ffffffffffffffffffffffffffffffffffffffff163373ffffffffffffffffffffffffffffffffffffffff1614806111bb5750600460003373ffffffffffffffffffffffffffffffffffffffff1673ffffffffffffffffffffffffffffffffffffffff16815260200190815260200160002060009054906101000a900460ff165b6111fa576040517f08c379a00000000000000000000000000000000000000000000000000000000081526004016111f19061226b565b60405180910390fd5b80600560008473ffffffffffffffffffffffffffffffffffffffff1673ffffffffffffffffffffffffffffffffffffffff16815260200190815260200160002060006101000a81548160ff0219169083151502179055505050565b600860009054906101000a900473ffffffffffffffffffffffffffffffffffffffff1681565b60008054906101000a900473ffffffffffffffffffffffffffffffffffffffff1673ffffffffffffffffffffffffffffffffffffffff163373ffffffffffffffffffffffffffffffffffffffff161461133c576040517f08c379a000000000000000000000000000000000000000000000000000000000815260040180806020018281038252600a8152602001807f4f776e6572206f6e6c790000000000000000000000000000000000000000000081525060200191505060405180910390fd5b80600760006101000a81548173ffffffffffffffffffffffffffffffffffffffff021916908373ffffffffffffffffffffffffffffffffffffffff16021790555050565b600860149054906101000a900461ffff1681565b60008054906101000a900473ffffffffffffffffffffffffffffffffffffffff1673ffffffffffffffffffffffffffffffffffffffff163373ffffffffffffffffffffffffffffffffffffffff1614611455576040517f08c379a000000000000000000000000000000000000000000000000000000000815260040180806020018281038252600a8152602001807f4f776e6572206f6e6c790000000000000000000000000000000000000000000081525060200191505060405180910390fd5b80600460008473ffffffffffffffffffffffffffffffffffffffff1673ffffffffffffffffffffffffffffffffffffffff16815260200190815260200160002060006101000a81548160ff0219169083151502179055505050565b600360003373ffffffffffffffffffffffffffffffffffffffff1673ffffffffffffffffffffffffffffffffffffffff16815260200190815260200160002060009054906101000a900460ff1680611553575060008054906101000a900473ffffffffffffffffffffffffffffffffffffffff1673ffffffffffffffffffffffffffffffffffffffff163373ffffffffffffffffffffffffffffffffffffffff16145b611592576040517f08c379a00000000000000000000000000000000000000000000000000000000081526004016115899061220b565b60405180910390fd5b6127108161ffff1611156115db576040517f08c379a00000000000000000000000000000000000000000000000000000000081526004016115d2906121eb565b60405180910390fd5b80600760146101000a81548161ffff021916908361ffff16021790555050565b60036020528060005260406000206000915054906101000a900460ff1681565b60008054906101000a900473ffffffffffffffffffffffffffffffffffffffff1673ffffffffffffffffffffffffffffffffffffffff163373ffffffffffffffffffffffffffffffffffffffff16146116dc576040517f08c379a000000000000000000000000000000000000000000000000000000000815260040180806020018281038252600a8152602001807f4f776e6572206f6e6c790000000000000000000000000000000000000000000081525060200191505060405180910390fd5b6127108161ffff161115611725576040517f08c379a000000000000000000000000000000000000000000000000000000000815260040161171c906121eb565b60405180910390fd5b80600660008473ffffffffffffffffffffffffffffffffffffffff1673ffffffffffffffffffffffffffffffffffffffff16815260200190815260200160002060006101000a81548161ffff021916908361ffff1602179055505050565b60008054906101000a900473ffffffffffffffffffffffffffffffffffffffff1673ffffffffffffffffffffffffffffffffffffffff163373ffffffffffffffffffffffffffffffffffffffff1614611844576040517f08c379a000000000000000000000000000000000000000000000000000000000815260040180806020018281038252600a8152602001807f4f776e6572206f6e6c790000000000000000000000000000000000000000000081525060200191505060405180910390fd5b80600160006101000a81548173ffffffffffffffffffffffffffffffffffffffff021916908373ffffffffffffffffffffffffffffffffffffffff16021790555050565b60056020528060005260406000206000915054906101000a900460ff1681565b60003073ffffffffffffffffffffffffffffffffffffffff168273ffffffffffffffffffffffffffffffffffffffff1614159050919050565b61197e8363a9059cbb60e01b8484604051602401808373ffffffffffffffffffffffffffffffffffffffff16815260200182815260200192505050604051602081830303815290604052907bffffffffffffffffffffffffffffffffffffffffffffffffffffffff19166020820180517bffffffffffffffffffffffffffffffffffffffffffffffffffffffff8381831617835250505050611983565b505050565b60606119e5826040518060400160405280602081526020017f5361666545524332303a206c6f772d6c6576656c2063616c6c206661696c65648152508573ffffffffffffffffffffffffffffffffffffffff16611a729092919063ffffffff16565b9050600081511115611a6d57808060200190516020811015611a0657600080fd5b8101908080519060200190929190505050611a6c576040517f08c379a000000000000000000000000000000000000000000000000000000000815260040180806020018281038252602a815260200180612421602a913960400191505060405180910390fd5b5b505050565b6060611a818484600085611a8a565b90509392505050565b606082471015611ae5576040517f08c379a00000000000000000000000000000000000000000000000000000000081526004018080602001828103825260268152602001806123fb6026913960400191505060405180910390fd5b611aee85611c33565b611b60576040517f08c379a000000000000000000000000000000000000000000000000000000000815260040180806020018281038252601d8152602001807f416464726573733a2063616c6c20746f206e6f6e2d636f6e747261637400000081525060200191505060405180910390fd5b600060608673ffffffffffffffffffffffffffffffffffffffff1685876040518082805190602001908083835b60208310611bb05780518252602082019150602081019050602083039250611b8d565b6001836020036101000a03801982511681845116808217855250505050505090500191505060006040518083038185875af1925050503d8060008114611c12576040519150601f19603f3d011682016040523d82523d6000602084013e611c17565b606091505b5091509150611c27828286611c46565b92505050949350505050565b600080823b905060008111915050919050565b60608315611c5657829050611d0b565b600083511115611c695782518084602001fd5b816040517f08c379a00000000000000000000000000000000000000000000000000000000081526004018080602001828103825283818151815260200191508051906020019080838360005b83811015611cd0578082015181840152602081019050611cb5565b50505050905090810190601f168015611cfd5780820380516001836020036101000a031916815260200191505b509250505060405180910390fd5b9392505050565b600081359050611d2181612370565b92915050565b600081359050611d3681612387565b92915050565b600081359050611d4b8161239e565b92915050565b600081359050611d60816123b5565b92915050565b600081359050611d75816123cc565b92915050565b600081359050611d8a816123e3565b92915050565b600060208284031215611da257600080fd5b6000611db084828501611d12565b91505092915050565b60008060008060808587031215611dcf57600080fd5b6000611ddd87828801611d12565b9450506020611dee87828801611d12565b9350506040611dff87828801611d12565b9250506060611e1087828801611d7b565b91505092959194509250565b60008060408385031215611e2f57600080fd5b6000611e3d85828601611d12565b9250506020611e4e85828601611d27565b9150509250929050565b60008060408385031215611e6b57600080fd5b6000611e7985828601611d12565b9250506020611e8a85828601611d66565b9150509250929050565b600060208284031215611ea657600080fd5b6000611eb484828501611d27565b91505092915050565b600060208284031215611ecf57600080fd5b6000611edd84828501611d3c565b91505092915050565b600060208284031215611ef857600080fd5b6000611f0684828501611d51565b91505092915050565b600060208284031215611f2157600080fd5b6000611f2f84828501611d66565b91505092915050565b60008060408385031215611f4b57600080fd5b6000611f5985828601611d66565b9250506020611f6a85828601611d7b565b9150509250929050565b611f7d816122d2565b82525050565b611f8c816122e4565b82525050565b611f9b8161234c565b82525050565b6000611fae602b836122c1565b91507f4665652072617465206d757374206265206c657373207468616e206f7220657160008301527f75616c20746f20313030250000000000000000000000000000000000000000006020830152604082019050919050565b6000612014601e836122c1565b91507f4e6f7420616e206f776e6572206f722066656520636f6e74726f6c6c657200006000830152602082019050919050565b60006120546030836122c1565b91507f44756d70207461782072617465206d757374206265206c657373207468616e2060008301527f6f7220657175616c20746f2031303025000000000000000000000000000000006020830152604082019050919050565b60006120ba601e836122c1565b91507f4e6f7420616e20756e7265737472696374656420636f6e74726f6c6c657200006000830152602082019050919050565b60006120fa602b836122c1565b91507f4e6f7420616e206f776e6572206f722066726565207061727469636970616e7460008301527f20636f6e74726f6c6c65720000000000000000000000000000000000000000006020830152604082019050919050565b61215c81612314565b82525050565b61216b81612342565b82525050565b60006020820190506121866000830184611f74565b92915050565b60006020820190506121a16000830184611f83565b92915050565b60006020820190506121bc6000830184611f92565b92915050565b60006040820190506121d76000830185611f92565b6121e46020830184611f83565b9392505050565b6000602082019050818103600083015261220481611fa1565b9050919050565b6000602082019050818103600083015261222481612007565b9050919050565b6000602082019050818103600083015261224481612047565b9050919050565b60006020820190508181036000830152612264816120ad565b9050919050565b60006020820190508181036000830152612284816120ed565b9050919050565b60006020820190506122a06000830184612153565b92915050565b60006020820190506122bb6000830184612162565b92915050565b600082825260208201905092915050565b60006122dd82612322565b9050919050565b60008115159050919050565b60006122fb826122d2565b9050919050565b600061230d826122d2565b9050919050565b600061ffff82169050919050565b600073ffffffffffffffffffffffffffffffffffffffff82169050919050565b6000819050919050565b60006123578261235e565b9050919050565b600061236982612322565b9050919050565b612379816122d2565b811461238457600080fd5b50565b612390816122e4565b811461239b57600080fd5b50565b6123a7816122f0565b81146123b257600080fd5b50565b6123be81612302565b81146123c957600080fd5b50565b6123d581612314565b81146123e057600080fd5b50565b6123ec81612342565b81146123f757600080fd5b5056fe416464726573733a20696e73756666696369656e742062616c616e636520666f722063616c6c5361666545524332303a204552433230206f7065726174696f6e20646964206e6f742073756363656564a2646970667358221220a31084fd4dac853942a7e1ec503ec2412cc0fb73aeee05fece1460092272c9d564736f6c63430007040033",
  "immutableReferences": {
    "3803": [
      {
        "length": 32,
        "start": 3739
      }
    ]
  },
  "source": "// SPDX-License-Identifier: U-U-U-UPPPPP!!!\r\npragma solidity ^0.7.4;\r\npragma experimental ABIEncoderV2;\r\n\r\n/* ROOTKIT:\r\nA transfer gate (GatedERC20) for use with upTokens\r\n\r\nIt:\r\n    Allows customization of tax and burn rates\r\n    Allows transfer to/from approved pools\r\n    Disallows transfer to/from non-approved pools\r\n    Allows transfer to/from anywhere else\r\n    Allows for free transfers if permission granted\r\n    Allows for unrestricted transfers if permission granted\r\n    Allows for a pool to have an extra tax\r\n    Allows for a temporary declining tax\r\n*/\r\n\r\nimport \"./Address.sol\";\r\nimport \"./IPancakeFactory.sol\";\r\nimport \"./IERC20.sol\";\r\nimport \"./IPancakePair.sol\";\r\nimport \"./ILiquidityLockedERC20.sol\";\r\nimport \"./IPancakeRouter02.sol\";\r\nimport \"./SafeERC20.sol\";\r\nimport \"./SafeMath.sol\";\r\nimport \"./TokensRecoverable.sol\";\r\nimport \"./ITransferGate.sol\";\r\n\r\ncontract RootedTransferGate is TokensRecoverable, ITransferGate\r\n{   \r\n    using Address for address;\r\n    using SafeERC20 for IERC20;\r\n    using SafeMath for uint256;\r\n\r\n    IPancakeRouter02 immutable internal pancakeRouter;\r\n    IPancakeFactory immutable internal pancakeFactory;\r\n    ILiquidityLockedERC20 immutable internal rootedToken;\r\n\r\n    bool public unrestricted;\r\n    mapping (address => bool) public unrestrictedControllers;\r\n    mapping (address => bool) public feeControllers;\r\n    mapping (address => bool) public freeParticipantControllers;\r\n    mapping (address => bool) public freeParticipant;\r\n    mapping (address => uint16) public poolsTaxRates;\r\n\r\n    address public override feeSplitter;\r\n    uint16 public feesRate;\r\n    IPancakePair public mainPool;\r\n   \r\n    uint16 public dumpTaxStartRate; \r\n    uint256 public dumpTaxDurationInSeconds;\r\n    uint256 public dumpTaxEndTimestamp;\r\n\r\n    constructor(ILiquidityLockedERC20 _rootedToken, IPancakeRouter02 _pancakeRouter)\r\n    {\r\n        rootedToken = _rootedToken;\r\n        pancakeRouter = _pancakeRouter;\r\n        pancakeFactory = IPancakeFactory(_pancakeRouter.factory());\r\n    }\r\n\r\n    function setUnrestrictedController(address unrestrictedController, bool allow) public ownerOnly()\r\n    {\r\n        unrestrictedControllers[unrestrictedController] = allow;\r\n    }\r\n\r\n    function setFreeParticipantController(address freeParticipantController, bool allow) public ownerOnly()\r\n    {\r\n        freeParticipantControllers[freeParticipantController] = allow;\r\n    }\r\n\r\n    function setFeeControllers(address feeController, bool allow) public ownerOnly()\r\n    {\r\n        feeControllers[feeController] = allow;\r\n    }\r\n\r\n    function setFeeSplitter(address _feeSplitter) public ownerOnly()\r\n    {\r\n        feeSplitter = _feeSplitter;\r\n    }\r\n\r\n    function setFreeParticipant(address participant, bool free) public\r\n    {\r\n        require (msg.sender == owner || freeParticipantControllers[msg.sender], \"Not an owner or free participant controller\");\r\n        freeParticipant[participant] = free;\r\n    }\r\n\r\n    function setUnrestricted(bool _unrestricted) public\r\n    {\r\n        require (unrestrictedControllers[msg.sender], \"Not an unrestricted controller\");\r\n        unrestricted = _unrestricted;\r\n        rootedToken.setLiquidityLock(mainPool, !_unrestricted);\r\n    }    \r\n\r\n    function setMainPool(IPancakePair _mainPool) public ownerOnly()\r\n    {\r\n        mainPool = _mainPool;\r\n    }\r\n\r\n     function setPoolTaxRate(address pool, uint16 taxRate) public ownerOnly()\r\n    {\r\n        require (taxRate <= 10000, \"Fee rate must be less than or equal to 100%\");\r\n        poolsTaxRates[pool] = taxRate;        \r\n    }\r\n\r\n    function setDumpTax(uint16 startTaxRate, uint256 durationInSeconds) public\r\n    {\r\n        require (feeControllers[msg.sender] || msg.sender == owner, \"Not an owner or fee controller\");\r\n        require (startTaxRate <= 10000, \"Dump tax rate must be less than or equal to 100%\");\r\n\r\n        dumpTaxStartRate = startTaxRate;\r\n        dumpTaxDurationInSeconds = durationInSeconds;\r\n        dumpTaxEndTimestamp = block.timestamp + durationInSeconds;\r\n    }\r\n\r\n    function getDumpTax() public view returns (uint256)\r\n    {\r\n        if (block.timestamp >= dumpTaxEndTimestamp) \r\n        {\r\n            return 0;\r\n        }       \r\n        \r\n        return dumpTaxStartRate*(dumpTaxEndTimestamp - block.timestamp)*1e18/dumpTaxDurationInSeconds/1e18;\r\n    }\r\n\r\n    function setFees(uint16 _feesRate) public\r\n    {\r\n        require (feeControllers[msg.sender] || msg.sender == owner, \"Not an owner or fee controller\");\r\n        require (_feesRate <= 10000, \"Fee rate must be less than or equal to 100%\");\r\n        feesRate = _feesRate;\r\n    }\r\n\r\n    function handleTransfer(address, address from, address to, uint256 amount) public virtual override returns (uint256)\r\n    {\r\n        if (unrestricted || freeParticipant[from] || freeParticipant[to]) \r\n        {\r\n            return 0;\r\n        }\r\n\r\n        uint16 poolTaxRate = poolsTaxRates[to];\r\n\r\n        if (poolTaxRate > feesRate) \r\n        {\r\n            uint256 totalTax = getDumpTax() + poolTaxRate;\r\n            return totalTax >= 10000 ? amount : amount * totalTax / 10000;\r\n        }\r\n\r\n        return amount * feesRate / 10000;\r\n    }   \r\n}",
  "sourcePath": "G:/projects/degen-protocol/SH33P-contracts/contracts/RootedTransferGate.sol",
  "compiler": {
    "name": "solc",
    "version": "0.7.4+commit.3f05b770.Emscripten.clang"
  },
  "schemaVersion": "3.4.1",
  "updatedAt": "2022-01-17T07:36:09.614Z",
  "devdoc": {
    "kind": "dev",
    "methods": {},
    "version": 1
  },
  "userdoc": {
    "kind": "user",
    "methods": {},
    "version": 1
  }
}