{
  "contractName": "Vault",
  "abi": [
    {
      "inputs": [
        {
          "internalType": "address",
          "name": "_tokenAddress",
          "type": "address"
        },
        {
          "internalType": "uint8",
          "name": "_dripRate",
          "type": "uint8"
        }
      ],
      "stateMutability": "nonpayable",
      "type": "constructor"
    },
    {
      "anonymous": false,
      "inputs": [
        {
          "indexed": true,
          "internalType": "address",
          "name": "previousOwner",
          "type": "address"
        },
        {
          "indexed": true,
          "internalType": "address",
          "name": "newOwner",
          "type": "address"
        }
      ],
      "name": "OwnershipTransferred",
      "type": "event"
    },
    {
      "anonymous": false,
      "inputs": [
        {
          "indexed": true,
          "internalType": "address",
          "name": "_user",
          "type": "address"
        },
        {
          "indexed": false,
          "internalType": "uint256",
          "name": "_compounded",
          "type": "uint256"
        },
        {
          "indexed": false,
          "internalType": "uint256",
          "name": "tokensMinted",
          "type": "uint256"
        },
        {
          "indexed": false,
          "internalType": "uint256",
          "name": "timestamp",
          "type": "uint256"
        }
      ],
      "name": "onCompound",
      "type": "event"
    },
    {
      "anonymous": false,
      "inputs": [
        {
          "indexed": true,
          "internalType": "address",
          "name": "_user",
          "type": "address"
        },
        {
          "indexed": false,
          "internalType": "uint256",
          "name": "_deposited",
          "type": "uint256"
        },
        {
          "indexed": false,
          "internalType": "uint256",
          "name": "tokensMinted",
          "type": "uint256"
        },
        {
          "indexed": false,
          "internalType": "uint256",
          "name": "timestamp",
          "type": "uint256"
        }
      ],
      "name": "onDeposit",
      "type": "event"
    },
    {
      "anonymous": false,
      "inputs": [
        {
          "indexed": true,
          "internalType": "address",
          "name": "from",
          "type": "address"
        },
        {
          "indexed": false,
          "internalType": "uint256",
          "name": "amount",
          "type": "uint256"
        },
        {
          "indexed": false,
          "internalType": "uint256",
          "name": "timestamp",
          "type": "uint256"
        }
      ],
      "name": "onDonate",
      "type": "event"
    },
    {
      "anonymous": false,
      "inputs": [
        {
          "indexed": true,
          "internalType": "address",
          "name": "from",
          "type": "address"
        },
        {
          "indexed": false,
          "internalType": "uint256",
          "name": "amount",
          "type": "uint256"
        },
        {
          "indexed": false,
          "internalType": "uint256",
          "name": "timestamp",
          "type": "uint256"
        }
      ],
      "name": "onDonateBNB",
      "type": "event"
    },
    {
      "anonymous": false,
      "inputs": [
        {
          "indexed": false,
          "internalType": "uint256",
          "name": "balance",
          "type": "uint256"
        },
        {
          "indexed": false,
          "internalType": "uint256",
          "name": "timestamp",
          "type": "uint256"
        }
      ],
      "name": "onRebase",
      "type": "event"
    },
    {
      "anonymous": false,
      "inputs": [
        {
          "indexed": false,
          "internalType": "uint256",
          "name": "_pool",
          "type": "uint256"
        },
        {
          "indexed": false,
          "internalType": "uint256",
          "name": "_divs",
          "type": "uint256"
        },
        {
          "indexed": false,
          "internalType": "uint256",
          "name": "timestamp",
          "type": "uint256"
        }
      ],
      "name": "onSetFeeSplit",
      "type": "event"
    },
    {
      "anonymous": false,
      "inputs": [
        {
          "indexed": true,
          "internalType": "address",
          "name": "from",
          "type": "address"
        },
        {
          "indexed": true,
          "internalType": "address",
          "name": "to",
          "type": "address"
        },
        {
          "indexed": false,
          "internalType": "uint256",
          "name": "tokens",
          "type": "uint256"
        },
        {
          "indexed": false,
          "internalType": "uint256",
          "name": "timestamp",
          "type": "uint256"
        }
      ],
      "name": "onTransfer",
      "type": "event"
    },
    {
      "anonymous": false,
      "inputs": [
        {
          "indexed": true,
          "internalType": "address",
          "name": "_user",
          "type": "address"
        },
        {
          "indexed": false,
          "internalType": "uint256",
          "name": "invested",
          "type": "uint256"
        },
        {
          "indexed": false,
          "internalType": "uint256",
          "name": "tokens",
          "type": "uint256"
        },
        {
          "indexed": false,
          "internalType": "uint256",
          "name": "soldTokens",
          "type": "uint256"
        },
        {
          "indexed": false,
          "internalType": "uint256",
          "name": "timestamp",
          "type": "uint256"
        }
      ],
      "name": "onUpdate",
      "type": "event"
    },
    {
      "anonymous": false,
      "inputs": [
        {
          "indexed": true,
          "internalType": "address",
          "name": "_user",
          "type": "address"
        },
        {
          "indexed": false,
          "internalType": "uint256",
          "name": "_liquidated",
          "type": "uint256"
        },
        {
          "indexed": false,
          "internalType": "uint256",
          "name": "tokensEarned",
          "type": "uint256"
        },
        {
          "indexed": false,
          "internalType": "uint256",
          "name": "timestamp",
          "type": "uint256"
        }
      ],
      "name": "onWithdraw",
      "type": "event"
    },
    {
      "anonymous": false,
      "inputs": [
        {
          "indexed": true,
          "internalType": "address",
          "name": "_user",
          "type": "address"
        },
        {
          "indexed": false,
          "internalType": "uint256",
          "name": "_withdrawn",
          "type": "uint256"
        },
        {
          "indexed": false,
          "internalType": "uint256",
          "name": "timestamp",
          "type": "uint256"
        }
      ],
      "name": "onWithdraw",
      "type": "event"
    },
    {
      "inputs": [],
      "name": "bnbReceiver",
      "outputs": [
        {
          "internalType": "address payable",
          "name": "",
          "type": "address"
        }
      ],
      "stateMutability": "view",
      "type": "function"
    },
    {
      "inputs": [],
      "name": "buybackToken",
      "outputs": [
        {
          "internalType": "contract IERC20",
          "name": "",
          "type": "address"
        }
      ],
      "stateMutability": "view",
      "type": "function"
    },
    {
      "inputs": [],
      "name": "dripPoolBalance",
      "outputs": [
        {
          "internalType": "uint256",
          "name": "",
          "type": "uint256"
        }
      ],
      "stateMutability": "view",
      "type": "function"
    },
    {
      "inputs": [],
      "name": "dripRate",
      "outputs": [
        {
          "internalType": "uint8",
          "name": "",
          "type": "uint8"
        }
      ],
      "stateMutability": "view",
      "type": "function"
    },
    {
      "inputs": [],
      "name": "forDivs",
      "outputs": [
        {
          "internalType": "uint256",
          "name": "",
          "type": "uint256"
        }
      ],
      "stateMutability": "view",
      "type": "function"
    },
    {
      "inputs": [],
      "name": "forPool",
      "outputs": [
        {
          "internalType": "uint256",
          "name": "",
          "type": "uint256"
        }
      ],
      "stateMutability": "view",
      "type": "function"
    },
    {
      "inputs": [],
      "name": "getUnlockTime",
      "outputs": [
        {
          "internalType": "uint256",
          "name": "",
          "type": "uint256"
        }
      ],
      "stateMutability": "view",
      "type": "function"
    },
    {
      "inputs": [],
      "name": "lastPayout",
      "outputs": [
        {
          "internalType": "uint256",
          "name": "",
          "type": "uint256"
        }
      ],
      "stateMutability": "view",
      "type": "function"
    },
    {
      "inputs": [],
      "name": "lastRebaseTime",
      "outputs": [
        {
          "internalType": "uint256",
          "name": "",
          "type": "uint256"
        }
      ],
      "stateMutability": "view",
      "type": "function"
    },
    {
      "inputs": [
        {
          "internalType": "uint256",
          "name": "time",
          "type": "uint256"
        }
      ],
      "name": "lock",
      "outputs": [],
      "stateMutability": "nonpayable",
      "type": "function"
    },
    {
      "inputs": [],
      "name": "owner",
      "outputs": [
        {
          "internalType": "address",
          "name": "",
          "type": "address"
        }
      ],
      "stateMutability": "view",
      "type": "function"
    },
    {
      "inputs": [],
      "name": "payoutFrequency",
      "outputs": [
        {
          "internalType": "uint256",
          "name": "",
          "type": "uint256"
        }
      ],
      "stateMutability": "view",
      "type": "function"
    },
    {
      "inputs": [],
      "name": "rebaseFrequency",
      "outputs": [
        {
          "internalType": "uint256",
          "name": "",
          "type": "uint256"
        }
      ],
      "stateMutability": "view",
      "type": "function"
    },
    {
      "inputs": [],
      "name": "renounceOwnership",
      "outputs": [],
      "stateMutability": "nonpayable",
      "type": "function"
    },
    {
      "inputs": [],
      "name": "stakingToken",
      "outputs": [
        {
          "internalType": "contract IERC20",
          "name": "",
          "type": "address"
        }
      ],
      "stateMutability": "view",
      "type": "function"
    },
    {
      "inputs": [],
      "name": "tokenAddress",
      "outputs": [
        {
          "internalType": "address",
          "name": "",
          "type": "address"
        }
      ],
      "stateMutability": "view",
      "type": "function"
    },
    {
      "inputs": [],
      "name": "tokenUniswapV2Router",
      "outputs": [
        {
          "internalType": "contract IPancakeRouter01",
          "name": "",
          "type": "address"
        }
      ],
      "stateMutability": "view",
      "type": "function"
    },
    {
      "inputs": [],
      "name": "totalClaims",
      "outputs": [
        {
          "internalType": "uint256",
          "name": "",
          "type": "uint256"
        }
      ],
      "stateMutability": "view",
      "type": "function"
    },
    {
      "inputs": [],
      "name": "totalDeposits",
      "outputs": [
        {
          "internalType": "uint256",
          "name": "",
          "type": "uint256"
        }
      ],
      "stateMutability": "view",
      "type": "function"
    },
    {
      "inputs": [],
      "name": "totalTxs",
      "outputs": [
        {
          "internalType": "uint256",
          "name": "",
          "type": "uint256"
        }
      ],
      "stateMutability": "view",
      "type": "function"
    },
    {
      "inputs": [
        {
          "internalType": "address",
          "name": "newOwner",
          "type": "address"
        }
      ],
      "name": "transferOwnership",
      "outputs": [],
      "stateMutability": "nonpayable",
      "type": "function"
    },
    {
      "inputs": [],
      "name": "uniswapV2Router",
      "outputs": [
        {
          "internalType": "contract IPancakeRouter01",
          "name": "",
          "type": "address"
        }
      ],
      "stateMutability": "view",
      "type": "function"
    },
    {
      "inputs": [],
      "name": "unlock",
      "outputs": [],
      "stateMutability": "nonpayable",
      "type": "function"
    },
    {
      "inputs": [],
      "name": "users",
      "outputs": [
        {
          "internalType": "uint256",
          "name": "",
          "type": "uint256"
        }
      ],
      "stateMutability": "view",
      "type": "function"
    },
    {
      "inputs": [],
      "name": "wbnb",
      "outputs": [
        {
          "internalType": "contract IERC20",
          "name": "",
          "type": "address"
        }
      ],
      "stateMutability": "view",
      "type": "function"
    },
    {
      "stateMutability": "payable",
      "type": "receive"
    },
    {
      "inputs": [
        {
          "internalType": "uint256",
          "name": "_amount",
          "type": "uint256"
        }
      ],
      "name": "donate",
      "outputs": [
        {
          "internalType": "uint256",
          "name": "",
          "type": "uint256"
        }
      ],
      "stateMutability": "nonpayable",
      "type": "function"
    },
    {
      "inputs": [
        {
          "internalType": "uint256",
          "name": "_amount",
          "type": "uint256"
        }
      ],
      "name": "deposit",
      "outputs": [
        {
          "internalType": "uint256",
          "name": "",
          "type": "uint256"
        }
      ],
      "stateMutability": "nonpayable",
      "type": "function"
    },
    {
      "inputs": [
        {
          "internalType": "address",
          "name": "_user",
          "type": "address"
        },
        {
          "internalType": "uint256",
          "name": "_amount",
          "type": "uint256"
        }
      ],
      "name": "depositTo",
      "outputs": [
        {
          "internalType": "uint256",
          "name": "",
          "type": "uint256"
        }
      ],
      "stateMutability": "nonpayable",
      "type": "function"
    },
    {
      "inputs": [],
      "name": "compound",
      "outputs": [],
      "stateMutability": "nonpayable",
      "type": "function"
    },
    {
      "inputs": [],
      "name": "harvest",
      "outputs": [],
      "stateMutability": "nonpayable",
      "type": "function"
    },
    {
      "inputs": [
        {
          "internalType": "uint256",
          "name": "_amount",
          "type": "uint256"
        }
      ],
      "name": "withdraw",
      "outputs": [],
      "stateMutability": "nonpayable",
      "type": "function"
    },
    {
      "inputs": [
        {
          "internalType": "address",
          "name": "_to",
          "type": "address"
        },
        {
          "internalType": "uint256",
          "name": "_amount",
          "type": "uint256"
        }
      ],
      "name": "transfer",
      "outputs": [
        {
          "internalType": "bool",
          "name": "",
          "type": "bool"
        }
      ],
      "stateMutability": "nonpayable",
      "type": "function"
    },
    {
      "inputs": [],
      "name": "myTokens",
      "outputs": [
        {
          "internalType": "uint256",
          "name": "",
          "type": "uint256"
        }
      ],
      "stateMutability": "view",
      "type": "function"
    },
    {
      "inputs": [],
      "name": "myEarnings",
      "outputs": [
        {
          "internalType": "uint256",
          "name": "",
          "type": "uint256"
        }
      ],
      "stateMutability": "view",
      "type": "function"
    },
    {
      "inputs": [
        {
          "internalType": "address",
          "name": "_user",
          "type": "address"
        }
      ],
      "name": "balanceOf",
      "outputs": [
        {
          "internalType": "uint256",
          "name": "",
          "type": "uint256"
        }
      ],
      "stateMutability": "view",
      "type": "function"
    },
    {
      "inputs": [
        {
          "internalType": "address",
          "name": "_user",
          "type": "address"
        }
      ],
      "name": "tokenBalance",
      "outputs": [
        {
          "internalType": "uint256",
          "name": "",
          "type": "uint256"
        }
      ],
      "stateMutability": "view",
      "type": "function"
    },
    {
      "inputs": [],
      "name": "totalBalance",
      "outputs": [
        {
          "internalType": "uint256",
          "name": "",
          "type": "uint256"
        }
      ],
      "stateMutability": "view",
      "type": "function"
    },
    {
      "inputs": [],
      "name": "totalSupply",
      "outputs": [
        {
          "internalType": "uint256",
          "name": "",
          "type": "uint256"
        }
      ],
      "stateMutability": "view",
      "type": "function"
    },
    {
      "inputs": [
        {
          "internalType": "address",
          "name": "_user",
          "type": "address"
        }
      ],
      "name": "dividendsOf",
      "outputs": [
        {
          "internalType": "uint256",
          "name": "",
          "type": "uint256"
        }
      ],
      "stateMutability": "view",
      "type": "function"
    },
    {
      "inputs": [],
      "name": "sellPrice",
      "outputs": [
        {
          "internalType": "uint256",
          "name": "",
          "type": "uint256"
        }
      ],
      "stateMutability": "pure",
      "type": "function"
    },
    {
      "inputs": [],
      "name": "buyPrice",
      "outputs": [
        {
          "internalType": "uint256",
          "name": "",
          "type": "uint256"
        }
      ],
      "stateMutability": "pure",
      "type": "function"
    },
    {
      "inputs": [
        {
          "internalType": "uint256",
          "name": "_amount",
          "type": "uint256"
        }
      ],
      "name": "calculateSharesReceived",
      "outputs": [
        {
          "internalType": "uint256",
          "name": "",
          "type": "uint256"
        }
      ],
      "stateMutability": "pure",
      "type": "function"
    },
    {
      "inputs": [
        {
          "internalType": "uint256",
          "name": "_amount",
          "type": "uint256"
        }
      ],
      "name": "calculateTokensReceived",
      "outputs": [
        {
          "internalType": "uint256",
          "name": "",
          "type": "uint256"
        }
      ],
      "stateMutability": "view",
      "type": "function"
    },
    {
      "inputs": [
        {
          "internalType": "address",
          "name": "_user",
          "type": "address"
        }
      ],
      "name": "accountOf",
      "outputs": [
        {
          "internalType": "uint256[14]",
          "name": "",
          "type": "uint256[14]"
        }
      ],
      "stateMutability": "view",
      "type": "function"
    },
    {
      "inputs": [
        {
          "internalType": "address",
          "name": "_user",
          "type": "address"
        }
      ],
      "name": "dailyEstimate",
      "outputs": [
        {
          "internalType": "uint256",
          "name": "",
          "type": "uint256"
        }
      ],
      "stateMutability": "view",
      "type": "function"
    },
    {
      "inputs": [
        {
          "internalType": "uint256",
          "name": "_pool",
          "type": "uint256"
        },
        {
          "internalType": "uint256",
          "name": "_divs",
          "type": "uint256"
        }
      ],
      "name": "setFeeSplit",
      "outputs": [
        {
          "internalType": "bool",
          "name": "_success",
          "type": "bool"
        }
      ],
      "stateMutability": "nonpayable",
      "type": "function"
    }
  ],
  "bytecode": "0x60806040523480156200001157600080fd5b506040516200403b3803806200403b833981810160405260408110156200003757600080fd5b810190808051906020019092919080519060200190929190505050600062000064620002c260201b60201c565b9050806000806101000a81548173ffffffffffffffffffffffffffffffffffffffff021916908373ffffffffffffffffffffffffffffffffffffffff1602179055508073ffffffffffffffffffffffffffffffffffffffff16600073ffffffffffffffffffffffffffffffffffffffff167f8be0079c531659141344cd1fd0a4f28419497f9722a3daafe3b4186f6b6457e060405160405180910390a350600073ffffffffffffffffffffffffffffffffffffffff168273ffffffffffffffffffffffffffffffffffffffff16141580156200015257506200015182620002ca60201b620029701760201c565b5b620001c5576040517f08c379a000000000000000000000000000000000000000000000000000000000815260040180806020018281038252600f8152602001807f494e56414c49445f41444452455353000000000000000000000000000000000081525060200191505060405180910390fd5b81600860006101000a81548173ffffffffffffffffffffffffffffffffffffffff021916908373ffffffffffffffffffffffffffffffffffffffff16021790555081600360006101000a81548173ffffffffffffffffffffffffffffffffffffffff021916908373ffffffffffffffffffffffffffffffffffffffff16021790555033600960006101000a81548173ffffffffffffffffffffffffffffffffffffffff021916908373ffffffffffffffffffffffffffffffffffffffff16021790555080601060006101000a81548160ff021916908360ff16021790555042600c81905550600860118190555060026012819055505050620002dd565b600033905090565b600080823b905060008111915050919050565b613d4e80620002ed6000396000f3fe6080604052600436106102805760003560e01c80638da5cb5b1161014f578063d3261592116100c1578063f20202751161007a578063f202027514610c73578063f2fde38b14610c9e578063f69e204614610cef578063fbaf1bbd14610d06578063ffaad6a514610d6b578063ffe6bbd814610dda57610309565b8063d326159214610ac6578063d7c3771d14610af4578063dd46706414610b35578063e02e1e9c14610b70578063eedc966a14610bbf578063f14faf6f14610c2457610309565b8063a9059cbb11610113578063a9059cbb14610944578063ad7a672f146109b5578063aecb6d28146109e0578063b6b55f2514610a0b578063b9db102a14610a5a578063d050f26a14610a8557610309565b80638da5cb5b14610855578063949e8acd146108965780639d76ea58146108c1578063a01496de14610902578063a69df4b51461092d57610309565b8063537a39bb116101f35780637e6335c7116101ac5780637e6335c7146106ab5780638086b8ba1461070657806381fce645146107935780638620410b146107be57806389375abf146107e95780638d72647e1461081457610309565b8063537a39bb1461056d578063602bc62b1461059857806370a08231146105c3578063715018a61461062857806372f702f31461063f5780637d8820971461068057610309565b80631924063e116102455780631924063e1461046f5780631f38b9cd1461049a5780632e1a7d4d146104c557806341c61383146105005780634641257d1461052b5780634b7503341461054257610309565b806265318b1461030e578063026390011461037357806310d0ffdd146103b45780631694505e1461040357806318160ddd1461044457610309565b36610309576102b1600960009054906101000a900473ffffffffffffffffffffffffffffffffffffffff1634610e05565b3373ffffffffffffffffffffffffffffffffffffffff167f3c2bd1b3f5ca07afb09fbee41ac43da2b98d9c2e9832673052e546bd1d4c091d3442604051808381526020018281526020019250505060405180910390a2005b600080fd5b34801561031a57600080fd5b5061035d6004803603602081101561033157600080fd5b81019080803573ffffffffffffffffffffffffffffffffffffffff169060200190929190505050610f3f565b6040518082815260200191505060405180910390f35b34801561037f57600080fd5b50610388610fdf565b604051808273ffffffffffffffffffffffffffffffffffffffff16815260200191505060405180910390f35b3480156103c057600080fd5b506103ed600480360360208110156103d757600080fd5b8101908080359060200190929190505050611005565b6040518082815260200191505060405180910390f35b34801561040f57600080fd5b50610418611050565b604051808273ffffffffffffffffffffffffffffffffffffffff16815260200191505060405180910390f35b34801561045057600080fd5b50610459611076565b6040518082815260200191505060405180910390f35b34801561047b57600080fd5b50610484611080565b6040518082815260200191505060405180910390f35b3480156104a657600080fd5b506104af611086565b6040518082815260200191505060405180910390f35b3480156104d157600080fd5b506104fe600480360360208110156104e857600080fd5b810190808035906020019092919050505061108c565b005b34801561050c57600080fd5b506105156113bb565b6040518082815260200191505060405180910390f35b34801561053757600080fd5b506105406113c1565b005b34801561054e57600080fd5b50610557611673565b6040518082815260200191505060405180910390f35b34801561057957600080fd5b506105826116b4565b6040518082815260200191505060405180910390f35b3480156105a457600080fd5b506105ad6116ba565b6040518082815260200191505060405180910390f35b3480156105cf57600080fd5b50610612600480360360208110156105e657600080fd5b81019080803573ffffffffffffffffffffffffffffffffffffffff1690602001909291905050506116c4565b6040518082815260200191505060405180910390f35b34801561063457600080fd5b5061063d61170d565b005b34801561064b57600080fd5b50610654611893565b604051808273ffffffffffffffffffffffffffffffffffffffff16815260200191505060405180910390f35b34801561068c57600080fd5b506106956118b9565b6040518082815260200191505060405180910390f35b3480156106b757600080fd5b506106ee600480360360408110156106ce57600080fd5b8101908080359060200190929190803590602001909291905050506118bf565b60405180821515815260200191505060405180910390f35b34801561071257600080fd5b506107556004803603602081101561072957600080fd5b81019080803573ffffffffffffffffffffffffffffffffffffffff169060200190929190505050611a70565b6040518082600e60200280838360005b83811015610780578082015181840152602081019050610765565b5050505090500191505060405180910390f35b34801561079f57600080fd5b506107a8611c09565b6040518082815260200191505060405180910390f35b3480156107ca57600080fd5b506107d3611c0e565b6040518082815260200191505060405180910390f35b3480156107f557600080fd5b506107fe611c4f565b6040518082815260200191505060405180910390f35b34801561082057600080fd5b50610829611c55565b604051808273ffffffffffffffffffffffffffffffffffffffff16815260200191505060405180910390f35b34801561086157600080fd5b5061086a611c7b565b604051808273ffffffffffffffffffffffffffffffffffffffff16815260200191505060405180910390f35b3480156108a257600080fd5b506108ab611ca4565b6040518082815260200191505060405180910390f35b3480156108cd57600080fd5b506108d6611cb4565b604051808273ffffffffffffffffffffffffffffffffffffffff16815260200191505060405180910390f35b34801561090e57600080fd5b50610917611cda565b6040518082815260200191505060405180910390f35b34801561093957600080fd5b50610942611ce0565b005b34801561095057600080fd5b5061099d6004803603604081101561096757600080fd5b81019080803573ffffffffffffffffffffffffffffffffffffffff16906020019092919080359060200190929190505050611efd565b60405180821515815260200191505060405180910390f35b3480156109c157600080fd5b506109ca611f24565b6040518082815260200191505060405180910390f35b3480156109ec57600080fd5b506109f5611fef565b6040518082815260200191505060405180910390f35b348015610a1757600080fd5b50610a4460048036036020811015610a2e57600080fd5b8101908080359060200190929190505050611ff5565b6040518082815260200191505060405180910390f35b348015610a6657600080fd5b50610a6f612008565b6040518082815260200191505060405180910390f35b348015610a9157600080fd5b50610a9a61200e565b604051808273ffffffffffffffffffffffffffffffffffffffff16815260200191505060405180910390f35b348015610ad257600080fd5b50610adb612034565b604051808260ff16815260200191505060405180910390f35b348015610b0057600080fd5b50610b09612047565b604051808273ffffffffffffffffffffffffffffffffffffffff16815260200191505060405180910390f35b348015610b4157600080fd5b50610b6e60048036036020811015610b5857600080fd5b810190808035906020019092919050505061206d565b005b348015610b7c57600080fd5b50610ba960048036036020811015610b9357600080fd5b810190808035906020019092919050505061225e565b6040518082815260200191505060405180910390f35b348015610bcb57600080fd5b50610c0e60048036036020811015610be257600080fd5b81019080803573ffffffffffffffffffffffffffffffffffffffff169060200190929190505050612299565b6040518082815260200191505060405180910390f35b348015610c3057600080fd5b50610c5d60048036036020811015610c4757600080fd5b81019080803590602001909291905050506122ba565b6040518082815260200191505060405180910390f35b348015610c7f57600080fd5b50610c88612421565b6040518082815260200191505060405180910390f35b348015610caa57600080fd5b50610ced60048036036020811015610cc157600080fd5b81019080803573ffffffffffffffffffffffffffffffffffffffff169060200190929190505050612427565b005b348015610cfb57600080fd5b50610d04612632565b005b348015610d1257600080fd5b50610d5560048036036020811015610d2957600080fd5b81019080803573ffffffffffffffffffffffffffffffffffffffff169060200190929190505050612651565b6040518082815260200191505060405180910390f35b348015610d7757600080fd5b50610dc460048036036040811015610d8e57600080fd5b81019080803573ffffffffffffffffffffffffffffffffffffffff16906020019092919080359060200190929190505050612710565b6040518082815260200191505060405180910390f35b348015610de657600080fd5b50610def612960565b6040518082815260200191505060405180910390f35b80471015610e7b576040517f08c379a000000000000000000000000000000000000000000000000000000000815260040180806020018281038252601d8152602001807f416464726573733a20696e73756666696369656e742062616c616e636500000081525060200191505060405180910390fd5b60008273ffffffffffffffffffffffffffffffffffffffff168260405180600001905060006040518083038185875af1925050503d8060008114610edb576040519150601f19603f3d011682016040523d82523d6000602084013e610ee0565b606091505b5050905080610f3a576040517f08c379a000000000000000000000000000000000000000000000000000000000815260040180806020018281038252603a815260200180613c9b603a913960400191505060405180910390fd5b505050565b600068010000000000000000601660008473ffffffffffffffffffffffffffffffffffffffff1673ffffffffffffffffffffffffffffffffffffffff16815260200190815260200160002054601760008573ffffffffffffffffffffffffffffffffffffffff1673ffffffffffffffffffffffffffffffffffffffff16815260200190815260200160002054601554020381610fd757fe5b049050919050565b600460009054906101000a900473ffffffffffffffffffffffffffffffffffffffff1681565b600060145482111561101657600080fd5b6000829050600061103561102e83600a60ff16612983565b6064612a09565b905060006110438383612a53565b9050809350505050919050565b600660009054906101000a900473ffffffffffffffffffffffffffffffffffffffff1681565b6000601454905090565b60135481565b60125481565b6000611096611ca4565b116110a057600080fd5b6000339050601760008273ffffffffffffffffffffffffffffffffffffffff1673ffffffffffffffffffffffffffffffffffffffff168152602001908152602001600020548211156110f157600080fd5b6000606461110384600a60ff16612983565b8161110a57fe5b04905060006111198483612a53565b905061112760145485612a53565b601481905550611176601760008573ffffffffffffffffffffffffffffffffffffffff1673ffffffffffffffffffffffffffffffffffffffff1681526020019081526020016000205485612a53565b601760008573ffffffffffffffffffffffffffffffffffffffff1673ffffffffffffffffffffffffffffffffffffffff168152602001908152602001600020819055506000680100000000000000008202856015540201905080601660008673ffffffffffffffffffffffffffffffffffffffff1673ffffffffffffffffffffffffffffffffffffffff1681526020019081526020016000206000828254039250508190555061122583612a9d565b8373ffffffffffffffffffffffffffffffffffffffff167f90ebb005d68efee044927e1e77e1fd0cecc508368aa72c39250a787eed5f0a7086844260405180848152602001838152602001828152602001935050505060405180910390a28373ffffffffffffffffffffffffffffffffffffffff167f29f64f6f46c82c5ecfa955fe7d093e63b4106b6dbe5193e00efd62c7384ef177601860008773ffffffffffffffffffffffffffffffffffffffff1673ffffffffffffffffffffffffffffffffffffffff16815260200190815260200160002060000154601760008873ffffffffffffffffffffffffffffffffffffffff1673ffffffffffffffffffffffffffffffffffffffff16815260200190815260200160002054601860008973ffffffffffffffffffffffffffffffffffffffff1673ffffffffffffffffffffffffffffffffffffffff16815260200190815260200160002060010154426040518085815260200184815260200183815260200182815260200194505050505060405180910390a26113b4612b51565b5050505050565b600d5481565b60006113cb612960565b116113d557600080fd5b600033905060006113e4612960565b9050680100000000000000008102601660008473ffffffffffffffffffffffffffffffffffffffff1673ffffffffffffffffffffffffffffffffffffffff16815260200190815260200160002060008282540192505081905550600360009054906101000a900473ffffffffffffffffffffffffffffffffffffffff1673ffffffffffffffffffffffffffffffffffffffff1663a9059cbb83836040518363ffffffff1660e01b8152600401808373ffffffffffffffffffffffffffffffffffffffff16815260200182815260200192505050602060405180830381600087803b1580156114d157600080fd5b505af11580156114e5573d6000803e3d6000fd5b505050506040513d60208110156114fb57600080fd5b810190808051906020019092919050505050611559601860008473ffffffffffffffffffffffffffffffffffffffff1673ffffffffffffffffffffffffffffffffffffffff1681526020019081526020016000206001015482612ca2565b601860008473ffffffffffffffffffffffffffffffffffffffff1673ffffffffffffffffffffffffffffffffffffffff168152602001908152602001600020600101819055506001601860008473ffffffffffffffffffffffffffffffffffffffff1673ffffffffffffffffffffffffffffffffffffffff168152602001908152602001600020600b01600082825401925050819055506001600b6000828254019250508190555080600d600082825401925050819055508173ffffffffffffffffffffffffffffffffffffffff167f1b091269e929df55d64d6ea7e9cadbe4fb38dce5ccdc995767bc515030dbfbbf8242604051808381526020018281526020019250505060405180910390a261166f612b51565b5050565b600080670de0b6b3a76400009050600061169b61169483600a60ff16612983565b6064612a09565b905060006116a98383612a53565b905080935050505090565b600b5481565b6000600254905090565b6000601760008373ffffffffffffffffffffffffffffffffffffffff1673ffffffffffffffffffffffffffffffffffffffff168152602001908152602001600020549050919050565b611715612d2a565b73ffffffffffffffffffffffffffffffffffffffff1660008054906101000a900473ffffffffffffffffffffffffffffffffffffffff1673ffffffffffffffffffffffffffffffffffffffff16146117d5576040517f08c379a00000000000000000000000000000000000000000000000000000000081526004018080602001828103825260208152602001807f4f776e61626c653a2063616c6c6572206973206e6f7420746865206f776e657281525060200191505060405180910390fd5b600073ffffffffffffffffffffffffffffffffffffffff1660008054906101000a900473ffffffffffffffffffffffffffffffffffffffff1673ffffffffffffffffffffffffffffffffffffffff167f8be0079c531659141344cd1fd0a4f28419497f9722a3daafe3b4186f6b6457e060405160405180910390a360008060006101000a81548173ffffffffffffffffffffffffffffffffffffffff021916908373ffffffffffffffffffffffffffffffffffffffff160217905550565b600360009054906101000a900473ffffffffffffffffffffffffffffffffffffffff1681565b600e5481565b60006118c9612d2a565b73ffffffffffffffffffffffffffffffffffffffff1660008054906101000a900473ffffffffffffffffffffffffffffffffffffffff1673ffffffffffffffffffffffffffffffffffffffff1614611989576040517f08c379a00000000000000000000000000000000000000000000000000000000081526004018080602001828103825260208152602001807f4f776e61626c653a2063616c6c6572206973206e6f7420746865206f776e657281525060200191505060405180910390fd5b600a61199e8385612ca290919063ffffffff16565b14611a11576040517f08c379a000000000000000000000000000000000000000000000000000000000815260040180806020018281038252601d8152602001807f54454e5f504f5254494f4e535f524551554952455f4449564953494f4e00000081525060200191505060405180910390fd5b82601181905550816012819055507f677017fa3a0fe0f50a95e6024c5b688f2b14a4696c4a897c459715cabfc1c03a83834260405180848152602001838152602001828152602001935050505060405180910390a16001905092915050565b611a78613be2565b611a80613c05565b601860008473ffffffffffffffffffffffffffffffffffffffff1673ffffffffffffffffffffffffffffffffffffffff168152602001908152602001600020604051806101c001604052908160008201548152602001600182015481526020016002820154815260200160038201548152602001600482015481526020016005820154815260200160068201548152602001600782015481526020016008820154815260200160098201548152602001600a8201548152602001600b8201548152602001600c8201548152602001600d820154815250509050611b61613be2565b604051806101c0016040528083600001518152602001836020015181526020018360600151815260200183604001518152602001836080015181526020018360a0015181526020018360c0015181526020018360e0015181526020018361012001518152602001836101400151815260200183610160015181526020018361018001518152602001836101a00151815260200183610100015181525090508092505050919050565b600281565b600080670de0b6b3a764000090506000611c36611c2f83600a60ff16612983565b6064612a09565b90506000611c448383612ca2565b905080935050505090565b61546081565b600560009054906101000a900473ffffffffffffffffffffffffffffffffffffffff1681565b60008060009054906101000a900473ffffffffffffffffffffffffffffffffffffffff16905090565b6000611caf336116c4565b905090565b600860009054906101000a900473ffffffffffffffffffffffffffffffffffffffff1681565b60115481565b3373ffffffffffffffffffffffffffffffffffffffff16600160009054906101000a900473ffffffffffffffffffffffffffffffffffffffff1673ffffffffffffffffffffffffffffffffffffffff1614611d86576040517f08c379a0000000000000000000000000000000000000000000000000000000008152600401808060200182810382526023815260200180613cf66023913960400191505060405180910390fd5b6002544211611dfd576040517f08c379a000000000000000000000000000000000000000000000000000000000815260040180806020018281038252601f8152602001807f436f6e7472616374206973206c6f636b656420756e74696c203720646179730081525060200191505060405180910390fd5b600160009054906101000a900473ffffffffffffffffffffffffffffffffffffffff1673ffffffffffffffffffffffffffffffffffffffff1660008054906101000a900473ffffffffffffffffffffffffffffffffffffffff1673ffffffffffffffffffffffffffffffffffffffff167f8be0079c531659141344cd1fd0a4f28419497f9722a3daafe3b4186f6b6457e060405160405180910390a3600160009054906101000a900473ffffffffffffffffffffffffffffffffffffffff166000806101000a81548173ffffffffffffffffffffffffffffffffffffffff021916908373ffffffffffffffffffffffffffffffffffffffff160217905550565b600080611f08611ca4565b11611f1257600080fd5b611f1c8383612d32565b905092915050565b6000600360009054906101000a900473ffffffffffffffffffffffffffffffffffffffff1673ffffffffffffffffffffffffffffffffffffffff166370a08231306040518263ffffffff1660e01b8152600401808273ffffffffffffffffffffffffffffffffffffffff16815260200191505060206040518083038186803b158015611faf57600080fd5b505afa158015611fc3573d6000803e3d6000fd5b505050506040513d6020811015611fd957600080fd5b8101908080519060200190929190505050905090565b600f5481565b60006120013383612710565b9050919050565b600c5481565b600760009054906101000a900473ffffffffffffffffffffffffffffffffffffffff1681565b601060009054906101000a900460ff1681565b600960009054906101000a900473ffffffffffffffffffffffffffffffffffffffff1681565b612075612d2a565b73ffffffffffffffffffffffffffffffffffffffff1660008054906101000a900473ffffffffffffffffffffffffffffffffffffffff1673ffffffffffffffffffffffffffffffffffffffff1614612135576040517f08c379a00000000000000000000000000000000000000000000000000000000081526004018080602001828103825260208152602001807f4f776e61626c653a2063616c6c6572206973206e6f7420746865206f776e657281525060200191505060405180910390fd5b60008054906101000a900473ffffffffffffffffffffffffffffffffffffffff16600160006101000a81548173ffffffffffffffffffffffffffffffffffffffff021916908373ffffffffffffffffffffffffffffffffffffffff16021790555060008060006101000a81548173ffffffffffffffffffffffffffffffffffffffff021916908373ffffffffffffffffffffffffffffffffffffffff160217905550804201600281905550600073ffffffffffffffffffffffffffffffffffffffff1660008054906101000a900473ffffffffffffffffffffffffffffffffffffffff1673ffffffffffffffffffffffffffffffffffffffff167f8be0079c531659141344cd1fd0a4f28419497f9722a3daafe3b4186f6b6457e060405160405180910390a350565b60008061227961227284600a60ff16612983565b6064612a09565b905060006122878483612a53565b90506000819050809350505050919050565b60008173ffffffffffffffffffffffffffffffffffffffff16319050919050565b6000600360009054906101000a900473ffffffffffffffffffffffffffffffffffffffff1673ffffffffffffffffffffffffffffffffffffffff166323b872dd3330856040518463ffffffff1660e01b8152600401808473ffffffffffffffffffffffffffffffffffffffff1681526020018373ffffffffffffffffffffffffffffffffffffffff1681526020018281526020019350505050602060405180830381600087803b15801561236d57600080fd5b505af1158015612381573d6000803e3d6000fd5b505050506040513d602081101561239757600080fd5b81019080805190602001909291905050506123b157600080fd5b81600f600082825401925050819055503373ffffffffffffffffffffffffffffffffffffffff167f0da1788c3e861a58a47f0d46073b13c4d66efcc259714744f920d1afe7b8dee58342604051808381526020018281526020019250505060405180910390a2600f549050919050565b600a5481565b61242f612d2a565b73ffffffffffffffffffffffffffffffffffffffff1660008054906101000a900473ffffffffffffffffffffffffffffffffffffffff1673ffffffffffffffffffffffffffffffffffffffff16146124ef576040517f08c379a00000000000000000000000000000000000000000000000000000000081526004018080602001828103825260208152602001807f4f776e61626c653a2063616c6c6572206973206e6f7420746865206f776e657281525060200191505060405180910390fd5b600073ffffffffffffffffffffffffffffffffffffffff168173ffffffffffffffffffffffffffffffffffffffff161415612575576040517f08c379a0000000000000000000000000000000000000000000000000000000008152600401808060200182810382526026815260200180613c756026913960400191505060405180910390fd5b8073ffffffffffffffffffffffffffffffffffffffff1660008054906101000a900473ffffffffffffffffffffffffffffffffffffffff1673ffffffffffffffffffffffffffffffffffffffff167f8be0079c531659141344cd1fd0a4f28419497f9722a3daafe3b4186f6b6457e060405160405180910390a3806000806101000a81548173ffffffffffffffffffffffffffffffffffffffff021916908373ffffffffffffffffffffffffffffffffffffffff16021790555050565b600061263c612960565b1161264657600080fd5b61264e61341f565b50565b60008061268e6064612680601060009054906101000a900460ff1660ff16600f5461298390919063ffffffff16565b612a0990919063ffffffff16565b90506000601454116126a1576000612708565b6127076014546126f9601760008773ffffffffffffffffffffffffffffffffffffffff1673ffffffffffffffffffffffffffffffffffffffff168152602001908152602001600020548461298390919063ffffffff16565b612a0990919063ffffffff16565b5b915050919050565b6000600360009054906101000a900473ffffffffffffffffffffffffffffffffffffffff1673ffffffffffffffffffffffffffffffffffffffff166323b872dd3330856040518463ffffffff1660e01b8152600401808473ffffffffffffffffffffffffffffffffffffffff1681526020018373ffffffffffffffffffffffffffffffffffffffff1681526020018281526020019350505050602060405180830381600087803b1580156127c357600080fd5b505af11580156127d7573d6000803e3d6000fd5b505050506040513d60208110156127ed57600080fd5b810190808051906020019092919050505061280757600080fd5b81600e6000828254019250508190555060006128238484613713565b90508373ffffffffffffffffffffffffffffffffffffffff167f29f64f6f46c82c5ecfa955fe7d093e63b4106b6dbe5193e00efd62c7384ef177601860008773ffffffffffffffffffffffffffffffffffffffff1673ffffffffffffffffffffffffffffffffffffffff16815260200190815260200160002060000154601760008873ffffffffffffffffffffffffffffffffffffffff1673ffffffffffffffffffffffffffffffffffffffff16815260200190815260200160002054601860008973ffffffffffffffffffffffffffffffffffffffff1673ffffffffffffffffffffffffffffffffffffffff16815260200190815260200160002060010154426040518085815260200184815260200183815260200182815260200194505050505060405180910390a2612956612b51565b8091505092915050565b600061296b33610f3f565b905090565b600080823b905060008111915050919050565b6000808314156129965760009050612a03565b60008284029050828482816129a757fe5b04146129fe576040517f08c379a0000000000000000000000000000000000000000000000000000000008152600401808060200182810382526021815260200180613cd56021913960400191505060405180910390fd5b809150505b92915050565b6000612a4b83836040518060400160405280601a81526020017f536166654d6174683a206469766973696f6e206279207a65726f000000000000815250613a3d565b905092915050565b6000612a9583836040518060400160405280601e81526020017f536166654d6174683a207375627472616374696f6e206f766572666c6f770000815250613b03565b905092915050565b6000612ab3600a83612a0990919063ffffffff16565b90506000612acc6011548361298390919063ffffffff16565b90506000612ae56012548461298390919063ffffffff16565b9050612afc82600f54612ca290919063ffffffff16565b600f8190555060006014541115612b3a57612b2f60155460145468010000000000000000840281612b2957fe5b04612ca2565b601581905550612b4b565b80600f600082825401925050819055505b50505050565b6000429050615460612b6e60135483613bc390919063ffffffff16565b1115612bc2577f2cfce469a63f2e9972b7f23da751e6943ed2b091c10e40b5c43b5f6105bf20ea612b9d611f24565b82604051808381526020018281526020019250505060405180910390a1806013819055505b6002612bd082600c54613bc3565b118015612bdf57506000601454115b15612c9f576000612c3562015180612c276064612c19601060009054906101000a900460ff1660ff16600f5461298390919063ffffffff16565b612a0990919063ffffffff16565b612a0990919063ffffffff16565b90506000612c4e600c5484613bc390919063ffffffff16565b82029050612c6781600f54613bc390919063ffffffff16565b600f81905550612c8f60155460145468010000000000000000840281612c8957fe5b04612ca2565b60158190555082600c8190555050505b50565b600080828401905083811015612d20576040517f08c379a000000000000000000000000000000000000000000000000000000000815260040180806020018281038252601b8152602001807f536166654d6174683a206164646974696f6e206f766572666c6f77000000000081525060200191505060405180910390fd5b8091505092915050565b600033905090565b600080339050601760008273ffffffffffffffffffffffffffffffffffffffff1673ffffffffffffffffffffffffffffffffffffffff16815260200190815260200160002054831115612d8457600080fd5b6000612d8e612960565b1115612d9d57612d9c6113c1565b5b612de6601760008373ffffffffffffffffffffffffffffffffffffffff1673ffffffffffffffffffffffffffffffffffffffff1681526020019081526020016000205484612a53565b601760008373ffffffffffffffffffffffffffffffffffffffff1673ffffffffffffffffffffffffffffffffffffffff16815260200190815260200160002081905550612e72601760008673ffffffffffffffffffffffffffffffffffffffff1673ffffffffffffffffffffffffffffffffffffffff1681526020019081526020016000205484612ca2565b601760008673ffffffffffffffffffffffffffffffffffffffff1673ffffffffffffffffffffffffffffffffffffffff168152602001908152602001600020819055508260155402601660008373ffffffffffffffffffffffffffffffffffffffff1673ffffffffffffffffffffffffffffffffffffffff168152602001908152602001600020600082825403925050819055508260155402601660008673ffffffffffffffffffffffffffffffffffffffff1673ffffffffffffffffffffffffffffffffffffffff168152602001908152602001600020600082825401925050819055506000601860008673ffffffffffffffffffffffffffffffffffffffff1673ffffffffffffffffffffffffffffffffffffffff16815260200190815260200160002060000154148015612feb57506000601860008673ffffffffffffffffffffffffffffffffffffffff1673ffffffffffffffffffffffffffffffffffffffff16815260200190815260200160002060060154145b15613002576001600a600082825401925050819055505b6001601860008373ffffffffffffffffffffffffffffffffffffffff1673ffffffffffffffffffffffffffffffffffffffff168152602001908152602001600020600c016000828254019250508190555082601860008373ffffffffffffffffffffffffffffffffffffffff1673ffffffffffffffffffffffffffffffffffffffff1681526020019081526020016000206005016000828254019250508190555082601860008673ffffffffffffffffffffffffffffffffffffffff1673ffffffffffffffffffffffffffffffffffffffff168152602001908152602001600020600601600082825401925050819055506001601860008673ffffffffffffffffffffffffffffffffffffffff1673ffffffffffffffffffffffffffffffffffffffff168152602001908152602001600020600d01600082825401925050819055506001600b600082825401925050819055508373ffffffffffffffffffffffffffffffffffffffff168173ffffffffffffffffffffffffffffffffffffffff167f91c7d71a3ae3fb7cf61e00517bf4868e9e23d0bace5e304cbc3b68de5d85350e8542604051808381526020018281526020019250505060405180910390a38073ffffffffffffffffffffffffffffffffffffffff167f29f64f6f46c82c5ecfa955fe7d093e63b4106b6dbe5193e00efd62c7384ef177601860008473ffffffffffffffffffffffffffffffffffffffff1673ffffffffffffffffffffffffffffffffffffffff16815260200190815260200160002060000154601760008573ffffffffffffffffffffffffffffffffffffffff1673ffffffffffffffffffffffffffffffffffffffff16815260200190815260200160002054601860008673ffffffffffffffffffffffffffffffffffffffff1673ffffffffffffffffffffffffffffffffffffffff16815260200190815260200160002060010154426040518085815260200184815260200183815260200182815260200194505050505060405180910390a28373ffffffffffffffffffffffffffffffffffffffff167f29f64f6f46c82c5ecfa955fe7d093e63b4106b6dbe5193e00efd62c7384ef177601860008773ffffffffffffffffffffffffffffffffffffffff1673ffffffffffffffffffffffffffffffffffffffff16815260200190815260200160002060000154601760008873ffffffffffffffffffffffffffffffffffffffff1673ffffffffffffffffffffffffffffffffffffffff16815260200190815260200160002054601860008973ffffffffffffffffffffffffffffffffffffffff1673ffffffffffffffffffffffffffffffffffffffff16815260200190815260200160002060010154426040518085815260200184815260200183815260200182815260200194505050505060405180910390a2600191505092915050565b600080339050600061343082610f3f565b9050680100000000000000008102601660008473ffffffffffffffffffffffffffffffffffffffff1673ffffffffffffffffffffffffffffffffffffffff1681526020019081526020016000206000828254019250508190555060006134963383613713565b90508273ffffffffffffffffffffffffffffffffffffffff167f193a876ac91d11a4a0a71ebef73b195ba55aa7c16d6755c93c21d973e692a02c83834260405180848152602001838152602001828152602001935050505060405180910390a2613542601860008573ffffffffffffffffffffffffffffffffffffffff1673ffffffffffffffffffffffffffffffffffffffff1681526020019081526020016000206002015483612ca2565b601860008573ffffffffffffffffffffffffffffffffffffffff1673ffffffffffffffffffffffffffffffffffffffff168152602001908152602001600020600201819055506001601860008573ffffffffffffffffffffffffffffffffffffffff1673ffffffffffffffffffffffffffffffffffffffff168152602001908152602001600020600801600082825401925050819055508273ffffffffffffffffffffffffffffffffffffffff167f29f64f6f46c82c5ecfa955fe7d093e63b4106b6dbe5193e00efd62c7384ef177601860008673ffffffffffffffffffffffffffffffffffffffff1673ffffffffffffffffffffffffffffffffffffffff16815260200190815260200160002060000154601760008773ffffffffffffffffffffffffffffffffffffffff1673ffffffffffffffffffffffffffffffffffffffff16815260200190815260200160002054601860008873ffffffffffffffffffffffffffffffffffffffff1673ffffffffffffffffffffffffffffffffffffffff16815260200190815260200160002060010154426040518085815260200184815260200183815260200182815260200194505050505060405180910390a261370a612b51565b80935050505090565b600080601860008573ffffffffffffffffffffffffffffffffffffffff1673ffffffffffffffffffffffffffffffffffffffff168152602001908152602001600020600001541480156137a857506000601860008573ffffffffffffffffffffffffffffffffffffffff1673ffffffffffffffffffffffffffffffffffffffff16815260200190815260200160002060060154145b156137bf576001600a600082825401925050819055505b6001600b60008282540192505081905550600060646137e284600a60ff16612983565b816137e957fe5b04905060006137f88483612a53565b90508473ffffffffffffffffffffffffffffffffffffffff167fb49bb132260f6aa1c86e2d2a3957c097216e6ec9b5fa15867289f058b4d297ac85834260405180848152602001838152602001828152602001935050505060405180910390a2600081118015613874575060145461387282601454612ca2565b115b61387d57600080fd5b6000601454111561389d57806014600082825401925050819055506138a5565b806014819055505b6138ae82612a9d565b6138f7601760008773ffffffffffffffffffffffffffffffffffffffff1673ffffffffffffffffffffffffffffffffffffffff1681526020019081526020016000205482612ca2565b601760008773ffffffffffffffffffffffffffffffffffffffff1673ffffffffffffffffffffffffffffffffffffffff1681526020019081526020016000208190555060008160155402905080601660008873ffffffffffffffffffffffffffffffffffffffff1673ffffffffffffffffffffffffffffffffffffffff1681526020019081526020016000206000828254019250508190555084601860008873ffffffffffffffffffffffffffffffffffffffff1673ffffffffffffffffffffffffffffffffffffffff168152602001908152602001600020600001600082825401925050819055506001601860008873ffffffffffffffffffffffffffffffffffffffff1673ffffffffffffffffffffffffffffffffffffffff1681526020019081526020016000206007016000828254019250508190555081935050505092915050565b60008083118290613ae9576040517f08c379a00000000000000000000000000000000000000000000000000000000081526004018080602001828103825283818151815260200191508051906020019080838360005b83811015613aae578082015181840152602081019050613a93565b50505050905090810190601f168015613adb5780820380516001836020036101000a031916815260200191505b509250505060405180910390fd5b506000838581613af557fe5b049050809150509392505050565b6000838311158290613bb0576040517f08c379a00000000000000000000000000000000000000000000000000000000081526004018080602001828103825283818151815260200191508051906020019080838360005b83811015613b75578082015181840152602081019050613b5a565b50505050905090810190601f168015613ba25780820380516001836020036101000a031916815260200191505b509250505060405180910390fd5b5060008385039050809150509392505050565b600082821115613bd65760009050613bdc565b81830390505b92915050565b604051806101c00160405280600e90602082028036833780820191505090505090565b604051806101c001604052806000815260200160008152602001600081526020016000815260200160008152602001600081526020016000815260200160008152602001600081526020016000815260200160008152602001600081526020016000815260200160008152509056fe4f776e61626c653a206e6577206f776e657220697320746865207a65726f2061646472657373416464726573733a20756e61626c6520746f2073656e642076616c75652c20726563697069656e74206d61792068617665207265766572746564536166654d6174683a206d756c7469706c69636174696f6e206f766572666c6f77596f7520646f6e27742068617665207065726d697373696f6e20746f20756e6c6f636ba2646970667358221220049d2ef982800d9dffa80accefe287c5cd1e214f456853c03ab5c1a3ca6a786564736f6c63430007040033",
  "immutableReferences": {},
  "source": "// SPDX-License-Identifier: MIT\r\npragma solidity 0.7.4;\r\n\r\nimport './Address.sol';\r\nimport './SafeMath.sol';\r\nimport './SafeERC20.sol';\r\n\r\nimport './IERC20.sol';\r\nimport './IPancakeRouter01.sol';\r\n\r\nimport './Ownable.sol';\r\n\r\ncontract Vault is Ownable {\r\n    using SafeERC20 for IERC20;\r\n    using SafeMath for uint;\r\n\r\n    // Import the BEP20 token interface\r\n    IERC20 public stakingToken;\r\n    IERC20 public buybackToken; // The token being bought back...\r\n    IERC20 public wbnb;\r\n\r\n    IPancakeRouter01 public uniswapV2Router;\r\n    IPancakeRouter01 public tokenUniswapV2Router;\r\n    \r\n    /////////////////////////////////\r\n    // CONFIGURABLES AND VARIABLES //\r\n    /////////////////////////////////\r\n    \r\n    // Store the token address and the reserve address\r\n    address public tokenAddress;\r\n    address payable public bnbReceiver;\r\n    \r\n    // Store the number of unique users and total Tx's \r\n    uint public users;\r\n    uint public totalTxs;\r\n    \r\n    // Store the starting time & block number and the last payout time\r\n    uint public lastPayout; // What time was the last payout (timestamp)?\r\n    \r\n    // Store the details of total deposits & claims\r\n    uint public totalClaims;\r\n    uint public totalDeposits;\r\n\r\n    // Store the total drip pool balance and rate\r\n    uint  public dripPoolBalance;\r\n    uint8 public dripRate;\r\n\r\n    // 10% fee on deposit and withdrawal\r\n    uint8 constant internal divsFee = 10;\r\n    uint256 constant internal magnitude = 2 ** 64;\r\n    \r\n    // How many portions of the fees does each receiver get?\r\n    uint public forPool;\r\n    uint public forDivs;\r\n\r\n    // Rebase and payout frequency\r\n    uint256 constant public rebaseFrequency = 6 hours;\r\n    uint256 constant public payoutFrequency = 2 seconds;\r\n    \r\n    // Timestamp of last rebase\r\n    uint256 public lastRebaseTime;\r\n    \r\n    // Current total tokens staked, and profit per share\r\n    uint256 private currentTotalStaked;\r\n    uint256 private profitPerShare_;\r\n    \r\n    ////////////////////////////////////\r\n    // MODIFIERS                      //\r\n    ////////////////////////////////////\r\n\r\n    // Only holders - Caller must have funds in the vault\r\n    modifier onlyHolders {\r\n        require(myTokens() > 0);\r\n        _;\r\n    }\r\n    \r\n    // Only earners - Caller must have some earnings\r\n    modifier onlyEarners {\r\n        require(myEarnings() > 0);\r\n        _;\r\n    }\r\n\r\n    ////////////////////////////////////\r\n    // ACCOUNT STRUCT                 //\r\n    ////////////////////////////////////\r\n\r\n    struct Account {\r\n        uint deposited;\r\n        uint withdrawn;\r\n        uint compounded;\r\n        uint rewarded;\r\n        uint contributed;\r\n        uint transferredShares;\r\n        uint receivedShares;\r\n        \r\n        uint xInvested;\r\n        uint xCompounded;\r\n        uint xRewarded;\r\n        uint xContributed;\r\n        uint xWithdrawn;\r\n        uint xTransferredShares;\r\n        uint xReceivedShares;\r\n    }\r\n\r\n    ////////////////////////////////////\r\n    // MAPPINGS                       //\r\n    ////////////////////////////////////\r\n\r\n    mapping(address =>  int256) payoutsOf_;\r\n    mapping(address => uint256) balanceOf_;\r\n    mapping(address => Account) accountOf_;\r\n    \r\n    ////////////////////////////////////\r\n    // EVENTS                         //\r\n    ////////////////////////////////////\r\n    \r\n    event onDeposit( address indexed _user, uint256 _deposited,  uint256 tokensMinted, uint timestamp);\r\n    event onWithdraw(address indexed _user, uint256 _liquidated, uint256 tokensEarned, uint timestamp);\r\n    event onCompound(address indexed _user, uint256 _compounded, uint256 tokensMinted, uint timestamp);\r\n    event onWithdraw(address indexed _user, uint256 _withdrawn,                        uint timestamp);\r\n    event onTransfer(address indexed from,  address indexed to,  uint256 tokens,       uint timestamp);\r\n    event onUpdate(address indexed _user, uint256 invested, uint256 tokens, uint256 soldTokens, uint timestamp);\r\n    \r\n    event onRebase(uint256 balance, uint256 timestamp);\r\n    \r\n    event onDonate(address indexed from, uint256 amount, uint timestamp);\r\n    event onDonateBNB(address indexed from, uint256 amount, uint timestamp);\r\n    \r\n    event onSetFeeSplit(uint _pool, uint _divs, uint256 timestamp);\r\n    \r\n    ////////////////////////////////////\r\n    // CONSTRUCTOR                    //\r\n    ////////////////////////////////////\r\n\r\n    constructor(address _tokenAddress, uint8 _dripRate) Ownable() {\r\n        require(_tokenAddress != address(0) && Address.isContract(_tokenAddress), \"INVALID_ADDRESS\");\r\n        \r\n        tokenAddress = _tokenAddress;\r\n        stakingToken = IERC20(_tokenAddress);\r\n        \r\n        bnbReceiver = msg.sender;\r\n\r\n        // Set Drip Rate and last payout date (first time around)...\r\n        dripRate = _dripRate;\r\n        lastPayout = (block.timestamp);\r\n        \r\n        // Fee portions\r\n        forPool = 8;\r\n        forDivs = 2;\r\n    }\r\n    \r\n    ////////////////////////////////////\r\n    // FALLBACK                       //\r\n    ////////////////////////////////////\r\n    \r\n    receive() payable external {\r\n        Address.sendValue(bnbReceiver, msg.value);\r\n        emit onDonateBNB(msg.sender, msg.value, block.timestamp);\r\n    }\r\n    \r\n    ////////////////////////////////////\r\n    // WRITE FUNCTIONS                //\r\n    ////////////////////////////////////\r\n\r\n    // Donate\r\n    function donate(uint _amount) public returns (uint256) {\r\n        \r\n        // Move the tokens from the caller's wallet to this contract.\r\n        require(stakingToken.transferFrom(msg.sender, address(this), _amount));\r\n        \r\n        // Add the tokens to the drip pool balance\r\n        dripPoolBalance += _amount;\r\n        \r\n        // Tell the network, successful function - how much in the pool now?\r\n        emit onDonate(msg.sender, _amount, block.timestamp);\r\n        return dripPoolBalance;\r\n    }\r\n\r\n    // Deposit\r\n    function deposit(uint _amount) public returns (uint256)  {\r\n        return depositTo(msg.sender, _amount);\r\n    }\r\n\r\n    // DepositTo\r\n    function depositTo(address _user, uint _amount) public returns (uint256)  {\r\n        \r\n        // Move the tokens from the caller's wallet to this contract.\r\n        require(stakingToken.transferFrom(msg.sender, address(this), _amount));\r\n        \r\n        // Add the deposit to the totalDeposits...\r\n        totalDeposits += _amount;\r\n        \r\n        // Then actually call the deposit method...\r\n        uint amount = _depositTokens(_user, _amount);\r\n        \r\n        // Update the leaderboard...\r\n        emit onUpdate(_user, accountOf_[_user].deposited, balanceOf_[_user], accountOf_[_user].withdrawn, block.timestamp);\r\n        \r\n        // Then trigger a distribution for everyone, kind soul!\r\n        distribute();\r\n        \r\n        // Successful function - how many 'shares' (tokens) are the result?\r\n        return amount;\r\n    }\r\n\r\n    // Compound\r\n    function compound() onlyEarners public {\r\n         _compoundTokens();\r\n    }\r\n    \r\n    // Harvest\r\n    function harvest() onlyEarners public {\r\n        address _user = msg.sender;\r\n        uint256 _dividends = myEarnings();\r\n        \r\n        // Calculate the payout, add it to the user's total paid out accounting...\r\n        payoutsOf_[_user] += (int256) (_dividends * magnitude);\r\n        \r\n        // Pay the user their tokens to their wallet\r\n        stakingToken.transfer(_user,_dividends);\r\n\r\n        // Update accounting for user/total withdrawal stats...\r\n        accountOf_[_user].withdrawn = SafeMath.add(accountOf_[_user].withdrawn, _dividends);\r\n        accountOf_[_user].xWithdrawn += 1;\r\n        \r\n        // Update total Tx's and claims stats\r\n        totalTxs += 1;\r\n        totalClaims += _dividends;\r\n\r\n        // Tell the network...\r\n        emit onWithdraw(_user, _dividends, block.timestamp);\r\n\r\n        // Trigger a distribution for everyone, kind soul!\r\n        distribute();\r\n    }\r\n\r\n    // Withdraw\r\n    function withdraw(uint256 _amount) onlyHolders public {\r\n        address _user = msg.sender;\r\n        require(_amount <= balanceOf_[_user]);\r\n        \r\n        // Calculate dividends and 'shares' (tokens)\r\n        uint256 _undividedDividends = SafeMath.mul(_amount, divsFee) / 100;\r\n        uint256 _taxedTokens = SafeMath.sub(_amount, _undividedDividends);\r\n\r\n        // Subtract amounts from user and totals...\r\n        currentTotalStaked = SafeMath.sub(currentTotalStaked, _amount);\r\n        balanceOf_[_user] = SafeMath.sub(balanceOf_[_user], _amount);\r\n\r\n        // Update the payment ratios for the user and everyone else...\r\n        int256 _updatedPayouts = (int256) (profitPerShare_ * _amount + (_taxedTokens * magnitude));\r\n        payoutsOf_[_user] -= _updatedPayouts;\r\n\r\n        // Serve dividends between the drip and instant divs (4:1)...\r\n        allocateFees(_undividedDividends);\r\n        \r\n        // Tell the network, and trigger a distribution\r\n        emit onWithdraw( _user, _amount, _taxedTokens, block.timestamp);\r\n        \r\n        // Update the leaderboard...\r\n        emit onUpdate(_user, accountOf_[_user].deposited, balanceOf_[_user], accountOf_[_user].withdrawn, block.timestamp);\r\n        \r\n        // Trigger a distribution for everyone, kind soul!\r\n        distribute();\r\n    }\r\n\r\n    // Transfer\r\n    function transfer(address _to, uint256 _amount) onlyHolders external returns (bool) {\r\n        return _transferTokens(_to, _amount);\r\n    }\r\n    \r\n    ////////////////////////////////////\r\n    // VIEW FUNCTIONS                 //\r\n    ////////////////////////////////////\r\n\r\n    function myTokens() public view returns (uint256) {return balanceOf(msg.sender);}\r\n    function myEarnings() public view returns (uint256) {return dividendsOf(msg.sender);}\r\n\r\n    function balanceOf(address _user) public view returns (uint256) {return balanceOf_[_user];}\r\n    function tokenBalance(address _user) public view returns (uint256) {return _user.balance;}\r\n    function totalBalance() public view returns (uint256) {return stakingToken.balanceOf(address(this));}\r\n    function totalSupply() public view returns (uint256) {return currentTotalStaked;}\r\n    \r\n    function dividendsOf(address _user) public view returns (uint256) {\r\n        return (uint256) ((int256) (profitPerShare_ * balanceOf_[_user]) - payoutsOf_[_user]) / magnitude;\r\n    }\r\n\r\n    function sellPrice() public pure returns (uint256) {\r\n        uint256 _tokens = 1e18;\r\n        uint256 _dividends = SafeMath.div(SafeMath.mul(_tokens, divsFee), 100);\r\n        uint256 _taxedTokens = SafeMath.sub(_tokens, _dividends);\r\n        return _taxedTokens;\r\n    }\r\n\r\n    function buyPrice() public pure returns (uint256) {\r\n        uint256 _tokens = 1e18;\r\n        uint256 _dividends = SafeMath.div(SafeMath.mul(_tokens, divsFee), 100);\r\n        uint256 _taxedTokens = SafeMath.add(_tokens, _dividends);\r\n        return _taxedTokens;\r\n    }\r\n\r\n    function calculateSharesReceived(uint256 _amount) public pure returns (uint256) {\r\n        uint256 _divies = SafeMath.div(SafeMath.mul(_amount, divsFee), 100);\r\n        uint256 _remains = SafeMath.sub(_amount, _divies);\r\n        uint256 _result = _remains;\r\n        return  _result;\r\n    }\r\n\r\n    function calculateTokensReceived(uint256 _amount) public view returns (uint256) {\r\n        require(_amount <= currentTotalStaked);\r\n        uint256 _tokens  = _amount;\r\n        uint256 _divies  = SafeMath.div(SafeMath.mul(_tokens, divsFee), 100);\r\n        uint256 _remains = SafeMath.sub(_tokens, _divies);\r\n        return _remains;\r\n    }\r\n\r\n    function accountOf(address _user) public view returns (uint256[14] memory){\r\n        Account memory a = accountOf_[_user];\r\n        uint256[14] memory accountArray = [\r\n            a.deposited, \r\n            a.withdrawn, \r\n            a.rewarded, \r\n            a.compounded,\r\n            a.contributed, \r\n            a.transferredShares, \r\n            a.receivedShares, \r\n            a.xInvested, \r\n            a.xRewarded, \r\n            a.xContributed, \r\n            a.xWithdrawn, \r\n            a.xTransferredShares, \r\n            a.xReceivedShares, \r\n            a.xCompounded\r\n        ];\r\n        return accountArray;\r\n    }\r\n\r\n    function dailyEstimate(address _user) public view returns (uint256) {\r\n        uint256 share = dripPoolBalance.mul(dripRate).div(100);\r\n        return (currentTotalStaked > 0) ? share.mul(balanceOf_[_user]).div(currentTotalStaked) : 0;\r\n    }\r\n\r\n    /////////////////////////////////\r\n    // PUBLIC OWNER-ONLY FUNCTIONS //\r\n    /////////////////////////////////\r\n    \r\n    function setFeeSplit(uint256 _pool, uint256 _divs) public onlyOwner returns (bool _success) {\r\n        \r\n        require(_pool.add(_divs) == 10, \"TEN_PORTIONS_REQUIRE_DIVISION\");\r\n        \r\n        // Set the new values...\r\n        forPool = _pool;\r\n        forDivs = _divs;\r\n        \r\n        // Tell the network, successful function!\r\n        emit onSetFeeSplit(_pool, _divs, block.timestamp);\r\n        return true;\r\n    }\r\n\r\n    ////////////////////////////////////\r\n    // PRIVATE / INTERNAL FUNCTIONS   //\r\n    ////////////////////////////////////\r\n\r\n    // Allocate fees (private method)\r\n    function allocateFees(uint fee) private {\r\n        uint256 _onePiece = fee.div(10);\r\n        \r\n        uint256 _forPool = (_onePiece.mul(forPool)); // for the Drip Pool\r\n        uint256 _forDivs = (_onePiece.mul(forDivs)); // for Instant Divs\r\n        \r\n        dripPoolBalance = dripPoolBalance.add(_forPool);\r\n        \r\n        // If there's more than 0 tokens staked in the vault...\r\n        if (currentTotalStaked > 0) {\r\n            \r\n            // Distribute those instant divs...\r\n            profitPerShare_ = SafeMath.add(profitPerShare_, (_forDivs * magnitude) / currentTotalStaked);\r\n        } else {\r\n            // Otherwise add the divs portion to the drip pool balance.\r\n            dripPoolBalance += _forDivs;\r\n        }\r\n    }\r\n    \r\n    // Distribute (private method)\r\n    function distribute() private {\r\n        \r\n        uint _currentTimestamp = (block.timestamp);\r\n        \r\n        // Log a rebase, if it's time to do so...\r\n        if (_currentTimestamp.safeSub(lastRebaseTime) > rebaseFrequency) {\r\n            \r\n            // Tell the network...\r\n            emit onRebase(totalBalance(), _currentTimestamp);\r\n            \r\n            // Update the time this was last updated...\r\n            lastRebaseTime = _currentTimestamp;\r\n        }\r\n\r\n        // If there's any time difference...\r\n        if (SafeMath.safeSub(_currentTimestamp, lastPayout) > payoutFrequency && currentTotalStaked > 0) {\r\n            \r\n            // Calculate shares and profits...\r\n            uint256 share = dripPoolBalance.mul(dripRate).div(100).div(24 hours);\r\n            uint256 profit = share * _currentTimestamp.safeSub(lastPayout);\r\n            \r\n            // Subtract from drip pool balance and add to all user earnings\r\n            dripPoolBalance = dripPoolBalance.safeSub(profit);\r\n            profitPerShare_ = SafeMath.add(profitPerShare_, (profit * magnitude) / currentTotalStaked);\r\n            \r\n            // Update the last payout timestamp\r\n            lastPayout = _currentTimestamp;\r\n        }\r\n    }\r\n    \r\n    // Deposit Tokens (internal method)\r\n    function _depositTokens(address _recipient, uint256 _amount) internal returns (uint256) {\r\n        \r\n        // If the recipient has zero activity, they're new - COUNT THEM!!!\r\n        if (accountOf_[_recipient].deposited == 0 && accountOf_[_recipient].receivedShares == 0) {\r\n            users += 1;\r\n        }\r\n\r\n        // Count this tx...\r\n        totalTxs += 1;\r\n\r\n        // Calculate dividends and 'shares' (tokens)\r\n        uint256 _undividedDividends = SafeMath.mul(_amount, divsFee) / 100;\r\n        uint256 _tokens = SafeMath.sub(_amount, _undividedDividends);\r\n        \r\n        // Tell the network...\r\n        emit onDeposit(_recipient, _amount, _tokens, block.timestamp);\r\n\r\n        // There needs to be something being added in this call...\r\n        require(_tokens > 0 && SafeMath.add(_tokens, currentTotalStaked) > currentTotalStaked);\r\n        if (currentTotalStaked > 0) {\r\n            currentTotalStaked += _tokens;\r\n        } else {\r\n            currentTotalStaked = _tokens;\r\n        }\r\n        \r\n        // Allocate fees, and balance to the recipient\r\n        allocateFees(_undividedDividends);\r\n        balanceOf_[_recipient] = SafeMath.add(balanceOf_[_recipient], _tokens);\r\n        \r\n        // Updated payouts...\r\n        int256 _updatedPayouts = (int256) (profitPerShare_ * _tokens);\r\n        \r\n        // Update stats...\r\n        payoutsOf_[_recipient] += _updatedPayouts;\r\n        accountOf_[_recipient].deposited += _amount;\r\n        accountOf_[_recipient].xInvested += 1;\r\n\r\n        // Successful function - how many \"shares\" generated?\r\n        return _tokens;\r\n    }\r\n    \r\n    // Compound (internal method)\r\n    function _compoundTokens() internal returns (uint256) {\r\n        address _user = msg.sender;\r\n        \r\n        // Quickly roll the caller's earnings into their payouts\r\n        uint256 _dividends = dividendsOf(_user);\r\n        payoutsOf_[_user] += (int256) (_dividends * magnitude);\r\n        \r\n        // Then actually trigger the deposit method\r\n        // (NOTE: No tokens required here, earnings are tokens already within the contract)\r\n        uint256 _tokens = _depositTokens(msg.sender, _dividends);\r\n        \r\n        // Tell the network...\r\n        emit onCompound(_user, _dividends, _tokens, block.timestamp);\r\n\r\n        // Then update the stats...\r\n        accountOf_[_user].compounded = SafeMath.add(accountOf_[_user].compounded, _dividends);\r\n        accountOf_[_user].xCompounded += 1;\r\n        \r\n        // Update the leaderboard...\r\n        emit onUpdate(_user, accountOf_[_user].deposited, balanceOf_[_user], accountOf_[_user].withdrawn, block.timestamp);\r\n        \r\n        // Then trigger a distribution for everyone, you kind soul!\r\n        distribute();\r\n        \r\n        // Successful function!\r\n        return _tokens;\r\n    }\r\n    \r\n    // Transfer Tokens (internal method)\r\n    function _transferTokens(address _recipient, uint256 _amount) internal returns (bool _success) {\r\n        address _sender = msg.sender;\r\n        require(_amount <= balanceOf_[_sender]);\r\n        \r\n        // Harvest any earnings before transferring, to help with cleaner accounting\r\n        if (myEarnings() > 0) {\r\n            harvest();\r\n        }\r\n        \r\n        // \"Move\" the tokens...\r\n        balanceOf_[_sender] = SafeMath.sub(balanceOf_[_sender], _amount);\r\n        balanceOf_[_recipient] = SafeMath.add(balanceOf_[_recipient], _amount);\r\n\r\n        // Adjust payout ratios to match the new balances...\r\n        payoutsOf_[_sender] -= (int256) (profitPerShare_ * _amount);\r\n        payoutsOf_[_recipient] += (int256) (profitPerShare_ * _amount);\r\n\r\n        // If the recipient has zero activity, they're new - COUNT THEM!!!\r\n        if (accountOf_[_recipient].deposited == 0 && accountOf_[_recipient].receivedShares == 0) {\r\n            users += 1;\r\n        }\r\n        \r\n        // Update stats...\r\n        accountOf_[_sender].xTransferredShares += 1;\r\n        accountOf_[_sender].transferredShares += _amount;\r\n        accountOf_[_recipient].receivedShares += _amount;\r\n        accountOf_[_recipient].xReceivedShares += 1;\r\n        \r\n        // Add this to the Tx counter...\r\n        totalTxs += 1;\r\n\r\n        // Tell the network, successful function!\r\n        emit onTransfer(_sender, _recipient, _amount, block.timestamp);\r\n        \r\n        // Update the leaderboard for sender...\r\n        emit onUpdate(_sender, accountOf_[_sender].deposited, balanceOf_[_sender], accountOf_[_sender].withdrawn, block.timestamp);\r\n        \r\n        // Update the leaderboard for recipient...\r\n        emit onUpdate(_recipient, accountOf_[_recipient].deposited, balanceOf_[_recipient], accountOf_[_recipient].withdrawn, block.timestamp);\r\n        \r\n        return true;\r\n    }\r\n}",
  "sourcePath": "G:/projects/degen-protocol/SH33P-contracts/contracts/Vault.sol",
  "compiler": {
    "name": "solc",
    "version": "0.7.4+commit.3f05b770.Emscripten.clang"
  },
  "schemaVersion": "3.4.1",
  "updatedAt": "2022-01-17T07:34:42.696Z",
  "devdoc": {
    "kind": "dev",
    "methods": {
      "owner()": {
        "details": "Returns the address of the current owner."
      },
      "renounceOwnership()": {
        "details": "Leaves the contract without owner. It will not be possible to call `onlyOwner` functions anymore. Can only be called by the current owner. NOTE: Renouncing ownership will leave the contract without an owner, thereby removing any functionality that is only available to the owner."
      },
      "transferOwnership(address)": {
        "details": "Transfers ownership of the contract to a new account (`newOwner`). Can only be called by the current owner."
      }
    },
    "version": 1
  },
  "userdoc": {
    "kind": "user",
    "methods": {},
    "version": 1
  }
}